{"contracts/BusinessCardMarketplace.sol":{"BusinessCardMarketplace":{"abi":[{"inputs":[],"name":"BusinessCardMarketplace__AlreadyListed","type":"error"},{"inputs":[],"name":"BusinessCardMarketplace__ApproveNotCleared","type":"error"},{"inputs":[],"name":"BusinessCardMarketplace__InvalidPrice","type":"error"},{"inputs":[],"name":"BusinessCardMarketplace__NotApproved","type":"error"},{"inputs":[],"name":"BusinessCardMarketplace__NotListed","type":"error"},{"inputs":[],"name":"BusinessCardMarketplace__OnlyOwner","type":"error"},{"anonymous":false,"inputs":[{"indexed":true,"internalType":"uint256","name":"cardId","type":"uint256"},{"indexed":true,"internalType":"address","name":"buyer","type":"address"},{"indexed":true,"internalType":"address","name":"seller","type":"address"},{"indexed":false,"internalType":"uint256","name":"price","type":"uint256"}],"name":"ListingBought","type":"event"},{"anonymous":false,"inputs":[{"indexed":true,"internalType":"uint256","name":"cardId","type":"uint256"},{"indexed":false,"internalType":"uint256","name":"price","type":"uint256"},{"indexed":true,"internalType":"address","name":"seller","type":"address"}],"name":"ListingListed","type":"event"},{"anonymous":false,"inputs":[{"indexed":true,"internalType":"uint256","name":"cardId","type":"uint256"},{"indexed":true,"internalType":"address","name":"seller","type":"address"}],"name":"ListingRemoved","type":"event"},{"inputs":[{"internalType":"address","name":"_nftAddress","type":"address"},{"internalType":"uint256","name":"_cardId","type":"uint256"}],"name":"buyCard","outputs":[],"stateMutability":"payable","type":"function"},{"inputs":[{"internalType":"address","name":"_nftAddress","type":"address"},{"internalType":"uint256","name":"_price","type":"uint256"},{"internalType":"uint256","name":"_cardId","type":"uint256"}],"name":"createListing","outputs":[],"stateMutability":"nonpayable","type":"function"},{"inputs":[{"internalType":"address","name":"_nftAddress","type":"address"},{"internalType":"uint256","name":"_cardId","type":"uint256"}],"name":"removeListing","outputs":[],"stateMutability":"nonpayable","type":"function"},{"inputs":[{"internalType":"address","name":"_nftAddress","type":"address"},{"internalType":"uint256","name":"_cardId","type":"uint256"},{"internalType":"uint256","name":"_price","type":"uint256"}],"name":"updateListing","outputs":[],"stateMutability":"nonpayable","type":"function"}],"devdoc":{"kind":"dev","methods":{},"version":1},"evm":{"bytecode":{"linkReferences":{},"object":"608060405234801561001057600080fd5b50611373806100206000396000f3fe60806040526004361061003f5760003560e01c806324780c561461004457806359edbe711461006d5780637dd9f84614610096578063f772adf1146100b2575b600080fd5b34801561005057600080fd5b5061006b600480360381019061006691906111e2565b6100db565b005b34801561007957600080fd5b50610094600480360381019061008f91906111a2565b6105d4565b005b6100b060048036038101906100ab91906111a2565b610a2c565b005b3480156100be57600080fd5b506100d960048036038101906100d491906111e2565b610e26565b005b82813373ffffffffffffffffffffffffffffffffffffffff168273ffffffffffffffffffffffffffffffffffffffff16636352211e836040518263ffffffff1660e01b815260040161012d91906112b3565b60206040518083038186803b15801561014557600080fd5b505afa158015610159573d6000803e3d6000fd5b505050506040513d601f19601f8201168201806040525081019061017d9190611175565b73ffffffffffffffffffffffffffffffffffffffff16146101ca576040517f59bd4d1b00000000000000000000000000000000000000000000000000000000815260040160405180910390fd5b8483600073ffffffffffffffffffffffffffffffffffffffff166000808473ffffffffffffffffffffffffffffffffffffffff1673ffffffffffffffffffffffffffffffffffffffff168152602001908152602001600020600083815260200190815260200160002060020160009054906101000a900473ffffffffffffffffffffffffffffffffffffffff1673ffffffffffffffffffffffffffffffffffffffff161415806102cd575060008060008473ffffffffffffffffffffffffffffffffffffffff1673ffffffffffffffffffffffffffffffffffffffff16815260200190815260200160002060008381526020019081526020016000206001015414155b15610304576040517f5197cefd00000000000000000000000000000000000000000000000000000000815260040160405180910390fd5b6000861161033e576040517f54b036a000000000000000000000000000000000000000000000000000000000815260040160405180910390fd5b8673ffffffffffffffffffffffffffffffffffffffff1663095ea7b330876040518363ffffffff1660e01b815260040161037992919061128a565b600060405180830381600087803b15801561039357600080fd5b505af11580156103a7573d6000803e3d6000fd5b505050503073ffffffffffffffffffffffffffffffffffffffff168773ffffffffffffffffffffffffffffffffffffffff1663081812fc876040518263ffffffff1660e01b81526004016103fb91906112b3565b60206040518083038186803b15801561041357600080fd5b505afa158015610427573d6000803e3d6000fd5b505050506040513d601f19601f8201168201806040525081019061044b9190611175565b73ffffffffffffffffffffffffffffffffffffffff1614610498576040517fe45ac74b00000000000000000000000000000000000000000000000000000000815260040160405180910390fd5b600060405180606001604052808781526020018881526020013373ffffffffffffffffffffffffffffffffffffffff168152509050806000803373ffffffffffffffffffffffffffffffffffffffff1673ffffffffffffffffffffffffffffffffffffffff1681526020019081526020016000206000888152602001908152602001600020600082015181600001556020820151816001015560408201518160020160006101000a81548173ffffffffffffffffffffffffffffffffffffffff021916908373ffffffffffffffffffffffffffffffffffffffff1602179055509050503373ffffffffffffffffffffffffffffffffffffffff16867f5c10eb54e7b66711529cfcc35f98f53c3aeaa6dc143c27e0381d0fd913213229896040516105c291906112b3565b60405180910390a35050505050505050565b81813373ffffffffffffffffffffffffffffffffffffffff168273ffffffffffffffffffffffffffffffffffffffff16636352211e836040518263ffffffff1660e01b815260040161062691906112b3565b60206040518083038186803b15801561063e57600080fd5b505afa158015610652573d6000803e3d6000fd5b505050506040513d601f19601f820116820180604052508101906106769190611175565b73ffffffffffffffffffffffffffffffffffffffff16146106c3576040517f59bd4d1b00000000000000000000000000000000000000000000000000000000815260040160405180910390fd5b8383600073ffffffffffffffffffffffffffffffffffffffff166000808473ffffffffffffffffffffffffffffffffffffffff1673ffffffffffffffffffffffffffffffffffffffff168152602001908152602001600020600083815260200190815260200160002060020160009054906101000a900473ffffffffffffffffffffffffffffffffffffffff1673ffffffffffffffffffffffffffffffffffffffff1614806107c4575060008060008473ffffffffffffffffffffffffffffffffffffffff1673ffffffffffffffffffffffffffffffffffffffff168152602001908152602001600020600083815260200190815260200160002060010154145b156107fb576040517fffeb22e200000000000000000000000000000000000000000000000000000000815260040160405180910390fd5b8573ffffffffffffffffffffffffffffffffffffffff1663095ea7b36000876040518363ffffffff1660e01b815260040161083792919061128a565b600060405180830381600087803b15801561085157600080fd5b505af1158015610865573d6000803e3d6000fd5b50505050600073ffffffffffffffffffffffffffffffffffffffff168673ffffffffffffffffffffffffffffffffffffffff1663081812fc876040518263ffffffff1660e01b81526004016108ba91906112b3565b60206040518083038186803b1580156108d257600080fd5b505afa1580156108e6573d6000803e3d6000fd5b505050506040513d601f19601f8201168201806040525081019061090a9190611175565b73ffffffffffffffffffffffffffffffffffffffff1614610957576040517ff198223e00000000000000000000000000000000000000000000000000000000815260040160405180910390fd5b6000803373ffffffffffffffffffffffffffffffffffffffff1673ffffffffffffffffffffffffffffffffffffffff168152602001908152602001600020600086815260200190815260200160002060008082016000905560018201600090556002820160006101000a81549073ffffffffffffffffffffffffffffffffffffffff021916905550503373ffffffffffffffffffffffffffffffffffffffff16857f58b0852506006c4be6c7ae72afcd195d9e64d7f5d8947905e914b778e47b7cf360405160405180910390a3505050505050565b8181600073ffffffffffffffffffffffffffffffffffffffff166000808473ffffffffffffffffffffffffffffffffffffffff1673ffffffffffffffffffffffffffffffffffffffff168152602001908152602001600020600083815260200190815260200160002060020160009054906101000a900473ffffffffffffffffffffffffffffffffffffffff1673ffffffffffffffffffffffffffffffffffffffff161480610b2d575060008060008473ffffffffffffffffffffffffffffffffffffffff1673ffffffffffffffffffffffffffffffffffffffff168152602001908152602001600020600083815260200190815260200160002060010154145b15610b64576040517fffeb22e200000000000000000000000000000000000000000000000000000000815260040160405180910390fd5b60008060008673ffffffffffffffffffffffffffffffffffffffff1673ffffffffffffffffffffffffffffffffffffffff168152602001908152602001600020600085815260200190815260200160002060405180606001604052908160008201548152602001600182015481526020016002820160009054906101000a900473ffffffffffffffffffffffffffffffffffffffff1673ffffffffffffffffffffffffffffffffffffffff1673ffffffffffffffffffffffffffffffffffffffff168152505090508060200151341015610c6a576040517f54b036a000000000000000000000000000000000000000000000000000000000815260040160405180910390fd5b806040015173ffffffffffffffffffffffffffffffffffffffff166108fc349081150290604051600060405180830381858888f19350505050158015610cb4573d6000803e3d6000fd5b508473ffffffffffffffffffffffffffffffffffffffff166342842e0e826040015133876040518463ffffffff1660e01b8152600401610cf693929190611253565b600060405180830381600087803b158015610d1057600080fd5b505af1158015610d24573d6000803e3d6000fd5b505050506000808673ffffffffffffffffffffffffffffffffffffffff1673ffffffffffffffffffffffffffffffffffffffff168152602001908152602001600020600085815260200190815260200160002060008082016000905560018201600090556002820160006101000a81549073ffffffffffffffffffffffffffffffffffffffff02191690555050806040015173ffffffffffffffffffffffffffffffffffffffff163373ffffffffffffffffffffffffffffffffffffffff16857facc22b2c51e2c9b31c108c993cebdcd72470cf6f43ed3f5590daf770462332558460200151604051610e1791906112b3565b60405180910390a45050505050565b82823373ffffffffffffffffffffffffffffffffffffffff168273ffffffffffffffffffffffffffffffffffffffff16636352211e836040518263ffffffff1660e01b8152600401610e7891906112b3565b60206040518083038186803b158015610e9057600080fd5b505afa158015610ea4573d6000803e3d6000fd5b505050506040513d601f19601f82011682018060405250810190610ec89190611175565b73ffffffffffffffffffffffffffffffffffffffff1614610f15576040517f59bd4d1b00000000000000000000000000000000000000000000000000000000815260040160405180910390fd5b8484600073ffffffffffffffffffffffffffffffffffffffff166000808473ffffffffffffffffffffffffffffffffffffffff1673ffffffffffffffffffffffffffffffffffffffff168152602001908152602001600020600083815260200190815260200160002060020160009054906101000a900473ffffffffffffffffffffffffffffffffffffffff1673ffffffffffffffffffffffffffffffffffffffff161480611016575060008060008473ffffffffffffffffffffffffffffffffffffffff1673ffffffffffffffffffffffffffffffffffffffff168152602001908152602001600020600083815260200190815260200160002060010154145b1561104d576040517fffeb22e200000000000000000000000000000000000000000000000000000000815260040160405180910390fd5b60008511611087576040517f54b036a000000000000000000000000000000000000000000000000000000000815260040160405180910390fd5b846000808973ffffffffffffffffffffffffffffffffffffffff1673ffffffffffffffffffffffffffffffffffffffff1681526020019081526020016000206000888152602001908152602001600020600101819055503373ffffffffffffffffffffffffffffffffffffffff16867f5c10eb54e7b66711529cfcc35f98f53c3aeaa6dc143c27e0381d0fd9132132298760405161112591906112b3565b60405180910390a350505050505050565b6000813590506111458161130f565b92915050565b60008151905061115a8161130f565b92915050565b60008135905061116f81611326565b92915050565b60006020828403121561118b5761118a61130a565b5b60006111998482850161114b565b91505092915050565b600080604083850312156111b9576111b861130a565b5b60006111c785828601611136565b92505060206111d885828601611160565b9150509250929050565b6000806000606084860312156111fb576111fa61130a565b5b600061120986828701611136565b935050602061121a86828701611160565b925050604061122b86828701611160565b9150509250925092565b61123e816112ce565b82525050565b61124d81611300565b82525050565b60006060820190506112686000830186611235565b6112756020830185611235565b6112826040830184611244565b949350505050565b600060408201905061129f6000830185611235565b6112ac6020830184611244565b9392505050565b60006020820190506112c86000830184611244565b92915050565b60006112d9826112e0565b9050919050565b600073ffffffffffffffffffffffffffffffffffffffff82169050919050565b6000819050919050565b600080fd5b611318816112ce565b811461132357600080fd5b50565b61132f81611300565b811461133a57600080fd5b5056fea26469706673582212209ce8a6e19a928a957ac3634dacda77c05bc56a10a9907595b59942eba31e198364736f6c63430008070033","opcodes":"PUSH1 0x80 PUSH1 0x40 MSTORE CALLVALUE DUP1 ISZERO PUSH2 0x10 JUMPI PUSH1 0x0 DUP1 REVERT JUMPDEST POP PUSH2 0x1373 DUP1 PUSH2 0x20 PUSH1 0x0 CODECOPY PUSH1 0x0 RETURN INVALID PUSH1 0x80 PUSH1 0x40 MSTORE PUSH1 0x4 CALLDATASIZE LT PUSH2 0x3F JUMPI PUSH1 0x0 CALLDATALOAD PUSH1 0xE0 SHR DUP1 PUSH4 0x24780C56 EQ PUSH2 0x44 JUMPI DUP1 PUSH4 0x59EDBE71 EQ PUSH2 0x6D JUMPI DUP1 PUSH4 0x7DD9F846 EQ PUSH2 0x96 JUMPI DUP1 PUSH4 0xF772ADF1 EQ PUSH2 0xB2 JUMPI JUMPDEST PUSH1 0x0 DUP1 REVERT JUMPDEST CALLVALUE DUP1 ISZERO PUSH2 0x50 JUMPI PUSH1 0x0 DUP1 REVERT JUMPDEST POP PUSH2 0x6B PUSH1 0x4 DUP1 CALLDATASIZE SUB DUP2 ADD SWAP1 PUSH2 0x66 SWAP2 SWAP1 PUSH2 0x11E2 JUMP JUMPDEST PUSH2 0xDB JUMP JUMPDEST STOP JUMPDEST CALLVALUE DUP1 ISZERO PUSH2 0x79 JUMPI PUSH1 0x0 DUP1 REVERT JUMPDEST POP PUSH2 0x94 PUSH1 0x4 DUP1 CALLDATASIZE SUB DUP2 ADD SWAP1 PUSH2 0x8F SWAP2 SWAP1 PUSH2 0x11A2 JUMP JUMPDEST PUSH2 0x5D4 JUMP JUMPDEST STOP JUMPDEST PUSH2 0xB0 PUSH1 0x4 DUP1 CALLDATASIZE SUB DUP2 ADD SWAP1 PUSH2 0xAB SWAP2 SWAP1 PUSH2 0x11A2 JUMP JUMPDEST PUSH2 0xA2C JUMP JUMPDEST STOP JUMPDEST CALLVALUE DUP1 ISZERO PUSH2 0xBE JUMPI PUSH1 0x0 DUP1 REVERT JUMPDEST POP PUSH2 0xD9 PUSH1 0x4 DUP1 CALLDATASIZE SUB DUP2 ADD SWAP1 PUSH2 0xD4 SWAP2 SWAP1 PUSH2 0x11E2 JUMP JUMPDEST PUSH2 0xE26 JUMP JUMPDEST STOP JUMPDEST DUP3 DUP2 CALLER PUSH20 0xFFFFFFFFFFFFFFFFFFFFFFFFFFFFFFFFFFFFFFFF AND DUP3 PUSH20 0xFFFFFFFFFFFFFFFFFFFFFFFFFFFFFFFFFFFFFFFF AND PUSH4 0x6352211E DUP4 PUSH1 0x40 MLOAD DUP3 PUSH4 0xFFFFFFFF AND PUSH1 0xE0 SHL DUP2 MSTORE PUSH1 0x4 ADD PUSH2 0x12D SWAP2 SWAP1 PUSH2 0x12B3 JUMP JUMPDEST PUSH1 0x20 PUSH1 0x40 MLOAD DUP1 DUP4 SUB DUP2 DUP7 DUP1 EXTCODESIZE ISZERO DUP1 ISZERO PUSH2 0x145 JUMPI PUSH1 0x0 DUP1 REVERT JUMPDEST POP GAS STATICCALL ISZERO DUP1 ISZERO PUSH2 0x159 JUMPI RETURNDATASIZE PUSH1 0x0 DUP1 RETURNDATACOPY RETURNDATASIZE PUSH1 0x0 REVERT JUMPDEST POP POP POP POP PUSH1 0x40 MLOAD RETURNDATASIZE PUSH1 0x1F NOT PUSH1 0x1F DUP3 ADD AND DUP3 ADD DUP1 PUSH1 0x40 MSTORE POP DUP2 ADD SWAP1 PUSH2 0x17D SWAP2 SWAP1 PUSH2 0x1175 JUMP JUMPDEST PUSH20 0xFFFFFFFFFFFFFFFFFFFFFFFFFFFFFFFFFFFFFFFF AND EQ PUSH2 0x1CA JUMPI PUSH1 0x40 MLOAD PUSH32 0x59BD4D1B00000000000000000000000000000000000000000000000000000000 DUP2 MSTORE PUSH1 0x4 ADD PUSH1 0x40 MLOAD DUP1 SWAP2 SUB SWAP1 REVERT JUMPDEST DUP5 DUP4 PUSH1 0x0 PUSH20 0xFFFFFFFFFFFFFFFFFFFFFFFFFFFFFFFFFFFFFFFF AND PUSH1 0x0 DUP1 DUP5 PUSH20 0xFFFFFFFFFFFFFFFFFFFFFFFFFFFFFFFFFFFFFFFF AND PUSH20 0xFFFFFFFFFFFFFFFFFFFFFFFFFFFFFFFFFFFFFFFF AND DUP2 MSTORE PUSH1 0x20 ADD SWAP1 DUP2 MSTORE PUSH1 0x20 ADD PUSH1 0x0 KECCAK256 PUSH1 0x0 DUP4 DUP2 MSTORE PUSH1 0x20 ADD SWAP1 DUP2 MSTORE PUSH1 0x20 ADD PUSH1 0x0 KECCAK256 PUSH1 0x2 ADD PUSH1 0x0 SWAP1 SLOAD SWAP1 PUSH2 0x100 EXP SWAP1 DIV PUSH20 0xFFFFFFFFFFFFFFFFFFFFFFFFFFFFFFFFFFFFFFFF AND PUSH20 0xFFFFFFFFFFFFFFFFFFFFFFFFFFFFFFFFFFFFFFFF AND EQ ISZERO DUP1 PUSH2 0x2CD JUMPI POP PUSH1 0x0 DUP1 PUSH1 0x0 DUP5 PUSH20 0xFFFFFFFFFFFFFFFFFFFFFFFFFFFFFFFFFFFFFFFF AND PUSH20 0xFFFFFFFFFFFFFFFFFFFFFFFFFFFFFFFFFFFFFFFF AND DUP2 MSTORE PUSH1 0x20 ADD SWAP1 DUP2 MSTORE PUSH1 0x20 ADD PUSH1 0x0 KECCAK256 PUSH1 0x0 DUP4 DUP2 MSTORE PUSH1 0x20 ADD SWAP1 DUP2 MSTORE PUSH1 0x20 ADD PUSH1 0x0 KECCAK256 PUSH1 0x1 ADD SLOAD EQ ISZERO JUMPDEST ISZERO PUSH2 0x304 JUMPI PUSH1 0x40 MLOAD PUSH32 0x5197CEFD00000000000000000000000000000000000000000000000000000000 DUP2 MSTORE PUSH1 0x4 ADD PUSH1 0x40 MLOAD DUP1 SWAP2 SUB SWAP1 REVERT JUMPDEST PUSH1 0x0 DUP7 GT PUSH2 0x33E JUMPI PUSH1 0x40 MLOAD PUSH32 0x54B036A000000000000000000000000000000000000000000000000000000000 DUP2 MSTORE PUSH1 0x4 ADD PUSH1 0x40 MLOAD DUP1 SWAP2 SUB SWAP1 REVERT JUMPDEST DUP7 PUSH20 0xFFFFFFFFFFFFFFFFFFFFFFFFFFFFFFFFFFFFFFFF AND PUSH4 0x95EA7B3 ADDRESS DUP8 PUSH1 0x40 MLOAD DUP4 PUSH4 0xFFFFFFFF AND PUSH1 0xE0 SHL DUP2 MSTORE PUSH1 0x4 ADD PUSH2 0x379 SWAP3 SWAP2 SWAP1 PUSH2 0x128A JUMP JUMPDEST PUSH1 0x0 PUSH1 0x40 MLOAD DUP1 DUP4 SUB DUP2 PUSH1 0x0 DUP8 DUP1 EXTCODESIZE ISZERO DUP1 ISZERO PUSH2 0x393 JUMPI PUSH1 0x0 DUP1 REVERT JUMPDEST POP GAS CALL ISZERO DUP1 ISZERO PUSH2 0x3A7 JUMPI RETURNDATASIZE PUSH1 0x0 DUP1 RETURNDATACOPY RETURNDATASIZE PUSH1 0x0 REVERT JUMPDEST POP POP POP POP ADDRESS PUSH20 0xFFFFFFFFFFFFFFFFFFFFFFFFFFFFFFFFFFFFFFFF AND DUP8 PUSH20 0xFFFFFFFFFFFFFFFFFFFFFFFFFFFFFFFFFFFFFFFF AND PUSH4 0x81812FC DUP8 PUSH1 0x40 MLOAD DUP3 PUSH4 0xFFFFFFFF AND PUSH1 0xE0 SHL DUP2 MSTORE PUSH1 0x4 ADD PUSH2 0x3FB SWAP2 SWAP1 PUSH2 0x12B3 JUMP JUMPDEST PUSH1 0x20 PUSH1 0x40 MLOAD DUP1 DUP4 SUB DUP2 DUP7 DUP1 EXTCODESIZE ISZERO DUP1 ISZERO PUSH2 0x413 JUMPI PUSH1 0x0 DUP1 REVERT JUMPDEST POP GAS STATICCALL ISZERO DUP1 ISZERO PUSH2 0x427 JUMPI RETURNDATASIZE PUSH1 0x0 DUP1 RETURNDATACOPY RETURNDATASIZE PUSH1 0x0 REVERT JUMPDEST POP POP POP POP PUSH1 0x40 MLOAD RETURNDATASIZE PUSH1 0x1F NOT PUSH1 0x1F DUP3 ADD AND DUP3 ADD DUP1 PUSH1 0x40 MSTORE POP DUP2 ADD SWAP1 PUSH2 0x44B SWAP2 SWAP1 PUSH2 0x1175 JUMP JUMPDEST PUSH20 0xFFFFFFFFFFFFFFFFFFFFFFFFFFFFFFFFFFFFFFFF AND EQ PUSH2 0x498 JUMPI PUSH1 0x40 MLOAD PUSH32 0xE45AC74B00000000000000000000000000000000000000000000000000000000 DUP2 MSTORE PUSH1 0x4 ADD PUSH1 0x40 MLOAD DUP1 SWAP2 SUB SWAP1 REVERT JUMPDEST PUSH1 0x0 PUSH1 0x40 MLOAD DUP1 PUSH1 0x60 ADD PUSH1 0x40 MSTORE DUP1 DUP8 DUP2 MSTORE PUSH1 0x20 ADD DUP9 DUP2 MSTORE PUSH1 0x20 ADD CALLER PUSH20 0xFFFFFFFFFFFFFFFFFFFFFFFFFFFFFFFFFFFFFFFF AND DUP2 MSTORE POP SWAP1 POP DUP1 PUSH1 0x0 DUP1 CALLER PUSH20 0xFFFFFFFFFFFFFFFFFFFFFFFFFFFFFFFFFFFFFFFF AND PUSH20 0xFFFFFFFFFFFFFFFFFFFFFFFFFFFFFFFFFFFFFFFF AND DUP2 MSTORE PUSH1 0x20 ADD SWAP1 DUP2 MSTORE PUSH1 0x20 ADD PUSH1 0x0 KECCAK256 PUSH1 0x0 DUP9 DUP2 MSTORE PUSH1 0x20 ADD SWAP1 DUP2 MSTORE PUSH1 0x20 ADD PUSH1 0x0 KECCAK256 PUSH1 0x0 DUP3 ADD MLOAD DUP2 PUSH1 0x0 ADD SSTORE PUSH1 0x20 DUP3 ADD MLOAD DUP2 PUSH1 0x1 ADD SSTORE PUSH1 0x40 DUP3 ADD MLOAD DUP2 PUSH1 0x2 ADD PUSH1 0x0 PUSH2 0x100 EXP DUP2 SLOAD DUP2 PUSH20 0xFFFFFFFFFFFFFFFFFFFFFFFFFFFFFFFFFFFFFFFF MUL NOT AND SWAP1 DUP4 PUSH20 0xFFFFFFFFFFFFFFFFFFFFFFFFFFFFFFFFFFFFFFFF AND MUL OR SWAP1 SSTORE POP SWAP1 POP POP CALLER PUSH20 0xFFFFFFFFFFFFFFFFFFFFFFFFFFFFFFFFFFFFFFFF AND DUP7 PUSH32 0x5C10EB54E7B66711529CFCC35F98F53C3AEAA6DC143C27E0381D0FD913213229 DUP10 PUSH1 0x40 MLOAD PUSH2 0x5C2 SWAP2 SWAP1 PUSH2 0x12B3 JUMP JUMPDEST PUSH1 0x40 MLOAD DUP1 SWAP2 SUB SWAP1 LOG3 POP POP POP POP POP POP POP POP JUMP JUMPDEST DUP2 DUP2 CALLER PUSH20 0xFFFFFFFFFFFFFFFFFFFFFFFFFFFFFFFFFFFFFFFF AND DUP3 PUSH20 0xFFFFFFFFFFFFFFFFFFFFFFFFFFFFFFFFFFFFFFFF AND PUSH4 0x6352211E DUP4 PUSH1 0x40 MLOAD DUP3 PUSH4 0xFFFFFFFF AND PUSH1 0xE0 SHL DUP2 MSTORE PUSH1 0x4 ADD PUSH2 0x626 SWAP2 SWAP1 PUSH2 0x12B3 JUMP JUMPDEST PUSH1 0x20 PUSH1 0x40 MLOAD DUP1 DUP4 SUB DUP2 DUP7 DUP1 EXTCODESIZE ISZERO DUP1 ISZERO PUSH2 0x63E JUMPI PUSH1 0x0 DUP1 REVERT JUMPDEST POP GAS STATICCALL ISZERO DUP1 ISZERO PUSH2 0x652 JUMPI RETURNDATASIZE PUSH1 0x0 DUP1 RETURNDATACOPY RETURNDATASIZE PUSH1 0x0 REVERT JUMPDEST POP POP POP POP PUSH1 0x40 MLOAD RETURNDATASIZE PUSH1 0x1F NOT PUSH1 0x1F DUP3 ADD AND DUP3 ADD DUP1 PUSH1 0x40 MSTORE POP DUP2 ADD SWAP1 PUSH2 0x676 SWAP2 SWAP1 PUSH2 0x1175 JUMP JUMPDEST PUSH20 0xFFFFFFFFFFFFFFFFFFFFFFFFFFFFFFFFFFFFFFFF AND EQ PUSH2 0x6C3 JUMPI PUSH1 0x40 MLOAD PUSH32 0x59BD4D1B00000000000000000000000000000000000000000000000000000000 DUP2 MSTORE PUSH1 0x4 ADD PUSH1 0x40 MLOAD DUP1 SWAP2 SUB SWAP1 REVERT JUMPDEST DUP4 DUP4 PUSH1 0x0 PUSH20 0xFFFFFFFFFFFFFFFFFFFFFFFFFFFFFFFFFFFFFFFF AND PUSH1 0x0 DUP1 DUP5 PUSH20 0xFFFFFFFFFFFFFFFFFFFFFFFFFFFFFFFFFFFFFFFF AND PUSH20 0xFFFFFFFFFFFFFFFFFFFFFFFFFFFFFFFFFFFFFFFF AND DUP2 MSTORE PUSH1 0x20 ADD SWAP1 DUP2 MSTORE PUSH1 0x20 ADD PUSH1 0x0 KECCAK256 PUSH1 0x0 DUP4 DUP2 MSTORE PUSH1 0x20 ADD SWAP1 DUP2 MSTORE PUSH1 0x20 ADD PUSH1 0x0 KECCAK256 PUSH1 0x2 ADD PUSH1 0x0 SWAP1 SLOAD SWAP1 PUSH2 0x100 EXP SWAP1 DIV PUSH20 0xFFFFFFFFFFFFFFFFFFFFFFFFFFFFFFFFFFFFFFFF AND PUSH20 0xFFFFFFFFFFFFFFFFFFFFFFFFFFFFFFFFFFFFFFFF AND EQ DUP1 PUSH2 0x7C4 JUMPI POP PUSH1 0x0 DUP1 PUSH1 0x0 DUP5 PUSH20 0xFFFFFFFFFFFFFFFFFFFFFFFFFFFFFFFFFFFFFFFF AND PUSH20 0xFFFFFFFFFFFFFFFFFFFFFFFFFFFFFFFFFFFFFFFF AND DUP2 MSTORE PUSH1 0x20 ADD SWAP1 DUP2 MSTORE PUSH1 0x20 ADD PUSH1 0x0 KECCAK256 PUSH1 0x0 DUP4 DUP2 MSTORE PUSH1 0x20 ADD SWAP1 DUP2 MSTORE PUSH1 0x20 ADD PUSH1 0x0 KECCAK256 PUSH1 0x1 ADD SLOAD EQ JUMPDEST ISZERO PUSH2 0x7FB JUMPI PUSH1 0x40 MLOAD PUSH32 0xFFEB22E200000000000000000000000000000000000000000000000000000000 DUP2 MSTORE PUSH1 0x4 ADD PUSH1 0x40 MLOAD DUP1 SWAP2 SUB SWAP1 REVERT JUMPDEST DUP6 PUSH20 0xFFFFFFFFFFFFFFFFFFFFFFFFFFFFFFFFFFFFFFFF AND PUSH4 0x95EA7B3 PUSH1 0x0 DUP8 PUSH1 0x40 MLOAD DUP4 PUSH4 0xFFFFFFFF AND PUSH1 0xE0 SHL DUP2 MSTORE PUSH1 0x4 ADD PUSH2 0x837 SWAP3 SWAP2 SWAP1 PUSH2 0x128A JUMP JUMPDEST PUSH1 0x0 PUSH1 0x40 MLOAD DUP1 DUP4 SUB DUP2 PUSH1 0x0 DUP8 DUP1 EXTCODESIZE ISZERO DUP1 ISZERO PUSH2 0x851 JUMPI PUSH1 0x0 DUP1 REVERT JUMPDEST POP GAS CALL ISZERO DUP1 ISZERO PUSH2 0x865 JUMPI RETURNDATASIZE PUSH1 0x0 DUP1 RETURNDATACOPY RETURNDATASIZE PUSH1 0x0 REVERT JUMPDEST POP POP POP POP PUSH1 0x0 PUSH20 0xFFFFFFFFFFFFFFFFFFFFFFFFFFFFFFFFFFFFFFFF AND DUP7 PUSH20 0xFFFFFFFFFFFFFFFFFFFFFFFFFFFFFFFFFFFFFFFF AND PUSH4 0x81812FC DUP8 PUSH1 0x40 MLOAD DUP3 PUSH4 0xFFFFFFFF AND PUSH1 0xE0 SHL DUP2 MSTORE PUSH1 0x4 ADD PUSH2 0x8BA SWAP2 SWAP1 PUSH2 0x12B3 JUMP JUMPDEST PUSH1 0x20 PUSH1 0x40 MLOAD DUP1 DUP4 SUB DUP2 DUP7 DUP1 EXTCODESIZE ISZERO DUP1 ISZERO PUSH2 0x8D2 JUMPI PUSH1 0x0 DUP1 REVERT JUMPDEST POP GAS STATICCALL ISZERO DUP1 ISZERO PUSH2 0x8E6 JUMPI RETURNDATASIZE PUSH1 0x0 DUP1 RETURNDATACOPY RETURNDATASIZE PUSH1 0x0 REVERT JUMPDEST POP POP POP POP PUSH1 0x40 MLOAD RETURNDATASIZE PUSH1 0x1F NOT PUSH1 0x1F DUP3 ADD AND DUP3 ADD DUP1 PUSH1 0x40 MSTORE POP DUP2 ADD SWAP1 PUSH2 0x90A SWAP2 SWAP1 PUSH2 0x1175 JUMP JUMPDEST PUSH20 0xFFFFFFFFFFFFFFFFFFFFFFFFFFFFFFFFFFFFFFFF AND EQ PUSH2 0x957 JUMPI PUSH1 0x40 MLOAD PUSH32 0xF198223E00000000000000000000000000000000000000000000000000000000 DUP2 MSTORE PUSH1 0x4 ADD PUSH1 0x40 MLOAD DUP1 SWAP2 SUB SWAP1 REVERT JUMPDEST PUSH1 0x0 DUP1 CALLER PUSH20 0xFFFFFFFFFFFFFFFFFFFFFFFFFFFFFFFFFFFFFFFF AND PUSH20 0xFFFFFFFFFFFFFFFFFFFFFFFFFFFFFFFFFFFFFFFF AND DUP2 MSTORE PUSH1 0x20 ADD SWAP1 DUP2 MSTORE PUSH1 0x20 ADD PUSH1 0x0 KECCAK256 PUSH1 0x0 DUP7 DUP2 MSTORE PUSH1 0x20 ADD SWAP1 DUP2 MSTORE PUSH1 0x20 ADD PUSH1 0x0 KECCAK256 PUSH1 0x0 DUP1 DUP3 ADD PUSH1 0x0 SWAP1 SSTORE PUSH1 0x1 DUP3 ADD PUSH1 0x0 SWAP1 SSTORE PUSH1 0x2 DUP3 ADD PUSH1 0x0 PUSH2 0x100 EXP DUP2 SLOAD SWAP1 PUSH20 0xFFFFFFFFFFFFFFFFFFFFFFFFFFFFFFFFFFFFFFFF MUL NOT AND SWAP1 SSTORE POP POP CALLER PUSH20 0xFFFFFFFFFFFFFFFFFFFFFFFFFFFFFFFFFFFFFFFF AND DUP6 PUSH32 0x58B0852506006C4BE6C7AE72AFCD195D9E64D7F5D8947905E914B778E47B7CF3 PUSH1 0x40 MLOAD PUSH1 0x40 MLOAD DUP1 SWAP2 SUB SWAP1 LOG3 POP POP POP POP POP POP JUMP JUMPDEST DUP2 DUP2 PUSH1 0x0 PUSH20 0xFFFFFFFFFFFFFFFFFFFFFFFFFFFFFFFFFFFFFFFF AND PUSH1 0x0 DUP1 DUP5 PUSH20 0xFFFFFFFFFFFFFFFFFFFFFFFFFFFFFFFFFFFFFFFF AND PUSH20 0xFFFFFFFFFFFFFFFFFFFFFFFFFFFFFFFFFFFFFFFF AND DUP2 MSTORE PUSH1 0x20 ADD SWAP1 DUP2 MSTORE PUSH1 0x20 ADD PUSH1 0x0 KECCAK256 PUSH1 0x0 DUP4 DUP2 MSTORE PUSH1 0x20 ADD SWAP1 DUP2 MSTORE PUSH1 0x20 ADD PUSH1 0x0 KECCAK256 PUSH1 0x2 ADD PUSH1 0x0 SWAP1 SLOAD SWAP1 PUSH2 0x100 EXP SWAP1 DIV PUSH20 0xFFFFFFFFFFFFFFFFFFFFFFFFFFFFFFFFFFFFFFFF AND PUSH20 0xFFFFFFFFFFFFFFFFFFFFFFFFFFFFFFFFFFFFFFFF AND EQ DUP1 PUSH2 0xB2D JUMPI POP PUSH1 0x0 DUP1 PUSH1 0x0 DUP5 PUSH20 0xFFFFFFFFFFFFFFFFFFFFFFFFFFFFFFFFFFFFFFFF AND PUSH20 0xFFFFFFFFFFFFFFFFFFFFFFFFFFFFFFFFFFFFFFFF AND DUP2 MSTORE PUSH1 0x20 ADD SWAP1 DUP2 MSTORE PUSH1 0x20 ADD PUSH1 0x0 KECCAK256 PUSH1 0x0 DUP4 DUP2 MSTORE PUSH1 0x20 ADD SWAP1 DUP2 MSTORE PUSH1 0x20 ADD PUSH1 0x0 KECCAK256 PUSH1 0x1 ADD SLOAD EQ JUMPDEST ISZERO PUSH2 0xB64 JUMPI PUSH1 0x40 MLOAD PUSH32 0xFFEB22E200000000000000000000000000000000000000000000000000000000 DUP2 MSTORE PUSH1 0x4 ADD PUSH1 0x40 MLOAD DUP1 SWAP2 SUB SWAP1 REVERT JUMPDEST PUSH1 0x0 DUP1 PUSH1 0x0 DUP7 PUSH20 0xFFFFFFFFFFFFFFFFFFFFFFFFFFFFFFFFFFFFFFFF AND PUSH20 0xFFFFFFFFFFFFFFFFFFFFFFFFFFFFFFFFFFFFFFFF AND DUP2 MSTORE PUSH1 0x20 ADD SWAP1 DUP2 MSTORE PUSH1 0x20 ADD PUSH1 0x0 KECCAK256 PUSH1 0x0 DUP6 DUP2 MSTORE PUSH1 0x20 ADD SWAP1 DUP2 MSTORE PUSH1 0x20 ADD PUSH1 0x0 KECCAK256 PUSH1 0x40 MLOAD DUP1 PUSH1 0x60 ADD PUSH1 0x40 MSTORE SWAP1 DUP2 PUSH1 0x0 DUP3 ADD SLOAD DUP2 MSTORE PUSH1 0x20 ADD PUSH1 0x1 DUP3 ADD SLOAD DUP2 MSTORE PUSH1 0x20 ADD PUSH1 0x2 DUP3 ADD PUSH1 0x0 SWAP1 SLOAD SWAP1 PUSH2 0x100 EXP SWAP1 DIV PUSH20 0xFFFFFFFFFFFFFFFFFFFFFFFFFFFFFFFFFFFFFFFF AND PUSH20 0xFFFFFFFFFFFFFFFFFFFFFFFFFFFFFFFFFFFFFFFF AND PUSH20 0xFFFFFFFFFFFFFFFFFFFFFFFFFFFFFFFFFFFFFFFF AND DUP2 MSTORE POP POP SWAP1 POP DUP1 PUSH1 0x20 ADD MLOAD CALLVALUE LT ISZERO PUSH2 0xC6A JUMPI PUSH1 0x40 MLOAD PUSH32 0x54B036A000000000000000000000000000000000000000000000000000000000 DUP2 MSTORE PUSH1 0x4 ADD PUSH1 0x40 MLOAD DUP1 SWAP2 SUB SWAP1 REVERT JUMPDEST DUP1 PUSH1 0x40 ADD MLOAD PUSH20 0xFFFFFFFFFFFFFFFFFFFFFFFFFFFFFFFFFFFFFFFF AND PUSH2 0x8FC CALLVALUE SWAP1 DUP2 ISZERO MUL SWAP1 PUSH1 0x40 MLOAD PUSH1 0x0 PUSH1 0x40 MLOAD DUP1 DUP4 SUB DUP2 DUP6 DUP9 DUP9 CALL SWAP4 POP POP POP POP ISZERO DUP1 ISZERO PUSH2 0xCB4 JUMPI RETURNDATASIZE PUSH1 0x0 DUP1 RETURNDATACOPY RETURNDATASIZE PUSH1 0x0 REVERT JUMPDEST POP DUP5 PUSH20 0xFFFFFFFFFFFFFFFFFFFFFFFFFFFFFFFFFFFFFFFF AND PUSH4 0x42842E0E DUP3 PUSH1 0x40 ADD MLOAD CALLER DUP8 PUSH1 0x40 MLOAD DUP5 PUSH4 0xFFFFFFFF AND PUSH1 0xE0 SHL DUP2 MSTORE PUSH1 0x4 ADD PUSH2 0xCF6 SWAP4 SWAP3 SWAP2 SWAP1 PUSH2 0x1253 JUMP JUMPDEST PUSH1 0x0 PUSH1 0x40 MLOAD DUP1 DUP4 SUB DUP2 PUSH1 0x0 DUP8 DUP1 EXTCODESIZE ISZERO DUP1 ISZERO PUSH2 0xD10 JUMPI PUSH1 0x0 DUP1 REVERT JUMPDEST POP GAS CALL ISZERO DUP1 ISZERO PUSH2 0xD24 JUMPI RETURNDATASIZE PUSH1 0x0 DUP1 RETURNDATACOPY RETURNDATASIZE PUSH1 0x0 REVERT JUMPDEST POP POP POP POP PUSH1 0x0 DUP1 DUP7 PUSH20 0xFFFFFFFFFFFFFFFFFFFFFFFFFFFFFFFFFFFFFFFF AND PUSH20 0xFFFFFFFFFFFFFFFFFFFFFFFFFFFFFFFFFFFFFFFF AND DUP2 MSTORE PUSH1 0x20 ADD SWAP1 DUP2 MSTORE PUSH1 0x20 ADD PUSH1 0x0 KECCAK256 PUSH1 0x0 DUP6 DUP2 MSTORE PUSH1 0x20 ADD SWAP1 DUP2 MSTORE PUSH1 0x20 ADD PUSH1 0x0 KECCAK256 PUSH1 0x0 DUP1 DUP3 ADD PUSH1 0x0 SWAP1 SSTORE PUSH1 0x1 DUP3 ADD PUSH1 0x0 SWAP1 SSTORE PUSH1 0x2 DUP3 ADD PUSH1 0x0 PUSH2 0x100 EXP DUP2 SLOAD SWAP1 PUSH20 0xFFFFFFFFFFFFFFFFFFFFFFFFFFFFFFFFFFFFFFFF MUL NOT AND SWAP1 SSTORE POP POP DUP1 PUSH1 0x40 ADD MLOAD PUSH20 0xFFFFFFFFFFFFFFFFFFFFFFFFFFFFFFFFFFFFFFFF AND CALLER PUSH20 0xFFFFFFFFFFFFFFFFFFFFFFFFFFFFFFFFFFFFFFFF AND DUP6 PUSH32 0xACC22B2C51E2C9B31C108C993CEBDCD72470CF6F43ED3F5590DAF77046233255 DUP5 PUSH1 0x20 ADD MLOAD PUSH1 0x40 MLOAD PUSH2 0xE17 SWAP2 SWAP1 PUSH2 0x12B3 JUMP JUMPDEST PUSH1 0x40 MLOAD DUP1 SWAP2 SUB SWAP1 LOG4 POP POP POP POP POP JUMP JUMPDEST DUP3 DUP3 CALLER PUSH20 0xFFFFFFFFFFFFFFFFFFFFFFFFFFFFFFFFFFFFFFFF AND DUP3 PUSH20 0xFFFFFFFFFFFFFFFFFFFFFFFFFFFFFFFFFFFFFFFF AND PUSH4 0x6352211E DUP4 PUSH1 0x40 MLOAD DUP3 PUSH4 0xFFFFFFFF AND PUSH1 0xE0 SHL DUP2 MSTORE PUSH1 0x4 ADD PUSH2 0xE78 SWAP2 SWAP1 PUSH2 0x12B3 JUMP JUMPDEST PUSH1 0x20 PUSH1 0x40 MLOAD DUP1 DUP4 SUB DUP2 DUP7 DUP1 EXTCODESIZE ISZERO DUP1 ISZERO PUSH2 0xE90 JUMPI PUSH1 0x0 DUP1 REVERT JUMPDEST POP GAS STATICCALL ISZERO DUP1 ISZERO PUSH2 0xEA4 JUMPI RETURNDATASIZE PUSH1 0x0 DUP1 RETURNDATACOPY RETURNDATASIZE PUSH1 0x0 REVERT JUMPDEST POP POP POP POP PUSH1 0x40 MLOAD RETURNDATASIZE PUSH1 0x1F NOT PUSH1 0x1F DUP3 ADD AND DUP3 ADD DUP1 PUSH1 0x40 MSTORE POP DUP2 ADD SWAP1 PUSH2 0xEC8 SWAP2 SWAP1 PUSH2 0x1175 JUMP JUMPDEST PUSH20 0xFFFFFFFFFFFFFFFFFFFFFFFFFFFFFFFFFFFFFFFF AND EQ PUSH2 0xF15 JUMPI PUSH1 0x40 MLOAD PUSH32 0x59BD4D1B00000000000000000000000000000000000000000000000000000000 DUP2 MSTORE PUSH1 0x4 ADD PUSH1 0x40 MLOAD DUP1 SWAP2 SUB SWAP1 REVERT JUMPDEST DUP5 DUP5 PUSH1 0x0 PUSH20 0xFFFFFFFFFFFFFFFFFFFFFFFFFFFFFFFFFFFFFFFF AND PUSH1 0x0 DUP1 DUP5 PUSH20 0xFFFFFFFFFFFFFFFFFFFFFFFFFFFFFFFFFFFFFFFF AND PUSH20 0xFFFFFFFFFFFFFFFFFFFFFFFFFFFFFFFFFFFFFFFF AND DUP2 MSTORE PUSH1 0x20 ADD SWAP1 DUP2 MSTORE PUSH1 0x20 ADD PUSH1 0x0 KECCAK256 PUSH1 0x0 DUP4 DUP2 MSTORE PUSH1 0x20 ADD SWAP1 DUP2 MSTORE PUSH1 0x20 ADD PUSH1 0x0 KECCAK256 PUSH1 0x2 ADD PUSH1 0x0 SWAP1 SLOAD SWAP1 PUSH2 0x100 EXP SWAP1 DIV PUSH20 0xFFFFFFFFFFFFFFFFFFFFFFFFFFFFFFFFFFFFFFFF AND PUSH20 0xFFFFFFFFFFFFFFFFFFFFFFFFFFFFFFFFFFFFFFFF AND EQ DUP1 PUSH2 0x1016 JUMPI POP PUSH1 0x0 DUP1 PUSH1 0x0 DUP5 PUSH20 0xFFFFFFFFFFFFFFFFFFFFFFFFFFFFFFFFFFFFFFFF AND PUSH20 0xFFFFFFFFFFFFFFFFFFFFFFFFFFFFFFFFFFFFFFFF AND DUP2 MSTORE PUSH1 0x20 ADD SWAP1 DUP2 MSTORE PUSH1 0x20 ADD PUSH1 0x0 KECCAK256 PUSH1 0x0 DUP4 DUP2 MSTORE PUSH1 0x20 ADD SWAP1 DUP2 MSTORE PUSH1 0x20 ADD PUSH1 0x0 KECCAK256 PUSH1 0x1 ADD SLOAD EQ JUMPDEST ISZERO PUSH2 0x104D JUMPI PUSH1 0x40 MLOAD PUSH32 0xFFEB22E200000000000000000000000000000000000000000000000000000000 DUP2 MSTORE PUSH1 0x4 ADD PUSH1 0x40 MLOAD DUP1 SWAP2 SUB SWAP1 REVERT JUMPDEST PUSH1 0x0 DUP6 GT PUSH2 0x1087 JUMPI PUSH1 0x40 MLOAD PUSH32 0x54B036A000000000000000000000000000000000000000000000000000000000 DUP2 MSTORE PUSH1 0x4 ADD PUSH1 0x40 MLOAD DUP1 SWAP2 SUB SWAP1 REVERT JUMPDEST DUP5 PUSH1 0x0 DUP1 DUP10 PUSH20 0xFFFFFFFFFFFFFFFFFFFFFFFFFFFFFFFFFFFFFFFF AND PUSH20 0xFFFFFFFFFFFFFFFFFFFFFFFFFFFFFFFFFFFFFFFF AND DUP2 MSTORE PUSH1 0x20 ADD SWAP1 DUP2 MSTORE PUSH1 0x20 ADD PUSH1 0x0 KECCAK256 PUSH1 0x0 DUP9 DUP2 MSTORE PUSH1 0x20 ADD SWAP1 DUP2 MSTORE PUSH1 0x20 ADD PUSH1 0x0 KECCAK256 PUSH1 0x1 ADD DUP2 SWAP1 SSTORE POP CALLER PUSH20 0xFFFFFFFFFFFFFFFFFFFFFFFFFFFFFFFFFFFFFFFF AND DUP7 PUSH32 0x5C10EB54E7B66711529CFCC35F98F53C3AEAA6DC143C27E0381D0FD913213229 DUP8 PUSH1 0x40 MLOAD PUSH2 0x1125 SWAP2 SWAP1 PUSH2 0x12B3 JUMP JUMPDEST PUSH1 0x40 MLOAD DUP1 SWAP2 SUB SWAP1 LOG3 POP POP POP POP POP POP POP JUMP JUMPDEST PUSH1 0x0 DUP2 CALLDATALOAD SWAP1 POP PUSH2 0x1145 DUP2 PUSH2 0x130F JUMP JUMPDEST SWAP3 SWAP2 POP POP JUMP JUMPDEST PUSH1 0x0 DUP2 MLOAD SWAP1 POP PUSH2 0x115A DUP2 PUSH2 0x130F JUMP JUMPDEST SWAP3 SWAP2 POP POP JUMP JUMPDEST PUSH1 0x0 DUP2 CALLDATALOAD SWAP1 POP PUSH2 0x116F DUP2 PUSH2 0x1326 JUMP JUMPDEST SWAP3 SWAP2 POP POP JUMP JUMPDEST PUSH1 0x0 PUSH1 0x20 DUP3 DUP5 SUB SLT ISZERO PUSH2 0x118B JUMPI PUSH2 0x118A PUSH2 0x130A JUMP JUMPDEST JUMPDEST PUSH1 0x0 PUSH2 0x1199 DUP5 DUP3 DUP6 ADD PUSH2 0x114B JUMP JUMPDEST SWAP2 POP POP SWAP3 SWAP2 POP POP JUMP JUMPDEST PUSH1 0x0 DUP1 PUSH1 0x40 DUP4 DUP6 SUB SLT ISZERO PUSH2 0x11B9 JUMPI PUSH2 0x11B8 PUSH2 0x130A JUMP JUMPDEST JUMPDEST PUSH1 0x0 PUSH2 0x11C7 DUP6 DUP3 DUP7 ADD PUSH2 0x1136 JUMP JUMPDEST SWAP3 POP POP PUSH1 0x20 PUSH2 0x11D8 DUP6 DUP3 DUP7 ADD PUSH2 0x1160 JUMP JUMPDEST SWAP2 POP POP SWAP3 POP SWAP3 SWAP1 POP JUMP JUMPDEST PUSH1 0x0 DUP1 PUSH1 0x0 PUSH1 0x60 DUP5 DUP7 SUB SLT ISZERO PUSH2 0x11FB JUMPI PUSH2 0x11FA PUSH2 0x130A JUMP JUMPDEST JUMPDEST PUSH1 0x0 PUSH2 0x1209 DUP7 DUP3 DUP8 ADD PUSH2 0x1136 JUMP JUMPDEST SWAP4 POP POP PUSH1 0x20 PUSH2 0x121A DUP7 DUP3 DUP8 ADD PUSH2 0x1160 JUMP JUMPDEST SWAP3 POP POP PUSH1 0x40 PUSH2 0x122B DUP7 DUP3 DUP8 ADD PUSH2 0x1160 JUMP JUMPDEST SWAP2 POP POP SWAP3 POP SWAP3 POP SWAP3 JUMP JUMPDEST PUSH2 0x123E DUP2 PUSH2 0x12CE JUMP JUMPDEST DUP3 MSTORE POP POP JUMP JUMPDEST PUSH2 0x124D DUP2 PUSH2 0x1300 JUMP JUMPDEST DUP3 MSTORE POP POP JUMP JUMPDEST PUSH1 0x0 PUSH1 0x60 DUP3 ADD SWAP1 POP PUSH2 0x1268 PUSH1 0x0 DUP4 ADD DUP7 PUSH2 0x1235 JUMP JUMPDEST PUSH2 0x1275 PUSH1 0x20 DUP4 ADD DUP6 PUSH2 0x1235 JUMP JUMPDEST PUSH2 0x1282 PUSH1 0x40 DUP4 ADD DUP5 PUSH2 0x1244 JUMP JUMPDEST SWAP5 SWAP4 POP POP POP POP JUMP JUMPDEST PUSH1 0x0 PUSH1 0x40 DUP3 ADD SWAP1 POP PUSH2 0x129F PUSH1 0x0 DUP4 ADD DUP6 PUSH2 0x1235 JUMP JUMPDEST PUSH2 0x12AC PUSH1 0x20 DUP4 ADD DUP5 PUSH2 0x1244 JUMP JUMPDEST SWAP4 SWAP3 POP POP POP JUMP JUMPDEST PUSH1 0x0 PUSH1 0x20 DUP3 ADD SWAP1 POP PUSH2 0x12C8 PUSH1 0x0 DUP4 ADD DUP5 PUSH2 0x1244 JUMP JUMPDEST SWAP3 SWAP2 POP POP JUMP JUMPDEST PUSH1 0x0 PUSH2 0x12D9 DUP3 PUSH2 0x12E0 JUMP JUMPDEST SWAP1 POP SWAP2 SWAP1 POP JUMP JUMPDEST PUSH1 0x0 PUSH20 0xFFFFFFFFFFFFFFFFFFFFFFFFFFFFFFFFFFFFFFFF DUP3 AND SWAP1 POP SWAP2 SWAP1 POP JUMP JUMPDEST PUSH1 0x0 DUP2 SWAP1 POP SWAP2 SWAP1 POP JUMP JUMPDEST PUSH1 0x0 DUP1 REVERT JUMPDEST PUSH2 0x1318 DUP2 PUSH2 0x12CE JUMP JUMPDEST DUP2 EQ PUSH2 0x1323 JUMPI PUSH1 0x0 DUP1 REVERT JUMPDEST POP JUMP JUMPDEST PUSH2 0x132F DUP2 PUSH2 0x1300 JUMP JUMPDEST DUP2 EQ PUSH2 0x133A JUMPI PUSH1 0x0 DUP1 REVERT JUMPDEST POP JUMP INVALID LOG2 PUSH5 0x6970667358 0x22 SLT KECCAK256 SWAP13 0xE8 0xA6 0xE1 SWAP11 SWAP3 DUP11 SWAP6 PUSH27 0xC3634DACDA77C05BC56A10A9907595B59942EBA31E198364736F6C PUSH4 0x43000807 STOP CALLER "},"gasEstimates":{"creation":{"codeDepositCost":"995800","executionCost":"1034","totalCost":"996834"},"external":{"buyCard(address,uint256)":"infinite","createListing(address,uint256,uint256)":"infinite","removeListing(address,uint256)":"infinite","updateListing(address,uint256,uint256)":"infinite"}},"methodIdentifiers":{"buyCard(address,uint256)":"7dd9f846","createListing(address,uint256,uint256)":"24780c56","removeListing(address,uint256)":"59edbe71","updateListing(address,uint256,uint256)":"f772adf1"}},"storageLayout":{"storage":[{"astId":685,"contract":"contracts/BusinessCardMarketplace.sol:BusinessCardMarketplace","label":"listings","offset":0,"slot":"0","type":"t_mapping(t_address,t_mapping(t_uint256,t_struct(Listing)678_storage))"}],"types":{"t_address":{"encoding":"inplace","label":"address","numberOfBytes":"20"},"t_mapping(t_address,t_mapping(t_uint256,t_struct(Listing)678_storage))":{"encoding":"mapping","key":"t_address","label":"mapping(address => mapping(uint256 => struct BusinessCardMarketplace.Listing))","numberOfBytes":"32","value":"t_mapping(t_uint256,t_struct(Listing)678_storage)"},"t_mapping(t_uint256,t_struct(Listing)678_storage)":{"encoding":"mapping","key":"t_uint256","label":"mapping(uint256 => struct BusinessCardMarketplace.Listing)","numberOfBytes":"32","value":"t_struct(Listing)678_storage"},"t_struct(Listing)678_storage":{"encoding":"inplace","label":"struct BusinessCardMarketplace.Listing","members":[{"astId":673,"contract":"contracts/BusinessCardMarketplace.sol:BusinessCardMarketplace","label":"listId","offset":0,"slot":"0","type":"t_uint256"},{"astId":675,"contract":"contracts/BusinessCardMarketplace.sol:BusinessCardMarketplace","label":"price","offset":0,"slot":"1","type":"t_uint256"},{"astId":677,"contract":"contracts/BusinessCardMarketplace.sol:BusinessCardMarketplace","label":"seller","offset":0,"slot":"2","type":"t_address"}],"numberOfBytes":"96"},"t_uint256":{"encoding":"inplace","label":"uint256","numberOfBytes":"32"}}},"userdoc":{"kind":"user","methods":{},"version":1}}}}