{"contracts/BusinessCardBase.sol":{"BusinessCardBase":{"abi":[{"inputs":[],"name":"BusinessCardBase__ExceededPeople","type":"error"},{"inputs":[],"name":"BusinessCardBase__InvalidArrayCount","type":"error"},{"inputs":[],"name":"BusinessCardBase__InvalidETHAmountSent","type":"error"},{"inputs":[],"name":"BusinessCardBase__InvalidString","type":"error"},{"inputs":[],"name":"BusinessCardBase__NotMintable","type":"error"},{"inputs":[],"name":"BusinessCardBase__NotStaked","type":"error"},{"anonymous":false,"inputs":[{"indexed":true,"internalType":"address","name":"owner","type":"address"},{"indexed":true,"internalType":"address","name":"approved","type":"address"},{"indexed":true,"internalType":"uint256","name":"tokenId","type":"uint256"}],"name":"Approval","type":"event"},{"anonymous":false,"inputs":[{"indexed":true,"internalType":"address","name":"owner","type":"address"},{"indexed":true,"internalType":"address","name":"operator","type":"address"},{"indexed":false,"internalType":"bool","name":"approved","type":"bool"}],"name":"ApprovalForAll","type":"event"},{"anonymous":false,"inputs":[{"indexed":true,"internalType":"uint256","name":"id","type":"uint256"},{"indexed":false,"internalType":"string","name":"name","type":"string"},{"indexed":false,"internalType":"string","name":"email","type":"string"},{"indexed":false,"internalType":"string","name":"phone","type":"string"},{"indexed":false,"internalType":"string","name":"company","type":"string"},{"indexed":false,"internalType":"enum BusinessCardBase.CardType","name":"cardType","type":"uint8"},{"indexed":false,"internalType":"uint256","name":"valueDesired","type":"uint256"},{"indexed":false,"internalType":"address","name":"owner","type":"address"}],"name":"CardCreated","type":"event"},{"anonymous":false,"inputs":[{"indexed":true,"internalType":"uint256","name":"id","type":"uint256"},{"indexed":true,"internalType":"address","name":"from","type":"address"},{"indexed":true,"internalType":"address","name":"to","type":"address"}],"name":"CardTransfer","type":"event"},{"anonymous":false,"inputs":[{"indexed":false,"internalType":"uint8","name":"version","type":"uint8"}],"name":"Initialized","type":"event"},{"anonymous":false,"inputs":[{"indexed":true,"internalType":"address","name":"company","type":"address"},{"indexed":false,"internalType":"address[]","name":"employeeAddresses","type":"address[]"},{"indexed":false,"internalType":"uint32","name":"employeeCount","type":"uint32"}],"name":"PartyMint","type":"event"},{"anonymous":false,"inputs":[{"indexed":true,"internalType":"address","name":"staker","type":"address"},{"indexed":false,"internalType":"uint256","name":"amount","type":"uint256"},{"indexed":false,"internalType":"string","name":"companyName","type":"string"}],"name":"Stake","type":"event"},{"anonymous":false,"inputs":[{"indexed":true,"internalType":"address","name":"from","type":"address"},{"indexed":true,"internalType":"address","name":"to","type":"address"},{"indexed":true,"internalType":"uint256","name":"tokenId","type":"uint256"}],"name":"Transfer","type":"event"},{"inputs":[{"internalType":"uint256","name":"_firstMintPrice","type":"uint256"},{"internalType":"uint256","name":"_mintPrice","type":"uint256"},{"internalType":"uint256","name":"_stakePrice","type":"uint256"}],"name":"__BusinessCardBase__init","outputs":[],"stateMutability":"nonpayable","type":"function"},{"inputs":[{"internalType":"string","name":"_name","type":"string"},{"internalType":"string","name":"_email","type":"string"},{"internalType":"string","name":"_phone","type":"string"},{"internalType":"address","name":"_company","type":"address"},{"internalType":"uint256","name":"valueDesired","type":"uint256"}],"name":"_mint","outputs":[],"stateMutability":"nonpayable","type":"function"},{"inputs":[{"internalType":"address","name":"to","type":"address"},{"internalType":"uint256","name":"tokenId","type":"uint256"}],"name":"approve","outputs":[],"stateMutability":"nonpayable","type":"function"},{"inputs":[{"internalType":"address","name":"owner","type":"address"}],"name":"balanceOf","outputs":[{"internalType":"uint256","name":"","type":"uint256"}],"stateMutability":"view","type":"function"},{"inputs":[{"internalType":"uint256","name":"tokenId","type":"uint256"}],"name":"getApproved","outputs":[{"internalType":"address","name":"","type":"address"}],"stateMutability":"view","type":"function"},{"inputs":[{"internalType":"uint256","name":"_id","type":"uint256"}],"name":"getCard","outputs":[{"components":[{"internalType":"string","name":"name","type":"string"},{"internalType":"string","name":"email","type":"string"},{"internalType":"string","name":"phone","type":"string"},{"internalType":"string","name":"company","type":"string"},{"internalType":"enum BusinessCardBase.CardType","name":"cardType","type":"uint8"},{"internalType":"uint256","name":"valueDesired","type":"uint256"},{"internalType":"address","name":"owner","type":"address"}],"internalType":"struct BusinessCardBase.Card","name":"","type":"tuple"}],"stateMutability":"view","type":"function"},{"inputs":[{"internalType":"address","name":"_owner","type":"address"},{"internalType":"uint256","name":"_index","type":"uint256"}],"name":"getCardByOwner","outputs":[{"components":[{"internalType":"string","name":"name","type":"string"},{"internalType":"string","name":"email","type":"string"},{"internalType":"string","name":"phone","type":"string"},{"internalType":"string","name":"company","type":"string"},{"internalType":"enum BusinessCardBase.CardType","name":"cardType","type":"uint8"},{"internalType":"uint256","name":"valueDesired","type":"uint256"},{"internalType":"address","name":"owner","type":"address"}],"internalType":"struct BusinessCardBase.Card","name":"","type":"tuple"}],"stateMutability":"view","type":"function"},{"inputs":[],"name":"getCardCount","outputs":[{"internalType":"uint256","name":"","type":"uint256"}],"stateMutability":"view","type":"function"},{"inputs":[{"internalType":"address","name":"_owner","type":"address"}],"name":"getCardCountByOwner","outputs":[{"internalType":"uint256","name":"","type":"uint256"}],"stateMutability":"view","type":"function"},{"inputs":[],"name":"getCards","outputs":[{"components":[{"internalType":"string","name":"name","type":"string"},{"internalType":"string","name":"email","type":"string"},{"internalType":"string","name":"phone","type":"string"},{"internalType":"string","name":"company","type":"string"},{"internalType":"enum BusinessCardBase.CardType","name":"cardType","type":"uint8"},{"internalType":"uint256","name":"valueDesired","type":"uint256"},{"internalType":"address","name":"owner","type":"address"}],"internalType":"struct BusinessCardBase.Card[]","name":"","type":"tuple[]"}],"stateMutability":"view","type":"function"},{"inputs":[{"internalType":"address","name":"companyAddress","type":"address"}],"name":"getCompanyName","outputs":[{"internalType":"string","name":"","type":"string"}],"stateMutability":"view","type":"function"},{"inputs":[],"name":"getFirstMintPrice","outputs":[{"internalType":"uint256","name":"","type":"uint256"}],"stateMutability":"view","type":"function"},{"inputs":[{"internalType":"address","name":"minter","type":"address"}],"name":"getFirstMinted","outputs":[{"internalType":"bool","name":"","type":"bool"}],"stateMutability":"view","type":"function"},{"inputs":[],"name":"getMintPrice","outputs":[{"internalType":"uint256","name":"","type":"uint256"}],"stateMutability":"view","type":"function"},{"inputs":[{"internalType":"address","name":"_owner","type":"address"},{"internalType":"address","name":"_company","type":"address"}],"name":"getMintableAuthorities","outputs":[{"internalType":"uint256","name":"","type":"uint256"}],"stateMutability":"view","type":"function"},{"inputs":[{"internalType":"address","name":"owner","type":"address"},{"internalType":"address","name":"operator","type":"address"}],"name":"isApprovedForAll","outputs":[{"internalType":"bool","name":"","type":"bool"}],"stateMutability":"view","type":"function"},{"inputs":[],"name":"mint","outputs":[{"internalType":"bool","name":"success","type":"bool"}],"stateMutability":"payable","type":"function"},{"inputs":[],"name":"name","outputs":[{"internalType":"string","name":"","type":"string"}],"stateMutability":"view","type":"function"},{"inputs":[{"internalType":"uint256","name":"tokenId","type":"uint256"}],"name":"ownerOf","outputs":[{"internalType":"address","name":"","type":"address"}],"stateMutability":"view","type":"function"},{"inputs":[{"internalType":"uint256","name":"_employeeCount","type":"uint256"},{"internalType":"address[]","name":"employeeAddresses","type":"address[]"}],"name":"partyMint","outputs":[{"internalType":"bool","name":"success","type":"bool"}],"stateMutability":"payable","type":"function"},{"inputs":[{"internalType":"address","name":"from","type":"address"},{"internalType":"address","name":"to","type":"address"},{"internalType":"uint256","name":"tokenId","type":"uint256"}],"name":"safeTransferFrom","outputs":[],"stateMutability":"nonpayable","type":"function"},{"inputs":[{"internalType":"address","name":"from","type":"address"},{"internalType":"address","name":"to","type":"address"},{"internalType":"uint256","name":"tokenId","type":"uint256"},{"internalType":"bytes","name":"data","type":"bytes"}],"name":"safeTransferFrom","outputs":[],"stateMutability":"nonpayable","type":"function"},{"inputs":[{"internalType":"address","name":"operator","type":"address"},{"internalType":"bool","name":"approved","type":"bool"}],"name":"setApprovalForAll","outputs":[],"stateMutability":"nonpayable","type":"function"},{"inputs":[{"internalType":"string","name":"_company","type":"string"}],"name":"stake","outputs":[{"internalType":"bool","name":"success","type":"bool"}],"stateMutability":"payable","type":"function"},{"inputs":[{"internalType":"bytes4","name":"interfaceId","type":"bytes4"}],"name":"supportsInterface","outputs":[{"internalType":"bool","name":"","type":"bool"}],"stateMutability":"view","type":"function"},{"inputs":[],"name":"symbol","outputs":[{"internalType":"string","name":"","type":"string"}],"stateMutability":"view","type":"function"},{"inputs":[{"internalType":"uint256","name":"index","type":"uint256"}],"name":"tokenByIndex","outputs":[{"internalType":"uint256","name":"","type":"uint256"}],"stateMutability":"view","type":"function"},{"inputs":[{"internalType":"address","name":"owner","type":"address"},{"internalType":"uint256","name":"index","type":"uint256"}],"name":"tokenOfOwnerByIndex","outputs":[{"internalType":"uint256","name":"","type":"uint256"}],"stateMutability":"view","type":"function"},{"inputs":[{"internalType":"uint256","name":"tokenId","type":"uint256"}],"name":"tokenURI","outputs":[{"internalType":"string","name":"","type":"string"}],"stateMutability":"view","type":"function"},{"inputs":[],"name":"totalSupply","outputs":[{"internalType":"uint256","name":"","type":"uint256"}],"stateMutability":"view","type":"function"},{"inputs":[{"internalType":"address","name":"from","type":"address"},{"internalType":"address","name":"to","type":"address"},{"internalType":"uint256","name":"tokenId","type":"uint256"}],"name":"transferFrom","outputs":[],"stateMutability":"nonpayable","type":"function"}],"devdoc":{"kind":"dev","methods":{"approve(address,uint256)":{"details":"See {IERC721-approve}."},"balanceOf(address)":{"details":"See {IERC721-balanceOf}."},"getApproved(uint256)":{"details":"See {IERC721-getApproved}."},"isApprovedForAll(address,address)":{"details":"See {IERC721-isApprovedForAll}."},"name()":{"details":"See {IERC721Metadata-name}."},"ownerOf(uint256)":{"details":"See {IERC721-ownerOf}."},"safeTransferFrom(address,address,uint256)":{"details":"See {IERC721-safeTransferFrom}."},"safeTransferFrom(address,address,uint256,bytes)":{"details":"See {IERC721-safeTransferFrom}."},"setApprovalForAll(address,bool)":{"details":"See {IERC721-setApprovalForAll}."},"supportsInterface(bytes4)":{"details":"See {IERC165-supportsInterface}."},"symbol()":{"details":"See {IERC721Metadata-symbol}."},"tokenByIndex(uint256)":{"details":"See {IERC721Enumerable-tokenByIndex}."},"tokenOfOwnerByIndex(address,uint256)":{"details":"See {IERC721Enumerable-tokenOfOwnerByIndex}."},"tokenURI(uint256)":{"details":"See {IERC721Metadata-tokenURI}."},"totalSupply()":{"details":"See {IERC721Enumerable-totalSupply}."},"transferFrom(address,address,uint256)":{"details":"See {IERC721-transferFrom}."}},"version":1},"evm":{"bytecode":{"linkReferences":{},"object":"608060405234801561001057600080fd5b506155c680620000216000396000f3fe6080604052600436106101d85760003560e01c80635d662c5311610102578063a223593411610095578063b0df9e5311610064578063b0df9e531461072f578063b88d4fde1461075a578063c87b56dd14610783578063e985e9c5146107c0576101d8565b8063a223593414610675578063a22cb4651461069e578063a4ef7031146106c7578063a7f93ebd14610704576101d8565b80637d620130116100d15780637d620130146105a55780639188d312146105d057806395acf9871461060d57806395d89b411461064a576101d8565b80635d662c53146104c357806361a53251146105005780636352211e1461052b57806370a0823114610568576101d8565b8063185590e21161017a57806342842e0e1161014957806342842e0e1461040457806346f45b8d1461042d57806347c36b8c1461045d5780634f6ccce714610486576101d8565b8063185590e21461032457806323b872dd146103615780632f745c591461038a5780633d49c66c146103c7576101d8565b8063095ea7b3116101b6578063095ea7b3146102825780631249c58b146102ab578063154308f0146102c957806318160ddd146102f9576101d8565b806301ffc9a7146101dd57806306fdde031461021a578063081812fc14610245575b600080fd5b3480156101e957600080fd5b5061020460048036038101906101ff9190614040565b6107fd565b604051610211919061490a565b60405180910390f35b34801561022657600080fd5b5061022f610877565b60405161023c9190614925565b60405180910390f35b34801561025157600080fd5b5061026c600480360381019061026791906141b2565b610909565b6040516102799190614851565b60405180910390f35b34801561028e57600080fd5b506102a960048036038101906102a49190614000565b61094f565b005b6102b3610a67565b6040516102c0919061490a565b60405180910390f35b6102e360048036038101906102de91906141df565b610cb2565b6040516102f0919061490a565b60405180910390f35b34801561030557600080fd5b5061030e610f2c565b60405161031b9190614bb4565b60405180910390f35b34801561033057600080fd5b5061034b60048036038101906103469190614000565b610f39565b6040516103589190614b92565b60405180910390f35b34801561036d57600080fd5b5061038860048036038101906103839190613eea565b611262565b005b34801561039657600080fd5b506103b160048036038101906103ac9190614000565b6112c2565b6040516103be9190614bb4565b60405180910390f35b3480156103d357600080fd5b506103ee60048036038101906103e99190613e7d565b611367565b6040516103fb919061490a565b60405180910390f35b34801561041057600080fd5b5061042b60048036038101906104269190613eea565b6113bd565b005b6104476004803603810190610442919061409a565b6113dd565b604051610454919061490a565b60405180910390f35b34801561046957600080fd5b50610484600480360381019061047f919061423b565b61151f565b005b34801561049257600080fd5b506104ad60048036038101906104a891906141b2565b611539565b6040516104ba9190614bb4565b60405180910390f35b3480156104cf57600080fd5b506104ea60048036038101906104e59190613eaa565b6115aa565b6040516104f79190614bb4565b60405180910390f35b34801561050c57600080fd5b50610515611631565b6040516105229190614bb4565b60405180910390f35b34801561053757600080fd5b50610552600480360381019061054d91906141b2565b61163b565b60405161055f9190614851565b60405180910390f35b34801561057457600080fd5b5061058f600480360381019061058a9190613e7d565b6116c2565b60405161059c9190614bb4565b60405180910390f35b3480156105b157600080fd5b506105ba61177a565b6040516105c79190614bb4565b60405180910390f35b3480156105dc57600080fd5b506105f760048036038101906105f291906141b2565b611787565b6040516106049190614b92565b60405180910390f35b34801561061957600080fd5b50610634600480360381019061062f9190613e7d565b611aa6565b6040516106419190614bb4565b60405180910390f35b34801561065657600080fd5b5061065f611ab8565b60405161066c9190614925565b60405180910390f35b34801561068157600080fd5b5061069c600480360381019061069791906140e3565b611b4a565b005b3480156106aa57600080fd5b506106c560048036038101906106c09190613fc0565b61213f565b005b3480156106d357600080fd5b506106ee60048036038101906106e99190613e7d565b612155565b6040516106fb9190614925565b60405180910390f35b34801561071057600080fd5b50610719612226565b6040516107269190614bb4565b60405180910390f35b34801561073b57600080fd5b50610744612230565b60405161075191906148e8565b60405180910390f35b34801561076657600080fd5b50610781600480360381019061077c9190613f3d565b612572565b005b34801561078f57600080fd5b506107aa60048036038101906107a591906141b2565b6125d4565b6040516107b79190614925565b60405180910390f35b3480156107cc57600080fd5b506107e760048036038101906107e29190613eaa565b61263c565b6040516107f4919061490a565b60405180910390f35b60007f780e9d63000000000000000000000000000000000000000000000000000000007bffffffffffffffffffffffffffffffffffffffffffffffffffffffff1916827bffffffffffffffffffffffffffffffffffffffffffffffffffffffff19161480610870575061086f826126d0565b5b9050919050565b60606065805461088690614f47565b80601f01602080910402602001604051908101604052809291908181526020018280546108b290614f47565b80156108ff5780601f106108d4576101008083540402835291602001916108ff565b820191906000526020600020905b8154815290600101906020018083116108e257829003601f168201915b5050505050905090565b6000610914826127b2565b6069600083815260200190815260200160002060009054906101000a900473ffffffffffffffffffffffffffffffffffffffff169050919050565b600061095a8261163b565b90508073ffffffffffffffffffffffffffffffffffffffff168373ffffffffffffffffffffffffffffffffffffffff1614156109cb576040517f08c379a00000000000000000000000000000000000000000000000000000000081526004016109c290614b12565b60405180910390fd5b8073ffffffffffffffffffffffffffffffffffffffff166109ea6127fd565b73ffffffffffffffffffffffffffffffffffffffff161480610a195750610a1881610a136127fd565b61263c565b5b610a58576040517f08c379a0000000000000000000000000000000000000000000000000000000008152600401610a4f90614b32565b60405180910390fd5b610a628383612805565b505050565b600060cd60003373ffffffffffffffffffffffffffffffffffffffff1673ffffffffffffffffffffffffffffffffffffffff16815260200190815260200160002060009054906101000a900460ff1615610b8f5760cc543414610af6576040517f7d604d0e00000000000000000000000000000000000000000000000000000000815260040160405180910390fd5b600160ce60003373ffffffffffffffffffffffffffffffffffffffff1673ffffffffffffffffffffffffffffffffffffffff16815260200190815260200160002060003373ffffffffffffffffffffffffffffffffffffffff1673ffffffffffffffffffffffffffffffffffffffff1681526020019081526020016000206000828254610b839190614d78565b92505081905550610cab565b60cb543414610bca576040517f7d604d0e00000000000000000000000000000000000000000000000000000000815260040160405180910390fd5b600160cd60003373ffffffffffffffffffffffffffffffffffffffff1673ffffffffffffffffffffffffffffffffffffffff16815260200190815260200160002060006101000a81548160ff021916908315150217905550600a63ffffffff1660ce60003373ffffffffffffffffffffffffffffffffffffffff1673ffffffffffffffffffffffffffffffffffffffff16815260200190815260200160002060003373ffffffffffffffffffffffffffffffffffffffff1673ffffffffffffffffffffffffffffffffffffffff168152602001908152602001600020819055505b6001905090565b600080151560d060003373ffffffffffffffffffffffffffffffffffffffff1673ffffffffffffffffffffffffffffffffffffffff16815260200190815260200160002060009054906101000a900460ff1615151415610d3e576040517fe11cd5be00000000000000000000000000000000000000000000000000000000815260040160405180910390fd5b600a63ffffffff16831115610d7f576040517f667d7a4800000000000000000000000000000000000000000000000000000000815260040160405180910390fd5b8260cc54610d8d9190614dce565b3414610dc5576040517f7d604d0e00000000000000000000000000000000000000000000000000000000815260040160405180910390fd5b81518314610dff576040517f0a84927600000000000000000000000000000000000000000000000000000000815260040160405180910390fd5b600033905060005b84811015610ed057600160ce6000868481518110610e2857610e276150de565b5b602002602001015173ffffffffffffffffffffffffffffffffffffffff1673ffffffffffffffffffffffffffffffffffffffff16815260200190815260200160002060008473ffffffffffffffffffffffffffffffffffffffff1673ffffffffffffffffffffffffffffffffffffffff1681526020019081526020016000206000828254610eb69190614d78565b925050819055508080610ec890614faa565b915050610e07565b503373ffffffffffffffffffffffffffffffffffffffff167f6df9081c5ded9cff457e4b66eb4d5c66a49bf08ded297c2887204b850a1354898486604051610f199291906148b8565b60405180910390a2600191505092915050565b6000609980549050905090565b610f41613b8e565b60c9610f4d84846112c2565b81548110610f5e57610f5d6150de565b5b90600052602060002090600702016040518060e0016040529081600082018054610f8790614f47565b80601f0160208091040260200160405190810160405280929190818152602001828054610fb390614f47565b80156110005780601f10610fd557610100808354040283529160200191611000565b820191906000526020600020905b815481529060010190602001808311610fe357829003601f168201915b5050505050815260200160018201805461101990614f47565b80601f016020809104026020016040519081016040528092919081815260200182805461104590614f47565b80156110925780601f1061106757610100808354040283529160200191611092565b820191906000526020600020905b81548152906001019060200180831161107557829003601f168201915b505050505081526020016002820180546110ab90614f47565b80601f01602080910402602001604051908101604052809291908181526020018280546110d790614f47565b80156111245780601f106110f957610100808354040283529160200191611124565b820191906000526020600020905b81548152906001019060200180831161110757829003601f168201915b5050505050815260200160038201805461113d90614f47565b80601f016020809104026020016040519081016040528092919081815260200182805461116990614f47565b80156111b65780601f1061118b576101008083540402835291602001916111b6565b820191906000526020600020905b81548152906001019060200180831161119957829003601f168201915b505050505081526020016004820160009054906101000a900460ff1660018111156111e4576111e3615051565b5b60018111156111f6576111f5615051565b5b8152602001600582015481526020016006820160009054906101000a900473ffffffffffffffffffffffffffffffffffffffff1673ffffffffffffffffffffffffffffffffffffffff1673ffffffffffffffffffffffffffffffffffffffff1681525050905092915050565b61127361126d6127fd565b826128be565b6112b2576040517f08c379a00000000000000000000000000000000000000000000000000000000081526004016112a9906149d2565b60405180910390fd5b6112bd838383612953565b505050565b60006112cd836116c2565b821061130e576040517f08c379a0000000000000000000000000000000000000000000000000000000008152600401611305906149f2565b60405180910390fd5b609760008473ffffffffffffffffffffffffffffffffffffffff1673ffffffffffffffffffffffffffffffffffffffff168152602001908152602001600020600083815260200190815260200160002054905092915050565b600060cd60008373ffffffffffffffffffffffffffffffffffffffff1673ffffffffffffffffffffffffffffffffffffffff16815260200190815260200160002060009054906101000a900460ff169050919050565b6113d883838360405180602001604052806000815250612572565b505050565b600060ca54341461141a576040517f7d604d0e00000000000000000000000000000000000000000000000000000000815260040160405180910390fd5b600160d060003373ffffffffffffffffffffffffffffffffffffffff1673ffffffffffffffffffffffffffffffffffffffff16815260200190815260200160002060006101000a81548160ff0219169083151502179055508160d160003373ffffffffffffffffffffffffffffffffffffffff1673ffffffffffffffffffffffffffffffffffffffff16815260200190815260200160002090805190602001906114c5929190613bf3565b503373ffffffffffffffffffffffffffffffffffffffff167f72d0050d8f1a0f19ace5b1f50e8b5333308c60902442b7444a65cfffbad884e7348460405161150e929190614bcf565b60405180910390a260019050919050565b8260cb819055508160cc819055508060ca81905550505050565b6000611543610f2c565b8210611584576040517f08c379a000000000000000000000000000000000000000000000000000000000815260040161157b90614b52565b60405180910390fd5b60998281548110611598576115976150de565b5b90600052602060002001549050919050565b600060ce60008473ffffffffffffffffffffffffffffffffffffffff1673ffffffffffffffffffffffffffffffffffffffff16815260200190815260200160002060008373ffffffffffffffffffffffffffffffffffffffff1673ffffffffffffffffffffffffffffffffffffffff16815260200190815260200160002054905092915050565b600060cb54905090565b600080611647836129be565b9050600073ffffffffffffffffffffffffffffffffffffffff168173ffffffffffffffffffffffffffffffffffffffff1614156116b9576040517f08c379a00000000000000000000000000000000000000000000000000000000081526004016116b090614af2565b60405180910390fd5b80915050919050565b60008073ffffffffffffffffffffffffffffffffffffffff168273ffffffffffffffffffffffffffffffffffffffff161415611733576040517f08c379a000000000000000000000000000000000000000000000000000000000815260040161172a90614ab2565b60405180910390fd5b606860008373ffffffffffffffffffffffffffffffffffffffff1673ffffffffffffffffffffffffffffffffffffffff168152602001908152602001600020549050919050565b600060c980549050905090565b61178f613b8e565b60c982815481106117a3576117a26150de565b5b90600052602060002090600702016040518060e00160405290816000820180546117cc90614f47565b80601f01602080910402602001604051908101604052809291908181526020018280546117f890614f47565b80156118455780601f1061181a57610100808354040283529160200191611845565b820191906000526020600020905b81548152906001019060200180831161182857829003601f168201915b5050505050815260200160018201805461185e90614f47565b80601f016020809104026020016040519081016040528092919081815260200182805461188a90614f47565b80156118d75780601f106118ac576101008083540402835291602001916118d7565b820191906000526020600020905b8154815290600101906020018083116118ba57829003601f168201915b505050505081526020016002820180546118f090614f47565b80601f016020809104026020016040519081016040528092919081815260200182805461191c90614f47565b80156119695780601f1061193e57610100808354040283529160200191611969565b820191906000526020600020905b81548152906001019060200180831161194c57829003601f168201915b5050505050815260200160038201805461198290614f47565b80601f01602080910402602001604051908101604052809291908181526020018280546119ae90614f47565b80156119fb5780601f106119d0576101008083540402835291602001916119fb565b820191906000526020600020905b8154815290600101906020018083116119de57829003601f168201915b505050505081526020016004820160009054906101000a900460ff166001811115611a2957611a28615051565b5b6001811115611a3b57611a3a615051565b5b8152602001600582015481526020016006820160009054906101000a900473ffffffffffffffffffffffffffffffffffffffff1673ffffffffffffffffffffffffffffffffffffffff1673ffffffffffffffffffffffffffffffffffffffff16815250509050919050565b6000611ab1826116c2565b9050919050565b606060668054611ac790614f47565b80601f0160208091040260200160405190810160405280929190818152602001828054611af390614f47565b8015611b405780601f10611b1557610100808354040283529160200191611b40565b820191906000526020600020905b815481529060010190602001808311611b2357829003601f168201915b5050505050905090565b81600060ce60003373ffffffffffffffffffffffffffffffffffffffff1673ffffffffffffffffffffffffffffffffffffffff16815260200190815260200160002060008373ffffffffffffffffffffffffffffffffffffffff1673ffffffffffffffffffffffffffffffffffffffff1681526020019081526020016000205411158015611c555750600060ce60003373ffffffffffffffffffffffffffffffffffffffff1673ffffffffffffffffffffffffffffffffffffffff16815260200190815260200160002060003373ffffffffffffffffffffffffffffffffffffffff1673ffffffffffffffffffffffffffffffffffffffff1681526020019081526020016000205411155b15611c8c576040517f5594523c00000000000000000000000000000000000000000000000000000000815260040160405180910390fd5b600082855187518951611c9f9190614dce565b611ca99190614dce565b611cb39190614dce565b1480611ceb5750600073ffffffffffffffffffffffffffffffffffffffff168373ffffffffffffffffffffffffffffffffffffffff16145b15611d22576040517fb73f7ba500000000000000000000000000000000000000000000000000000000815260040160405180910390fd5b60008060d160008673ffffffffffffffffffffffffffffffffffffffff1673ffffffffffffffffffffffffffffffffffffffff1681526020019081526020016000208054611d6f90614f47565b80601f0160208091040260200160405190810160405280929190818152602001828054611d9b90614f47565b8015611de85780601f10611dbd57610100808354040283529160200191611de8565b820191906000526020600020905b815481529060010190602001808311611dcb57829003601f168201915b50505050509050600081511480611e2a57508473ffffffffffffffffffffffffffffffffffffffff163373ffffffffffffffffffffffffffffffffffffffff16145b15611e385760009150611e3d565b600191505b60006040518060e001604052808a81526020018981526020018881526020016000845114611e6b5783611ea2565b6040518060400160405280600381526020017f4e2f4100000000000000000000000000000000000000000000000000000000008152505b8152602001846001811115611eba57611eb9615051565b5b81526020018681526020013373ffffffffffffffffffffffffffffffffffffffff16815250905060c98190806001815401808255809150506001900390600052602060002090600702016000909190919091506000820151816000019080519060200190611f29929190613bf3565b506020820151816001019080519060200190611f46929190613bf3565b506040820151816002019080519060200190611f63929190613bf3565b506060820151816003019080519060200190611f80929190613bf3565b5060808201518160040160006101000a81548160ff02191690836001811115611fac57611fab615051565b5b021790555060a0820151816005015560c08201518160060160006101000a81548173ffffffffffffffffffffffffffffffffffffffff021916908373ffffffffffffffffffffffffffffffffffffffff16021790555050506000600160c9805490506120189190614e28565b9050600160ce60003373ffffffffffffffffffffffffffffffffffffffff1673ffffffffffffffffffffffffffffffffffffffff16815260200190815260200160002060003373ffffffffffffffffffffffffffffffffffffffff1673ffffffffffffffffffffffffffffffffffffffff16815260200190815260200160002060008282546120a79190614e28565b925050819055506120b833826129fb565b6001808111156120cb576120ca615051565b5b8460018111156120de576120dd615051565b5b14156120ef576120ee878261094f565b5b807fca415781ccaae1268e94422f031b13473b48954405dfbf56e4578b2d2079fbcf8b8b8b87898c3360405161212b9796959493929190614947565b60405180910390a250505050505050505050565b61215161214a6127fd565b8383612a19565b5050565b606060d160008373ffffffffffffffffffffffffffffffffffffffff1673ffffffffffffffffffffffffffffffffffffffff16815260200190815260200160002080546121a190614f47565b80601f01602080910402602001604051908101604052809291908181526020018280546121cd90614f47565b801561221a5780601f106121ef5761010080835404028352916020019161221a565b820191906000526020600020905b8154815290600101906020018083116121fd57829003601f168201915b50505050509050919050565b600060cc54905090565b606060c9805480602002602001604051908101604052809291908181526020016000905b8282101561256957838290600052602060002090600702016040518060e001604052908160008201805461228790614f47565b80601f01602080910402602001604051908101604052809291908181526020018280546122b390614f47565b80156123005780601f106122d557610100808354040283529160200191612300565b820191906000526020600020905b8154815290600101906020018083116122e357829003601f168201915b5050505050815260200160018201805461231990614f47565b80601f016020809104026020016040519081016040528092919081815260200182805461234590614f47565b80156123925780601f1061236757610100808354040283529160200191612392565b820191906000526020600020905b81548152906001019060200180831161237557829003601f168201915b505050505081526020016002820180546123ab90614f47565b80601f01602080910402602001604051908101604052809291908181526020018280546123d790614f47565b80156124245780601f106123f957610100808354040283529160200191612424565b820191906000526020600020905b81548152906001019060200180831161240757829003601f168201915b5050505050815260200160038201805461243d90614f47565b80601f016020809104026020016040519081016040528092919081815260200182805461246990614f47565b80156124b65780601f1061248b576101008083540402835291602001916124b6565b820191906000526020600020905b81548152906001019060200180831161249957829003601f168201915b505050505081526020016004820160009054906101000a900460ff1660018111156124e4576124e3615051565b5b60018111156124f6576124f5615051565b5b8152602001600582015481526020016006820160009054906101000a900473ffffffffffffffffffffffffffffffffffffffff1673ffffffffffffffffffffffffffffffffffffffff1673ffffffffffffffffffffffffffffffffffffffff168152505081526020019060010190612254565b50505050905090565b61258361257d6127fd565b836128be565b6125c2576040517f08c379a00000000000000000000000000000000000000000000000000000000081526004016125b9906149d2565b60405180910390fd5b6125ce84848484612b86565b50505050565b60606125df826127b2565b60006125e9612be2565b905060008151116126095760405180602001604052806000815250612634565b8061261384612bf9565b60405160200161262492919061482d565b6040516020818303038152906040525b915050919050565b6000606a60008473ffffffffffffffffffffffffffffffffffffffff1673ffffffffffffffffffffffffffffffffffffffff16815260200190815260200160002060008373ffffffffffffffffffffffffffffffffffffffff1673ffffffffffffffffffffffffffffffffffffffff16815260200190815260200160002060009054906101000a900460ff16905092915050565b60007f80ac58cd000000000000000000000000000000000000000000000000000000007bffffffffffffffffffffffffffffffffffffffffffffffffffffffff1916827bffffffffffffffffffffffffffffffffffffffffffffffffffffffff1916148061279b57507f5b5e139f000000000000000000000000000000000000000000000000000000007bffffffffffffffffffffffffffffffffffffffffffffffffffffffff1916827bffffffffffffffffffffffffffffffffffffffffffffffffffffffff1916145b806127ab57506127aa82612cd1565b5b9050919050565b6127bb81612d3b565b6127fa576040517f08c379a00000000000000000000000000000000000000000000000000000000081526004016127f190614af2565b60405180910390fd5b50565b600033905090565b816069600083815260200190815260200160002060006101000a81548173ffffffffffffffffffffffffffffffffffffffff021916908373ffffffffffffffffffffffffffffffffffffffff160217905550808273ffffffffffffffffffffffffffffffffffffffff166128788361163b565b73ffffffffffffffffffffffffffffffffffffffff167f8c5be1e5ebec7d5bd14f71427d1e84f3dd0314c0f7b2291e5b200ac8c7c3b92560405160405180910390a45050565b6000806128ca8361163b565b90508073ffffffffffffffffffffffffffffffffffffffff168473ffffffffffffffffffffffffffffffffffffffff16148061290c575061290b818561263c565b5b8061294a57508373ffffffffffffffffffffffffffffffffffffffff1661293284610909565b73ffffffffffffffffffffffffffffffffffffffff16145b91505092915050565b61295e838383612d7c565b8173ffffffffffffffffffffffffffffffffffffffff168373ffffffffffffffffffffffffffffffffffffffff16827fa39c1232e046ab0ad1c4221e11516a35ad636b4eb5a7acaabbfd44eaca8fe00760405160405180910390a4505050565b60006067600083815260200190815260200160002060009054906101000a900473ffffffffffffffffffffffffffffffffffffffff169050919050565b612a15828260405180602001604052806000815250613076565b5050565b8173ffffffffffffffffffffffffffffffffffffffff168373ffffffffffffffffffffffffffffffffffffffff161415612a88576040517f08c379a0000000000000000000000000000000000000000000000000000000008152600401612a7f90614a92565b60405180910390fd5b80606a60008573ffffffffffffffffffffffffffffffffffffffff1673ffffffffffffffffffffffffffffffffffffffff16815260200190815260200160002060008473ffffffffffffffffffffffffffffffffffffffff1673ffffffffffffffffffffffffffffffffffffffff16815260200190815260200160002060006101000a81548160ff0219169083151502179055508173ffffffffffffffffffffffffffffffffffffffff168373ffffffffffffffffffffffffffffffffffffffff167f17307eab39ab6107e8899845ad3d59bd9653f200f220920489ca2b5937696c3183604051612b79919061490a565b60405180910390a3505050565b612b91848484612953565b612b9d848484846130d1565b612bdc576040517f08c379a0000000000000000000000000000000000000000000000000000000008152600401612bd390614a12565b60405180910390fd5b50505050565b606060405180602001604052806000815250905090565b606060006001612c0884613268565b01905060008167ffffffffffffffff811115612c2757612c2661510d565b5b6040519080825280601f01601f191660200182016040528015612c595781602001600182028036833780820191505090505b509050600082602001820190505b600115612cc6578080600190039150507f3031323334353637383961626364656600000000000000000000000000000000600a86061a8153600a8581612cb057612caf615022565b5b0494506000851415612cc157612cc6565b612c67565b819350505050919050565b60007f01ffc9a7000000000000000000000000000000000000000000000000000000007bffffffffffffffffffffffffffffffffffffffffffffffffffffffff1916827bffffffffffffffffffffffffffffffffffffffffffffffffffffffff1916149050919050565b60008073ffffffffffffffffffffffffffffffffffffffff16612d5d836129be565b73ffffffffffffffffffffffffffffffffffffffff1614159050919050565b8273ffffffffffffffffffffffffffffffffffffffff16612d9c8261163b565b73ffffffffffffffffffffffffffffffffffffffff1614612df2576040517f08c379a0000000000000000000000000000000000000000000000000000000008152600401612de990614a32565b60405180910390fd5b600073ffffffffffffffffffffffffffffffffffffffff168273ffffffffffffffffffffffffffffffffffffffff161415612e62576040517f08c379a0000000000000000000000000000000000000000000000000000000008152600401612e5990614a72565b60405180910390fd5b612e6f83838360016133bb565b8273ffffffffffffffffffffffffffffffffffffffff16612e8f8261163b565b73ffffffffffffffffffffffffffffffffffffffff1614612ee5576040517f08c379a0000000000000000000000000000000000000000000000000000000008152600401612edc90614a32565b60405180910390fd5b6069600082815260200190815260200160002060006101000a81549073ffffffffffffffffffffffffffffffffffffffff02191690556001606860008573ffffffffffffffffffffffffffffffffffffffff1673ffffffffffffffffffffffffffffffffffffffff168152602001908152602001600020600082825403925050819055506001606860008473ffffffffffffffffffffffffffffffffffffffff1673ffffffffffffffffffffffffffffffffffffffff16815260200190815260200160002060008282540192505081905550816067600083815260200190815260200160002060006101000a81548173ffffffffffffffffffffffffffffffffffffffff021916908373ffffffffffffffffffffffffffffffffffffffff160217905550808273ffffffffffffffffffffffffffffffffffffffff168473ffffffffffffffffffffffffffffffffffffffff167fddf252ad1be2c89b69c2b068fc378daa952ba7f163c4a11628f55a4df523b3ef60405160405180910390a4613071838383600161351b565b505050565b6130808383613521565b61308d60008484846130d1565b6130cc576040517f08c379a00000000000000000000000000000000000000000000000000000000081526004016130c390614a12565b60405180910390fd5b505050565b60006130f28473ffffffffffffffffffffffffffffffffffffffff1661373f565b1561325b578373ffffffffffffffffffffffffffffffffffffffff1663150b7a0261311b6127fd565b8786866040518563ffffffff1660e01b815260040161313d949392919061486c565b602060405180830381600087803b15801561315757600080fd5b505af192505050801561318857506040513d601f19601f82011682018060405250810190613185919061406d565b60015b61320b573d80600081146131b8576040519150601f19603f3d011682016040523d82523d6000602084013e6131bd565b606091505b50600081511415613203576040517f08c379a00000000000000000000000000000000000000000000000000000000081526004016131fa90614a12565b60405180910390fd5b805181602001fd5b63150b7a0260e01b7bffffffffffffffffffffffffffffffffffffffffffffffffffffffff1916817bffffffffffffffffffffffffffffffffffffffffffffffffffffffff191614915050613260565b600190505b949350505050565b600080600090507a184f03e93ff9f4daa797ed6e38ed64bf6a1f01000000000000000083106132c6577a184f03e93ff9f4daa797ed6e38ed64bf6a1f01000000000000000083816132bc576132bb615022565b5b0492506040810190505b6d04ee2d6d415b85acef81000000008310613303576d04ee2d6d415b85acef810000000083816132f9576132f8615022565b5b0492506020810190505b662386f26fc10000831061333257662386f26fc10000838161332857613327615022565b5b0492506010810190505b6305f5e100831061335b576305f5e100838161335157613350615022565b5b0492506008810190505b612710831061338057612710838161337657613375615022565b5b0492506004810190505b606483106133a3576064838161339957613398615022565b5b0492506002810190505b600a83106133b2576001810190505b80915050919050565b6133c784848484613762565b600181111561340b576040517f08c379a000000000000000000000000000000000000000000000000000000000815260040161340290614b72565b60405180910390fd5b6000829050600073ffffffffffffffffffffffffffffffffffffffff168573ffffffffffffffffffffffffffffffffffffffff1614156134535761344e81613888565b613492565b8373ffffffffffffffffffffffffffffffffffffffff168573ffffffffffffffffffffffffffffffffffffffff16146134915761349085826138d1565b5b5b600073ffffffffffffffffffffffffffffffffffffffff168473ffffffffffffffffffffffffffffffffffffffff1614156134d5576134d081613a3e565b613514565b8473ffffffffffffffffffffffffffffffffffffffff168473ffffffffffffffffffffffffffffffffffffffff1614613513576135128482613b0f565b5b5b5050505050565b50505050565b600073ffffffffffffffffffffffffffffffffffffffff168273ffffffffffffffffffffffffffffffffffffffff161415613591576040517f08c379a000000000000000000000000000000000000000000000000000000000815260040161358890614ad2565b60405180910390fd5b61359a81612d3b565b156135da576040517f08c379a00000000000000000000000000000000000000000000000000000000081526004016135d190614a52565b60405180910390fd5b6135e86000838360016133bb565b6135f181612d3b565b15613631576040517f08c379a000000000000000000000000000000000000000000000000000000000815260040161362890614a52565b60405180910390fd5b6001606860008473ffffffffffffffffffffffffffffffffffffffff1673ffffffffffffffffffffffffffffffffffffffff16815260200190815260200160002060008282540192505081905550816067600083815260200190815260200160002060006101000a81548173ffffffffffffffffffffffffffffffffffffffff021916908373ffffffffffffffffffffffffffffffffffffffff160217905550808273ffffffffffffffffffffffffffffffffffffffff16600073ffffffffffffffffffffffffffffffffffffffff167fddf252ad1be2c89b69c2b068fc378daa952ba7f163c4a11628f55a4df523b3ef60405160405180910390a461373b60008383600161351b565b5050565b6000808273ffffffffffffffffffffffffffffffffffffffff163b119050919050565b600181111561388257600073ffffffffffffffffffffffffffffffffffffffff168473ffffffffffffffffffffffffffffffffffffffff16146137f65780606860008673ffffffffffffffffffffffffffffffffffffffff1673ffffffffffffffffffffffffffffffffffffffff16815260200190815260200160002060008282546137ee9190614e28565b925050819055505b600073ffffffffffffffffffffffffffffffffffffffff168373ffffffffffffffffffffffffffffffffffffffff16146138815780606860008573ffffffffffffffffffffffffffffffffffffffff1673ffffffffffffffffffffffffffffffffffffffff16815260200190815260200160002060008282546138799190614d78565b925050819055505b5b50505050565b609980549050609a600083815260200190815260200160002081905550609981908060018154018082558091505060019003906000526020600020016000909190919091505550565b600060016138de846116c2565b6138e89190614e28565b90506000609860008481526020019081526020016000205490508181146139cd576000609760008673ffffffffffffffffffffffffffffffffffffffff1673ffffffffffffffffffffffffffffffffffffffff168152602001908152602001600020600084815260200190815260200160002054905080609760008773ffffffffffffffffffffffffffffffffffffffff1673ffffffffffffffffffffffffffffffffffffffff168152602001908152602001600020600084815260200190815260200160002081905550816098600083815260200190815260200160002081905550505b6098600084815260200190815260200160002060009055609760008573ffffffffffffffffffffffffffffffffffffffff1673ffffffffffffffffffffffffffffffffffffffff16815260200190815260200160002060008381526020019081526020016000206000905550505050565b60006001609980549050613a529190614e28565b90506000609a6000848152602001908152602001600020549050600060998381548110613a8257613a816150de565b5b906000526020600020015490508060998381548110613aa457613aa36150de565b5b906000526020600020018190555081609a600083815260200190815260200160002081905550609a6000858152602001908152602001600020600090556099805480613af357613af26150af565b5b6001900381819060005260206000200160009055905550505050565b6000613b1a836116c2565b905081609760008573ffffffffffffffffffffffffffffffffffffffff1673ffffffffffffffffffffffffffffffffffffffff168152602001908152602001600020600083815260200190815260200160002081905550806098600084815260200190815260200160002081905550505050565b6040518060e001604052806060815260200160608152602001606081526020016060815260200160006001811115613bc957613bc8615051565b5b815260200160008152602001600073ffffffffffffffffffffffffffffffffffffffff1681525090565b828054613bff90614f47565b90600052602060002090601f016020900481019282613c215760008555613c68565b82601f10613c3a57805160ff1916838001178555613c68565b82800160010185558215613c68579182015b82811115613c67578251825591602001919060010190613c4c565b5b509050613c759190613c79565b5090565b5b80821115613c92576000816000905550600101613c7a565b5090565b6000613ca9613ca484614c24565b614bff565b90508083825260208201905082856020860282011115613ccc57613ccb615141565b5b60005b85811015613cfc5781613ce28882613d8a565b845260208401935060208301925050600181019050613ccf565b5050509392505050565b6000613d19613d1484614c50565b614bff565b905082815260208101848484011115613d3557613d34615146565b5b613d40848285614f05565b509392505050565b6000613d5b613d5684614c81565b614bff565b905082815260208101848484011115613d7757613d76615146565b5b613d82848285614f05565b509392505050565b600081359050613d9981615534565b92915050565b600082601f830112613db457613db361513c565b5b8135613dc4848260208601613c96565b91505092915050565b600081359050613ddc8161554b565b92915050565b600081359050613df181615562565b92915050565b600081519050613e0681615562565b92915050565b600082601f830112613e2157613e2061513c565b5b8135613e31848260208601613d06565b91505092915050565b600082601f830112613e4f57613e4e61513c565b5b8135613e5f848260208601613d48565b91505092915050565b600081359050613e7781615579565b92915050565b600060208284031215613e9357613e92615150565b5b6000613ea184828501613d8a565b91505092915050565b60008060408385031215613ec157613ec0615150565b5b6000613ecf85828601613d8a565b9250506020613ee085828601613d8a565b9150509250929050565b600080600060608486031215613f0357613f02615150565b5b6000613f1186828701613d8a565b9350506020613f2286828701613d8a565b9250506040613f3386828701613e68565b9150509250925092565b60008060008060808587031215613f5757613f56615150565b5b6000613f6587828801613d8a565b9450506020613f7687828801613d8a565b9350506040613f8787828801613e68565b925050606085013567ffffffffffffffff811115613fa857613fa761514b565b5b613fb487828801613e0c565b91505092959194509250565b60008060408385031215613fd757613fd6615150565b5b6000613fe585828601613d8a565b9250506020613ff685828601613dcd565b9150509250929050565b6000806040838503121561401757614016615150565b5b600061402585828601613d8a565b925050602061403685828601613e68565b9150509250929050565b60006020828403121561405657614055615150565b5b600061406484828501613de2565b91505092915050565b60006020828403121561408357614082615150565b5b600061409184828501613df7565b91505092915050565b6000602082840312156140b0576140af615150565b5b600082013567ffffffffffffffff8111156140ce576140cd61514b565b5b6140da84828501613e3a565b91505092915050565b600080600080600060a086880312156140ff576140fe615150565b5b600086013567ffffffffffffffff81111561411d5761411c61514b565b5b61412988828901613e3a565b955050602086013567ffffffffffffffff81111561414a5761414961514b565b5b61415688828901613e3a565b945050604086013567ffffffffffffffff8111156141775761417661514b565b5b61418388828901613e3a565b935050606061419488828901613d8a565b92505060806141a588828901613e68565b9150509295509295909350565b6000602082840312156141c8576141c7615150565b5b60006141d684828501613e68565b91505092915050565b600080604083850312156141f6576141f5615150565b5b600061420485828601613e68565b925050602083013567ffffffffffffffff8111156142255761422461514b565b5b61423185828601613d9f565b9150509250929050565b60008060006060848603121561425457614253615150565b5b600061426286828701613e68565b935050602061427386828701613e68565b925050604061428486828701613e68565b9150509250925092565b600061429a83836142ba565b60208301905092915050565b60006142b2838361469e565b905092915050565b6142c381614e5c565b82525050565b6142d281614e5c565b82525050565b60006142e382614cd2565b6142ed8185614d18565b93506142f883614cb2565b8060005b83811015614329578151614310888261428e565b975061431b83614cfe565b9250506001810190506142fc565b5085935050505092915050565b600061434182614cdd565b61434b8185614d29565b93508360208202850161435d85614cc2565b8060005b85811015614399578484038952815161437a85826142a6565b945061438583614d0b565b925060208a01995050600181019050614361565b50829750879550505050505092915050565b6143b481614e6e565b82525050565b60006143c582614ce8565b6143cf8185614d3a565b93506143df818560208601614f14565b6143e881615155565b840191505092915050565b6143fc81614ef3565b82525050565b61440b81614ef3565b82525050565b600061441c82614cf3565b6144268185614d4b565b9350614436818560208601614f14565b61443f81615155565b840191505092915050565b600061445582614cf3565b61445f8185614d5c565b935061446f818560208601614f14565b61447881615155565b840191505092915050565b600061448e82614cf3565b6144988185614d6d565b93506144a8818560208601614f14565b80840191505092915050565b60006144c1602d83614d5c565b91506144cc82615166565b604082019050919050565b60006144e4602b83614d5c565b91506144ef826151b5565b604082019050919050565b6000614507603283614d5c565b915061451282615204565b604082019050919050565b600061452a602583614d5c565b915061453582615253565b604082019050919050565b600061454d601c83614d5c565b9150614558826152a2565b602082019050919050565b6000614570602483614d5c565b915061457b826152cb565b604082019050919050565b6000614593601983614d5c565b915061459e8261531a565b602082019050919050565b60006145b6602983614d5c565b91506145c182615343565b604082019050919050565b60006145d9602083614d5c565b91506145e482615392565b602082019050919050565b60006145fc601883614d5c565b9150614607826153bb565b602082019050919050565b600061461f602183614d5c565b915061462a826153e4565b604082019050919050565b6000614642603d83614d5c565b915061464d82615433565b604082019050919050565b6000614665602c83614d5c565b915061467082615482565b604082019050919050565b6000614688603583614d5c565b9150614693826154d1565b604082019050919050565b600060e08301600083015184820360008601526146bb8282614411565b915050602083015184820360208601526146d58282614411565b915050604083015184820360408601526146ef8282614411565b915050606083015184820360608601526147098282614411565b915050608083015161471e60808601826143f3565b5060a083015161473160a0860182614800565b5060c083015161474460c08601826142ba565b508091505092915050565b600060e083016000830151848203600086015261476c8282614411565b915050602083015184820360208601526147868282614411565b915050604083015184820360408601526147a08282614411565b915050606083015184820360608601526147ba8282614411565b91505060808301516147cf60808601826143f3565b5060a08301516147e260a0860182614800565b5060c08301516147f560c08601826142ba565b508091505092915050565b61480981614ed9565b82525050565b61481881614ed9565b82525050565b61482781614ee3565b82525050565b60006148398285614483565b91506148458284614483565b91508190509392505050565b600060208201905061486660008301846142c9565b92915050565b600060808201905061488160008301876142c9565b61488e60208301866142c9565b61489b604083018561480f565b81810360608301526148ad81846143ba565b905095945050505050565b600060408201905081810360008301526148d281856142d8565b90506148e1602083018461481e565b9392505050565b600060208201905081810360008301526149028184614336565b905092915050565b600060208201905061491f60008301846143ab565b92915050565b6000602082019050818103600083015261493f818461444a565b905092915050565b600060e0820190508181036000830152614961818a61444a565b90508181036020830152614975818961444a565b90508181036040830152614989818861444a565b9050818103606083015261499d818761444a565b90506149ac6080830186614402565b6149b960a083018561480f565b6149c660c08301846142c9565b98975050505050505050565b600060208201905081810360008301526149eb816144b4565b9050919050565b60006020820190508181036000830152614a0b816144d7565b9050919050565b60006020820190508181036000830152614a2b816144fa565b9050919050565b60006020820190508181036000830152614a4b8161451d565b9050919050565b60006020820190508181036000830152614a6b81614540565b9050919050565b60006020820190508181036000830152614a8b81614563565b9050919050565b60006020820190508181036000830152614aab81614586565b9050919050565b60006020820190508181036000830152614acb816145a9565b9050919050565b60006020820190508181036000830152614aeb816145cc565b9050919050565b60006020820190508181036000830152614b0b816145ef565b9050919050565b60006020820190508181036000830152614b2b81614612565b9050919050565b60006020820190508181036000830152614b4b81614635565b9050919050565b60006020820190508181036000830152614b6b81614658565b9050919050565b60006020820190508181036000830152614b8b8161467b565b9050919050565b60006020820190508181036000830152614bac818461474f565b905092915050565b6000602082019050614bc9600083018461480f565b92915050565b6000604082019050614be4600083018561480f565b8181036020830152614bf6818461444a565b90509392505050565b6000614c09614c1a565b9050614c158282614f79565b919050565b6000604051905090565b600067ffffffffffffffff821115614c3f57614c3e61510d565b5b602082029050602081019050919050565b600067ffffffffffffffff821115614c6b57614c6a61510d565b5b614c7482615155565b9050602081019050919050565b600067ffffffffffffffff821115614c9c57614c9b61510d565b5b614ca582615155565b9050602081019050919050565b6000819050602082019050919050565b6000819050602082019050919050565b600081519050919050565b600081519050919050565b600081519050919050565b600081519050919050565b6000602082019050919050565b6000602082019050919050565b600082825260208201905092915050565b600082825260208201905092915050565b600082825260208201905092915050565b600082825260208201905092915050565b600082825260208201905092915050565b600081905092915050565b6000614d8382614ed9565b9150614d8e83614ed9565b9250827fffffffffffffffffffffffffffffffffffffffffffffffffffffffffffffffff03821115614dc357614dc2614ff3565b5b828201905092915050565b6000614dd982614ed9565b9150614de483614ed9565b9250817fffffffffffffffffffffffffffffffffffffffffffffffffffffffffffffffff0483118215151615614e1d57614e1c614ff3565b5b828202905092915050565b6000614e3382614ed9565b9150614e3e83614ed9565b925082821015614e5157614e50614ff3565b5b828203905092915050565b6000614e6782614eb9565b9050919050565b60008115159050919050565b60007fffffffff0000000000000000000000000000000000000000000000000000000082169050919050565b6000819050614eb482615520565b919050565b600073ffffffffffffffffffffffffffffffffffffffff82169050919050565b6000819050919050565b600063ffffffff82169050919050565b6000614efe82614ea6565b9050919050565b82818337600083830152505050565b60005b83811015614f32578082015181840152602081019050614f17565b83811115614f41576000848401525b50505050565b60006002820490506001821680614f5f57607f821691505b60208210811415614f7357614f72615080565b5b50919050565b614f8282615155565b810181811067ffffffffffffffff82111715614fa157614fa061510d565b5b80604052505050565b6000614fb582614ed9565b91507fffffffffffffffffffffffffffffffffffffffffffffffffffffffffffffffff821415614fe857614fe7614ff3565b5b600182019050919050565b7f4e487b7100000000000000000000000000000000000000000000000000000000600052601160045260246000fd5b7f4e487b7100000000000000000000000000000000000000000000000000000000600052601260045260246000fd5b7f4e487b7100000000000000000000000000000000000000000000000000000000600052602160045260246000fd5b7f4e487b7100000000000000000000000000000000000000000000000000000000600052602260045260246000fd5b7f4e487b7100000000000000000000000000000000000000000000000000000000600052603160045260246000fd5b7f4e487b7100000000000000000000000000000000000000000000000000000000600052603260045260246000fd5b7f4e487b7100000000000000000000000000000000000000000000000000000000600052604160045260246000fd5b600080fd5b600080fd5b600080fd5b600080fd5b600080fd5b6000601f19601f8301169050919050565b7f4552433732313a2063616c6c6572206973206e6f7420746f6b656e206f776e6560008201527f72206f7220617070726f76656400000000000000000000000000000000000000602082015250565b7f455243373231456e756d657261626c653a206f776e657220696e646578206f7560008201527f74206f6620626f756e6473000000000000000000000000000000000000000000602082015250565b7f4552433732313a207472616e7366657220746f206e6f6e20455243373231526560008201527f63656976657220696d706c656d656e7465720000000000000000000000000000602082015250565b7f4552433732313a207472616e736665722066726f6d20696e636f72726563742060008201527f6f776e6572000000000000000000000000000000000000000000000000000000602082015250565b7f4552433732313a20746f6b656e20616c7265616479206d696e74656400000000600082015250565b7f4552433732313a207472616e7366657220746f20746865207a65726f2061646460008201527f7265737300000000000000000000000000000000000000000000000000000000602082015250565b7f4552433732313a20617070726f766520746f2063616c6c657200000000000000600082015250565b7f4552433732313a2061646472657373207a65726f206973206e6f74206120766160008201527f6c6964206f776e65720000000000000000000000000000000000000000000000602082015250565b7f4552433732313a206d696e7420746f20746865207a65726f2061646472657373600082015250565b7f4552433732313a20696e76616c696420746f6b656e2049440000000000000000600082015250565b7f4552433732313a20617070726f76616c20746f2063757272656e74206f776e6560008201527f7200000000000000000000000000000000000000000000000000000000000000602082015250565b7f4552433732313a20617070726f76652063616c6c6572206973206e6f7420746f60008201527f6b656e206f776e6572206f7220617070726f76656420666f7220616c6c000000602082015250565b7f455243373231456e756d657261626c653a20676c6f62616c20696e646578206f60008201527f7574206f6620626f756e64730000000000000000000000000000000000000000602082015250565b7f455243373231456e756d657261626c653a20636f6e736563757469766520747260008201527f616e7366657273206e6f7420737570706f727465640000000000000000000000602082015250565b6002811061553157615530615051565b5b50565b61553d81614e5c565b811461554857600080fd5b50565b61555481614e6e565b811461555f57600080fd5b50565b61556b81614e7a565b811461557657600080fd5b50565b61558281614ed9565b811461558d57600080fd5b5056fea2646970667358221220b79db5ef7095a330689945fa69d36574851c1f496a3731382f6ba75ddd8340fd64736f6c63430008070033","opcodes":"PUSH1 0x80 PUSH1 0x40 MSTORE CALLVALUE DUP1 ISZERO PUSH2 0x10 JUMPI PUSH1 0x0 DUP1 REVERT JUMPDEST POP PUSH2 0x55C6 DUP1 PUSH3 0x21 PUSH1 0x0 CODECOPY PUSH1 0x0 RETURN INVALID PUSH1 0x80 PUSH1 0x40 MSTORE PUSH1 0x4 CALLDATASIZE LT PUSH2 0x1D8 JUMPI PUSH1 0x0 CALLDATALOAD PUSH1 0xE0 SHR DUP1 PUSH4 0x5D662C53 GT PUSH2 0x102 JUMPI DUP1 PUSH4 0xA2235934 GT PUSH2 0x95 JUMPI DUP1 PUSH4 0xB0DF9E53 GT PUSH2 0x64 JUMPI DUP1 PUSH4 0xB0DF9E53 EQ PUSH2 0x72F JUMPI DUP1 PUSH4 0xB88D4FDE EQ PUSH2 0x75A JUMPI DUP1 PUSH4 0xC87B56DD EQ PUSH2 0x783 JUMPI DUP1 PUSH4 0xE985E9C5 EQ PUSH2 0x7C0 JUMPI PUSH2 0x1D8 JUMP JUMPDEST DUP1 PUSH4 0xA2235934 EQ PUSH2 0x675 JUMPI DUP1 PUSH4 0xA22CB465 EQ PUSH2 0x69E JUMPI DUP1 PUSH4 0xA4EF7031 EQ PUSH2 0x6C7 JUMPI DUP1 PUSH4 0xA7F93EBD EQ PUSH2 0x704 JUMPI PUSH2 0x1D8 JUMP JUMPDEST DUP1 PUSH4 0x7D620130 GT PUSH2 0xD1 JUMPI DUP1 PUSH4 0x7D620130 EQ PUSH2 0x5A5 JUMPI DUP1 PUSH4 0x9188D312 EQ PUSH2 0x5D0 JUMPI DUP1 PUSH4 0x95ACF987 EQ PUSH2 0x60D JUMPI DUP1 PUSH4 0x95D89B41 EQ PUSH2 0x64A JUMPI PUSH2 0x1D8 JUMP JUMPDEST DUP1 PUSH4 0x5D662C53 EQ PUSH2 0x4C3 JUMPI DUP1 PUSH4 0x61A53251 EQ PUSH2 0x500 JUMPI DUP1 PUSH4 0x6352211E EQ PUSH2 0x52B JUMPI DUP1 PUSH4 0x70A08231 EQ PUSH2 0x568 JUMPI PUSH2 0x1D8 JUMP JUMPDEST DUP1 PUSH4 0x185590E2 GT PUSH2 0x17A JUMPI DUP1 PUSH4 0x42842E0E GT PUSH2 0x149 JUMPI DUP1 PUSH4 0x42842E0E EQ PUSH2 0x404 JUMPI DUP1 PUSH4 0x46F45B8D EQ PUSH2 0x42D JUMPI DUP1 PUSH4 0x47C36B8C EQ PUSH2 0x45D JUMPI DUP1 PUSH4 0x4F6CCCE7 EQ PUSH2 0x486 JUMPI PUSH2 0x1D8 JUMP JUMPDEST DUP1 PUSH4 0x185590E2 EQ PUSH2 0x324 JUMPI DUP1 PUSH4 0x23B872DD EQ PUSH2 0x361 JUMPI DUP1 PUSH4 0x2F745C59 EQ PUSH2 0x38A JUMPI DUP1 PUSH4 0x3D49C66C EQ PUSH2 0x3C7 JUMPI PUSH2 0x1D8 JUMP JUMPDEST DUP1 PUSH4 0x95EA7B3 GT PUSH2 0x1B6 JUMPI DUP1 PUSH4 0x95EA7B3 EQ PUSH2 0x282 JUMPI DUP1 PUSH4 0x1249C58B EQ PUSH2 0x2AB JUMPI DUP1 PUSH4 0x154308F0 EQ PUSH2 0x2C9 JUMPI DUP1 PUSH4 0x18160DDD EQ PUSH2 0x2F9 JUMPI PUSH2 0x1D8 JUMP JUMPDEST DUP1 PUSH4 0x1FFC9A7 EQ PUSH2 0x1DD JUMPI DUP1 PUSH4 0x6FDDE03 EQ PUSH2 0x21A JUMPI DUP1 PUSH4 0x81812FC EQ PUSH2 0x245 JUMPI JUMPDEST PUSH1 0x0 DUP1 REVERT JUMPDEST CALLVALUE DUP1 ISZERO PUSH2 0x1E9 JUMPI PUSH1 0x0 DUP1 REVERT JUMPDEST POP PUSH2 0x204 PUSH1 0x4 DUP1 CALLDATASIZE SUB DUP2 ADD SWAP1 PUSH2 0x1FF SWAP2 SWAP1 PUSH2 0x4040 JUMP JUMPDEST PUSH2 0x7FD JUMP JUMPDEST PUSH1 0x40 MLOAD PUSH2 0x211 SWAP2 SWAP1 PUSH2 0x490A JUMP JUMPDEST PUSH1 0x40 MLOAD DUP1 SWAP2 SUB SWAP1 RETURN JUMPDEST CALLVALUE DUP1 ISZERO PUSH2 0x226 JUMPI PUSH1 0x0 DUP1 REVERT JUMPDEST POP PUSH2 0x22F PUSH2 0x877 JUMP JUMPDEST PUSH1 0x40 MLOAD PUSH2 0x23C SWAP2 SWAP1 PUSH2 0x4925 JUMP JUMPDEST PUSH1 0x40 MLOAD DUP1 SWAP2 SUB SWAP1 RETURN JUMPDEST CALLVALUE DUP1 ISZERO PUSH2 0x251 JUMPI PUSH1 0x0 DUP1 REVERT JUMPDEST POP PUSH2 0x26C PUSH1 0x4 DUP1 CALLDATASIZE SUB DUP2 ADD SWAP1 PUSH2 0x267 SWAP2 SWAP1 PUSH2 0x41B2 JUMP JUMPDEST PUSH2 0x909 JUMP JUMPDEST PUSH1 0x40 MLOAD PUSH2 0x279 SWAP2 SWAP1 PUSH2 0x4851 JUMP JUMPDEST PUSH1 0x40 MLOAD DUP1 SWAP2 SUB SWAP1 RETURN JUMPDEST CALLVALUE DUP1 ISZERO PUSH2 0x28E JUMPI PUSH1 0x0 DUP1 REVERT JUMPDEST POP PUSH2 0x2A9 PUSH1 0x4 DUP1 CALLDATASIZE SUB DUP2 ADD SWAP1 PUSH2 0x2A4 SWAP2 SWAP1 PUSH2 0x4000 JUMP JUMPDEST PUSH2 0x94F JUMP JUMPDEST STOP JUMPDEST PUSH2 0x2B3 PUSH2 0xA67 JUMP JUMPDEST PUSH1 0x40 MLOAD PUSH2 0x2C0 SWAP2 SWAP1 PUSH2 0x490A JUMP JUMPDEST PUSH1 0x40 MLOAD DUP1 SWAP2 SUB SWAP1 RETURN JUMPDEST PUSH2 0x2E3 PUSH1 0x4 DUP1 CALLDATASIZE SUB DUP2 ADD SWAP1 PUSH2 0x2DE SWAP2 SWAP1 PUSH2 0x41DF JUMP JUMPDEST PUSH2 0xCB2 JUMP JUMPDEST PUSH1 0x40 MLOAD PUSH2 0x2F0 SWAP2 SWAP1 PUSH2 0x490A JUMP JUMPDEST PUSH1 0x40 MLOAD DUP1 SWAP2 SUB SWAP1 RETURN JUMPDEST CALLVALUE DUP1 ISZERO PUSH2 0x305 JUMPI PUSH1 0x0 DUP1 REVERT JUMPDEST POP PUSH2 0x30E PUSH2 0xF2C JUMP JUMPDEST PUSH1 0x40 MLOAD PUSH2 0x31B SWAP2 SWAP1 PUSH2 0x4BB4 JUMP JUMPDEST PUSH1 0x40 MLOAD DUP1 SWAP2 SUB SWAP1 RETURN JUMPDEST CALLVALUE DUP1 ISZERO PUSH2 0x330 JUMPI PUSH1 0x0 DUP1 REVERT JUMPDEST POP PUSH2 0x34B PUSH1 0x4 DUP1 CALLDATASIZE SUB DUP2 ADD SWAP1 PUSH2 0x346 SWAP2 SWAP1 PUSH2 0x4000 JUMP JUMPDEST PUSH2 0xF39 JUMP JUMPDEST PUSH1 0x40 MLOAD PUSH2 0x358 SWAP2 SWAP1 PUSH2 0x4B92 JUMP JUMPDEST PUSH1 0x40 MLOAD DUP1 SWAP2 SUB SWAP1 RETURN JUMPDEST CALLVALUE DUP1 ISZERO PUSH2 0x36D JUMPI PUSH1 0x0 DUP1 REVERT JUMPDEST POP PUSH2 0x388 PUSH1 0x4 DUP1 CALLDATASIZE SUB DUP2 ADD SWAP1 PUSH2 0x383 SWAP2 SWAP1 PUSH2 0x3EEA JUMP JUMPDEST PUSH2 0x1262 JUMP JUMPDEST STOP JUMPDEST CALLVALUE DUP1 ISZERO PUSH2 0x396 JUMPI PUSH1 0x0 DUP1 REVERT JUMPDEST POP PUSH2 0x3B1 PUSH1 0x4 DUP1 CALLDATASIZE SUB DUP2 ADD SWAP1 PUSH2 0x3AC SWAP2 SWAP1 PUSH2 0x4000 JUMP JUMPDEST PUSH2 0x12C2 JUMP JUMPDEST PUSH1 0x40 MLOAD PUSH2 0x3BE SWAP2 SWAP1 PUSH2 0x4BB4 JUMP JUMPDEST PUSH1 0x40 MLOAD DUP1 SWAP2 SUB SWAP1 RETURN JUMPDEST CALLVALUE DUP1 ISZERO PUSH2 0x3D3 JUMPI PUSH1 0x0 DUP1 REVERT JUMPDEST POP PUSH2 0x3EE PUSH1 0x4 DUP1 CALLDATASIZE SUB DUP2 ADD SWAP1 PUSH2 0x3E9 SWAP2 SWAP1 PUSH2 0x3E7D JUMP JUMPDEST PUSH2 0x1367 JUMP JUMPDEST PUSH1 0x40 MLOAD PUSH2 0x3FB SWAP2 SWAP1 PUSH2 0x490A JUMP JUMPDEST PUSH1 0x40 MLOAD DUP1 SWAP2 SUB SWAP1 RETURN JUMPDEST CALLVALUE DUP1 ISZERO PUSH2 0x410 JUMPI PUSH1 0x0 DUP1 REVERT JUMPDEST POP PUSH2 0x42B PUSH1 0x4 DUP1 CALLDATASIZE SUB DUP2 ADD SWAP1 PUSH2 0x426 SWAP2 SWAP1 PUSH2 0x3EEA JUMP JUMPDEST PUSH2 0x13BD JUMP JUMPDEST STOP JUMPDEST PUSH2 0x447 PUSH1 0x4 DUP1 CALLDATASIZE SUB DUP2 ADD SWAP1 PUSH2 0x442 SWAP2 SWAP1 PUSH2 0x409A JUMP JUMPDEST PUSH2 0x13DD JUMP JUMPDEST PUSH1 0x40 MLOAD PUSH2 0x454 SWAP2 SWAP1 PUSH2 0x490A JUMP JUMPDEST PUSH1 0x40 MLOAD DUP1 SWAP2 SUB SWAP1 RETURN JUMPDEST CALLVALUE DUP1 ISZERO PUSH2 0x469 JUMPI PUSH1 0x0 DUP1 REVERT JUMPDEST POP PUSH2 0x484 PUSH1 0x4 DUP1 CALLDATASIZE SUB DUP2 ADD SWAP1 PUSH2 0x47F SWAP2 SWAP1 PUSH2 0x423B JUMP JUMPDEST PUSH2 0x151F JUMP JUMPDEST STOP JUMPDEST CALLVALUE DUP1 ISZERO PUSH2 0x492 JUMPI PUSH1 0x0 DUP1 REVERT JUMPDEST POP PUSH2 0x4AD PUSH1 0x4 DUP1 CALLDATASIZE SUB DUP2 ADD SWAP1 PUSH2 0x4A8 SWAP2 SWAP1 PUSH2 0x41B2 JUMP JUMPDEST PUSH2 0x1539 JUMP JUMPDEST PUSH1 0x40 MLOAD PUSH2 0x4BA SWAP2 SWAP1 PUSH2 0x4BB4 JUMP JUMPDEST PUSH1 0x40 MLOAD DUP1 SWAP2 SUB SWAP1 RETURN JUMPDEST CALLVALUE DUP1 ISZERO PUSH2 0x4CF JUMPI PUSH1 0x0 DUP1 REVERT JUMPDEST POP PUSH2 0x4EA PUSH1 0x4 DUP1 CALLDATASIZE SUB DUP2 ADD SWAP1 PUSH2 0x4E5 SWAP2 SWAP1 PUSH2 0x3EAA JUMP JUMPDEST PUSH2 0x15AA JUMP JUMPDEST PUSH1 0x40 MLOAD PUSH2 0x4F7 SWAP2 SWAP1 PUSH2 0x4BB4 JUMP JUMPDEST PUSH1 0x40 MLOAD DUP1 SWAP2 SUB SWAP1 RETURN JUMPDEST CALLVALUE DUP1 ISZERO PUSH2 0x50C JUMPI PUSH1 0x0 DUP1 REVERT JUMPDEST POP PUSH2 0x515 PUSH2 0x1631 JUMP JUMPDEST PUSH1 0x40 MLOAD PUSH2 0x522 SWAP2 SWAP1 PUSH2 0x4BB4 JUMP JUMPDEST PUSH1 0x40 MLOAD DUP1 SWAP2 SUB SWAP1 RETURN JUMPDEST CALLVALUE DUP1 ISZERO PUSH2 0x537 JUMPI PUSH1 0x0 DUP1 REVERT JUMPDEST POP PUSH2 0x552 PUSH1 0x4 DUP1 CALLDATASIZE SUB DUP2 ADD SWAP1 PUSH2 0x54D SWAP2 SWAP1 PUSH2 0x41B2 JUMP JUMPDEST PUSH2 0x163B JUMP JUMPDEST PUSH1 0x40 MLOAD PUSH2 0x55F SWAP2 SWAP1 PUSH2 0x4851 JUMP JUMPDEST PUSH1 0x40 MLOAD DUP1 SWAP2 SUB SWAP1 RETURN JUMPDEST CALLVALUE DUP1 ISZERO PUSH2 0x574 JUMPI PUSH1 0x0 DUP1 REVERT JUMPDEST POP PUSH2 0x58F PUSH1 0x4 DUP1 CALLDATASIZE SUB DUP2 ADD SWAP1 PUSH2 0x58A SWAP2 SWAP1 PUSH2 0x3E7D JUMP JUMPDEST PUSH2 0x16C2 JUMP JUMPDEST PUSH1 0x40 MLOAD PUSH2 0x59C SWAP2 SWAP1 PUSH2 0x4BB4 JUMP JUMPDEST PUSH1 0x40 MLOAD DUP1 SWAP2 SUB SWAP1 RETURN JUMPDEST CALLVALUE DUP1 ISZERO PUSH2 0x5B1 JUMPI PUSH1 0x0 DUP1 REVERT JUMPDEST POP PUSH2 0x5BA PUSH2 0x177A JUMP JUMPDEST PUSH1 0x40 MLOAD PUSH2 0x5C7 SWAP2 SWAP1 PUSH2 0x4BB4 JUMP JUMPDEST PUSH1 0x40 MLOAD DUP1 SWAP2 SUB SWAP1 RETURN JUMPDEST CALLVALUE DUP1 ISZERO PUSH2 0x5DC JUMPI PUSH1 0x0 DUP1 REVERT JUMPDEST POP PUSH2 0x5F7 PUSH1 0x4 DUP1 CALLDATASIZE SUB DUP2 ADD SWAP1 PUSH2 0x5F2 SWAP2 SWAP1 PUSH2 0x41B2 JUMP JUMPDEST PUSH2 0x1787 JUMP JUMPDEST PUSH1 0x40 MLOAD PUSH2 0x604 SWAP2 SWAP1 PUSH2 0x4B92 JUMP JUMPDEST PUSH1 0x40 MLOAD DUP1 SWAP2 SUB SWAP1 RETURN JUMPDEST CALLVALUE DUP1 ISZERO PUSH2 0x619 JUMPI PUSH1 0x0 DUP1 REVERT JUMPDEST POP PUSH2 0x634 PUSH1 0x4 DUP1 CALLDATASIZE SUB DUP2 ADD SWAP1 PUSH2 0x62F SWAP2 SWAP1 PUSH2 0x3E7D JUMP JUMPDEST PUSH2 0x1AA6 JUMP JUMPDEST PUSH1 0x40 MLOAD PUSH2 0x641 SWAP2 SWAP1 PUSH2 0x4BB4 JUMP JUMPDEST PUSH1 0x40 MLOAD DUP1 SWAP2 SUB SWAP1 RETURN JUMPDEST CALLVALUE DUP1 ISZERO PUSH2 0x656 JUMPI PUSH1 0x0 DUP1 REVERT JUMPDEST POP PUSH2 0x65F PUSH2 0x1AB8 JUMP JUMPDEST PUSH1 0x40 MLOAD PUSH2 0x66C SWAP2 SWAP1 PUSH2 0x4925 JUMP JUMPDEST PUSH1 0x40 MLOAD DUP1 SWAP2 SUB SWAP1 RETURN JUMPDEST CALLVALUE DUP1 ISZERO PUSH2 0x681 JUMPI PUSH1 0x0 DUP1 REVERT JUMPDEST POP PUSH2 0x69C PUSH1 0x4 DUP1 CALLDATASIZE SUB DUP2 ADD SWAP1 PUSH2 0x697 SWAP2 SWAP1 PUSH2 0x40E3 JUMP JUMPDEST PUSH2 0x1B4A JUMP JUMPDEST STOP JUMPDEST CALLVALUE DUP1 ISZERO PUSH2 0x6AA JUMPI PUSH1 0x0 DUP1 REVERT JUMPDEST POP PUSH2 0x6C5 PUSH1 0x4 DUP1 CALLDATASIZE SUB DUP2 ADD SWAP1 PUSH2 0x6C0 SWAP2 SWAP1 PUSH2 0x3FC0 JUMP JUMPDEST PUSH2 0x213F JUMP JUMPDEST STOP JUMPDEST CALLVALUE DUP1 ISZERO PUSH2 0x6D3 JUMPI PUSH1 0x0 DUP1 REVERT JUMPDEST POP PUSH2 0x6EE PUSH1 0x4 DUP1 CALLDATASIZE SUB DUP2 ADD SWAP1 PUSH2 0x6E9 SWAP2 SWAP1 PUSH2 0x3E7D JUMP JUMPDEST PUSH2 0x2155 JUMP JUMPDEST PUSH1 0x40 MLOAD PUSH2 0x6FB SWAP2 SWAP1 PUSH2 0x4925 JUMP JUMPDEST PUSH1 0x40 MLOAD DUP1 SWAP2 SUB SWAP1 RETURN JUMPDEST CALLVALUE DUP1 ISZERO PUSH2 0x710 JUMPI PUSH1 0x0 DUP1 REVERT JUMPDEST POP PUSH2 0x719 PUSH2 0x2226 JUMP JUMPDEST PUSH1 0x40 MLOAD PUSH2 0x726 SWAP2 SWAP1 PUSH2 0x4BB4 JUMP JUMPDEST PUSH1 0x40 MLOAD DUP1 SWAP2 SUB SWAP1 RETURN JUMPDEST CALLVALUE DUP1 ISZERO PUSH2 0x73B JUMPI PUSH1 0x0 DUP1 REVERT JUMPDEST POP PUSH2 0x744 PUSH2 0x2230 JUMP JUMPDEST PUSH1 0x40 MLOAD PUSH2 0x751 SWAP2 SWAP1 PUSH2 0x48E8 JUMP JUMPDEST PUSH1 0x40 MLOAD DUP1 SWAP2 SUB SWAP1 RETURN JUMPDEST CALLVALUE DUP1 ISZERO PUSH2 0x766 JUMPI PUSH1 0x0 DUP1 REVERT JUMPDEST POP PUSH2 0x781 PUSH1 0x4 DUP1 CALLDATASIZE SUB DUP2 ADD SWAP1 PUSH2 0x77C SWAP2 SWAP1 PUSH2 0x3F3D JUMP JUMPDEST PUSH2 0x2572 JUMP JUMPDEST STOP JUMPDEST CALLVALUE DUP1 ISZERO PUSH2 0x78F JUMPI PUSH1 0x0 DUP1 REVERT JUMPDEST POP PUSH2 0x7AA PUSH1 0x4 DUP1 CALLDATASIZE SUB DUP2 ADD SWAP1 PUSH2 0x7A5 SWAP2 SWAP1 PUSH2 0x41B2 JUMP JUMPDEST PUSH2 0x25D4 JUMP JUMPDEST PUSH1 0x40 MLOAD PUSH2 0x7B7 SWAP2 SWAP1 PUSH2 0x4925 JUMP JUMPDEST PUSH1 0x40 MLOAD DUP1 SWAP2 SUB SWAP1 RETURN JUMPDEST CALLVALUE DUP1 ISZERO PUSH2 0x7CC JUMPI PUSH1 0x0 DUP1 REVERT JUMPDEST POP PUSH2 0x7E7 PUSH1 0x4 DUP1 CALLDATASIZE SUB DUP2 ADD SWAP1 PUSH2 0x7E2 SWAP2 SWAP1 PUSH2 0x3EAA JUMP JUMPDEST PUSH2 0x263C JUMP JUMPDEST PUSH1 0x40 MLOAD PUSH2 0x7F4 SWAP2 SWAP1 PUSH2 0x490A JUMP JUMPDEST PUSH1 0x40 MLOAD DUP1 SWAP2 SUB SWAP1 RETURN JUMPDEST PUSH1 0x0 PUSH32 0x780E9D6300000000000000000000000000000000000000000000000000000000 PUSH28 0xFFFFFFFFFFFFFFFFFFFFFFFFFFFFFFFFFFFFFFFFFFFFFFFFFFFFFFFF NOT AND DUP3 PUSH28 0xFFFFFFFFFFFFFFFFFFFFFFFFFFFFFFFFFFFFFFFFFFFFFFFFFFFFFFFF NOT AND EQ DUP1 PUSH2 0x870 JUMPI POP PUSH2 0x86F DUP3 PUSH2 0x26D0 JUMP JUMPDEST JUMPDEST SWAP1 POP SWAP2 SWAP1 POP JUMP JUMPDEST PUSH1 0x60 PUSH1 0x65 DUP1 SLOAD PUSH2 0x886 SWAP1 PUSH2 0x4F47 JUMP JUMPDEST DUP1 PUSH1 0x1F ADD PUSH1 0x20 DUP1 SWAP2 DIV MUL PUSH1 0x20 ADD PUSH1 0x40 MLOAD SWAP1 DUP2 ADD PUSH1 0x40 MSTORE DUP1 SWAP3 SWAP2 SWAP1 DUP2 DUP2 MSTORE PUSH1 0x20 ADD DUP3 DUP1 SLOAD PUSH2 0x8B2 SWAP1 PUSH2 0x4F47 JUMP JUMPDEST DUP1 ISZERO PUSH2 0x8FF JUMPI DUP1 PUSH1 0x1F LT PUSH2 0x8D4 JUMPI PUSH2 0x100 DUP1 DUP4 SLOAD DIV MUL DUP4 MSTORE SWAP2 PUSH1 0x20 ADD SWAP2 PUSH2 0x8FF JUMP JUMPDEST DUP3 ADD SWAP2 SWAP1 PUSH1 0x0 MSTORE PUSH1 0x20 PUSH1 0x0 KECCAK256 SWAP1 JUMPDEST DUP2 SLOAD DUP2 MSTORE SWAP1 PUSH1 0x1 ADD SWAP1 PUSH1 0x20 ADD DUP1 DUP4 GT PUSH2 0x8E2 JUMPI DUP3 SWAP1 SUB PUSH1 0x1F AND DUP3 ADD SWAP2 JUMPDEST POP POP POP POP POP SWAP1 POP SWAP1 JUMP JUMPDEST PUSH1 0x0 PUSH2 0x914 DUP3 PUSH2 0x27B2 JUMP JUMPDEST PUSH1 0x69 PUSH1 0x0 DUP4 DUP2 MSTORE PUSH1 0x20 ADD SWAP1 DUP2 MSTORE PUSH1 0x20 ADD PUSH1 0x0 KECCAK256 PUSH1 0x0 SWAP1 SLOAD SWAP1 PUSH2 0x100 EXP SWAP1 DIV PUSH20 0xFFFFFFFFFFFFFFFFFFFFFFFFFFFFFFFFFFFFFFFF AND SWAP1 POP SWAP2 SWAP1 POP JUMP JUMPDEST PUSH1 0x0 PUSH2 0x95A DUP3 PUSH2 0x163B JUMP JUMPDEST SWAP1 POP DUP1 PUSH20 0xFFFFFFFFFFFFFFFFFFFFFFFFFFFFFFFFFFFFFFFF AND DUP4 PUSH20 0xFFFFFFFFFFFFFFFFFFFFFFFFFFFFFFFFFFFFFFFF AND EQ ISZERO PUSH2 0x9CB JUMPI PUSH1 0x40 MLOAD PUSH32 0x8C379A000000000000000000000000000000000000000000000000000000000 DUP2 MSTORE PUSH1 0x4 ADD PUSH2 0x9C2 SWAP1 PUSH2 0x4B12 JUMP JUMPDEST PUSH1 0x40 MLOAD DUP1 SWAP2 SUB SWAP1 REVERT JUMPDEST DUP1 PUSH20 0xFFFFFFFFFFFFFFFFFFFFFFFFFFFFFFFFFFFFFFFF AND PUSH2 0x9EA PUSH2 0x27FD JUMP JUMPDEST PUSH20 0xFFFFFFFFFFFFFFFFFFFFFFFFFFFFFFFFFFFFFFFF AND EQ DUP1 PUSH2 0xA19 JUMPI POP PUSH2 0xA18 DUP2 PUSH2 0xA13 PUSH2 0x27FD JUMP JUMPDEST PUSH2 0x263C JUMP JUMPDEST JUMPDEST PUSH2 0xA58 JUMPI PUSH1 0x40 MLOAD PUSH32 0x8C379A000000000000000000000000000000000000000000000000000000000 DUP2 MSTORE PUSH1 0x4 ADD PUSH2 0xA4F SWAP1 PUSH2 0x4B32 JUMP JUMPDEST PUSH1 0x40 MLOAD DUP1 SWAP2 SUB SWAP1 REVERT JUMPDEST PUSH2 0xA62 DUP4 DUP4 PUSH2 0x2805 JUMP JUMPDEST POP POP POP JUMP JUMPDEST PUSH1 0x0 PUSH1 0xCD PUSH1 0x0 CALLER PUSH20 0xFFFFFFFFFFFFFFFFFFFFFFFFFFFFFFFFFFFFFFFF AND PUSH20 0xFFFFFFFFFFFFFFFFFFFFFFFFFFFFFFFFFFFFFFFF AND DUP2 MSTORE PUSH1 0x20 ADD SWAP1 DUP2 MSTORE PUSH1 0x20 ADD PUSH1 0x0 KECCAK256 PUSH1 0x0 SWAP1 SLOAD SWAP1 PUSH2 0x100 EXP SWAP1 DIV PUSH1 0xFF AND ISZERO PUSH2 0xB8F JUMPI PUSH1 0xCC SLOAD CALLVALUE EQ PUSH2 0xAF6 JUMPI PUSH1 0x40 MLOAD PUSH32 0x7D604D0E00000000000000000000000000000000000000000000000000000000 DUP2 MSTORE PUSH1 0x4 ADD PUSH1 0x40 MLOAD DUP1 SWAP2 SUB SWAP1 REVERT JUMPDEST PUSH1 0x1 PUSH1 0xCE PUSH1 0x0 CALLER PUSH20 0xFFFFFFFFFFFFFFFFFFFFFFFFFFFFFFFFFFFFFFFF AND PUSH20 0xFFFFFFFFFFFFFFFFFFFFFFFFFFFFFFFFFFFFFFFF AND DUP2 MSTORE PUSH1 0x20 ADD SWAP1 DUP2 MSTORE PUSH1 0x20 ADD PUSH1 0x0 KECCAK256 PUSH1 0x0 CALLER PUSH20 0xFFFFFFFFFFFFFFFFFFFFFFFFFFFFFFFFFFFFFFFF AND PUSH20 0xFFFFFFFFFFFFFFFFFFFFFFFFFFFFFFFFFFFFFFFF AND DUP2 MSTORE PUSH1 0x20 ADD SWAP1 DUP2 MSTORE PUSH1 0x20 ADD PUSH1 0x0 KECCAK256 PUSH1 0x0 DUP3 DUP3 SLOAD PUSH2 0xB83 SWAP2 SWAP1 PUSH2 0x4D78 JUMP JUMPDEST SWAP3 POP POP DUP2 SWAP1 SSTORE POP PUSH2 0xCAB JUMP JUMPDEST PUSH1 0xCB SLOAD CALLVALUE EQ PUSH2 0xBCA JUMPI PUSH1 0x40 MLOAD PUSH32 0x7D604D0E00000000000000000000000000000000000000000000000000000000 DUP2 MSTORE PUSH1 0x4 ADD PUSH1 0x40 MLOAD DUP1 SWAP2 SUB SWAP1 REVERT JUMPDEST PUSH1 0x1 PUSH1 0xCD PUSH1 0x0 CALLER PUSH20 0xFFFFFFFFFFFFFFFFFFFFFFFFFFFFFFFFFFFFFFFF AND PUSH20 0xFFFFFFFFFFFFFFFFFFFFFFFFFFFFFFFFFFFFFFFF AND DUP2 MSTORE PUSH1 0x20 ADD SWAP1 DUP2 MSTORE PUSH1 0x20 ADD PUSH1 0x0 KECCAK256 PUSH1 0x0 PUSH2 0x100 EXP DUP2 SLOAD DUP2 PUSH1 0xFF MUL NOT AND SWAP1 DUP4 ISZERO ISZERO MUL OR SWAP1 SSTORE POP PUSH1 0xA PUSH4 0xFFFFFFFF AND PUSH1 0xCE PUSH1 0x0 CALLER PUSH20 0xFFFFFFFFFFFFFFFFFFFFFFFFFFFFFFFFFFFFFFFF AND PUSH20 0xFFFFFFFFFFFFFFFFFFFFFFFFFFFFFFFFFFFFFFFF AND DUP2 MSTORE PUSH1 0x20 ADD SWAP1 DUP2 MSTORE PUSH1 0x20 ADD PUSH1 0x0 KECCAK256 PUSH1 0x0 CALLER PUSH20 0xFFFFFFFFFFFFFFFFFFFFFFFFFFFFFFFFFFFFFFFF AND PUSH20 0xFFFFFFFFFFFFFFFFFFFFFFFFFFFFFFFFFFFFFFFF AND DUP2 MSTORE PUSH1 0x20 ADD SWAP1 DUP2 MSTORE PUSH1 0x20 ADD PUSH1 0x0 KECCAK256 DUP2 SWAP1 SSTORE POP JUMPDEST PUSH1 0x1 SWAP1 POP SWAP1 JUMP JUMPDEST PUSH1 0x0 DUP1 ISZERO ISZERO PUSH1 0xD0 PUSH1 0x0 CALLER PUSH20 0xFFFFFFFFFFFFFFFFFFFFFFFFFFFFFFFFFFFFFFFF AND PUSH20 0xFFFFFFFFFFFFFFFFFFFFFFFFFFFFFFFFFFFFFFFF AND DUP2 MSTORE PUSH1 0x20 ADD SWAP1 DUP2 MSTORE PUSH1 0x20 ADD PUSH1 0x0 KECCAK256 PUSH1 0x0 SWAP1 SLOAD SWAP1 PUSH2 0x100 EXP SWAP1 DIV PUSH1 0xFF AND ISZERO ISZERO EQ ISZERO PUSH2 0xD3E JUMPI PUSH1 0x40 MLOAD PUSH32 0xE11CD5BE00000000000000000000000000000000000000000000000000000000 DUP2 MSTORE PUSH1 0x4 ADD PUSH1 0x40 MLOAD DUP1 SWAP2 SUB SWAP1 REVERT JUMPDEST PUSH1 0xA PUSH4 0xFFFFFFFF AND DUP4 GT ISZERO PUSH2 0xD7F JUMPI PUSH1 0x40 MLOAD PUSH32 0x667D7A4800000000000000000000000000000000000000000000000000000000 DUP2 MSTORE PUSH1 0x4 ADD PUSH1 0x40 MLOAD DUP1 SWAP2 SUB SWAP1 REVERT JUMPDEST DUP3 PUSH1 0xCC SLOAD PUSH2 0xD8D SWAP2 SWAP1 PUSH2 0x4DCE JUMP JUMPDEST CALLVALUE EQ PUSH2 0xDC5 JUMPI PUSH1 0x40 MLOAD PUSH32 0x7D604D0E00000000000000000000000000000000000000000000000000000000 DUP2 MSTORE PUSH1 0x4 ADD PUSH1 0x40 MLOAD DUP1 SWAP2 SUB SWAP1 REVERT JUMPDEST DUP2 MLOAD DUP4 EQ PUSH2 0xDFF JUMPI PUSH1 0x40 MLOAD PUSH32 0xA84927600000000000000000000000000000000000000000000000000000000 DUP2 MSTORE PUSH1 0x4 ADD PUSH1 0x40 MLOAD DUP1 SWAP2 SUB SWAP1 REVERT JUMPDEST PUSH1 0x0 CALLER SWAP1 POP PUSH1 0x0 JUMPDEST DUP5 DUP2 LT ISZERO PUSH2 0xED0 JUMPI PUSH1 0x1 PUSH1 0xCE PUSH1 0x0 DUP7 DUP5 DUP2 MLOAD DUP2 LT PUSH2 0xE28 JUMPI PUSH2 0xE27 PUSH2 0x50DE JUMP JUMPDEST JUMPDEST PUSH1 0x20 MUL PUSH1 0x20 ADD ADD MLOAD PUSH20 0xFFFFFFFFFFFFFFFFFFFFFFFFFFFFFFFFFFFFFFFF AND PUSH20 0xFFFFFFFFFFFFFFFFFFFFFFFFFFFFFFFFFFFFFFFF AND DUP2 MSTORE PUSH1 0x20 ADD SWAP1 DUP2 MSTORE PUSH1 0x20 ADD PUSH1 0x0 KECCAK256 PUSH1 0x0 DUP5 PUSH20 0xFFFFFFFFFFFFFFFFFFFFFFFFFFFFFFFFFFFFFFFF AND PUSH20 0xFFFFFFFFFFFFFFFFFFFFFFFFFFFFFFFFFFFFFFFF AND DUP2 MSTORE PUSH1 0x20 ADD SWAP1 DUP2 MSTORE PUSH1 0x20 ADD PUSH1 0x0 KECCAK256 PUSH1 0x0 DUP3 DUP3 SLOAD PUSH2 0xEB6 SWAP2 SWAP1 PUSH2 0x4D78 JUMP JUMPDEST SWAP3 POP POP DUP2 SWAP1 SSTORE POP DUP1 DUP1 PUSH2 0xEC8 SWAP1 PUSH2 0x4FAA JUMP JUMPDEST SWAP2 POP POP PUSH2 0xE07 JUMP JUMPDEST POP CALLER PUSH20 0xFFFFFFFFFFFFFFFFFFFFFFFFFFFFFFFFFFFFFFFF AND PUSH32 0x6DF9081C5DED9CFF457E4B66EB4D5C66A49BF08DED297C2887204B850A135489 DUP5 DUP7 PUSH1 0x40 MLOAD PUSH2 0xF19 SWAP3 SWAP2 SWAP1 PUSH2 0x48B8 JUMP JUMPDEST PUSH1 0x40 MLOAD DUP1 SWAP2 SUB SWAP1 LOG2 PUSH1 0x1 SWAP2 POP POP SWAP3 SWAP2 POP POP JUMP JUMPDEST PUSH1 0x0 PUSH1 0x99 DUP1 SLOAD SWAP1 POP SWAP1 POP SWAP1 JUMP JUMPDEST PUSH2 0xF41 PUSH2 0x3B8E JUMP JUMPDEST PUSH1 0xC9 PUSH2 0xF4D DUP5 DUP5 PUSH2 0x12C2 JUMP JUMPDEST DUP2 SLOAD DUP2 LT PUSH2 0xF5E JUMPI PUSH2 0xF5D PUSH2 0x50DE JUMP JUMPDEST JUMPDEST SWAP1 PUSH1 0x0 MSTORE PUSH1 0x20 PUSH1 0x0 KECCAK256 SWAP1 PUSH1 0x7 MUL ADD PUSH1 0x40 MLOAD DUP1 PUSH1 0xE0 ADD PUSH1 0x40 MSTORE SWAP1 DUP2 PUSH1 0x0 DUP3 ADD DUP1 SLOAD PUSH2 0xF87 SWAP1 PUSH2 0x4F47 JUMP JUMPDEST DUP1 PUSH1 0x1F ADD PUSH1 0x20 DUP1 SWAP2 DIV MUL PUSH1 0x20 ADD PUSH1 0x40 MLOAD SWAP1 DUP2 ADD PUSH1 0x40 MSTORE DUP1 SWAP3 SWAP2 SWAP1 DUP2 DUP2 MSTORE PUSH1 0x20 ADD DUP3 DUP1 SLOAD PUSH2 0xFB3 SWAP1 PUSH2 0x4F47 JUMP JUMPDEST DUP1 ISZERO PUSH2 0x1000 JUMPI DUP1 PUSH1 0x1F LT PUSH2 0xFD5 JUMPI PUSH2 0x100 DUP1 DUP4 SLOAD DIV MUL DUP4 MSTORE SWAP2 PUSH1 0x20 ADD SWAP2 PUSH2 0x1000 JUMP JUMPDEST DUP3 ADD SWAP2 SWAP1 PUSH1 0x0 MSTORE PUSH1 0x20 PUSH1 0x0 KECCAK256 SWAP1 JUMPDEST DUP2 SLOAD DUP2 MSTORE SWAP1 PUSH1 0x1 ADD SWAP1 PUSH1 0x20 ADD DUP1 DUP4 GT PUSH2 0xFE3 JUMPI DUP3 SWAP1 SUB PUSH1 0x1F AND DUP3 ADD SWAP2 JUMPDEST POP POP POP POP POP DUP2 MSTORE PUSH1 0x20 ADD PUSH1 0x1 DUP3 ADD DUP1 SLOAD PUSH2 0x1019 SWAP1 PUSH2 0x4F47 JUMP JUMPDEST DUP1 PUSH1 0x1F ADD PUSH1 0x20 DUP1 SWAP2 DIV MUL PUSH1 0x20 ADD PUSH1 0x40 MLOAD SWAP1 DUP2 ADD PUSH1 0x40 MSTORE DUP1 SWAP3 SWAP2 SWAP1 DUP2 DUP2 MSTORE PUSH1 0x20 ADD DUP3 DUP1 SLOAD PUSH2 0x1045 SWAP1 PUSH2 0x4F47 JUMP JUMPDEST DUP1 ISZERO PUSH2 0x1092 JUMPI DUP1 PUSH1 0x1F LT PUSH2 0x1067 JUMPI PUSH2 0x100 DUP1 DUP4 SLOAD DIV MUL DUP4 MSTORE SWAP2 PUSH1 0x20 ADD SWAP2 PUSH2 0x1092 JUMP JUMPDEST DUP3 ADD SWAP2 SWAP1 PUSH1 0x0 MSTORE PUSH1 0x20 PUSH1 0x0 KECCAK256 SWAP1 JUMPDEST DUP2 SLOAD DUP2 MSTORE SWAP1 PUSH1 0x1 ADD SWAP1 PUSH1 0x20 ADD DUP1 DUP4 GT PUSH2 0x1075 JUMPI DUP3 SWAP1 SUB PUSH1 0x1F AND DUP3 ADD SWAP2 JUMPDEST POP POP POP POP POP DUP2 MSTORE PUSH1 0x20 ADD PUSH1 0x2 DUP3 ADD DUP1 SLOAD PUSH2 0x10AB SWAP1 PUSH2 0x4F47 JUMP JUMPDEST DUP1 PUSH1 0x1F ADD PUSH1 0x20 DUP1 SWAP2 DIV MUL PUSH1 0x20 ADD PUSH1 0x40 MLOAD SWAP1 DUP2 ADD PUSH1 0x40 MSTORE DUP1 SWAP3 SWAP2 SWAP1 DUP2 DUP2 MSTORE PUSH1 0x20 ADD DUP3 DUP1 SLOAD PUSH2 0x10D7 SWAP1 PUSH2 0x4F47 JUMP JUMPDEST DUP1 ISZERO PUSH2 0x1124 JUMPI DUP1 PUSH1 0x1F LT PUSH2 0x10F9 JUMPI PUSH2 0x100 DUP1 DUP4 SLOAD DIV MUL DUP4 MSTORE SWAP2 PUSH1 0x20 ADD SWAP2 PUSH2 0x1124 JUMP JUMPDEST DUP3 ADD SWAP2 SWAP1 PUSH1 0x0 MSTORE PUSH1 0x20 PUSH1 0x0 KECCAK256 SWAP1 JUMPDEST DUP2 SLOAD DUP2 MSTORE SWAP1 PUSH1 0x1 ADD SWAP1 PUSH1 0x20 ADD DUP1 DUP4 GT PUSH2 0x1107 JUMPI DUP3 SWAP1 SUB PUSH1 0x1F AND DUP3 ADD SWAP2 JUMPDEST POP POP POP POP POP DUP2 MSTORE PUSH1 0x20 ADD PUSH1 0x3 DUP3 ADD DUP1 SLOAD PUSH2 0x113D SWAP1 PUSH2 0x4F47 JUMP JUMPDEST DUP1 PUSH1 0x1F ADD PUSH1 0x20 DUP1 SWAP2 DIV MUL PUSH1 0x20 ADD PUSH1 0x40 MLOAD SWAP1 DUP2 ADD PUSH1 0x40 MSTORE DUP1 SWAP3 SWAP2 SWAP1 DUP2 DUP2 MSTORE PUSH1 0x20 ADD DUP3 DUP1 SLOAD PUSH2 0x1169 SWAP1 PUSH2 0x4F47 JUMP JUMPDEST DUP1 ISZERO PUSH2 0x11B6 JUMPI DUP1 PUSH1 0x1F LT PUSH2 0x118B JUMPI PUSH2 0x100 DUP1 DUP4 SLOAD DIV MUL DUP4 MSTORE SWAP2 PUSH1 0x20 ADD SWAP2 PUSH2 0x11B6 JUMP JUMPDEST DUP3 ADD SWAP2 SWAP1 PUSH1 0x0 MSTORE PUSH1 0x20 PUSH1 0x0 KECCAK256 SWAP1 JUMPDEST DUP2 SLOAD DUP2 MSTORE SWAP1 PUSH1 0x1 ADD SWAP1 PUSH1 0x20 ADD DUP1 DUP4 GT PUSH2 0x1199 JUMPI DUP3 SWAP1 SUB PUSH1 0x1F AND DUP3 ADD SWAP2 JUMPDEST POP POP POP POP POP DUP2 MSTORE PUSH1 0x20 ADD PUSH1 0x4 DUP3 ADD PUSH1 0x0 SWAP1 SLOAD SWAP1 PUSH2 0x100 EXP SWAP1 DIV PUSH1 0xFF AND PUSH1 0x1 DUP2 GT ISZERO PUSH2 0x11E4 JUMPI PUSH2 0x11E3 PUSH2 0x5051 JUMP JUMPDEST JUMPDEST PUSH1 0x1 DUP2 GT ISZERO PUSH2 0x11F6 JUMPI PUSH2 0x11F5 PUSH2 0x5051 JUMP JUMPDEST JUMPDEST DUP2 MSTORE PUSH1 0x20 ADD PUSH1 0x5 DUP3 ADD SLOAD DUP2 MSTORE PUSH1 0x20 ADD PUSH1 0x6 DUP3 ADD PUSH1 0x0 SWAP1 SLOAD SWAP1 PUSH2 0x100 EXP SWAP1 DIV PUSH20 0xFFFFFFFFFFFFFFFFFFFFFFFFFFFFFFFFFFFFFFFF AND PUSH20 0xFFFFFFFFFFFFFFFFFFFFFFFFFFFFFFFFFFFFFFFF AND PUSH20 0xFFFFFFFFFFFFFFFFFFFFFFFFFFFFFFFFFFFFFFFF AND DUP2 MSTORE POP POP SWAP1 POP SWAP3 SWAP2 POP POP JUMP JUMPDEST PUSH2 0x1273 PUSH2 0x126D PUSH2 0x27FD JUMP JUMPDEST DUP3 PUSH2 0x28BE JUMP JUMPDEST PUSH2 0x12B2 JUMPI PUSH1 0x40 MLOAD PUSH32 0x8C379A000000000000000000000000000000000000000000000000000000000 DUP2 MSTORE PUSH1 0x4 ADD PUSH2 0x12A9 SWAP1 PUSH2 0x49D2 JUMP JUMPDEST PUSH1 0x40 MLOAD DUP1 SWAP2 SUB SWAP1 REVERT JUMPDEST PUSH2 0x12BD DUP4 DUP4 DUP4 PUSH2 0x2953 JUMP JUMPDEST POP POP POP JUMP JUMPDEST PUSH1 0x0 PUSH2 0x12CD DUP4 PUSH2 0x16C2 JUMP JUMPDEST DUP3 LT PUSH2 0x130E JUMPI PUSH1 0x40 MLOAD PUSH32 0x8C379A000000000000000000000000000000000000000000000000000000000 DUP2 MSTORE PUSH1 0x4 ADD PUSH2 0x1305 SWAP1 PUSH2 0x49F2 JUMP JUMPDEST PUSH1 0x40 MLOAD DUP1 SWAP2 SUB SWAP1 REVERT JUMPDEST PUSH1 0x97 PUSH1 0x0 DUP5 PUSH20 0xFFFFFFFFFFFFFFFFFFFFFFFFFFFFFFFFFFFFFFFF AND PUSH20 0xFFFFFFFFFFFFFFFFFFFFFFFFFFFFFFFFFFFFFFFF AND DUP2 MSTORE PUSH1 0x20 ADD SWAP1 DUP2 MSTORE PUSH1 0x20 ADD PUSH1 0x0 KECCAK256 PUSH1 0x0 DUP4 DUP2 MSTORE PUSH1 0x20 ADD SWAP1 DUP2 MSTORE PUSH1 0x20 ADD PUSH1 0x0 KECCAK256 SLOAD SWAP1 POP SWAP3 SWAP2 POP POP JUMP JUMPDEST PUSH1 0x0 PUSH1 0xCD PUSH1 0x0 DUP4 PUSH20 0xFFFFFFFFFFFFFFFFFFFFFFFFFFFFFFFFFFFFFFFF AND PUSH20 0xFFFFFFFFFFFFFFFFFFFFFFFFFFFFFFFFFFFFFFFF AND DUP2 MSTORE PUSH1 0x20 ADD SWAP1 DUP2 MSTORE PUSH1 0x20 ADD PUSH1 0x0 KECCAK256 PUSH1 0x0 SWAP1 SLOAD SWAP1 PUSH2 0x100 EXP SWAP1 DIV PUSH1 0xFF AND SWAP1 POP SWAP2 SWAP1 POP JUMP JUMPDEST PUSH2 0x13D8 DUP4 DUP4 DUP4 PUSH1 0x40 MLOAD DUP1 PUSH1 0x20 ADD PUSH1 0x40 MSTORE DUP1 PUSH1 0x0 DUP2 MSTORE POP PUSH2 0x2572 JUMP JUMPDEST POP POP POP JUMP JUMPDEST PUSH1 0x0 PUSH1 0xCA SLOAD CALLVALUE EQ PUSH2 0x141A JUMPI PUSH1 0x40 MLOAD PUSH32 0x7D604D0E00000000000000000000000000000000000000000000000000000000 DUP2 MSTORE PUSH1 0x4 ADD PUSH1 0x40 MLOAD DUP1 SWAP2 SUB SWAP1 REVERT JUMPDEST PUSH1 0x1 PUSH1 0xD0 PUSH1 0x0 CALLER PUSH20 0xFFFFFFFFFFFFFFFFFFFFFFFFFFFFFFFFFFFFFFFF AND PUSH20 0xFFFFFFFFFFFFFFFFFFFFFFFFFFFFFFFFFFFFFFFF AND DUP2 MSTORE PUSH1 0x20 ADD SWAP1 DUP2 MSTORE PUSH1 0x20 ADD PUSH1 0x0 KECCAK256 PUSH1 0x0 PUSH2 0x100 EXP DUP2 SLOAD DUP2 PUSH1 0xFF MUL NOT AND SWAP1 DUP4 ISZERO ISZERO MUL OR SWAP1 SSTORE POP DUP2 PUSH1 0xD1 PUSH1 0x0 CALLER PUSH20 0xFFFFFFFFFFFFFFFFFFFFFFFFFFFFFFFFFFFFFFFF AND PUSH20 0xFFFFFFFFFFFFFFFFFFFFFFFFFFFFFFFFFFFFFFFF AND DUP2 MSTORE PUSH1 0x20 ADD SWAP1 DUP2 MSTORE PUSH1 0x20 ADD PUSH1 0x0 KECCAK256 SWAP1 DUP1 MLOAD SWAP1 PUSH1 0x20 ADD SWAP1 PUSH2 0x14C5 SWAP3 SWAP2 SWAP1 PUSH2 0x3BF3 JUMP JUMPDEST POP CALLER PUSH20 0xFFFFFFFFFFFFFFFFFFFFFFFFFFFFFFFFFFFFFFFF AND PUSH32 0x72D0050D8F1A0F19ACE5B1F50E8B5333308C60902442B7444A65CFFFBAD884E7 CALLVALUE DUP5 PUSH1 0x40 MLOAD PUSH2 0x150E SWAP3 SWAP2 SWAP1 PUSH2 0x4BCF JUMP JUMPDEST PUSH1 0x40 MLOAD DUP1 SWAP2 SUB SWAP1 LOG2 PUSH1 0x1 SWAP1 POP SWAP2 SWAP1 POP JUMP JUMPDEST DUP3 PUSH1 0xCB DUP2 SWAP1 SSTORE POP DUP2 PUSH1 0xCC DUP2 SWAP1 SSTORE POP DUP1 PUSH1 0xCA DUP2 SWAP1 SSTORE POP POP POP POP JUMP JUMPDEST PUSH1 0x0 PUSH2 0x1543 PUSH2 0xF2C JUMP JUMPDEST DUP3 LT PUSH2 0x1584 JUMPI PUSH1 0x40 MLOAD PUSH32 0x8C379A000000000000000000000000000000000000000000000000000000000 DUP2 MSTORE PUSH1 0x4 ADD PUSH2 0x157B SWAP1 PUSH2 0x4B52 JUMP JUMPDEST PUSH1 0x40 MLOAD DUP1 SWAP2 SUB SWAP1 REVERT JUMPDEST PUSH1 0x99 DUP3 DUP2 SLOAD DUP2 LT PUSH2 0x1598 JUMPI PUSH2 0x1597 PUSH2 0x50DE JUMP JUMPDEST JUMPDEST SWAP1 PUSH1 0x0 MSTORE PUSH1 0x20 PUSH1 0x0 KECCAK256 ADD SLOAD SWAP1 POP SWAP2 SWAP1 POP JUMP JUMPDEST PUSH1 0x0 PUSH1 0xCE PUSH1 0x0 DUP5 PUSH20 0xFFFFFFFFFFFFFFFFFFFFFFFFFFFFFFFFFFFFFFFF AND PUSH20 0xFFFFFFFFFFFFFFFFFFFFFFFFFFFFFFFFFFFFFFFF AND DUP2 MSTORE PUSH1 0x20 ADD SWAP1 DUP2 MSTORE PUSH1 0x20 ADD PUSH1 0x0 KECCAK256 PUSH1 0x0 DUP4 PUSH20 0xFFFFFFFFFFFFFFFFFFFFFFFFFFFFFFFFFFFFFFFF AND PUSH20 0xFFFFFFFFFFFFFFFFFFFFFFFFFFFFFFFFFFFFFFFF AND DUP2 MSTORE PUSH1 0x20 ADD SWAP1 DUP2 MSTORE PUSH1 0x20 ADD PUSH1 0x0 KECCAK256 SLOAD SWAP1 POP SWAP3 SWAP2 POP POP JUMP JUMPDEST PUSH1 0x0 PUSH1 0xCB SLOAD SWAP1 POP SWAP1 JUMP JUMPDEST PUSH1 0x0 DUP1 PUSH2 0x1647 DUP4 PUSH2 0x29BE JUMP JUMPDEST SWAP1 POP PUSH1 0x0 PUSH20 0xFFFFFFFFFFFFFFFFFFFFFFFFFFFFFFFFFFFFFFFF AND DUP2 PUSH20 0xFFFFFFFFFFFFFFFFFFFFFFFFFFFFFFFFFFFFFFFF AND EQ ISZERO PUSH2 0x16B9 JUMPI PUSH1 0x40 MLOAD PUSH32 0x8C379A000000000000000000000000000000000000000000000000000000000 DUP2 MSTORE PUSH1 0x4 ADD PUSH2 0x16B0 SWAP1 PUSH2 0x4AF2 JUMP JUMPDEST PUSH1 0x40 MLOAD DUP1 SWAP2 SUB SWAP1 REVERT JUMPDEST DUP1 SWAP2 POP POP SWAP2 SWAP1 POP JUMP JUMPDEST PUSH1 0x0 DUP1 PUSH20 0xFFFFFFFFFFFFFFFFFFFFFFFFFFFFFFFFFFFFFFFF AND DUP3 PUSH20 0xFFFFFFFFFFFFFFFFFFFFFFFFFFFFFFFFFFFFFFFF AND EQ ISZERO PUSH2 0x1733 JUMPI PUSH1 0x40 MLOAD PUSH32 0x8C379A000000000000000000000000000000000000000000000000000000000 DUP2 MSTORE PUSH1 0x4 ADD PUSH2 0x172A SWAP1 PUSH2 0x4AB2 JUMP JUMPDEST PUSH1 0x40 MLOAD DUP1 SWAP2 SUB SWAP1 REVERT JUMPDEST PUSH1 0x68 PUSH1 0x0 DUP4 PUSH20 0xFFFFFFFFFFFFFFFFFFFFFFFFFFFFFFFFFFFFFFFF AND PUSH20 0xFFFFFFFFFFFFFFFFFFFFFFFFFFFFFFFFFFFFFFFF AND DUP2 MSTORE PUSH1 0x20 ADD SWAP1 DUP2 MSTORE PUSH1 0x20 ADD PUSH1 0x0 KECCAK256 SLOAD SWAP1 POP SWAP2 SWAP1 POP JUMP JUMPDEST PUSH1 0x0 PUSH1 0xC9 DUP1 SLOAD SWAP1 POP SWAP1 POP SWAP1 JUMP JUMPDEST PUSH2 0x178F PUSH2 0x3B8E JUMP JUMPDEST PUSH1 0xC9 DUP3 DUP2 SLOAD DUP2 LT PUSH2 0x17A3 JUMPI PUSH2 0x17A2 PUSH2 0x50DE JUMP JUMPDEST JUMPDEST SWAP1 PUSH1 0x0 MSTORE PUSH1 0x20 PUSH1 0x0 KECCAK256 SWAP1 PUSH1 0x7 MUL ADD PUSH1 0x40 MLOAD DUP1 PUSH1 0xE0 ADD PUSH1 0x40 MSTORE SWAP1 DUP2 PUSH1 0x0 DUP3 ADD DUP1 SLOAD PUSH2 0x17CC SWAP1 PUSH2 0x4F47 JUMP JUMPDEST DUP1 PUSH1 0x1F ADD PUSH1 0x20 DUP1 SWAP2 DIV MUL PUSH1 0x20 ADD PUSH1 0x40 MLOAD SWAP1 DUP2 ADD PUSH1 0x40 MSTORE DUP1 SWAP3 SWAP2 SWAP1 DUP2 DUP2 MSTORE PUSH1 0x20 ADD DUP3 DUP1 SLOAD PUSH2 0x17F8 SWAP1 PUSH2 0x4F47 JUMP JUMPDEST DUP1 ISZERO PUSH2 0x1845 JUMPI DUP1 PUSH1 0x1F LT PUSH2 0x181A JUMPI PUSH2 0x100 DUP1 DUP4 SLOAD DIV MUL DUP4 MSTORE SWAP2 PUSH1 0x20 ADD SWAP2 PUSH2 0x1845 JUMP JUMPDEST DUP3 ADD SWAP2 SWAP1 PUSH1 0x0 MSTORE PUSH1 0x20 PUSH1 0x0 KECCAK256 SWAP1 JUMPDEST DUP2 SLOAD DUP2 MSTORE SWAP1 PUSH1 0x1 ADD SWAP1 PUSH1 0x20 ADD DUP1 DUP4 GT PUSH2 0x1828 JUMPI DUP3 SWAP1 SUB PUSH1 0x1F AND DUP3 ADD SWAP2 JUMPDEST POP POP POP POP POP DUP2 MSTORE PUSH1 0x20 ADD PUSH1 0x1 DUP3 ADD DUP1 SLOAD PUSH2 0x185E SWAP1 PUSH2 0x4F47 JUMP JUMPDEST DUP1 PUSH1 0x1F ADD PUSH1 0x20 DUP1 SWAP2 DIV MUL PUSH1 0x20 ADD PUSH1 0x40 MLOAD SWAP1 DUP2 ADD PUSH1 0x40 MSTORE DUP1 SWAP3 SWAP2 SWAP1 DUP2 DUP2 MSTORE PUSH1 0x20 ADD DUP3 DUP1 SLOAD PUSH2 0x188A SWAP1 PUSH2 0x4F47 JUMP JUMPDEST DUP1 ISZERO PUSH2 0x18D7 JUMPI DUP1 PUSH1 0x1F LT PUSH2 0x18AC JUMPI PUSH2 0x100 DUP1 DUP4 SLOAD DIV MUL DUP4 MSTORE SWAP2 PUSH1 0x20 ADD SWAP2 PUSH2 0x18D7 JUMP JUMPDEST DUP3 ADD SWAP2 SWAP1 PUSH1 0x0 MSTORE PUSH1 0x20 PUSH1 0x0 KECCAK256 SWAP1 JUMPDEST DUP2 SLOAD DUP2 MSTORE SWAP1 PUSH1 0x1 ADD SWAP1 PUSH1 0x20 ADD DUP1 DUP4 GT PUSH2 0x18BA JUMPI DUP3 SWAP1 SUB PUSH1 0x1F AND DUP3 ADD SWAP2 JUMPDEST POP POP POP POP POP DUP2 MSTORE PUSH1 0x20 ADD PUSH1 0x2 DUP3 ADD DUP1 SLOAD PUSH2 0x18F0 SWAP1 PUSH2 0x4F47 JUMP JUMPDEST DUP1 PUSH1 0x1F ADD PUSH1 0x20 DUP1 SWAP2 DIV MUL PUSH1 0x20 ADD PUSH1 0x40 MLOAD SWAP1 DUP2 ADD PUSH1 0x40 MSTORE DUP1 SWAP3 SWAP2 SWAP1 DUP2 DUP2 MSTORE PUSH1 0x20 ADD DUP3 DUP1 SLOAD PUSH2 0x191C SWAP1 PUSH2 0x4F47 JUMP JUMPDEST DUP1 ISZERO PUSH2 0x1969 JUMPI DUP1 PUSH1 0x1F LT PUSH2 0x193E JUMPI PUSH2 0x100 DUP1 DUP4 SLOAD DIV MUL DUP4 MSTORE SWAP2 PUSH1 0x20 ADD SWAP2 PUSH2 0x1969 JUMP JUMPDEST DUP3 ADD SWAP2 SWAP1 PUSH1 0x0 MSTORE PUSH1 0x20 PUSH1 0x0 KECCAK256 SWAP1 JUMPDEST DUP2 SLOAD DUP2 MSTORE SWAP1 PUSH1 0x1 ADD SWAP1 PUSH1 0x20 ADD DUP1 DUP4 GT PUSH2 0x194C JUMPI DUP3 SWAP1 SUB PUSH1 0x1F AND DUP3 ADD SWAP2 JUMPDEST POP POP POP POP POP DUP2 MSTORE PUSH1 0x20 ADD PUSH1 0x3 DUP3 ADD DUP1 SLOAD PUSH2 0x1982 SWAP1 PUSH2 0x4F47 JUMP JUMPDEST DUP1 PUSH1 0x1F ADD PUSH1 0x20 DUP1 SWAP2 DIV MUL PUSH1 0x20 ADD PUSH1 0x40 MLOAD SWAP1 DUP2 ADD PUSH1 0x40 MSTORE DUP1 SWAP3 SWAP2 SWAP1 DUP2 DUP2 MSTORE PUSH1 0x20 ADD DUP3 DUP1 SLOAD PUSH2 0x19AE SWAP1 PUSH2 0x4F47 JUMP JUMPDEST DUP1 ISZERO PUSH2 0x19FB JUMPI DUP1 PUSH1 0x1F LT PUSH2 0x19D0 JUMPI PUSH2 0x100 DUP1 DUP4 SLOAD DIV MUL DUP4 MSTORE SWAP2 PUSH1 0x20 ADD SWAP2 PUSH2 0x19FB JUMP JUMPDEST DUP3 ADD SWAP2 SWAP1 PUSH1 0x0 MSTORE PUSH1 0x20 PUSH1 0x0 KECCAK256 SWAP1 JUMPDEST DUP2 SLOAD DUP2 MSTORE SWAP1 PUSH1 0x1 ADD SWAP1 PUSH1 0x20 ADD DUP1 DUP4 GT PUSH2 0x19DE JUMPI DUP3 SWAP1 SUB PUSH1 0x1F AND DUP3 ADD SWAP2 JUMPDEST POP POP POP POP POP DUP2 MSTORE PUSH1 0x20 ADD PUSH1 0x4 DUP3 ADD PUSH1 0x0 SWAP1 SLOAD SWAP1 PUSH2 0x100 EXP SWAP1 DIV PUSH1 0xFF AND PUSH1 0x1 DUP2 GT ISZERO PUSH2 0x1A29 JUMPI PUSH2 0x1A28 PUSH2 0x5051 JUMP JUMPDEST JUMPDEST PUSH1 0x1 DUP2 GT ISZERO PUSH2 0x1A3B JUMPI PUSH2 0x1A3A PUSH2 0x5051 JUMP JUMPDEST JUMPDEST DUP2 MSTORE PUSH1 0x20 ADD PUSH1 0x5 DUP3 ADD SLOAD DUP2 MSTORE PUSH1 0x20 ADD PUSH1 0x6 DUP3 ADD PUSH1 0x0 SWAP1 SLOAD SWAP1 PUSH2 0x100 EXP SWAP1 DIV PUSH20 0xFFFFFFFFFFFFFFFFFFFFFFFFFFFFFFFFFFFFFFFF AND PUSH20 0xFFFFFFFFFFFFFFFFFFFFFFFFFFFFFFFFFFFFFFFF AND PUSH20 0xFFFFFFFFFFFFFFFFFFFFFFFFFFFFFFFFFFFFFFFF AND DUP2 MSTORE POP POP SWAP1 POP SWAP2 SWAP1 POP JUMP JUMPDEST PUSH1 0x0 PUSH2 0x1AB1 DUP3 PUSH2 0x16C2 JUMP JUMPDEST SWAP1 POP SWAP2 SWAP1 POP JUMP JUMPDEST PUSH1 0x60 PUSH1 0x66 DUP1 SLOAD PUSH2 0x1AC7 SWAP1 PUSH2 0x4F47 JUMP JUMPDEST DUP1 PUSH1 0x1F ADD PUSH1 0x20 DUP1 SWAP2 DIV MUL PUSH1 0x20 ADD PUSH1 0x40 MLOAD SWAP1 DUP2 ADD PUSH1 0x40 MSTORE DUP1 SWAP3 SWAP2 SWAP1 DUP2 DUP2 MSTORE PUSH1 0x20 ADD DUP3 DUP1 SLOAD PUSH2 0x1AF3 SWAP1 PUSH2 0x4F47 JUMP JUMPDEST DUP1 ISZERO PUSH2 0x1B40 JUMPI DUP1 PUSH1 0x1F LT PUSH2 0x1B15 JUMPI PUSH2 0x100 DUP1 DUP4 SLOAD DIV MUL DUP4 MSTORE SWAP2 PUSH1 0x20 ADD SWAP2 PUSH2 0x1B40 JUMP JUMPDEST DUP3 ADD SWAP2 SWAP1 PUSH1 0x0 MSTORE PUSH1 0x20 PUSH1 0x0 KECCAK256 SWAP1 JUMPDEST DUP2 SLOAD DUP2 MSTORE SWAP1 PUSH1 0x1 ADD SWAP1 PUSH1 0x20 ADD DUP1 DUP4 GT PUSH2 0x1B23 JUMPI DUP3 SWAP1 SUB PUSH1 0x1F AND DUP3 ADD SWAP2 JUMPDEST POP POP POP POP POP SWAP1 POP SWAP1 JUMP JUMPDEST DUP2 PUSH1 0x0 PUSH1 0xCE PUSH1 0x0 CALLER PUSH20 0xFFFFFFFFFFFFFFFFFFFFFFFFFFFFFFFFFFFFFFFF AND PUSH20 0xFFFFFFFFFFFFFFFFFFFFFFFFFFFFFFFFFFFFFFFF AND DUP2 MSTORE PUSH1 0x20 ADD SWAP1 DUP2 MSTORE PUSH1 0x20 ADD PUSH1 0x0 KECCAK256 PUSH1 0x0 DUP4 PUSH20 0xFFFFFFFFFFFFFFFFFFFFFFFFFFFFFFFFFFFFFFFF AND PUSH20 0xFFFFFFFFFFFFFFFFFFFFFFFFFFFFFFFFFFFFFFFF AND DUP2 MSTORE PUSH1 0x20 ADD SWAP1 DUP2 MSTORE PUSH1 0x20 ADD PUSH1 0x0 KECCAK256 SLOAD GT ISZERO DUP1 ISZERO PUSH2 0x1C55 JUMPI POP PUSH1 0x0 PUSH1 0xCE PUSH1 0x0 CALLER PUSH20 0xFFFFFFFFFFFFFFFFFFFFFFFFFFFFFFFFFFFFFFFF AND PUSH20 0xFFFFFFFFFFFFFFFFFFFFFFFFFFFFFFFFFFFFFFFF AND DUP2 MSTORE PUSH1 0x20 ADD SWAP1 DUP2 MSTORE PUSH1 0x20 ADD PUSH1 0x0 KECCAK256 PUSH1 0x0 CALLER PUSH20 0xFFFFFFFFFFFFFFFFFFFFFFFFFFFFFFFFFFFFFFFF AND PUSH20 0xFFFFFFFFFFFFFFFFFFFFFFFFFFFFFFFFFFFFFFFF AND DUP2 MSTORE PUSH1 0x20 ADD SWAP1 DUP2 MSTORE PUSH1 0x20 ADD PUSH1 0x0 KECCAK256 SLOAD GT ISZERO JUMPDEST ISZERO PUSH2 0x1C8C JUMPI PUSH1 0x40 MLOAD PUSH32 0x5594523C00000000000000000000000000000000000000000000000000000000 DUP2 MSTORE PUSH1 0x4 ADD PUSH1 0x40 MLOAD DUP1 SWAP2 SUB SWAP1 REVERT JUMPDEST PUSH1 0x0 DUP3 DUP6 MLOAD DUP8 MLOAD DUP10 MLOAD PUSH2 0x1C9F SWAP2 SWAP1 PUSH2 0x4DCE JUMP JUMPDEST PUSH2 0x1CA9 SWAP2 SWAP1 PUSH2 0x4DCE JUMP JUMPDEST PUSH2 0x1CB3 SWAP2 SWAP1 PUSH2 0x4DCE JUMP JUMPDEST EQ DUP1 PUSH2 0x1CEB JUMPI POP PUSH1 0x0 PUSH20 0xFFFFFFFFFFFFFFFFFFFFFFFFFFFFFFFFFFFFFFFF AND DUP4 PUSH20 0xFFFFFFFFFFFFFFFFFFFFFFFFFFFFFFFFFFFFFFFF AND EQ JUMPDEST ISZERO PUSH2 0x1D22 JUMPI PUSH1 0x40 MLOAD PUSH32 0xB73F7BA500000000000000000000000000000000000000000000000000000000 DUP2 MSTORE PUSH1 0x4 ADD PUSH1 0x40 MLOAD DUP1 SWAP2 SUB SWAP1 REVERT JUMPDEST PUSH1 0x0 DUP1 PUSH1 0xD1 PUSH1 0x0 DUP7 PUSH20 0xFFFFFFFFFFFFFFFFFFFFFFFFFFFFFFFFFFFFFFFF AND PUSH20 0xFFFFFFFFFFFFFFFFFFFFFFFFFFFFFFFFFFFFFFFF AND DUP2 MSTORE PUSH1 0x20 ADD SWAP1 DUP2 MSTORE PUSH1 0x20 ADD PUSH1 0x0 KECCAK256 DUP1 SLOAD PUSH2 0x1D6F SWAP1 PUSH2 0x4F47 JUMP JUMPDEST DUP1 PUSH1 0x1F ADD PUSH1 0x20 DUP1 SWAP2 DIV MUL PUSH1 0x20 ADD PUSH1 0x40 MLOAD SWAP1 DUP2 ADD PUSH1 0x40 MSTORE DUP1 SWAP3 SWAP2 SWAP1 DUP2 DUP2 MSTORE PUSH1 0x20 ADD DUP3 DUP1 SLOAD PUSH2 0x1D9B SWAP1 PUSH2 0x4F47 JUMP JUMPDEST DUP1 ISZERO PUSH2 0x1DE8 JUMPI DUP1 PUSH1 0x1F LT PUSH2 0x1DBD JUMPI PUSH2 0x100 DUP1 DUP4 SLOAD DIV MUL DUP4 MSTORE SWAP2 PUSH1 0x20 ADD SWAP2 PUSH2 0x1DE8 JUMP JUMPDEST DUP3 ADD SWAP2 SWAP1 PUSH1 0x0 MSTORE PUSH1 0x20 PUSH1 0x0 KECCAK256 SWAP1 JUMPDEST DUP2 SLOAD DUP2 MSTORE SWAP1 PUSH1 0x1 ADD SWAP1 PUSH1 0x20 ADD DUP1 DUP4 GT PUSH2 0x1DCB JUMPI DUP3 SWAP1 SUB PUSH1 0x1F AND DUP3 ADD SWAP2 JUMPDEST POP POP POP POP POP SWAP1 POP PUSH1 0x0 DUP2 MLOAD EQ DUP1 PUSH2 0x1E2A JUMPI POP DUP5 PUSH20 0xFFFFFFFFFFFFFFFFFFFFFFFFFFFFFFFFFFFFFFFF AND CALLER PUSH20 0xFFFFFFFFFFFFFFFFFFFFFFFFFFFFFFFFFFFFFFFF AND EQ JUMPDEST ISZERO PUSH2 0x1E38 JUMPI PUSH1 0x0 SWAP2 POP PUSH2 0x1E3D JUMP JUMPDEST PUSH1 0x1 SWAP2 POP JUMPDEST PUSH1 0x0 PUSH1 0x40 MLOAD DUP1 PUSH1 0xE0 ADD PUSH1 0x40 MSTORE DUP1 DUP11 DUP2 MSTORE PUSH1 0x20 ADD DUP10 DUP2 MSTORE PUSH1 0x20 ADD DUP9 DUP2 MSTORE PUSH1 0x20 ADD PUSH1 0x0 DUP5 MLOAD EQ PUSH2 0x1E6B JUMPI DUP4 PUSH2 0x1EA2 JUMP JUMPDEST PUSH1 0x40 MLOAD DUP1 PUSH1 0x40 ADD PUSH1 0x40 MSTORE DUP1 PUSH1 0x3 DUP2 MSTORE PUSH1 0x20 ADD PUSH32 0x4E2F410000000000000000000000000000000000000000000000000000000000 DUP2 MSTORE POP JUMPDEST DUP2 MSTORE PUSH1 0x20 ADD DUP5 PUSH1 0x1 DUP2 GT ISZERO PUSH2 0x1EBA JUMPI PUSH2 0x1EB9 PUSH2 0x5051 JUMP JUMPDEST JUMPDEST DUP2 MSTORE PUSH1 0x20 ADD DUP7 DUP2 MSTORE PUSH1 0x20 ADD CALLER PUSH20 0xFFFFFFFFFFFFFFFFFFFFFFFFFFFFFFFFFFFFFFFF AND DUP2 MSTORE POP SWAP1 POP PUSH1 0xC9 DUP2 SWAP1 DUP1 PUSH1 0x1 DUP2 SLOAD ADD DUP1 DUP3 SSTORE DUP1 SWAP2 POP POP PUSH1 0x1 SWAP1 SUB SWAP1 PUSH1 0x0 MSTORE PUSH1 0x20 PUSH1 0x0 KECCAK256 SWAP1 PUSH1 0x7 MUL ADD PUSH1 0x0 SWAP1 SWAP2 SWAP1 SWAP2 SWAP1 SWAP2 POP PUSH1 0x0 DUP3 ADD MLOAD DUP2 PUSH1 0x0 ADD SWAP1 DUP1 MLOAD SWAP1 PUSH1 0x20 ADD SWAP1 PUSH2 0x1F29 SWAP3 SWAP2 SWAP1 PUSH2 0x3BF3 JUMP JUMPDEST POP PUSH1 0x20 DUP3 ADD MLOAD DUP2 PUSH1 0x1 ADD SWAP1 DUP1 MLOAD SWAP1 PUSH1 0x20 ADD SWAP1 PUSH2 0x1F46 SWAP3 SWAP2 SWAP1 PUSH2 0x3BF3 JUMP JUMPDEST POP PUSH1 0x40 DUP3 ADD MLOAD DUP2 PUSH1 0x2 ADD SWAP1 DUP1 MLOAD SWAP1 PUSH1 0x20 ADD SWAP1 PUSH2 0x1F63 SWAP3 SWAP2 SWAP1 PUSH2 0x3BF3 JUMP JUMPDEST POP PUSH1 0x60 DUP3 ADD MLOAD DUP2 PUSH1 0x3 ADD SWAP1 DUP1 MLOAD SWAP1 PUSH1 0x20 ADD SWAP1 PUSH2 0x1F80 SWAP3 SWAP2 SWAP1 PUSH2 0x3BF3 JUMP JUMPDEST POP PUSH1 0x80 DUP3 ADD MLOAD DUP2 PUSH1 0x4 ADD PUSH1 0x0 PUSH2 0x100 EXP DUP2 SLOAD DUP2 PUSH1 0xFF MUL NOT AND SWAP1 DUP4 PUSH1 0x1 DUP2 GT ISZERO PUSH2 0x1FAC JUMPI PUSH2 0x1FAB PUSH2 0x5051 JUMP JUMPDEST JUMPDEST MUL OR SWAP1 SSTORE POP PUSH1 0xA0 DUP3 ADD MLOAD DUP2 PUSH1 0x5 ADD SSTORE PUSH1 0xC0 DUP3 ADD MLOAD DUP2 PUSH1 0x6 ADD PUSH1 0x0 PUSH2 0x100 EXP DUP2 SLOAD DUP2 PUSH20 0xFFFFFFFFFFFFFFFFFFFFFFFFFFFFFFFFFFFFFFFF MUL NOT AND SWAP1 DUP4 PUSH20 0xFFFFFFFFFFFFFFFFFFFFFFFFFFFFFFFFFFFFFFFF AND MUL OR SWAP1 SSTORE POP POP POP PUSH1 0x0 PUSH1 0x1 PUSH1 0xC9 DUP1 SLOAD SWAP1 POP PUSH2 0x2018 SWAP2 SWAP1 PUSH2 0x4E28 JUMP JUMPDEST SWAP1 POP PUSH1 0x1 PUSH1 0xCE PUSH1 0x0 CALLER PUSH20 0xFFFFFFFFFFFFFFFFFFFFFFFFFFFFFFFFFFFFFFFF AND PUSH20 0xFFFFFFFFFFFFFFFFFFFFFFFFFFFFFFFFFFFFFFFF AND DUP2 MSTORE PUSH1 0x20 ADD SWAP1 DUP2 MSTORE PUSH1 0x20 ADD PUSH1 0x0 KECCAK256 PUSH1 0x0 CALLER PUSH20 0xFFFFFFFFFFFFFFFFFFFFFFFFFFFFFFFFFFFFFFFF AND PUSH20 0xFFFFFFFFFFFFFFFFFFFFFFFFFFFFFFFFFFFFFFFF AND DUP2 MSTORE PUSH1 0x20 ADD SWAP1 DUP2 MSTORE PUSH1 0x20 ADD PUSH1 0x0 KECCAK256 PUSH1 0x0 DUP3 DUP3 SLOAD PUSH2 0x20A7 SWAP2 SWAP1 PUSH2 0x4E28 JUMP JUMPDEST SWAP3 POP POP DUP2 SWAP1 SSTORE POP PUSH2 0x20B8 CALLER DUP3 PUSH2 0x29FB JUMP JUMPDEST PUSH1 0x1 DUP1 DUP2 GT ISZERO PUSH2 0x20CB JUMPI PUSH2 0x20CA PUSH2 0x5051 JUMP JUMPDEST JUMPDEST DUP5 PUSH1 0x1 DUP2 GT ISZERO PUSH2 0x20DE JUMPI PUSH2 0x20DD PUSH2 0x5051 JUMP JUMPDEST JUMPDEST EQ ISZERO PUSH2 0x20EF JUMPI PUSH2 0x20EE DUP8 DUP3 PUSH2 0x94F JUMP JUMPDEST JUMPDEST DUP1 PUSH32 0xCA415781CCAAE1268E94422F031B13473B48954405DFBF56E4578B2D2079FBCF DUP12 DUP12 DUP12 DUP8 DUP10 DUP13 CALLER PUSH1 0x40 MLOAD PUSH2 0x212B SWAP8 SWAP7 SWAP6 SWAP5 SWAP4 SWAP3 SWAP2 SWAP1 PUSH2 0x4947 JUMP JUMPDEST PUSH1 0x40 MLOAD DUP1 SWAP2 SUB SWAP1 LOG2 POP POP POP POP POP POP POP POP POP POP JUMP JUMPDEST PUSH2 0x2151 PUSH2 0x214A PUSH2 0x27FD JUMP JUMPDEST DUP4 DUP4 PUSH2 0x2A19 JUMP JUMPDEST POP POP JUMP JUMPDEST PUSH1 0x60 PUSH1 0xD1 PUSH1 0x0 DUP4 PUSH20 0xFFFFFFFFFFFFFFFFFFFFFFFFFFFFFFFFFFFFFFFF AND PUSH20 0xFFFFFFFFFFFFFFFFFFFFFFFFFFFFFFFFFFFFFFFF AND DUP2 MSTORE PUSH1 0x20 ADD SWAP1 DUP2 MSTORE PUSH1 0x20 ADD PUSH1 0x0 KECCAK256 DUP1 SLOAD PUSH2 0x21A1 SWAP1 PUSH2 0x4F47 JUMP JUMPDEST DUP1 PUSH1 0x1F ADD PUSH1 0x20 DUP1 SWAP2 DIV MUL PUSH1 0x20 ADD PUSH1 0x40 MLOAD SWAP1 DUP2 ADD PUSH1 0x40 MSTORE DUP1 SWAP3 SWAP2 SWAP1 DUP2 DUP2 MSTORE PUSH1 0x20 ADD DUP3 DUP1 SLOAD PUSH2 0x21CD SWAP1 PUSH2 0x4F47 JUMP JUMPDEST DUP1 ISZERO PUSH2 0x221A JUMPI DUP1 PUSH1 0x1F LT PUSH2 0x21EF JUMPI PUSH2 0x100 DUP1 DUP4 SLOAD DIV MUL DUP4 MSTORE SWAP2 PUSH1 0x20 ADD SWAP2 PUSH2 0x221A JUMP JUMPDEST DUP3 ADD SWAP2 SWAP1 PUSH1 0x0 MSTORE PUSH1 0x20 PUSH1 0x0 KECCAK256 SWAP1 JUMPDEST DUP2 SLOAD DUP2 MSTORE SWAP1 PUSH1 0x1 ADD SWAP1 PUSH1 0x20 ADD DUP1 DUP4 GT PUSH2 0x21FD JUMPI DUP3 SWAP1 SUB PUSH1 0x1F AND DUP3 ADD SWAP2 JUMPDEST POP POP POP POP POP SWAP1 POP SWAP2 SWAP1 POP JUMP JUMPDEST PUSH1 0x0 PUSH1 0xCC SLOAD SWAP1 POP SWAP1 JUMP JUMPDEST PUSH1 0x60 PUSH1 0xC9 DUP1 SLOAD DUP1 PUSH1 0x20 MUL PUSH1 0x20 ADD PUSH1 0x40 MLOAD SWAP1 DUP2 ADD PUSH1 0x40 MSTORE DUP1 SWAP3 SWAP2 SWAP1 DUP2 DUP2 MSTORE PUSH1 0x20 ADD PUSH1 0x0 SWAP1 JUMPDEST DUP3 DUP3 LT ISZERO PUSH2 0x2569 JUMPI DUP4 DUP3 SWAP1 PUSH1 0x0 MSTORE PUSH1 0x20 PUSH1 0x0 KECCAK256 SWAP1 PUSH1 0x7 MUL ADD PUSH1 0x40 MLOAD DUP1 PUSH1 0xE0 ADD PUSH1 0x40 MSTORE SWAP1 DUP2 PUSH1 0x0 DUP3 ADD DUP1 SLOAD PUSH2 0x2287 SWAP1 PUSH2 0x4F47 JUMP JUMPDEST DUP1 PUSH1 0x1F ADD PUSH1 0x20 DUP1 SWAP2 DIV MUL PUSH1 0x20 ADD PUSH1 0x40 MLOAD SWAP1 DUP2 ADD PUSH1 0x40 MSTORE DUP1 SWAP3 SWAP2 SWAP1 DUP2 DUP2 MSTORE PUSH1 0x20 ADD DUP3 DUP1 SLOAD PUSH2 0x22B3 SWAP1 PUSH2 0x4F47 JUMP JUMPDEST DUP1 ISZERO PUSH2 0x2300 JUMPI DUP1 PUSH1 0x1F LT PUSH2 0x22D5 JUMPI PUSH2 0x100 DUP1 DUP4 SLOAD DIV MUL DUP4 MSTORE SWAP2 PUSH1 0x20 ADD SWAP2 PUSH2 0x2300 JUMP JUMPDEST DUP3 ADD SWAP2 SWAP1 PUSH1 0x0 MSTORE PUSH1 0x20 PUSH1 0x0 KECCAK256 SWAP1 JUMPDEST DUP2 SLOAD DUP2 MSTORE SWAP1 PUSH1 0x1 ADD SWAP1 PUSH1 0x20 ADD DUP1 DUP4 GT PUSH2 0x22E3 JUMPI DUP3 SWAP1 SUB PUSH1 0x1F AND DUP3 ADD SWAP2 JUMPDEST POP POP POP POP POP DUP2 MSTORE PUSH1 0x20 ADD PUSH1 0x1 DUP3 ADD DUP1 SLOAD PUSH2 0x2319 SWAP1 PUSH2 0x4F47 JUMP JUMPDEST DUP1 PUSH1 0x1F ADD PUSH1 0x20 DUP1 SWAP2 DIV MUL PUSH1 0x20 ADD PUSH1 0x40 MLOAD SWAP1 DUP2 ADD PUSH1 0x40 MSTORE DUP1 SWAP3 SWAP2 SWAP1 DUP2 DUP2 MSTORE PUSH1 0x20 ADD DUP3 DUP1 SLOAD PUSH2 0x2345 SWAP1 PUSH2 0x4F47 JUMP JUMPDEST DUP1 ISZERO PUSH2 0x2392 JUMPI DUP1 PUSH1 0x1F LT PUSH2 0x2367 JUMPI PUSH2 0x100 DUP1 DUP4 SLOAD DIV MUL DUP4 MSTORE SWAP2 PUSH1 0x20 ADD SWAP2 PUSH2 0x2392 JUMP JUMPDEST DUP3 ADD SWAP2 SWAP1 PUSH1 0x0 MSTORE PUSH1 0x20 PUSH1 0x0 KECCAK256 SWAP1 JUMPDEST DUP2 SLOAD DUP2 MSTORE SWAP1 PUSH1 0x1 ADD SWAP1 PUSH1 0x20 ADD DUP1 DUP4 GT PUSH2 0x2375 JUMPI DUP3 SWAP1 SUB PUSH1 0x1F AND DUP3 ADD SWAP2 JUMPDEST POP POP POP POP POP DUP2 MSTORE PUSH1 0x20 ADD PUSH1 0x2 DUP3 ADD DUP1 SLOAD PUSH2 0x23AB SWAP1 PUSH2 0x4F47 JUMP JUMPDEST DUP1 PUSH1 0x1F ADD PUSH1 0x20 DUP1 SWAP2 DIV MUL PUSH1 0x20 ADD PUSH1 0x40 MLOAD SWAP1 DUP2 ADD PUSH1 0x40 MSTORE DUP1 SWAP3 SWAP2 SWAP1 DUP2 DUP2 MSTORE PUSH1 0x20 ADD DUP3 DUP1 SLOAD PUSH2 0x23D7 SWAP1 PUSH2 0x4F47 JUMP JUMPDEST DUP1 ISZERO PUSH2 0x2424 JUMPI DUP1 PUSH1 0x1F LT PUSH2 0x23F9 JUMPI PUSH2 0x100 DUP1 DUP4 SLOAD DIV MUL DUP4 MSTORE SWAP2 PUSH1 0x20 ADD SWAP2 PUSH2 0x2424 JUMP JUMPDEST DUP3 ADD SWAP2 SWAP1 PUSH1 0x0 MSTORE PUSH1 0x20 PUSH1 0x0 KECCAK256 SWAP1 JUMPDEST DUP2 SLOAD DUP2 MSTORE SWAP1 PUSH1 0x1 ADD SWAP1 PUSH1 0x20 ADD DUP1 DUP4 GT PUSH2 0x2407 JUMPI DUP3 SWAP1 SUB PUSH1 0x1F AND DUP3 ADD SWAP2 JUMPDEST POP POP POP POP POP DUP2 MSTORE PUSH1 0x20 ADD PUSH1 0x3 DUP3 ADD DUP1 SLOAD PUSH2 0x243D SWAP1 PUSH2 0x4F47 JUMP JUMPDEST DUP1 PUSH1 0x1F ADD PUSH1 0x20 DUP1 SWAP2 DIV MUL PUSH1 0x20 ADD PUSH1 0x40 MLOAD SWAP1 DUP2 ADD PUSH1 0x40 MSTORE DUP1 SWAP3 SWAP2 SWAP1 DUP2 DUP2 MSTORE PUSH1 0x20 ADD DUP3 DUP1 SLOAD PUSH2 0x2469 SWAP1 PUSH2 0x4F47 JUMP JUMPDEST DUP1 ISZERO PUSH2 0x24B6 JUMPI DUP1 PUSH1 0x1F LT PUSH2 0x248B JUMPI PUSH2 0x100 DUP1 DUP4 SLOAD DIV MUL DUP4 MSTORE SWAP2 PUSH1 0x20 ADD SWAP2 PUSH2 0x24B6 JUMP JUMPDEST DUP3 ADD SWAP2 SWAP1 PUSH1 0x0 MSTORE PUSH1 0x20 PUSH1 0x0 KECCAK256 SWAP1 JUMPDEST DUP2 SLOAD DUP2 MSTORE SWAP1 PUSH1 0x1 ADD SWAP1 PUSH1 0x20 ADD DUP1 DUP4 GT PUSH2 0x2499 JUMPI DUP3 SWAP1 SUB PUSH1 0x1F AND DUP3 ADD SWAP2 JUMPDEST POP POP POP POP POP DUP2 MSTORE PUSH1 0x20 ADD PUSH1 0x4 DUP3 ADD PUSH1 0x0 SWAP1 SLOAD SWAP1 PUSH2 0x100 EXP SWAP1 DIV PUSH1 0xFF AND PUSH1 0x1 DUP2 GT ISZERO PUSH2 0x24E4 JUMPI PUSH2 0x24E3 PUSH2 0x5051 JUMP JUMPDEST JUMPDEST PUSH1 0x1 DUP2 GT ISZERO PUSH2 0x24F6 JUMPI PUSH2 0x24F5 PUSH2 0x5051 JUMP JUMPDEST JUMPDEST DUP2 MSTORE PUSH1 0x20 ADD PUSH1 0x5 DUP3 ADD SLOAD DUP2 MSTORE PUSH1 0x20 ADD PUSH1 0x6 DUP3 ADD PUSH1 0x0 SWAP1 SLOAD SWAP1 PUSH2 0x100 EXP SWAP1 DIV PUSH20 0xFFFFFFFFFFFFFFFFFFFFFFFFFFFFFFFFFFFFFFFF AND PUSH20 0xFFFFFFFFFFFFFFFFFFFFFFFFFFFFFFFFFFFFFFFF AND PUSH20 0xFFFFFFFFFFFFFFFFFFFFFFFFFFFFFFFFFFFFFFFF AND DUP2 MSTORE POP POP DUP2 MSTORE PUSH1 0x20 ADD SWAP1 PUSH1 0x1 ADD SWAP1 PUSH2 0x2254 JUMP JUMPDEST POP POP POP POP SWAP1 POP SWAP1 JUMP JUMPDEST PUSH2 0x2583 PUSH2 0x257D PUSH2 0x27FD JUMP JUMPDEST DUP4 PUSH2 0x28BE JUMP JUMPDEST PUSH2 0x25C2 JUMPI PUSH1 0x40 MLOAD PUSH32 0x8C379A000000000000000000000000000000000000000000000000000000000 DUP2 MSTORE PUSH1 0x4 ADD PUSH2 0x25B9 SWAP1 PUSH2 0x49D2 JUMP JUMPDEST PUSH1 0x40 MLOAD DUP1 SWAP2 SUB SWAP1 REVERT JUMPDEST PUSH2 0x25CE DUP5 DUP5 DUP5 DUP5 PUSH2 0x2B86 JUMP JUMPDEST POP POP POP POP JUMP JUMPDEST PUSH1 0x60 PUSH2 0x25DF DUP3 PUSH2 0x27B2 JUMP JUMPDEST PUSH1 0x0 PUSH2 0x25E9 PUSH2 0x2BE2 JUMP JUMPDEST SWAP1 POP PUSH1 0x0 DUP2 MLOAD GT PUSH2 0x2609 JUMPI PUSH1 0x40 MLOAD DUP1 PUSH1 0x20 ADD PUSH1 0x40 MSTORE DUP1 PUSH1 0x0 DUP2 MSTORE POP PUSH2 0x2634 JUMP JUMPDEST DUP1 PUSH2 0x2613 DUP5 PUSH2 0x2BF9 JUMP JUMPDEST PUSH1 0x40 MLOAD PUSH1 0x20 ADD PUSH2 0x2624 SWAP3 SWAP2 SWAP1 PUSH2 0x482D JUMP JUMPDEST PUSH1 0x40 MLOAD PUSH1 0x20 DUP2 DUP4 SUB SUB DUP2 MSTORE SWAP1 PUSH1 0x40 MSTORE JUMPDEST SWAP2 POP POP SWAP2 SWAP1 POP JUMP JUMPDEST PUSH1 0x0 PUSH1 0x6A PUSH1 0x0 DUP5 PUSH20 0xFFFFFFFFFFFFFFFFFFFFFFFFFFFFFFFFFFFFFFFF AND PUSH20 0xFFFFFFFFFFFFFFFFFFFFFFFFFFFFFFFFFFFFFFFF AND DUP2 MSTORE PUSH1 0x20 ADD SWAP1 DUP2 MSTORE PUSH1 0x20 ADD PUSH1 0x0 KECCAK256 PUSH1 0x0 DUP4 PUSH20 0xFFFFFFFFFFFFFFFFFFFFFFFFFFFFFFFFFFFFFFFF AND PUSH20 0xFFFFFFFFFFFFFFFFFFFFFFFFFFFFFFFFFFFFFFFF AND DUP2 MSTORE PUSH1 0x20 ADD SWAP1 DUP2 MSTORE PUSH1 0x20 ADD PUSH1 0x0 KECCAK256 PUSH1 0x0 SWAP1 SLOAD SWAP1 PUSH2 0x100 EXP SWAP1 DIV PUSH1 0xFF AND SWAP1 POP SWAP3 SWAP2 POP POP JUMP JUMPDEST PUSH1 0x0 PUSH32 0x80AC58CD00000000000000000000000000000000000000000000000000000000 PUSH28 0xFFFFFFFFFFFFFFFFFFFFFFFFFFFFFFFFFFFFFFFFFFFFFFFFFFFFFFFF NOT AND DUP3 PUSH28 0xFFFFFFFFFFFFFFFFFFFFFFFFFFFFFFFFFFFFFFFFFFFFFFFFFFFFFFFF NOT AND EQ DUP1 PUSH2 0x279B JUMPI POP PUSH32 0x5B5E139F00000000000000000000000000000000000000000000000000000000 PUSH28 0xFFFFFFFFFFFFFFFFFFFFFFFFFFFFFFFFFFFFFFFFFFFFFFFFFFFFFFFF NOT AND DUP3 PUSH28 0xFFFFFFFFFFFFFFFFFFFFFFFFFFFFFFFFFFFFFFFFFFFFFFFFFFFFFFFF NOT AND EQ JUMPDEST DUP1 PUSH2 0x27AB JUMPI POP PUSH2 0x27AA DUP3 PUSH2 0x2CD1 JUMP JUMPDEST JUMPDEST SWAP1 POP SWAP2 SWAP1 POP JUMP JUMPDEST PUSH2 0x27BB DUP2 PUSH2 0x2D3B JUMP JUMPDEST PUSH2 0x27FA JUMPI PUSH1 0x40 MLOAD PUSH32 0x8C379A000000000000000000000000000000000000000000000000000000000 DUP2 MSTORE PUSH1 0x4 ADD PUSH2 0x27F1 SWAP1 PUSH2 0x4AF2 JUMP JUMPDEST PUSH1 0x40 MLOAD DUP1 SWAP2 SUB SWAP1 REVERT JUMPDEST POP JUMP JUMPDEST PUSH1 0x0 CALLER SWAP1 POP SWAP1 JUMP JUMPDEST DUP2 PUSH1 0x69 PUSH1 0x0 DUP4 DUP2 MSTORE PUSH1 0x20 ADD SWAP1 DUP2 MSTORE PUSH1 0x20 ADD PUSH1 0x0 KECCAK256 PUSH1 0x0 PUSH2 0x100 EXP DUP2 SLOAD DUP2 PUSH20 0xFFFFFFFFFFFFFFFFFFFFFFFFFFFFFFFFFFFFFFFF MUL NOT AND SWAP1 DUP4 PUSH20 0xFFFFFFFFFFFFFFFFFFFFFFFFFFFFFFFFFFFFFFFF AND MUL OR SWAP1 SSTORE POP DUP1 DUP3 PUSH20 0xFFFFFFFFFFFFFFFFFFFFFFFFFFFFFFFFFFFFFFFF AND PUSH2 0x2878 DUP4 PUSH2 0x163B JUMP JUMPDEST PUSH20 0xFFFFFFFFFFFFFFFFFFFFFFFFFFFFFFFFFFFFFFFF AND PUSH32 0x8C5BE1E5EBEC7D5BD14F71427D1E84F3DD0314C0F7B2291E5B200AC8C7C3B925 PUSH1 0x40 MLOAD PUSH1 0x40 MLOAD DUP1 SWAP2 SUB SWAP1 LOG4 POP POP JUMP JUMPDEST PUSH1 0x0 DUP1 PUSH2 0x28CA DUP4 PUSH2 0x163B JUMP JUMPDEST SWAP1 POP DUP1 PUSH20 0xFFFFFFFFFFFFFFFFFFFFFFFFFFFFFFFFFFFFFFFF AND DUP5 PUSH20 0xFFFFFFFFFFFFFFFFFFFFFFFFFFFFFFFFFFFFFFFF AND EQ DUP1 PUSH2 0x290C JUMPI POP PUSH2 0x290B DUP2 DUP6 PUSH2 0x263C JUMP JUMPDEST JUMPDEST DUP1 PUSH2 0x294A JUMPI POP DUP4 PUSH20 0xFFFFFFFFFFFFFFFFFFFFFFFFFFFFFFFFFFFFFFFF AND PUSH2 0x2932 DUP5 PUSH2 0x909 JUMP JUMPDEST PUSH20 0xFFFFFFFFFFFFFFFFFFFFFFFFFFFFFFFFFFFFFFFF AND EQ JUMPDEST SWAP2 POP POP SWAP3 SWAP2 POP POP JUMP JUMPDEST PUSH2 0x295E DUP4 DUP4 DUP4 PUSH2 0x2D7C JUMP JUMPDEST DUP2 PUSH20 0xFFFFFFFFFFFFFFFFFFFFFFFFFFFFFFFFFFFFFFFF AND DUP4 PUSH20 0xFFFFFFFFFFFFFFFFFFFFFFFFFFFFFFFFFFFFFFFF AND DUP3 PUSH32 0xA39C1232E046AB0AD1C4221E11516A35AD636B4EB5A7ACAABBFD44EACA8FE007 PUSH1 0x40 MLOAD PUSH1 0x40 MLOAD DUP1 SWAP2 SUB SWAP1 LOG4 POP POP POP JUMP JUMPDEST PUSH1 0x0 PUSH1 0x67 PUSH1 0x0 DUP4 DUP2 MSTORE PUSH1 0x20 ADD SWAP1 DUP2 MSTORE PUSH1 0x20 ADD PUSH1 0x0 KECCAK256 PUSH1 0x0 SWAP1 SLOAD SWAP1 PUSH2 0x100 EXP SWAP1 DIV PUSH20 0xFFFFFFFFFFFFFFFFFFFFFFFFFFFFFFFFFFFFFFFF AND SWAP1 POP SWAP2 SWAP1 POP JUMP JUMPDEST PUSH2 0x2A15 DUP3 DUP3 PUSH1 0x40 MLOAD DUP1 PUSH1 0x20 ADD PUSH1 0x40 MSTORE DUP1 PUSH1 0x0 DUP2 MSTORE POP PUSH2 0x3076 JUMP JUMPDEST POP POP JUMP JUMPDEST DUP2 PUSH20 0xFFFFFFFFFFFFFFFFFFFFFFFFFFFFFFFFFFFFFFFF AND DUP4 PUSH20 0xFFFFFFFFFFFFFFFFFFFFFFFFFFFFFFFFFFFFFFFF AND EQ ISZERO PUSH2 0x2A88 JUMPI PUSH1 0x40 MLOAD PUSH32 0x8C379A000000000000000000000000000000000000000000000000000000000 DUP2 MSTORE PUSH1 0x4 ADD PUSH2 0x2A7F SWAP1 PUSH2 0x4A92 JUMP JUMPDEST PUSH1 0x40 MLOAD DUP1 SWAP2 SUB SWAP1 REVERT JUMPDEST DUP1 PUSH1 0x6A PUSH1 0x0 DUP6 PUSH20 0xFFFFFFFFFFFFFFFFFFFFFFFFFFFFFFFFFFFFFFFF AND PUSH20 0xFFFFFFFFFFFFFFFFFFFFFFFFFFFFFFFFFFFFFFFF AND DUP2 MSTORE PUSH1 0x20 ADD SWAP1 DUP2 MSTORE PUSH1 0x20 ADD PUSH1 0x0 KECCAK256 PUSH1 0x0 DUP5 PUSH20 0xFFFFFFFFFFFFFFFFFFFFFFFFFFFFFFFFFFFFFFFF AND PUSH20 0xFFFFFFFFFFFFFFFFFFFFFFFFFFFFFFFFFFFFFFFF AND DUP2 MSTORE PUSH1 0x20 ADD SWAP1 DUP2 MSTORE PUSH1 0x20 ADD PUSH1 0x0 KECCAK256 PUSH1 0x0 PUSH2 0x100 EXP DUP2 SLOAD DUP2 PUSH1 0xFF MUL NOT AND SWAP1 DUP4 ISZERO ISZERO MUL OR SWAP1 SSTORE POP DUP2 PUSH20 0xFFFFFFFFFFFFFFFFFFFFFFFFFFFFFFFFFFFFFFFF AND DUP4 PUSH20 0xFFFFFFFFFFFFFFFFFFFFFFFFFFFFFFFFFFFFFFFF AND PUSH32 0x17307EAB39AB6107E8899845AD3D59BD9653F200F220920489CA2B5937696C31 DUP4 PUSH1 0x40 MLOAD PUSH2 0x2B79 SWAP2 SWAP1 PUSH2 0x490A JUMP JUMPDEST PUSH1 0x40 MLOAD DUP1 SWAP2 SUB SWAP1 LOG3 POP POP POP JUMP JUMPDEST PUSH2 0x2B91 DUP5 DUP5 DUP5 PUSH2 0x2953 JUMP JUMPDEST PUSH2 0x2B9D DUP5 DUP5 DUP5 DUP5 PUSH2 0x30D1 JUMP JUMPDEST PUSH2 0x2BDC JUMPI PUSH1 0x40 MLOAD PUSH32 0x8C379A000000000000000000000000000000000000000000000000000000000 DUP2 MSTORE PUSH1 0x4 ADD PUSH2 0x2BD3 SWAP1 PUSH2 0x4A12 JUMP JUMPDEST PUSH1 0x40 MLOAD DUP1 SWAP2 SUB SWAP1 REVERT JUMPDEST POP POP POP POP JUMP JUMPDEST PUSH1 0x60 PUSH1 0x40 MLOAD DUP1 PUSH1 0x20 ADD PUSH1 0x40 MSTORE DUP1 PUSH1 0x0 DUP2 MSTORE POP SWAP1 POP SWAP1 JUMP JUMPDEST PUSH1 0x60 PUSH1 0x0 PUSH1 0x1 PUSH2 0x2C08 DUP5 PUSH2 0x3268 JUMP JUMPDEST ADD SWAP1 POP PUSH1 0x0 DUP2 PUSH8 0xFFFFFFFFFFFFFFFF DUP2 GT ISZERO PUSH2 0x2C27 JUMPI PUSH2 0x2C26 PUSH2 0x510D JUMP JUMPDEST JUMPDEST PUSH1 0x40 MLOAD SWAP1 DUP1 DUP3 MSTORE DUP1 PUSH1 0x1F ADD PUSH1 0x1F NOT AND PUSH1 0x20 ADD DUP3 ADD PUSH1 0x40 MSTORE DUP1 ISZERO PUSH2 0x2C59 JUMPI DUP2 PUSH1 0x20 ADD PUSH1 0x1 DUP3 MUL DUP1 CALLDATASIZE DUP4 CALLDATACOPY DUP1 DUP3 ADD SWAP2 POP POP SWAP1 POP JUMPDEST POP SWAP1 POP PUSH1 0x0 DUP3 PUSH1 0x20 ADD DUP3 ADD SWAP1 POP JUMPDEST PUSH1 0x1 ISZERO PUSH2 0x2CC6 JUMPI DUP1 DUP1 PUSH1 0x1 SWAP1 SUB SWAP2 POP POP PUSH32 0x3031323334353637383961626364656600000000000000000000000000000000 PUSH1 0xA DUP7 MOD BYTE DUP2 MSTORE8 PUSH1 0xA DUP6 DUP2 PUSH2 0x2CB0 JUMPI PUSH2 0x2CAF PUSH2 0x5022 JUMP JUMPDEST JUMPDEST DIV SWAP5 POP PUSH1 0x0 DUP6 EQ ISZERO PUSH2 0x2CC1 JUMPI PUSH2 0x2CC6 JUMP JUMPDEST PUSH2 0x2C67 JUMP JUMPDEST DUP2 SWAP4 POP POP POP POP SWAP2 SWAP1 POP JUMP JUMPDEST PUSH1 0x0 PUSH32 0x1FFC9A700000000000000000000000000000000000000000000000000000000 PUSH28 0xFFFFFFFFFFFFFFFFFFFFFFFFFFFFFFFFFFFFFFFFFFFFFFFFFFFFFFFF NOT AND DUP3 PUSH28 0xFFFFFFFFFFFFFFFFFFFFFFFFFFFFFFFFFFFFFFFFFFFFFFFFFFFFFFFF NOT AND EQ SWAP1 POP SWAP2 SWAP1 POP JUMP JUMPDEST PUSH1 0x0 DUP1 PUSH20 0xFFFFFFFFFFFFFFFFFFFFFFFFFFFFFFFFFFFFFFFF AND PUSH2 0x2D5D DUP4 PUSH2 0x29BE JUMP JUMPDEST PUSH20 0xFFFFFFFFFFFFFFFFFFFFFFFFFFFFFFFFFFFFFFFF AND EQ ISZERO SWAP1 POP SWAP2 SWAP1 POP JUMP JUMPDEST DUP3 PUSH20 0xFFFFFFFFFFFFFFFFFFFFFFFFFFFFFFFFFFFFFFFF AND PUSH2 0x2D9C DUP3 PUSH2 0x163B JUMP JUMPDEST PUSH20 0xFFFFFFFFFFFFFFFFFFFFFFFFFFFFFFFFFFFFFFFF AND EQ PUSH2 0x2DF2 JUMPI PUSH1 0x40 MLOAD PUSH32 0x8C379A000000000000000000000000000000000000000000000000000000000 DUP2 MSTORE PUSH1 0x4 ADD PUSH2 0x2DE9 SWAP1 PUSH2 0x4A32 JUMP JUMPDEST PUSH1 0x40 MLOAD DUP1 SWAP2 SUB SWAP1 REVERT JUMPDEST PUSH1 0x0 PUSH20 0xFFFFFFFFFFFFFFFFFFFFFFFFFFFFFFFFFFFFFFFF AND DUP3 PUSH20 0xFFFFFFFFFFFFFFFFFFFFFFFFFFFFFFFFFFFFFFFF AND EQ ISZERO PUSH2 0x2E62 JUMPI PUSH1 0x40 MLOAD PUSH32 0x8C379A000000000000000000000000000000000000000000000000000000000 DUP2 MSTORE PUSH1 0x4 ADD PUSH2 0x2E59 SWAP1 PUSH2 0x4A72 JUMP JUMPDEST PUSH1 0x40 MLOAD DUP1 SWAP2 SUB SWAP1 REVERT JUMPDEST PUSH2 0x2E6F DUP4 DUP4 DUP4 PUSH1 0x1 PUSH2 0x33BB JUMP JUMPDEST DUP3 PUSH20 0xFFFFFFFFFFFFFFFFFFFFFFFFFFFFFFFFFFFFFFFF AND PUSH2 0x2E8F DUP3 PUSH2 0x163B JUMP JUMPDEST PUSH20 0xFFFFFFFFFFFFFFFFFFFFFFFFFFFFFFFFFFFFFFFF AND EQ PUSH2 0x2EE5 JUMPI PUSH1 0x40 MLOAD PUSH32 0x8C379A000000000000000000000000000000000000000000000000000000000 DUP2 MSTORE PUSH1 0x4 ADD PUSH2 0x2EDC SWAP1 PUSH2 0x4A32 JUMP JUMPDEST PUSH1 0x40 MLOAD DUP1 SWAP2 SUB SWAP1 REVERT JUMPDEST PUSH1 0x69 PUSH1 0x0 DUP3 DUP2 MSTORE PUSH1 0x20 ADD SWAP1 DUP2 MSTORE PUSH1 0x20 ADD PUSH1 0x0 KECCAK256 PUSH1 0x0 PUSH2 0x100 EXP DUP2 SLOAD SWAP1 PUSH20 0xFFFFFFFFFFFFFFFFFFFFFFFFFFFFFFFFFFFFFFFF MUL NOT AND SWAP1 SSTORE PUSH1 0x1 PUSH1 0x68 PUSH1 0x0 DUP6 PUSH20 0xFFFFFFFFFFFFFFFFFFFFFFFFFFFFFFFFFFFFFFFF AND PUSH20 0xFFFFFFFFFFFFFFFFFFFFFFFFFFFFFFFFFFFFFFFF AND DUP2 MSTORE PUSH1 0x20 ADD SWAP1 DUP2 MSTORE PUSH1 0x20 ADD PUSH1 0x0 KECCAK256 PUSH1 0x0 DUP3 DUP3 SLOAD SUB SWAP3 POP POP DUP2 SWAP1 SSTORE POP PUSH1 0x1 PUSH1 0x68 PUSH1 0x0 DUP5 PUSH20 0xFFFFFFFFFFFFFFFFFFFFFFFFFFFFFFFFFFFFFFFF AND PUSH20 0xFFFFFFFFFFFFFFFFFFFFFFFFFFFFFFFFFFFFFFFF AND DUP2 MSTORE PUSH1 0x20 ADD SWAP1 DUP2 MSTORE PUSH1 0x20 ADD PUSH1 0x0 KECCAK256 PUSH1 0x0 DUP3 DUP3 SLOAD ADD SWAP3 POP POP DUP2 SWAP1 SSTORE POP DUP2 PUSH1 0x67 PUSH1 0x0 DUP4 DUP2 MSTORE PUSH1 0x20 ADD SWAP1 DUP2 MSTORE PUSH1 0x20 ADD PUSH1 0x0 KECCAK256 PUSH1 0x0 PUSH2 0x100 EXP DUP2 SLOAD DUP2 PUSH20 0xFFFFFFFFFFFFFFFFFFFFFFFFFFFFFFFFFFFFFFFF MUL NOT AND SWAP1 DUP4 PUSH20 0xFFFFFFFFFFFFFFFFFFFFFFFFFFFFFFFFFFFFFFFF AND MUL OR SWAP1 SSTORE POP DUP1 DUP3 PUSH20 0xFFFFFFFFFFFFFFFFFFFFFFFFFFFFFFFFFFFFFFFF AND DUP5 PUSH20 0xFFFFFFFFFFFFFFFFFFFFFFFFFFFFFFFFFFFFFFFF AND PUSH32 0xDDF252AD1BE2C89B69C2B068FC378DAA952BA7F163C4A11628F55A4DF523B3EF PUSH1 0x40 MLOAD PUSH1 0x40 MLOAD DUP1 SWAP2 SUB SWAP1 LOG4 PUSH2 0x3071 DUP4 DUP4 DUP4 PUSH1 0x1 PUSH2 0x351B JUMP JUMPDEST POP POP POP JUMP JUMPDEST PUSH2 0x3080 DUP4 DUP4 PUSH2 0x3521 JUMP JUMPDEST PUSH2 0x308D PUSH1 0x0 DUP5 DUP5 DUP5 PUSH2 0x30D1 JUMP JUMPDEST PUSH2 0x30CC JUMPI PUSH1 0x40 MLOAD PUSH32 0x8C379A000000000000000000000000000000000000000000000000000000000 DUP2 MSTORE PUSH1 0x4 ADD PUSH2 0x30C3 SWAP1 PUSH2 0x4A12 JUMP JUMPDEST PUSH1 0x40 MLOAD DUP1 SWAP2 SUB SWAP1 REVERT JUMPDEST POP POP POP JUMP JUMPDEST PUSH1 0x0 PUSH2 0x30F2 DUP5 PUSH20 0xFFFFFFFFFFFFFFFFFFFFFFFFFFFFFFFFFFFFFFFF AND PUSH2 0x373F JUMP JUMPDEST ISZERO PUSH2 0x325B JUMPI DUP4 PUSH20 0xFFFFFFFFFFFFFFFFFFFFFFFFFFFFFFFFFFFFFFFF AND PUSH4 0x150B7A02 PUSH2 0x311B PUSH2 0x27FD JUMP JUMPDEST DUP8 DUP7 DUP7 PUSH1 0x40 MLOAD DUP6 PUSH4 0xFFFFFFFF AND PUSH1 0xE0 SHL DUP2 MSTORE PUSH1 0x4 ADD PUSH2 0x313D SWAP5 SWAP4 SWAP3 SWAP2 SWAP1 PUSH2 0x486C JUMP JUMPDEST PUSH1 0x20 PUSH1 0x40 MLOAD DUP1 DUP4 SUB DUP2 PUSH1 0x0 DUP8 DUP1 EXTCODESIZE ISZERO DUP1 ISZERO PUSH2 0x3157 JUMPI PUSH1 0x0 DUP1 REVERT JUMPDEST POP GAS CALL SWAP3 POP POP POP DUP1 ISZERO PUSH2 0x3188 JUMPI POP PUSH1 0x40 MLOAD RETURNDATASIZE PUSH1 0x1F NOT PUSH1 0x1F DUP3 ADD AND DUP3 ADD DUP1 PUSH1 0x40 MSTORE POP DUP2 ADD SWAP1 PUSH2 0x3185 SWAP2 SWAP1 PUSH2 0x406D JUMP JUMPDEST PUSH1 0x1 JUMPDEST PUSH2 0x320B JUMPI RETURNDATASIZE DUP1 PUSH1 0x0 DUP2 EQ PUSH2 0x31B8 JUMPI PUSH1 0x40 MLOAD SWAP2 POP PUSH1 0x1F NOT PUSH1 0x3F RETURNDATASIZE ADD AND DUP3 ADD PUSH1 0x40 MSTORE RETURNDATASIZE DUP3 MSTORE RETURNDATASIZE PUSH1 0x0 PUSH1 0x20 DUP5 ADD RETURNDATACOPY PUSH2 0x31BD JUMP JUMPDEST PUSH1 0x60 SWAP2 POP JUMPDEST POP PUSH1 0x0 DUP2 MLOAD EQ ISZERO PUSH2 0x3203 JUMPI PUSH1 0x40 MLOAD PUSH32 0x8C379A000000000000000000000000000000000000000000000000000000000 DUP2 MSTORE PUSH1 0x4 ADD PUSH2 0x31FA SWAP1 PUSH2 0x4A12 JUMP JUMPDEST PUSH1 0x40 MLOAD DUP1 SWAP2 SUB SWAP1 REVERT JUMPDEST DUP1 MLOAD DUP2 PUSH1 0x20 ADD REVERT JUMPDEST PUSH4 0x150B7A02 PUSH1 0xE0 SHL PUSH28 0xFFFFFFFFFFFFFFFFFFFFFFFFFFFFFFFFFFFFFFFFFFFFFFFFFFFFFFFF NOT AND DUP2 PUSH28 0xFFFFFFFFFFFFFFFFFFFFFFFFFFFFFFFFFFFFFFFFFFFFFFFFFFFFFFFF NOT AND EQ SWAP2 POP POP PUSH2 0x3260 JUMP JUMPDEST PUSH1 0x1 SWAP1 POP JUMPDEST SWAP5 SWAP4 POP POP POP POP JUMP JUMPDEST PUSH1 0x0 DUP1 PUSH1 0x0 SWAP1 POP PUSH27 0x184F03E93FF9F4DAA797ED6E38ED64BF6A1F010000000000000000 DUP4 LT PUSH2 0x32C6 JUMPI PUSH27 0x184F03E93FF9F4DAA797ED6E38ED64BF6A1F010000000000000000 DUP4 DUP2 PUSH2 0x32BC JUMPI PUSH2 0x32BB PUSH2 0x5022 JUMP JUMPDEST JUMPDEST DIV SWAP3 POP PUSH1 0x40 DUP2 ADD SWAP1 POP JUMPDEST PUSH14 0x4EE2D6D415B85ACEF8100000000 DUP4 LT PUSH2 0x3303 JUMPI PUSH14 0x4EE2D6D415B85ACEF8100000000 DUP4 DUP2 PUSH2 0x32F9 JUMPI PUSH2 0x32F8 PUSH2 0x5022 JUMP JUMPDEST JUMPDEST DIV SWAP3 POP PUSH1 0x20 DUP2 ADD SWAP1 POP JUMPDEST PUSH7 0x2386F26FC10000 DUP4 LT PUSH2 0x3332 JUMPI PUSH7 0x2386F26FC10000 DUP4 DUP2 PUSH2 0x3328 JUMPI PUSH2 0x3327 PUSH2 0x5022 JUMP JUMPDEST JUMPDEST DIV SWAP3 POP PUSH1 0x10 DUP2 ADD SWAP1 POP JUMPDEST PUSH4 0x5F5E100 DUP4 LT PUSH2 0x335B JUMPI PUSH4 0x5F5E100 DUP4 DUP2 PUSH2 0x3351 JUMPI PUSH2 0x3350 PUSH2 0x5022 JUMP JUMPDEST JUMPDEST DIV SWAP3 POP PUSH1 0x8 DUP2 ADD SWAP1 POP JUMPDEST PUSH2 0x2710 DUP4 LT PUSH2 0x3380 JUMPI PUSH2 0x2710 DUP4 DUP2 PUSH2 0x3376 JUMPI PUSH2 0x3375 PUSH2 0x5022 JUMP JUMPDEST JUMPDEST DIV SWAP3 POP PUSH1 0x4 DUP2 ADD SWAP1 POP JUMPDEST PUSH1 0x64 DUP4 LT PUSH2 0x33A3 JUMPI PUSH1 0x64 DUP4 DUP2 PUSH2 0x3399 JUMPI PUSH2 0x3398 PUSH2 0x5022 JUMP JUMPDEST JUMPDEST DIV SWAP3 POP PUSH1 0x2 DUP2 ADD SWAP1 POP JUMPDEST PUSH1 0xA DUP4 LT PUSH2 0x33B2 JUMPI PUSH1 0x1 DUP2 ADD SWAP1 POP JUMPDEST DUP1 SWAP2 POP POP SWAP2 SWAP1 POP JUMP JUMPDEST PUSH2 0x33C7 DUP5 DUP5 DUP5 DUP5 PUSH2 0x3762 JUMP JUMPDEST PUSH1 0x1 DUP2 GT ISZERO PUSH2 0x340B JUMPI PUSH1 0x40 MLOAD PUSH32 0x8C379A000000000000000000000000000000000000000000000000000000000 DUP2 MSTORE PUSH1 0x4 ADD PUSH2 0x3402 SWAP1 PUSH2 0x4B72 JUMP JUMPDEST PUSH1 0x40 MLOAD DUP1 SWAP2 SUB SWAP1 REVERT JUMPDEST PUSH1 0x0 DUP3 SWAP1 POP PUSH1 0x0 PUSH20 0xFFFFFFFFFFFFFFFFFFFFFFFFFFFFFFFFFFFFFFFF AND DUP6 PUSH20 0xFFFFFFFFFFFFFFFFFFFFFFFFFFFFFFFFFFFFFFFF AND EQ ISZERO PUSH2 0x3453 JUMPI PUSH2 0x344E DUP2 PUSH2 0x3888 JUMP JUMPDEST PUSH2 0x3492 JUMP JUMPDEST DUP4 PUSH20 0xFFFFFFFFFFFFFFFFFFFFFFFFFFFFFFFFFFFFFFFF AND DUP6 PUSH20 0xFFFFFFFFFFFFFFFFFFFFFFFFFFFFFFFFFFFFFFFF AND EQ PUSH2 0x3491 JUMPI PUSH2 0x3490 DUP6 DUP3 PUSH2 0x38D1 JUMP JUMPDEST JUMPDEST JUMPDEST PUSH1 0x0 PUSH20 0xFFFFFFFFFFFFFFFFFFFFFFFFFFFFFFFFFFFFFFFF AND DUP5 PUSH20 0xFFFFFFFFFFFFFFFFFFFFFFFFFFFFFFFFFFFFFFFF AND EQ ISZERO PUSH2 0x34D5 JUMPI PUSH2 0x34D0 DUP2 PUSH2 0x3A3E JUMP JUMPDEST PUSH2 0x3514 JUMP JUMPDEST DUP5 PUSH20 0xFFFFFFFFFFFFFFFFFFFFFFFFFFFFFFFFFFFFFFFF AND DUP5 PUSH20 0xFFFFFFFFFFFFFFFFFFFFFFFFFFFFFFFFFFFFFFFF AND EQ PUSH2 0x3513 JUMPI PUSH2 0x3512 DUP5 DUP3 PUSH2 0x3B0F JUMP JUMPDEST JUMPDEST JUMPDEST POP POP POP POP POP JUMP JUMPDEST POP POP POP POP JUMP JUMPDEST PUSH1 0x0 PUSH20 0xFFFFFFFFFFFFFFFFFFFFFFFFFFFFFFFFFFFFFFFF AND DUP3 PUSH20 0xFFFFFFFFFFFFFFFFFFFFFFFFFFFFFFFFFFFFFFFF AND EQ ISZERO PUSH2 0x3591 JUMPI PUSH1 0x40 MLOAD PUSH32 0x8C379A000000000000000000000000000000000000000000000000000000000 DUP2 MSTORE PUSH1 0x4 ADD PUSH2 0x3588 SWAP1 PUSH2 0x4AD2 JUMP JUMPDEST PUSH1 0x40 MLOAD DUP1 SWAP2 SUB SWAP1 REVERT JUMPDEST PUSH2 0x359A DUP2 PUSH2 0x2D3B JUMP JUMPDEST ISZERO PUSH2 0x35DA JUMPI PUSH1 0x40 MLOAD PUSH32 0x8C379A000000000000000000000000000000000000000000000000000000000 DUP2 MSTORE PUSH1 0x4 ADD PUSH2 0x35D1 SWAP1 PUSH2 0x4A52 JUMP JUMPDEST PUSH1 0x40 MLOAD DUP1 SWAP2 SUB SWAP1 REVERT JUMPDEST PUSH2 0x35E8 PUSH1 0x0 DUP4 DUP4 PUSH1 0x1 PUSH2 0x33BB JUMP JUMPDEST PUSH2 0x35F1 DUP2 PUSH2 0x2D3B JUMP JUMPDEST ISZERO PUSH2 0x3631 JUMPI PUSH1 0x40 MLOAD PUSH32 0x8C379A000000000000000000000000000000000000000000000000000000000 DUP2 MSTORE PUSH1 0x4 ADD PUSH2 0x3628 SWAP1 PUSH2 0x4A52 JUMP JUMPDEST PUSH1 0x40 MLOAD DUP1 SWAP2 SUB SWAP1 REVERT JUMPDEST PUSH1 0x1 PUSH1 0x68 PUSH1 0x0 DUP5 PUSH20 0xFFFFFFFFFFFFFFFFFFFFFFFFFFFFFFFFFFFFFFFF AND PUSH20 0xFFFFFFFFFFFFFFFFFFFFFFFFFFFFFFFFFFFFFFFF AND DUP2 MSTORE PUSH1 0x20 ADD SWAP1 DUP2 MSTORE PUSH1 0x20 ADD PUSH1 0x0 KECCAK256 PUSH1 0x0 DUP3 DUP3 SLOAD ADD SWAP3 POP POP DUP2 SWAP1 SSTORE POP DUP2 PUSH1 0x67 PUSH1 0x0 DUP4 DUP2 MSTORE PUSH1 0x20 ADD SWAP1 DUP2 MSTORE PUSH1 0x20 ADD PUSH1 0x0 KECCAK256 PUSH1 0x0 PUSH2 0x100 EXP DUP2 SLOAD DUP2 PUSH20 0xFFFFFFFFFFFFFFFFFFFFFFFFFFFFFFFFFFFFFFFF MUL NOT AND SWAP1 DUP4 PUSH20 0xFFFFFFFFFFFFFFFFFFFFFFFFFFFFFFFFFFFFFFFF AND MUL OR SWAP1 SSTORE POP DUP1 DUP3 PUSH20 0xFFFFFFFFFFFFFFFFFFFFFFFFFFFFFFFFFFFFFFFF AND PUSH1 0x0 PUSH20 0xFFFFFFFFFFFFFFFFFFFFFFFFFFFFFFFFFFFFFFFF AND PUSH32 0xDDF252AD1BE2C89B69C2B068FC378DAA952BA7F163C4A11628F55A4DF523B3EF PUSH1 0x40 MLOAD PUSH1 0x40 MLOAD DUP1 SWAP2 SUB SWAP1 LOG4 PUSH2 0x373B PUSH1 0x0 DUP4 DUP4 PUSH1 0x1 PUSH2 0x351B JUMP JUMPDEST POP POP JUMP JUMPDEST PUSH1 0x0 DUP1 DUP3 PUSH20 0xFFFFFFFFFFFFFFFFFFFFFFFFFFFFFFFFFFFFFFFF AND EXTCODESIZE GT SWAP1 POP SWAP2 SWAP1 POP JUMP JUMPDEST PUSH1 0x1 DUP2 GT ISZERO PUSH2 0x3882 JUMPI PUSH1 0x0 PUSH20 0xFFFFFFFFFFFFFFFFFFFFFFFFFFFFFFFFFFFFFFFF AND DUP5 PUSH20 0xFFFFFFFFFFFFFFFFFFFFFFFFFFFFFFFFFFFFFFFF AND EQ PUSH2 0x37F6 JUMPI DUP1 PUSH1 0x68 PUSH1 0x0 DUP7 PUSH20 0xFFFFFFFFFFFFFFFFFFFFFFFFFFFFFFFFFFFFFFFF AND PUSH20 0xFFFFFFFFFFFFFFFFFFFFFFFFFFFFFFFFFFFFFFFF AND DUP2 MSTORE PUSH1 0x20 ADD SWAP1 DUP2 MSTORE PUSH1 0x20 ADD PUSH1 0x0 KECCAK256 PUSH1 0x0 DUP3 DUP3 SLOAD PUSH2 0x37EE SWAP2 SWAP1 PUSH2 0x4E28 JUMP JUMPDEST SWAP3 POP POP DUP2 SWAP1 SSTORE POP JUMPDEST PUSH1 0x0 PUSH20 0xFFFFFFFFFFFFFFFFFFFFFFFFFFFFFFFFFFFFFFFF AND DUP4 PUSH20 0xFFFFFFFFFFFFFFFFFFFFFFFFFFFFFFFFFFFFFFFF AND EQ PUSH2 0x3881 JUMPI DUP1 PUSH1 0x68 PUSH1 0x0 DUP6 PUSH20 0xFFFFFFFFFFFFFFFFFFFFFFFFFFFFFFFFFFFFFFFF AND PUSH20 0xFFFFFFFFFFFFFFFFFFFFFFFFFFFFFFFFFFFFFFFF AND DUP2 MSTORE PUSH1 0x20 ADD SWAP1 DUP2 MSTORE PUSH1 0x20 ADD PUSH1 0x0 KECCAK256 PUSH1 0x0 DUP3 DUP3 SLOAD PUSH2 0x3879 SWAP2 SWAP1 PUSH2 0x4D78 JUMP JUMPDEST SWAP3 POP POP DUP2 SWAP1 SSTORE POP JUMPDEST JUMPDEST POP POP POP POP JUMP JUMPDEST PUSH1 0x99 DUP1 SLOAD SWAP1 POP PUSH1 0x9A PUSH1 0x0 DUP4 DUP2 MSTORE PUSH1 0x20 ADD SWAP1 DUP2 MSTORE PUSH1 0x20 ADD PUSH1 0x0 KECCAK256 DUP2 SWAP1 SSTORE POP PUSH1 0x99 DUP2 SWAP1 DUP1 PUSH1 0x1 DUP2 SLOAD ADD DUP1 DUP3 SSTORE DUP1 SWAP2 POP POP PUSH1 0x1 SWAP1 SUB SWAP1 PUSH1 0x0 MSTORE PUSH1 0x20 PUSH1 0x0 KECCAK256 ADD PUSH1 0x0 SWAP1 SWAP2 SWAP1 SWAP2 SWAP1 SWAP2 POP SSTORE POP JUMP JUMPDEST PUSH1 0x0 PUSH1 0x1 PUSH2 0x38DE DUP5 PUSH2 0x16C2 JUMP JUMPDEST PUSH2 0x38E8 SWAP2 SWAP1 PUSH2 0x4E28 JUMP JUMPDEST SWAP1 POP PUSH1 0x0 PUSH1 0x98 PUSH1 0x0 DUP5 DUP2 MSTORE PUSH1 0x20 ADD SWAP1 DUP2 MSTORE PUSH1 0x20 ADD PUSH1 0x0 KECCAK256 SLOAD SWAP1 POP DUP2 DUP2 EQ PUSH2 0x39CD JUMPI PUSH1 0x0 PUSH1 0x97 PUSH1 0x0 DUP7 PUSH20 0xFFFFFFFFFFFFFFFFFFFFFFFFFFFFFFFFFFFFFFFF AND PUSH20 0xFFFFFFFFFFFFFFFFFFFFFFFFFFFFFFFFFFFFFFFF AND DUP2 MSTORE PUSH1 0x20 ADD SWAP1 DUP2 MSTORE PUSH1 0x20 ADD PUSH1 0x0 KECCAK256 PUSH1 0x0 DUP5 DUP2 MSTORE PUSH1 0x20 ADD SWAP1 DUP2 MSTORE PUSH1 0x20 ADD PUSH1 0x0 KECCAK256 SLOAD SWAP1 POP DUP1 PUSH1 0x97 PUSH1 0x0 DUP8 PUSH20 0xFFFFFFFFFFFFFFFFFFFFFFFFFFFFFFFFFFFFFFFF AND PUSH20 0xFFFFFFFFFFFFFFFFFFFFFFFFFFFFFFFFFFFFFFFF AND DUP2 MSTORE PUSH1 0x20 ADD SWAP1 DUP2 MSTORE PUSH1 0x20 ADD PUSH1 0x0 KECCAK256 PUSH1 0x0 DUP5 DUP2 MSTORE PUSH1 0x20 ADD SWAP1 DUP2 MSTORE PUSH1 0x20 ADD PUSH1 0x0 KECCAK256 DUP2 SWAP1 SSTORE POP DUP2 PUSH1 0x98 PUSH1 0x0 DUP4 DUP2 MSTORE PUSH1 0x20 ADD SWAP1 DUP2 MSTORE PUSH1 0x20 ADD PUSH1 0x0 KECCAK256 DUP2 SWAP1 SSTORE POP POP JUMPDEST PUSH1 0x98 PUSH1 0x0 DUP5 DUP2 MSTORE PUSH1 0x20 ADD SWAP1 DUP2 MSTORE PUSH1 0x20 ADD PUSH1 0x0 KECCAK256 PUSH1 0x0 SWAP1 SSTORE PUSH1 0x97 PUSH1 0x0 DUP6 PUSH20 0xFFFFFFFFFFFFFFFFFFFFFFFFFFFFFFFFFFFFFFFF AND PUSH20 0xFFFFFFFFFFFFFFFFFFFFFFFFFFFFFFFFFFFFFFFF AND DUP2 MSTORE PUSH1 0x20 ADD SWAP1 DUP2 MSTORE PUSH1 0x20 ADD PUSH1 0x0 KECCAK256 PUSH1 0x0 DUP4 DUP2 MSTORE PUSH1 0x20 ADD SWAP1 DUP2 MSTORE PUSH1 0x20 ADD PUSH1 0x0 KECCAK256 PUSH1 0x0 SWAP1 SSTORE POP POP POP POP JUMP JUMPDEST PUSH1 0x0 PUSH1 0x1 PUSH1 0x99 DUP1 SLOAD SWAP1 POP PUSH2 0x3A52 SWAP2 SWAP1 PUSH2 0x4E28 JUMP JUMPDEST SWAP1 POP PUSH1 0x0 PUSH1 0x9A PUSH1 0x0 DUP5 DUP2 MSTORE PUSH1 0x20 ADD SWAP1 DUP2 MSTORE PUSH1 0x20 ADD PUSH1 0x0 KECCAK256 SLOAD SWAP1 POP PUSH1 0x0 PUSH1 0x99 DUP4 DUP2 SLOAD DUP2 LT PUSH2 0x3A82 JUMPI PUSH2 0x3A81 PUSH2 0x50DE JUMP JUMPDEST JUMPDEST SWAP1 PUSH1 0x0 MSTORE PUSH1 0x20 PUSH1 0x0 KECCAK256 ADD SLOAD SWAP1 POP DUP1 PUSH1 0x99 DUP4 DUP2 SLOAD DUP2 LT PUSH2 0x3AA4 JUMPI PUSH2 0x3AA3 PUSH2 0x50DE JUMP JUMPDEST JUMPDEST SWAP1 PUSH1 0x0 MSTORE PUSH1 0x20 PUSH1 0x0 KECCAK256 ADD DUP2 SWAP1 SSTORE POP DUP2 PUSH1 0x9A PUSH1 0x0 DUP4 DUP2 MSTORE PUSH1 0x20 ADD SWAP1 DUP2 MSTORE PUSH1 0x20 ADD PUSH1 0x0 KECCAK256 DUP2 SWAP1 SSTORE POP PUSH1 0x9A PUSH1 0x0 DUP6 DUP2 MSTORE PUSH1 0x20 ADD SWAP1 DUP2 MSTORE PUSH1 0x20 ADD PUSH1 0x0 KECCAK256 PUSH1 0x0 SWAP1 SSTORE PUSH1 0x99 DUP1 SLOAD DUP1 PUSH2 0x3AF3 JUMPI PUSH2 0x3AF2 PUSH2 0x50AF JUMP JUMPDEST JUMPDEST PUSH1 0x1 SWAP1 SUB DUP2 DUP2 SWAP1 PUSH1 0x0 MSTORE PUSH1 0x20 PUSH1 0x0 KECCAK256 ADD PUSH1 0x0 SWAP1 SSTORE SWAP1 SSTORE POP POP POP POP JUMP JUMPDEST PUSH1 0x0 PUSH2 0x3B1A DUP4 PUSH2 0x16C2 JUMP JUMPDEST SWAP1 POP DUP2 PUSH1 0x97 PUSH1 0x0 DUP6 PUSH20 0xFFFFFFFFFFFFFFFFFFFFFFFFFFFFFFFFFFFFFFFF AND PUSH20 0xFFFFFFFFFFFFFFFFFFFFFFFFFFFFFFFFFFFFFFFF AND DUP2 MSTORE PUSH1 0x20 ADD SWAP1 DUP2 MSTORE PUSH1 0x20 ADD PUSH1 0x0 KECCAK256 PUSH1 0x0 DUP4 DUP2 MSTORE PUSH1 0x20 ADD SWAP1 DUP2 MSTORE PUSH1 0x20 ADD PUSH1 0x0 KECCAK256 DUP2 SWAP1 SSTORE POP DUP1 PUSH1 0x98 PUSH1 0x0 DUP5 DUP2 MSTORE PUSH1 0x20 ADD SWAP1 DUP2 MSTORE PUSH1 0x20 ADD PUSH1 0x0 KECCAK256 DUP2 SWAP1 SSTORE POP POP POP POP JUMP JUMPDEST PUSH1 0x40 MLOAD DUP1 PUSH1 0xE0 ADD PUSH1 0x40 MSTORE DUP1 PUSH1 0x60 DUP2 MSTORE PUSH1 0x20 ADD PUSH1 0x60 DUP2 MSTORE PUSH1 0x20 ADD PUSH1 0x60 DUP2 MSTORE PUSH1 0x20 ADD PUSH1 0x60 DUP2 MSTORE PUSH1 0x20 ADD PUSH1 0x0 PUSH1 0x1 DUP2 GT ISZERO PUSH2 0x3BC9 JUMPI PUSH2 0x3BC8 PUSH2 0x5051 JUMP JUMPDEST JUMPDEST DUP2 MSTORE PUSH1 0x20 ADD PUSH1 0x0 DUP2 MSTORE PUSH1 0x20 ADD PUSH1 0x0 PUSH20 0xFFFFFFFFFFFFFFFFFFFFFFFFFFFFFFFFFFFFFFFF AND DUP2 MSTORE POP SWAP1 JUMP JUMPDEST DUP3 DUP1 SLOAD PUSH2 0x3BFF SWAP1 PUSH2 0x4F47 JUMP JUMPDEST SWAP1 PUSH1 0x0 MSTORE PUSH1 0x20 PUSH1 0x0 KECCAK256 SWAP1 PUSH1 0x1F ADD PUSH1 0x20 SWAP1 DIV DUP2 ADD SWAP3 DUP3 PUSH2 0x3C21 JUMPI PUSH1 0x0 DUP6 SSTORE PUSH2 0x3C68 JUMP JUMPDEST DUP3 PUSH1 0x1F LT PUSH2 0x3C3A JUMPI DUP1 MLOAD PUSH1 0xFF NOT AND DUP4 DUP1 ADD OR DUP6 SSTORE PUSH2 0x3C68 JUMP JUMPDEST DUP3 DUP1 ADD PUSH1 0x1 ADD DUP6 SSTORE DUP3 ISZERO PUSH2 0x3C68 JUMPI SWAP2 DUP3 ADD JUMPDEST DUP3 DUP2 GT ISZERO PUSH2 0x3C67 JUMPI DUP3 MLOAD DUP3 SSTORE SWAP2 PUSH1 0x20 ADD SWAP2 SWAP1 PUSH1 0x1 ADD SWAP1 PUSH2 0x3C4C JUMP JUMPDEST JUMPDEST POP SWAP1 POP PUSH2 0x3C75 SWAP2 SWAP1 PUSH2 0x3C79 JUMP JUMPDEST POP SWAP1 JUMP JUMPDEST JUMPDEST DUP1 DUP3 GT ISZERO PUSH2 0x3C92 JUMPI PUSH1 0x0 DUP2 PUSH1 0x0 SWAP1 SSTORE POP PUSH1 0x1 ADD PUSH2 0x3C7A JUMP JUMPDEST POP SWAP1 JUMP JUMPDEST PUSH1 0x0 PUSH2 0x3CA9 PUSH2 0x3CA4 DUP5 PUSH2 0x4C24 JUMP JUMPDEST PUSH2 0x4BFF JUMP JUMPDEST SWAP1 POP DUP1 DUP4 DUP3 MSTORE PUSH1 0x20 DUP3 ADD SWAP1 POP DUP3 DUP6 PUSH1 0x20 DUP7 MUL DUP3 ADD GT ISZERO PUSH2 0x3CCC JUMPI PUSH2 0x3CCB PUSH2 0x5141 JUMP JUMPDEST JUMPDEST PUSH1 0x0 JUMPDEST DUP6 DUP2 LT ISZERO PUSH2 0x3CFC JUMPI DUP2 PUSH2 0x3CE2 DUP9 DUP3 PUSH2 0x3D8A JUMP JUMPDEST DUP5 MSTORE PUSH1 0x20 DUP5 ADD SWAP4 POP PUSH1 0x20 DUP4 ADD SWAP3 POP POP PUSH1 0x1 DUP2 ADD SWAP1 POP PUSH2 0x3CCF JUMP JUMPDEST POP POP POP SWAP4 SWAP3 POP POP POP JUMP JUMPDEST PUSH1 0x0 PUSH2 0x3D19 PUSH2 0x3D14 DUP5 PUSH2 0x4C50 JUMP JUMPDEST PUSH2 0x4BFF JUMP JUMPDEST SWAP1 POP DUP3 DUP2 MSTORE PUSH1 0x20 DUP2 ADD DUP5 DUP5 DUP5 ADD GT ISZERO PUSH2 0x3D35 JUMPI PUSH2 0x3D34 PUSH2 0x5146 JUMP JUMPDEST JUMPDEST PUSH2 0x3D40 DUP5 DUP3 DUP6 PUSH2 0x4F05 JUMP JUMPDEST POP SWAP4 SWAP3 POP POP POP JUMP JUMPDEST PUSH1 0x0 PUSH2 0x3D5B PUSH2 0x3D56 DUP5 PUSH2 0x4C81 JUMP JUMPDEST PUSH2 0x4BFF JUMP JUMPDEST SWAP1 POP DUP3 DUP2 MSTORE PUSH1 0x20 DUP2 ADD DUP5 DUP5 DUP5 ADD GT ISZERO PUSH2 0x3D77 JUMPI PUSH2 0x3D76 PUSH2 0x5146 JUMP JUMPDEST JUMPDEST PUSH2 0x3D82 DUP5 DUP3 DUP6 PUSH2 0x4F05 JUMP JUMPDEST POP SWAP4 SWAP3 POP POP POP JUMP JUMPDEST PUSH1 0x0 DUP2 CALLDATALOAD SWAP1 POP PUSH2 0x3D99 DUP2 PUSH2 0x5534 JUMP JUMPDEST SWAP3 SWAP2 POP POP JUMP JUMPDEST PUSH1 0x0 DUP3 PUSH1 0x1F DUP4 ADD SLT PUSH2 0x3DB4 JUMPI PUSH2 0x3DB3 PUSH2 0x513C JUMP JUMPDEST JUMPDEST DUP2 CALLDATALOAD PUSH2 0x3DC4 DUP5 DUP3 PUSH1 0x20 DUP7 ADD PUSH2 0x3C96 JUMP JUMPDEST SWAP2 POP POP SWAP3 SWAP2 POP POP JUMP JUMPDEST PUSH1 0x0 DUP2 CALLDATALOAD SWAP1 POP PUSH2 0x3DDC DUP2 PUSH2 0x554B JUMP JUMPDEST SWAP3 SWAP2 POP POP JUMP JUMPDEST PUSH1 0x0 DUP2 CALLDATALOAD SWAP1 POP PUSH2 0x3DF1 DUP2 PUSH2 0x5562 JUMP JUMPDEST SWAP3 SWAP2 POP POP JUMP JUMPDEST PUSH1 0x0 DUP2 MLOAD SWAP1 POP PUSH2 0x3E06 DUP2 PUSH2 0x5562 JUMP JUMPDEST SWAP3 SWAP2 POP POP JUMP JUMPDEST PUSH1 0x0 DUP3 PUSH1 0x1F DUP4 ADD SLT PUSH2 0x3E21 JUMPI PUSH2 0x3E20 PUSH2 0x513C JUMP JUMPDEST JUMPDEST DUP2 CALLDATALOAD PUSH2 0x3E31 DUP5 DUP3 PUSH1 0x20 DUP7 ADD PUSH2 0x3D06 JUMP JUMPDEST SWAP2 POP POP SWAP3 SWAP2 POP POP JUMP JUMPDEST PUSH1 0x0 DUP3 PUSH1 0x1F DUP4 ADD SLT PUSH2 0x3E4F JUMPI PUSH2 0x3E4E PUSH2 0x513C JUMP JUMPDEST JUMPDEST DUP2 CALLDATALOAD PUSH2 0x3E5F DUP5 DUP3 PUSH1 0x20 DUP7 ADD PUSH2 0x3D48 JUMP JUMPDEST SWAP2 POP POP SWAP3 SWAP2 POP POP JUMP JUMPDEST PUSH1 0x0 DUP2 CALLDATALOAD SWAP1 POP PUSH2 0x3E77 DUP2 PUSH2 0x5579 JUMP JUMPDEST SWAP3 SWAP2 POP POP JUMP JUMPDEST PUSH1 0x0 PUSH1 0x20 DUP3 DUP5 SUB SLT ISZERO PUSH2 0x3E93 JUMPI PUSH2 0x3E92 PUSH2 0x5150 JUMP JUMPDEST JUMPDEST PUSH1 0x0 PUSH2 0x3EA1 DUP5 DUP3 DUP6 ADD PUSH2 0x3D8A JUMP JUMPDEST SWAP2 POP POP SWAP3 SWAP2 POP POP JUMP JUMPDEST PUSH1 0x0 DUP1 PUSH1 0x40 DUP4 DUP6 SUB SLT ISZERO PUSH2 0x3EC1 JUMPI PUSH2 0x3EC0 PUSH2 0x5150 JUMP JUMPDEST JUMPDEST PUSH1 0x0 PUSH2 0x3ECF DUP6 DUP3 DUP7 ADD PUSH2 0x3D8A JUMP JUMPDEST SWAP3 POP POP PUSH1 0x20 PUSH2 0x3EE0 DUP6 DUP3 DUP7 ADD PUSH2 0x3D8A JUMP JUMPDEST SWAP2 POP POP SWAP3 POP SWAP3 SWAP1 POP JUMP JUMPDEST PUSH1 0x0 DUP1 PUSH1 0x0 PUSH1 0x60 DUP5 DUP7 SUB SLT ISZERO PUSH2 0x3F03 JUMPI PUSH2 0x3F02 PUSH2 0x5150 JUMP JUMPDEST JUMPDEST PUSH1 0x0 PUSH2 0x3F11 DUP7 DUP3 DUP8 ADD PUSH2 0x3D8A JUMP JUMPDEST SWAP4 POP POP PUSH1 0x20 PUSH2 0x3F22 DUP7 DUP3 DUP8 ADD PUSH2 0x3D8A JUMP JUMPDEST SWAP3 POP POP PUSH1 0x40 PUSH2 0x3F33 DUP7 DUP3 DUP8 ADD PUSH2 0x3E68 JUMP JUMPDEST SWAP2 POP POP SWAP3 POP SWAP3 POP SWAP3 JUMP JUMPDEST PUSH1 0x0 DUP1 PUSH1 0x0 DUP1 PUSH1 0x80 DUP6 DUP8 SUB SLT ISZERO PUSH2 0x3F57 JUMPI PUSH2 0x3F56 PUSH2 0x5150 JUMP JUMPDEST JUMPDEST PUSH1 0x0 PUSH2 0x3F65 DUP8 DUP3 DUP9 ADD PUSH2 0x3D8A JUMP JUMPDEST SWAP5 POP POP PUSH1 0x20 PUSH2 0x3F76 DUP8 DUP3 DUP9 ADD PUSH2 0x3D8A JUMP JUMPDEST SWAP4 POP POP PUSH1 0x40 PUSH2 0x3F87 DUP8 DUP3 DUP9 ADD PUSH2 0x3E68 JUMP JUMPDEST SWAP3 POP POP PUSH1 0x60 DUP6 ADD CALLDATALOAD PUSH8 0xFFFFFFFFFFFFFFFF DUP2 GT ISZERO PUSH2 0x3FA8 JUMPI PUSH2 0x3FA7 PUSH2 0x514B JUMP JUMPDEST JUMPDEST PUSH2 0x3FB4 DUP8 DUP3 DUP9 ADD PUSH2 0x3E0C JUMP JUMPDEST SWAP2 POP POP SWAP3 SWAP6 SWAP2 SWAP5 POP SWAP3 POP JUMP JUMPDEST PUSH1 0x0 DUP1 PUSH1 0x40 DUP4 DUP6 SUB SLT ISZERO PUSH2 0x3FD7 JUMPI PUSH2 0x3FD6 PUSH2 0x5150 JUMP JUMPDEST JUMPDEST PUSH1 0x0 PUSH2 0x3FE5 DUP6 DUP3 DUP7 ADD PUSH2 0x3D8A JUMP JUMPDEST SWAP3 POP POP PUSH1 0x20 PUSH2 0x3FF6 DUP6 DUP3 DUP7 ADD PUSH2 0x3DCD JUMP JUMPDEST SWAP2 POP POP SWAP3 POP SWAP3 SWAP1 POP JUMP JUMPDEST PUSH1 0x0 DUP1 PUSH1 0x40 DUP4 DUP6 SUB SLT ISZERO PUSH2 0x4017 JUMPI PUSH2 0x4016 PUSH2 0x5150 JUMP JUMPDEST JUMPDEST PUSH1 0x0 PUSH2 0x4025 DUP6 DUP3 DUP7 ADD PUSH2 0x3D8A JUMP JUMPDEST SWAP3 POP POP PUSH1 0x20 PUSH2 0x4036 DUP6 DUP3 DUP7 ADD PUSH2 0x3E68 JUMP JUMPDEST SWAP2 POP POP SWAP3 POP SWAP3 SWAP1 POP JUMP JUMPDEST PUSH1 0x0 PUSH1 0x20 DUP3 DUP5 SUB SLT ISZERO PUSH2 0x4056 JUMPI PUSH2 0x4055 PUSH2 0x5150 JUMP JUMPDEST JUMPDEST PUSH1 0x0 PUSH2 0x4064 DUP5 DUP3 DUP6 ADD PUSH2 0x3DE2 JUMP JUMPDEST SWAP2 POP POP SWAP3 SWAP2 POP POP JUMP JUMPDEST PUSH1 0x0 PUSH1 0x20 DUP3 DUP5 SUB SLT ISZERO PUSH2 0x4083 JUMPI PUSH2 0x4082 PUSH2 0x5150 JUMP JUMPDEST JUMPDEST PUSH1 0x0 PUSH2 0x4091 DUP5 DUP3 DUP6 ADD PUSH2 0x3DF7 JUMP JUMPDEST SWAP2 POP POP SWAP3 SWAP2 POP POP JUMP JUMPDEST PUSH1 0x0 PUSH1 0x20 DUP3 DUP5 SUB SLT ISZERO PUSH2 0x40B0 JUMPI PUSH2 0x40AF PUSH2 0x5150 JUMP JUMPDEST JUMPDEST PUSH1 0x0 DUP3 ADD CALLDATALOAD PUSH8 0xFFFFFFFFFFFFFFFF DUP2 GT ISZERO PUSH2 0x40CE JUMPI PUSH2 0x40CD PUSH2 0x514B JUMP JUMPDEST JUMPDEST PUSH2 0x40DA DUP5 DUP3 DUP6 ADD PUSH2 0x3E3A JUMP JUMPDEST SWAP2 POP POP SWAP3 SWAP2 POP POP JUMP JUMPDEST PUSH1 0x0 DUP1 PUSH1 0x0 DUP1 PUSH1 0x0 PUSH1 0xA0 DUP7 DUP9 SUB SLT ISZERO PUSH2 0x40FF JUMPI PUSH2 0x40FE PUSH2 0x5150 JUMP JUMPDEST JUMPDEST PUSH1 0x0 DUP7 ADD CALLDATALOAD PUSH8 0xFFFFFFFFFFFFFFFF DUP2 GT ISZERO PUSH2 0x411D JUMPI PUSH2 0x411C PUSH2 0x514B JUMP JUMPDEST JUMPDEST PUSH2 0x4129 DUP9 DUP3 DUP10 ADD PUSH2 0x3E3A JUMP JUMPDEST SWAP6 POP POP PUSH1 0x20 DUP7 ADD CALLDATALOAD PUSH8 0xFFFFFFFFFFFFFFFF DUP2 GT ISZERO PUSH2 0x414A JUMPI PUSH2 0x4149 PUSH2 0x514B JUMP JUMPDEST JUMPDEST PUSH2 0x4156 DUP9 DUP3 DUP10 ADD PUSH2 0x3E3A JUMP JUMPDEST SWAP5 POP POP PUSH1 0x40 DUP7 ADD CALLDATALOAD PUSH8 0xFFFFFFFFFFFFFFFF DUP2 GT ISZERO PUSH2 0x4177 JUMPI PUSH2 0x4176 PUSH2 0x514B JUMP JUMPDEST JUMPDEST PUSH2 0x4183 DUP9 DUP3 DUP10 ADD PUSH2 0x3E3A JUMP JUMPDEST SWAP4 POP POP PUSH1 0x60 PUSH2 0x4194 DUP9 DUP3 DUP10 ADD PUSH2 0x3D8A JUMP JUMPDEST SWAP3 POP POP PUSH1 0x80 PUSH2 0x41A5 DUP9 DUP3 DUP10 ADD PUSH2 0x3E68 JUMP JUMPDEST SWAP2 POP POP SWAP3 SWAP6 POP SWAP3 SWAP6 SWAP1 SWAP4 POP JUMP JUMPDEST PUSH1 0x0 PUSH1 0x20 DUP3 DUP5 SUB SLT ISZERO PUSH2 0x41C8 JUMPI PUSH2 0x41C7 PUSH2 0x5150 JUMP JUMPDEST JUMPDEST PUSH1 0x0 PUSH2 0x41D6 DUP5 DUP3 DUP6 ADD PUSH2 0x3E68 JUMP JUMPDEST SWAP2 POP POP SWAP3 SWAP2 POP POP JUMP JUMPDEST PUSH1 0x0 DUP1 PUSH1 0x40 DUP4 DUP6 SUB SLT ISZERO PUSH2 0x41F6 JUMPI PUSH2 0x41F5 PUSH2 0x5150 JUMP JUMPDEST JUMPDEST PUSH1 0x0 PUSH2 0x4204 DUP6 DUP3 DUP7 ADD PUSH2 0x3E68 JUMP JUMPDEST SWAP3 POP POP PUSH1 0x20 DUP4 ADD CALLDATALOAD PUSH8 0xFFFFFFFFFFFFFFFF DUP2 GT ISZERO PUSH2 0x4225 JUMPI PUSH2 0x4224 PUSH2 0x514B JUMP JUMPDEST JUMPDEST PUSH2 0x4231 DUP6 DUP3 DUP7 ADD PUSH2 0x3D9F JUMP JUMPDEST SWAP2 POP POP SWAP3 POP SWAP3 SWAP1 POP JUMP JUMPDEST PUSH1 0x0 DUP1 PUSH1 0x0 PUSH1 0x60 DUP5 DUP7 SUB SLT ISZERO PUSH2 0x4254 JUMPI PUSH2 0x4253 PUSH2 0x5150 JUMP JUMPDEST JUMPDEST PUSH1 0x0 PUSH2 0x4262 DUP7 DUP3 DUP8 ADD PUSH2 0x3E68 JUMP JUMPDEST SWAP4 POP POP PUSH1 0x20 PUSH2 0x4273 DUP7 DUP3 DUP8 ADD PUSH2 0x3E68 JUMP JUMPDEST SWAP3 POP POP PUSH1 0x40 PUSH2 0x4284 DUP7 DUP3 DUP8 ADD PUSH2 0x3E68 JUMP JUMPDEST SWAP2 POP POP SWAP3 POP SWAP3 POP SWAP3 JUMP JUMPDEST PUSH1 0x0 PUSH2 0x429A DUP4 DUP4 PUSH2 0x42BA JUMP JUMPDEST PUSH1 0x20 DUP4 ADD SWAP1 POP SWAP3 SWAP2 POP POP JUMP JUMPDEST PUSH1 0x0 PUSH2 0x42B2 DUP4 DUP4 PUSH2 0x469E JUMP JUMPDEST SWAP1 POP SWAP3 SWAP2 POP POP JUMP JUMPDEST PUSH2 0x42C3 DUP2 PUSH2 0x4E5C JUMP JUMPDEST DUP3 MSTORE POP POP JUMP JUMPDEST PUSH2 0x42D2 DUP2 PUSH2 0x4E5C JUMP JUMPDEST DUP3 MSTORE POP POP JUMP JUMPDEST PUSH1 0x0 PUSH2 0x42E3 DUP3 PUSH2 0x4CD2 JUMP JUMPDEST PUSH2 0x42ED DUP2 DUP6 PUSH2 0x4D18 JUMP JUMPDEST SWAP4 POP PUSH2 0x42F8 DUP4 PUSH2 0x4CB2 JUMP JUMPDEST DUP1 PUSH1 0x0 JUMPDEST DUP4 DUP2 LT ISZERO PUSH2 0x4329 JUMPI DUP2 MLOAD PUSH2 0x4310 DUP9 DUP3 PUSH2 0x428E JUMP JUMPDEST SWAP8 POP PUSH2 0x431B DUP4 PUSH2 0x4CFE JUMP JUMPDEST SWAP3 POP POP PUSH1 0x1 DUP2 ADD SWAP1 POP PUSH2 0x42FC JUMP JUMPDEST POP DUP6 SWAP4 POP POP POP POP SWAP3 SWAP2 POP POP JUMP JUMPDEST PUSH1 0x0 PUSH2 0x4341 DUP3 PUSH2 0x4CDD JUMP JUMPDEST PUSH2 0x434B DUP2 DUP6 PUSH2 0x4D29 JUMP JUMPDEST SWAP4 POP DUP4 PUSH1 0x20 DUP3 MUL DUP6 ADD PUSH2 0x435D DUP6 PUSH2 0x4CC2 JUMP JUMPDEST DUP1 PUSH1 0x0 JUMPDEST DUP6 DUP2 LT ISZERO PUSH2 0x4399 JUMPI DUP5 DUP5 SUB DUP10 MSTORE DUP2 MLOAD PUSH2 0x437A DUP6 DUP3 PUSH2 0x42A6 JUMP JUMPDEST SWAP5 POP PUSH2 0x4385 DUP4 PUSH2 0x4D0B JUMP JUMPDEST SWAP3 POP PUSH1 0x20 DUP11 ADD SWAP10 POP POP PUSH1 0x1 DUP2 ADD SWAP1 POP PUSH2 0x4361 JUMP JUMPDEST POP DUP3 SWAP8 POP DUP8 SWAP6 POP POP POP POP POP POP SWAP3 SWAP2 POP POP JUMP JUMPDEST PUSH2 0x43B4 DUP2 PUSH2 0x4E6E JUMP JUMPDEST DUP3 MSTORE POP POP JUMP JUMPDEST PUSH1 0x0 PUSH2 0x43C5 DUP3 PUSH2 0x4CE8 JUMP JUMPDEST PUSH2 0x43CF DUP2 DUP6 PUSH2 0x4D3A JUMP JUMPDEST SWAP4 POP PUSH2 0x43DF DUP2 DUP6 PUSH1 0x20 DUP7 ADD PUSH2 0x4F14 JUMP JUMPDEST PUSH2 0x43E8 DUP2 PUSH2 0x5155 JUMP JUMPDEST DUP5 ADD SWAP2 POP POP SWAP3 SWAP2 POP POP JUMP JUMPDEST PUSH2 0x43FC DUP2 PUSH2 0x4EF3 JUMP JUMPDEST DUP3 MSTORE POP POP JUMP JUMPDEST PUSH2 0x440B DUP2 PUSH2 0x4EF3 JUMP JUMPDEST DUP3 MSTORE POP POP JUMP JUMPDEST PUSH1 0x0 PUSH2 0x441C DUP3 PUSH2 0x4CF3 JUMP JUMPDEST PUSH2 0x4426 DUP2 DUP6 PUSH2 0x4D4B JUMP JUMPDEST SWAP4 POP PUSH2 0x4436 DUP2 DUP6 PUSH1 0x20 DUP7 ADD PUSH2 0x4F14 JUMP JUMPDEST PUSH2 0x443F DUP2 PUSH2 0x5155 JUMP JUMPDEST DUP5 ADD SWAP2 POP POP SWAP3 SWAP2 POP POP JUMP JUMPDEST PUSH1 0x0 PUSH2 0x4455 DUP3 PUSH2 0x4CF3 JUMP JUMPDEST PUSH2 0x445F DUP2 DUP6 PUSH2 0x4D5C JUMP JUMPDEST SWAP4 POP PUSH2 0x446F DUP2 DUP6 PUSH1 0x20 DUP7 ADD PUSH2 0x4F14 JUMP JUMPDEST PUSH2 0x4478 DUP2 PUSH2 0x5155 JUMP JUMPDEST DUP5 ADD SWAP2 POP POP SWAP3 SWAP2 POP POP JUMP JUMPDEST PUSH1 0x0 PUSH2 0x448E DUP3 PUSH2 0x4CF3 JUMP JUMPDEST PUSH2 0x4498 DUP2 DUP6 PUSH2 0x4D6D JUMP JUMPDEST SWAP4 POP PUSH2 0x44A8 DUP2 DUP6 PUSH1 0x20 DUP7 ADD PUSH2 0x4F14 JUMP JUMPDEST DUP1 DUP5 ADD SWAP2 POP POP SWAP3 SWAP2 POP POP JUMP JUMPDEST PUSH1 0x0 PUSH2 0x44C1 PUSH1 0x2D DUP4 PUSH2 0x4D5C JUMP JUMPDEST SWAP2 POP PUSH2 0x44CC DUP3 PUSH2 0x5166 JUMP JUMPDEST PUSH1 0x40 DUP3 ADD SWAP1 POP SWAP2 SWAP1 POP JUMP JUMPDEST PUSH1 0x0 PUSH2 0x44E4 PUSH1 0x2B DUP4 PUSH2 0x4D5C JUMP JUMPDEST SWAP2 POP PUSH2 0x44EF DUP3 PUSH2 0x51B5 JUMP JUMPDEST PUSH1 0x40 DUP3 ADD SWAP1 POP SWAP2 SWAP1 POP JUMP JUMPDEST PUSH1 0x0 PUSH2 0x4507 PUSH1 0x32 DUP4 PUSH2 0x4D5C JUMP JUMPDEST SWAP2 POP PUSH2 0x4512 DUP3 PUSH2 0x5204 JUMP JUMPDEST PUSH1 0x40 DUP3 ADD SWAP1 POP SWAP2 SWAP1 POP JUMP JUMPDEST PUSH1 0x0 PUSH2 0x452A PUSH1 0x25 DUP4 PUSH2 0x4D5C JUMP JUMPDEST SWAP2 POP PUSH2 0x4535 DUP3 PUSH2 0x5253 JUMP JUMPDEST PUSH1 0x40 DUP3 ADD SWAP1 POP SWAP2 SWAP1 POP JUMP JUMPDEST PUSH1 0x0 PUSH2 0x454D PUSH1 0x1C DUP4 PUSH2 0x4D5C JUMP JUMPDEST SWAP2 POP PUSH2 0x4558 DUP3 PUSH2 0x52A2 JUMP JUMPDEST PUSH1 0x20 DUP3 ADD SWAP1 POP SWAP2 SWAP1 POP JUMP JUMPDEST PUSH1 0x0 PUSH2 0x4570 PUSH1 0x24 DUP4 PUSH2 0x4D5C JUMP JUMPDEST SWAP2 POP PUSH2 0x457B DUP3 PUSH2 0x52CB JUMP JUMPDEST PUSH1 0x40 DUP3 ADD SWAP1 POP SWAP2 SWAP1 POP JUMP JUMPDEST PUSH1 0x0 PUSH2 0x4593 PUSH1 0x19 DUP4 PUSH2 0x4D5C JUMP JUMPDEST SWAP2 POP PUSH2 0x459E DUP3 PUSH2 0x531A JUMP JUMPDEST PUSH1 0x20 DUP3 ADD SWAP1 POP SWAP2 SWAP1 POP JUMP JUMPDEST PUSH1 0x0 PUSH2 0x45B6 PUSH1 0x29 DUP4 PUSH2 0x4D5C JUMP JUMPDEST SWAP2 POP PUSH2 0x45C1 DUP3 PUSH2 0x5343 JUMP JUMPDEST PUSH1 0x40 DUP3 ADD SWAP1 POP SWAP2 SWAP1 POP JUMP JUMPDEST PUSH1 0x0 PUSH2 0x45D9 PUSH1 0x20 DUP4 PUSH2 0x4D5C JUMP JUMPDEST SWAP2 POP PUSH2 0x45E4 DUP3 PUSH2 0x5392 JUMP JUMPDEST PUSH1 0x20 DUP3 ADD SWAP1 POP SWAP2 SWAP1 POP JUMP JUMPDEST PUSH1 0x0 PUSH2 0x45FC PUSH1 0x18 DUP4 PUSH2 0x4D5C JUMP JUMPDEST SWAP2 POP PUSH2 0x4607 DUP3 PUSH2 0x53BB JUMP JUMPDEST PUSH1 0x20 DUP3 ADD SWAP1 POP SWAP2 SWAP1 POP JUMP JUMPDEST PUSH1 0x0 PUSH2 0x461F PUSH1 0x21 DUP4 PUSH2 0x4D5C JUMP JUMPDEST SWAP2 POP PUSH2 0x462A DUP3 PUSH2 0x53E4 JUMP JUMPDEST PUSH1 0x40 DUP3 ADD SWAP1 POP SWAP2 SWAP1 POP JUMP JUMPDEST PUSH1 0x0 PUSH2 0x4642 PUSH1 0x3D DUP4 PUSH2 0x4D5C JUMP JUMPDEST SWAP2 POP PUSH2 0x464D DUP3 PUSH2 0x5433 JUMP JUMPDEST PUSH1 0x40 DUP3 ADD SWAP1 POP SWAP2 SWAP1 POP JUMP JUMPDEST PUSH1 0x0 PUSH2 0x4665 PUSH1 0x2C DUP4 PUSH2 0x4D5C JUMP JUMPDEST SWAP2 POP PUSH2 0x4670 DUP3 PUSH2 0x5482 JUMP JUMPDEST PUSH1 0x40 DUP3 ADD SWAP1 POP SWAP2 SWAP1 POP JUMP JUMPDEST PUSH1 0x0 PUSH2 0x4688 PUSH1 0x35 DUP4 PUSH2 0x4D5C JUMP JUMPDEST SWAP2 POP PUSH2 0x4693 DUP3 PUSH2 0x54D1 JUMP JUMPDEST PUSH1 0x40 DUP3 ADD SWAP1 POP SWAP2 SWAP1 POP JUMP JUMPDEST PUSH1 0x0 PUSH1 0xE0 DUP4 ADD PUSH1 0x0 DUP4 ADD MLOAD DUP5 DUP3 SUB PUSH1 0x0 DUP7 ADD MSTORE PUSH2 0x46BB DUP3 DUP3 PUSH2 0x4411 JUMP JUMPDEST SWAP2 POP POP PUSH1 0x20 DUP4 ADD MLOAD DUP5 DUP3 SUB PUSH1 0x20 DUP7 ADD MSTORE PUSH2 0x46D5 DUP3 DUP3 PUSH2 0x4411 JUMP JUMPDEST SWAP2 POP POP PUSH1 0x40 DUP4 ADD MLOAD DUP5 DUP3 SUB PUSH1 0x40 DUP7 ADD MSTORE PUSH2 0x46EF DUP3 DUP3 PUSH2 0x4411 JUMP JUMPDEST SWAP2 POP POP PUSH1 0x60 DUP4 ADD MLOAD DUP5 DUP3 SUB PUSH1 0x60 DUP7 ADD MSTORE PUSH2 0x4709 DUP3 DUP3 PUSH2 0x4411 JUMP JUMPDEST SWAP2 POP POP PUSH1 0x80 DUP4 ADD MLOAD PUSH2 0x471E PUSH1 0x80 DUP7 ADD DUP3 PUSH2 0x43F3 JUMP JUMPDEST POP PUSH1 0xA0 DUP4 ADD MLOAD PUSH2 0x4731 PUSH1 0xA0 DUP7 ADD DUP3 PUSH2 0x4800 JUMP JUMPDEST POP PUSH1 0xC0 DUP4 ADD MLOAD PUSH2 0x4744 PUSH1 0xC0 DUP7 ADD DUP3 PUSH2 0x42BA JUMP JUMPDEST POP DUP1 SWAP2 POP POP SWAP3 SWAP2 POP POP JUMP JUMPDEST PUSH1 0x0 PUSH1 0xE0 DUP4 ADD PUSH1 0x0 DUP4 ADD MLOAD DUP5 DUP3 SUB PUSH1 0x0 DUP7 ADD MSTORE PUSH2 0x476C DUP3 DUP3 PUSH2 0x4411 JUMP JUMPDEST SWAP2 POP POP PUSH1 0x20 DUP4 ADD MLOAD DUP5 DUP3 SUB PUSH1 0x20 DUP7 ADD MSTORE PUSH2 0x4786 DUP3 DUP3 PUSH2 0x4411 JUMP JUMPDEST SWAP2 POP POP PUSH1 0x40 DUP4 ADD MLOAD DUP5 DUP3 SUB PUSH1 0x40 DUP7 ADD MSTORE PUSH2 0x47A0 DUP3 DUP3 PUSH2 0x4411 JUMP JUMPDEST SWAP2 POP POP PUSH1 0x60 DUP4 ADD MLOAD DUP5 DUP3 SUB PUSH1 0x60 DUP7 ADD MSTORE PUSH2 0x47BA DUP3 DUP3 PUSH2 0x4411 JUMP JUMPDEST SWAP2 POP POP PUSH1 0x80 DUP4 ADD MLOAD PUSH2 0x47CF PUSH1 0x80 DUP7 ADD DUP3 PUSH2 0x43F3 JUMP JUMPDEST POP PUSH1 0xA0 DUP4 ADD MLOAD PUSH2 0x47E2 PUSH1 0xA0 DUP7 ADD DUP3 PUSH2 0x4800 JUMP JUMPDEST POP PUSH1 0xC0 DUP4 ADD MLOAD PUSH2 0x47F5 PUSH1 0xC0 DUP7 ADD DUP3 PUSH2 0x42BA JUMP JUMPDEST POP DUP1 SWAP2 POP POP SWAP3 SWAP2 POP POP JUMP JUMPDEST PUSH2 0x4809 DUP2 PUSH2 0x4ED9 JUMP JUMPDEST DUP3 MSTORE POP POP JUMP JUMPDEST PUSH2 0x4818 DUP2 PUSH2 0x4ED9 JUMP JUMPDEST DUP3 MSTORE POP POP JUMP JUMPDEST PUSH2 0x4827 DUP2 PUSH2 0x4EE3 JUMP JUMPDEST DUP3 MSTORE POP POP JUMP JUMPDEST PUSH1 0x0 PUSH2 0x4839 DUP3 DUP6 PUSH2 0x4483 JUMP JUMPDEST SWAP2 POP PUSH2 0x4845 DUP3 DUP5 PUSH2 0x4483 JUMP JUMPDEST SWAP2 POP DUP2 SWAP1 POP SWAP4 SWAP3 POP POP POP JUMP JUMPDEST PUSH1 0x0 PUSH1 0x20 DUP3 ADD SWAP1 POP PUSH2 0x4866 PUSH1 0x0 DUP4 ADD DUP5 PUSH2 0x42C9 JUMP JUMPDEST SWAP3 SWAP2 POP POP JUMP JUMPDEST PUSH1 0x0 PUSH1 0x80 DUP3 ADD SWAP1 POP PUSH2 0x4881 PUSH1 0x0 DUP4 ADD DUP8 PUSH2 0x42C9 JUMP JUMPDEST PUSH2 0x488E PUSH1 0x20 DUP4 ADD DUP7 PUSH2 0x42C9 JUMP JUMPDEST PUSH2 0x489B PUSH1 0x40 DUP4 ADD DUP6 PUSH2 0x480F JUMP JUMPDEST DUP2 DUP2 SUB PUSH1 0x60 DUP4 ADD MSTORE PUSH2 0x48AD DUP2 DUP5 PUSH2 0x43BA JUMP JUMPDEST SWAP1 POP SWAP6 SWAP5 POP POP POP POP POP JUMP JUMPDEST PUSH1 0x0 PUSH1 0x40 DUP3 ADD SWAP1 POP DUP2 DUP2 SUB PUSH1 0x0 DUP4 ADD MSTORE PUSH2 0x48D2 DUP2 DUP6 PUSH2 0x42D8 JUMP JUMPDEST SWAP1 POP PUSH2 0x48E1 PUSH1 0x20 DUP4 ADD DUP5 PUSH2 0x481E JUMP JUMPDEST SWAP4 SWAP3 POP POP POP JUMP JUMPDEST PUSH1 0x0 PUSH1 0x20 DUP3 ADD SWAP1 POP DUP2 DUP2 SUB PUSH1 0x0 DUP4 ADD MSTORE PUSH2 0x4902 DUP2 DUP5 PUSH2 0x4336 JUMP JUMPDEST SWAP1 POP SWAP3 SWAP2 POP POP JUMP JUMPDEST PUSH1 0x0 PUSH1 0x20 DUP3 ADD SWAP1 POP PUSH2 0x491F PUSH1 0x0 DUP4 ADD DUP5 PUSH2 0x43AB JUMP JUMPDEST SWAP3 SWAP2 POP POP JUMP JUMPDEST PUSH1 0x0 PUSH1 0x20 DUP3 ADD SWAP1 POP DUP2 DUP2 SUB PUSH1 0x0 DUP4 ADD MSTORE PUSH2 0x493F DUP2 DUP5 PUSH2 0x444A JUMP JUMPDEST SWAP1 POP SWAP3 SWAP2 POP POP JUMP JUMPDEST PUSH1 0x0 PUSH1 0xE0 DUP3 ADD SWAP1 POP DUP2 DUP2 SUB PUSH1 0x0 DUP4 ADD MSTORE PUSH2 0x4961 DUP2 DUP11 PUSH2 0x444A JUMP JUMPDEST SWAP1 POP DUP2 DUP2 SUB PUSH1 0x20 DUP4 ADD MSTORE PUSH2 0x4975 DUP2 DUP10 PUSH2 0x444A JUMP JUMPDEST SWAP1 POP DUP2 DUP2 SUB PUSH1 0x40 DUP4 ADD MSTORE PUSH2 0x4989 DUP2 DUP9 PUSH2 0x444A JUMP JUMPDEST SWAP1 POP DUP2 DUP2 SUB PUSH1 0x60 DUP4 ADD MSTORE PUSH2 0x499D DUP2 DUP8 PUSH2 0x444A JUMP JUMPDEST SWAP1 POP PUSH2 0x49AC PUSH1 0x80 DUP4 ADD DUP7 PUSH2 0x4402 JUMP JUMPDEST PUSH2 0x49B9 PUSH1 0xA0 DUP4 ADD DUP6 PUSH2 0x480F JUMP JUMPDEST PUSH2 0x49C6 PUSH1 0xC0 DUP4 ADD DUP5 PUSH2 0x42C9 JUMP JUMPDEST SWAP9 SWAP8 POP POP POP POP POP POP POP POP JUMP JUMPDEST PUSH1 0x0 PUSH1 0x20 DUP3 ADD SWAP1 POP DUP2 DUP2 SUB PUSH1 0x0 DUP4 ADD MSTORE PUSH2 0x49EB DUP2 PUSH2 0x44B4 JUMP JUMPDEST SWAP1 POP SWAP2 SWAP1 POP JUMP JUMPDEST PUSH1 0x0 PUSH1 0x20 DUP3 ADD SWAP1 POP DUP2 DUP2 SUB PUSH1 0x0 DUP4 ADD MSTORE PUSH2 0x4A0B DUP2 PUSH2 0x44D7 JUMP JUMPDEST SWAP1 POP SWAP2 SWAP1 POP JUMP JUMPDEST PUSH1 0x0 PUSH1 0x20 DUP3 ADD SWAP1 POP DUP2 DUP2 SUB PUSH1 0x0 DUP4 ADD MSTORE PUSH2 0x4A2B DUP2 PUSH2 0x44FA JUMP JUMPDEST SWAP1 POP SWAP2 SWAP1 POP JUMP JUMPDEST PUSH1 0x0 PUSH1 0x20 DUP3 ADD SWAP1 POP DUP2 DUP2 SUB PUSH1 0x0 DUP4 ADD MSTORE PUSH2 0x4A4B DUP2 PUSH2 0x451D JUMP JUMPDEST SWAP1 POP SWAP2 SWAP1 POP JUMP JUMPDEST PUSH1 0x0 PUSH1 0x20 DUP3 ADD SWAP1 POP DUP2 DUP2 SUB PUSH1 0x0 DUP4 ADD MSTORE PUSH2 0x4A6B DUP2 PUSH2 0x4540 JUMP JUMPDEST SWAP1 POP SWAP2 SWAP1 POP JUMP JUMPDEST PUSH1 0x0 PUSH1 0x20 DUP3 ADD SWAP1 POP DUP2 DUP2 SUB PUSH1 0x0 DUP4 ADD MSTORE PUSH2 0x4A8B DUP2 PUSH2 0x4563 JUMP JUMPDEST SWAP1 POP SWAP2 SWAP1 POP JUMP JUMPDEST PUSH1 0x0 PUSH1 0x20 DUP3 ADD SWAP1 POP DUP2 DUP2 SUB PUSH1 0x0 DUP4 ADD MSTORE PUSH2 0x4AAB DUP2 PUSH2 0x4586 JUMP JUMPDEST SWAP1 POP SWAP2 SWAP1 POP JUMP JUMPDEST PUSH1 0x0 PUSH1 0x20 DUP3 ADD SWAP1 POP DUP2 DUP2 SUB PUSH1 0x0 DUP4 ADD MSTORE PUSH2 0x4ACB DUP2 PUSH2 0x45A9 JUMP JUMPDEST SWAP1 POP SWAP2 SWAP1 POP JUMP JUMPDEST PUSH1 0x0 PUSH1 0x20 DUP3 ADD SWAP1 POP DUP2 DUP2 SUB PUSH1 0x0 DUP4 ADD MSTORE PUSH2 0x4AEB DUP2 PUSH2 0x45CC JUMP JUMPDEST SWAP1 POP SWAP2 SWAP1 POP JUMP JUMPDEST PUSH1 0x0 PUSH1 0x20 DUP3 ADD SWAP1 POP DUP2 DUP2 SUB PUSH1 0x0 DUP4 ADD MSTORE PUSH2 0x4B0B DUP2 PUSH2 0x45EF JUMP JUMPDEST SWAP1 POP SWAP2 SWAP1 POP JUMP JUMPDEST PUSH1 0x0 PUSH1 0x20 DUP3 ADD SWAP1 POP DUP2 DUP2 SUB PUSH1 0x0 DUP4 ADD MSTORE PUSH2 0x4B2B DUP2 PUSH2 0x4612 JUMP JUMPDEST SWAP1 POP SWAP2 SWAP1 POP JUMP JUMPDEST PUSH1 0x0 PUSH1 0x20 DUP3 ADD SWAP1 POP DUP2 DUP2 SUB PUSH1 0x0 DUP4 ADD MSTORE PUSH2 0x4B4B DUP2 PUSH2 0x4635 JUMP JUMPDEST SWAP1 POP SWAP2 SWAP1 POP JUMP JUMPDEST PUSH1 0x0 PUSH1 0x20 DUP3 ADD SWAP1 POP DUP2 DUP2 SUB PUSH1 0x0 DUP4 ADD MSTORE PUSH2 0x4B6B DUP2 PUSH2 0x4658 JUMP JUMPDEST SWAP1 POP SWAP2 SWAP1 POP JUMP JUMPDEST PUSH1 0x0 PUSH1 0x20 DUP3 ADD SWAP1 POP DUP2 DUP2 SUB PUSH1 0x0 DUP4 ADD MSTORE PUSH2 0x4B8B DUP2 PUSH2 0x467B JUMP JUMPDEST SWAP1 POP SWAP2 SWAP1 POP JUMP JUMPDEST PUSH1 0x0 PUSH1 0x20 DUP3 ADD SWAP1 POP DUP2 DUP2 SUB PUSH1 0x0 DUP4 ADD MSTORE PUSH2 0x4BAC DUP2 DUP5 PUSH2 0x474F JUMP JUMPDEST SWAP1 POP SWAP3 SWAP2 POP POP JUMP JUMPDEST PUSH1 0x0 PUSH1 0x20 DUP3 ADD SWAP1 POP PUSH2 0x4BC9 PUSH1 0x0 DUP4 ADD DUP5 PUSH2 0x480F JUMP JUMPDEST SWAP3 SWAP2 POP POP JUMP JUMPDEST PUSH1 0x0 PUSH1 0x40 DUP3 ADD SWAP1 POP PUSH2 0x4BE4 PUSH1 0x0 DUP4 ADD DUP6 PUSH2 0x480F JUMP JUMPDEST DUP2 DUP2 SUB PUSH1 0x20 DUP4 ADD MSTORE PUSH2 0x4BF6 DUP2 DUP5 PUSH2 0x444A JUMP JUMPDEST SWAP1 POP SWAP4 SWAP3 POP POP POP JUMP JUMPDEST PUSH1 0x0 PUSH2 0x4C09 PUSH2 0x4C1A JUMP JUMPDEST SWAP1 POP PUSH2 0x4C15 DUP3 DUP3 PUSH2 0x4F79 JUMP JUMPDEST SWAP2 SWAP1 POP JUMP JUMPDEST PUSH1 0x0 PUSH1 0x40 MLOAD SWAP1 POP SWAP1 JUMP JUMPDEST PUSH1 0x0 PUSH8 0xFFFFFFFFFFFFFFFF DUP3 GT ISZERO PUSH2 0x4C3F JUMPI PUSH2 0x4C3E PUSH2 0x510D JUMP JUMPDEST JUMPDEST PUSH1 0x20 DUP3 MUL SWAP1 POP PUSH1 0x20 DUP2 ADD SWAP1 POP SWAP2 SWAP1 POP JUMP JUMPDEST PUSH1 0x0 PUSH8 0xFFFFFFFFFFFFFFFF DUP3 GT ISZERO PUSH2 0x4C6B JUMPI PUSH2 0x4C6A PUSH2 0x510D JUMP JUMPDEST JUMPDEST PUSH2 0x4C74 DUP3 PUSH2 0x5155 JUMP JUMPDEST SWAP1 POP PUSH1 0x20 DUP2 ADD SWAP1 POP SWAP2 SWAP1 POP JUMP JUMPDEST PUSH1 0x0 PUSH8 0xFFFFFFFFFFFFFFFF DUP3 GT ISZERO PUSH2 0x4C9C JUMPI PUSH2 0x4C9B PUSH2 0x510D JUMP JUMPDEST JUMPDEST PUSH2 0x4CA5 DUP3 PUSH2 0x5155 JUMP JUMPDEST SWAP1 POP PUSH1 0x20 DUP2 ADD SWAP1 POP SWAP2 SWAP1 POP JUMP JUMPDEST PUSH1 0x0 DUP2 SWAP1 POP PUSH1 0x20 DUP3 ADD SWAP1 POP SWAP2 SWAP1 POP JUMP JUMPDEST PUSH1 0x0 DUP2 SWAP1 POP PUSH1 0x20 DUP3 ADD SWAP1 POP SWAP2 SWAP1 POP JUMP JUMPDEST PUSH1 0x0 DUP2 MLOAD SWAP1 POP SWAP2 SWAP1 POP JUMP JUMPDEST PUSH1 0x0 DUP2 MLOAD SWAP1 POP SWAP2 SWAP1 POP JUMP JUMPDEST PUSH1 0x0 DUP2 MLOAD SWAP1 POP SWAP2 SWAP1 POP JUMP JUMPDEST PUSH1 0x0 DUP2 MLOAD SWAP1 POP SWAP2 SWAP1 POP JUMP JUMPDEST PUSH1 0x0 PUSH1 0x20 DUP3 ADD SWAP1 POP SWAP2 SWAP1 POP JUMP JUMPDEST PUSH1 0x0 PUSH1 0x20 DUP3 ADD SWAP1 POP SWAP2 SWAP1 POP JUMP JUMPDEST PUSH1 0x0 DUP3 DUP3 MSTORE PUSH1 0x20 DUP3 ADD SWAP1 POP SWAP3 SWAP2 POP POP JUMP JUMPDEST PUSH1 0x0 DUP3 DUP3 MSTORE PUSH1 0x20 DUP3 ADD SWAP1 POP SWAP3 SWAP2 POP POP JUMP JUMPDEST PUSH1 0x0 DUP3 DUP3 MSTORE PUSH1 0x20 DUP3 ADD SWAP1 POP SWAP3 SWAP2 POP POP JUMP JUMPDEST PUSH1 0x0 DUP3 DUP3 MSTORE PUSH1 0x20 DUP3 ADD SWAP1 POP SWAP3 SWAP2 POP POP JUMP JUMPDEST PUSH1 0x0 DUP3 DUP3 MSTORE PUSH1 0x20 DUP3 ADD SWAP1 POP SWAP3 SWAP2 POP POP JUMP JUMPDEST PUSH1 0x0 DUP2 SWAP1 POP SWAP3 SWAP2 POP POP JUMP JUMPDEST PUSH1 0x0 PUSH2 0x4D83 DUP3 PUSH2 0x4ED9 JUMP JUMPDEST SWAP2 POP PUSH2 0x4D8E DUP4 PUSH2 0x4ED9 JUMP JUMPDEST SWAP3 POP DUP3 PUSH32 0xFFFFFFFFFFFFFFFFFFFFFFFFFFFFFFFFFFFFFFFFFFFFFFFFFFFFFFFFFFFFFFFF SUB DUP3 GT ISZERO PUSH2 0x4DC3 JUMPI PUSH2 0x4DC2 PUSH2 0x4FF3 JUMP JUMPDEST JUMPDEST DUP3 DUP3 ADD SWAP1 POP SWAP3 SWAP2 POP POP JUMP JUMPDEST PUSH1 0x0 PUSH2 0x4DD9 DUP3 PUSH2 0x4ED9 JUMP JUMPDEST SWAP2 POP PUSH2 0x4DE4 DUP4 PUSH2 0x4ED9 JUMP JUMPDEST SWAP3 POP DUP2 PUSH32 0xFFFFFFFFFFFFFFFFFFFFFFFFFFFFFFFFFFFFFFFFFFFFFFFFFFFFFFFFFFFFFFFF DIV DUP4 GT DUP3 ISZERO ISZERO AND ISZERO PUSH2 0x4E1D JUMPI PUSH2 0x4E1C PUSH2 0x4FF3 JUMP JUMPDEST JUMPDEST DUP3 DUP3 MUL SWAP1 POP SWAP3 SWAP2 POP POP JUMP JUMPDEST PUSH1 0x0 PUSH2 0x4E33 DUP3 PUSH2 0x4ED9 JUMP JUMPDEST SWAP2 POP PUSH2 0x4E3E DUP4 PUSH2 0x4ED9 JUMP JUMPDEST SWAP3 POP DUP3 DUP3 LT ISZERO PUSH2 0x4E51 JUMPI PUSH2 0x4E50 PUSH2 0x4FF3 JUMP JUMPDEST JUMPDEST DUP3 DUP3 SUB SWAP1 POP SWAP3 SWAP2 POP POP JUMP JUMPDEST PUSH1 0x0 PUSH2 0x4E67 DUP3 PUSH2 0x4EB9 JUMP JUMPDEST SWAP1 POP SWAP2 SWAP1 POP JUMP JUMPDEST PUSH1 0x0 DUP2 ISZERO ISZERO SWAP1 POP SWAP2 SWAP1 POP JUMP JUMPDEST PUSH1 0x0 PUSH32 0xFFFFFFFF00000000000000000000000000000000000000000000000000000000 DUP3 AND SWAP1 POP SWAP2 SWAP1 POP JUMP JUMPDEST PUSH1 0x0 DUP2 SWAP1 POP PUSH2 0x4EB4 DUP3 PUSH2 0x5520 JUMP JUMPDEST SWAP2 SWAP1 POP JUMP JUMPDEST PUSH1 0x0 PUSH20 0xFFFFFFFFFFFFFFFFFFFFFFFFFFFFFFFFFFFFFFFF DUP3 AND SWAP1 POP SWAP2 SWAP1 POP JUMP JUMPDEST PUSH1 0x0 DUP2 SWAP1 POP SWAP2 SWAP1 POP JUMP JUMPDEST PUSH1 0x0 PUSH4 0xFFFFFFFF DUP3 AND SWAP1 POP SWAP2 SWAP1 POP JUMP JUMPDEST PUSH1 0x0 PUSH2 0x4EFE DUP3 PUSH2 0x4EA6 JUMP JUMPDEST SWAP1 POP SWAP2 SWAP1 POP JUMP JUMPDEST DUP3 DUP2 DUP4 CALLDATACOPY PUSH1 0x0 DUP4 DUP4 ADD MSTORE POP POP POP JUMP JUMPDEST PUSH1 0x0 JUMPDEST DUP4 DUP2 LT ISZERO PUSH2 0x4F32 JUMPI DUP1 DUP3 ADD MLOAD DUP2 DUP5 ADD MSTORE PUSH1 0x20 DUP2 ADD SWAP1 POP PUSH2 0x4F17 JUMP JUMPDEST DUP4 DUP2 GT ISZERO PUSH2 0x4F41 JUMPI PUSH1 0x0 DUP5 DUP5 ADD MSTORE JUMPDEST POP POP POP POP JUMP JUMPDEST PUSH1 0x0 PUSH1 0x2 DUP3 DIV SWAP1 POP PUSH1 0x1 DUP3 AND DUP1 PUSH2 0x4F5F JUMPI PUSH1 0x7F DUP3 AND SWAP2 POP JUMPDEST PUSH1 0x20 DUP3 LT DUP2 EQ ISZERO PUSH2 0x4F73 JUMPI PUSH2 0x4F72 PUSH2 0x5080 JUMP JUMPDEST JUMPDEST POP SWAP2 SWAP1 POP JUMP JUMPDEST PUSH2 0x4F82 DUP3 PUSH2 0x5155 JUMP JUMPDEST DUP2 ADD DUP2 DUP2 LT PUSH8 0xFFFFFFFFFFFFFFFF DUP3 GT OR ISZERO PUSH2 0x4FA1 JUMPI PUSH2 0x4FA0 PUSH2 0x510D JUMP JUMPDEST JUMPDEST DUP1 PUSH1 0x40 MSTORE POP POP POP JUMP JUMPDEST PUSH1 0x0 PUSH2 0x4FB5 DUP3 PUSH2 0x4ED9 JUMP JUMPDEST SWAP2 POP PUSH32 0xFFFFFFFFFFFFFFFFFFFFFFFFFFFFFFFFFFFFFFFFFFFFFFFFFFFFFFFFFFFFFFFF DUP3 EQ ISZERO PUSH2 0x4FE8 JUMPI PUSH2 0x4FE7 PUSH2 0x4FF3 JUMP JUMPDEST JUMPDEST PUSH1 0x1 DUP3 ADD SWAP1 POP SWAP2 SWAP1 POP JUMP JUMPDEST PUSH32 0x4E487B7100000000000000000000000000000000000000000000000000000000 PUSH1 0x0 MSTORE PUSH1 0x11 PUSH1 0x4 MSTORE PUSH1 0x24 PUSH1 0x0 REVERT JUMPDEST PUSH32 0x4E487B7100000000000000000000000000000000000000000000000000000000 PUSH1 0x0 MSTORE PUSH1 0x12 PUSH1 0x4 MSTORE PUSH1 0x24 PUSH1 0x0 REVERT JUMPDEST PUSH32 0x4E487B7100000000000000000000000000000000000000000000000000000000 PUSH1 0x0 MSTORE PUSH1 0x21 PUSH1 0x4 MSTORE PUSH1 0x24 PUSH1 0x0 REVERT JUMPDEST PUSH32 0x4E487B7100000000000000000000000000000000000000000000000000000000 PUSH1 0x0 MSTORE PUSH1 0x22 PUSH1 0x4 MSTORE PUSH1 0x24 PUSH1 0x0 REVERT JUMPDEST PUSH32 0x4E487B7100000000000000000000000000000000000000000000000000000000 PUSH1 0x0 MSTORE PUSH1 0x31 PUSH1 0x4 MSTORE PUSH1 0x24 PUSH1 0x0 REVERT JUMPDEST PUSH32 0x4E487B7100000000000000000000000000000000000000000000000000000000 PUSH1 0x0 MSTORE PUSH1 0x32 PUSH1 0x4 MSTORE PUSH1 0x24 PUSH1 0x0 REVERT JUMPDEST PUSH32 0x4E487B7100000000000000000000000000000000000000000000000000000000 PUSH1 0x0 MSTORE PUSH1 0x41 PUSH1 0x4 MSTORE PUSH1 0x24 PUSH1 0x0 REVERT JUMPDEST PUSH1 0x0 DUP1 REVERT JUMPDEST PUSH1 0x0 DUP1 REVERT JUMPDEST PUSH1 0x0 DUP1 REVERT JUMPDEST PUSH1 0x0 DUP1 REVERT JUMPDEST PUSH1 0x0 DUP1 REVERT JUMPDEST PUSH1 0x0 PUSH1 0x1F NOT PUSH1 0x1F DUP4 ADD AND SWAP1 POP SWAP2 SWAP1 POP JUMP JUMPDEST PUSH32 0x4552433732313A2063616C6C6572206973206E6F7420746F6B656E206F776E65 PUSH1 0x0 DUP3 ADD MSTORE PUSH32 0x72206F7220617070726F76656400000000000000000000000000000000000000 PUSH1 0x20 DUP3 ADD MSTORE POP JUMP JUMPDEST PUSH32 0x455243373231456E756D657261626C653A206F776E657220696E646578206F75 PUSH1 0x0 DUP3 ADD MSTORE PUSH32 0x74206F6620626F756E6473000000000000000000000000000000000000000000 PUSH1 0x20 DUP3 ADD MSTORE POP JUMP JUMPDEST PUSH32 0x4552433732313A207472616E7366657220746F206E6F6E204552433732315265 PUSH1 0x0 DUP3 ADD MSTORE PUSH32 0x63656976657220696D706C656D656E7465720000000000000000000000000000 PUSH1 0x20 DUP3 ADD MSTORE POP JUMP JUMPDEST PUSH32 0x4552433732313A207472616E736665722066726F6D20696E636F727265637420 PUSH1 0x0 DUP3 ADD MSTORE PUSH32 0x6F776E6572000000000000000000000000000000000000000000000000000000 PUSH1 0x20 DUP3 ADD MSTORE POP JUMP JUMPDEST PUSH32 0x4552433732313A20746F6B656E20616C7265616479206D696E74656400000000 PUSH1 0x0 DUP3 ADD MSTORE POP JUMP JUMPDEST PUSH32 0x4552433732313A207472616E7366657220746F20746865207A65726F20616464 PUSH1 0x0 DUP3 ADD MSTORE PUSH32 0x7265737300000000000000000000000000000000000000000000000000000000 PUSH1 0x20 DUP3 ADD MSTORE POP JUMP JUMPDEST PUSH32 0x4552433732313A20617070726F766520746F2063616C6C657200000000000000 PUSH1 0x0 DUP3 ADD MSTORE POP JUMP JUMPDEST PUSH32 0x4552433732313A2061646472657373207A65726F206973206E6F742061207661 PUSH1 0x0 DUP3 ADD MSTORE PUSH32 0x6C6964206F776E65720000000000000000000000000000000000000000000000 PUSH1 0x20 DUP3 ADD MSTORE POP JUMP JUMPDEST PUSH32 0x4552433732313A206D696E7420746F20746865207A65726F2061646472657373 PUSH1 0x0 DUP3 ADD MSTORE POP JUMP JUMPDEST PUSH32 0x4552433732313A20696E76616C696420746F6B656E2049440000000000000000 PUSH1 0x0 DUP3 ADD MSTORE POP JUMP JUMPDEST PUSH32 0x4552433732313A20617070726F76616C20746F2063757272656E74206F776E65 PUSH1 0x0 DUP3 ADD MSTORE PUSH32 0x7200000000000000000000000000000000000000000000000000000000000000 PUSH1 0x20 DUP3 ADD MSTORE POP JUMP JUMPDEST PUSH32 0x4552433732313A20617070726F76652063616C6C6572206973206E6F7420746F PUSH1 0x0 DUP3 ADD MSTORE PUSH32 0x6B656E206F776E6572206F7220617070726F76656420666F7220616C6C000000 PUSH1 0x20 DUP3 ADD MSTORE POP JUMP JUMPDEST PUSH32 0x455243373231456E756D657261626C653A20676C6F62616C20696E646578206F PUSH1 0x0 DUP3 ADD MSTORE PUSH32 0x7574206F6620626F756E64730000000000000000000000000000000000000000 PUSH1 0x20 DUP3 ADD MSTORE POP JUMP JUMPDEST PUSH32 0x455243373231456E756D657261626C653A20636F6E7365637574697665207472 PUSH1 0x0 DUP3 ADD MSTORE PUSH32 0x616E7366657273206E6F7420737570706F727465640000000000000000000000 PUSH1 0x20 DUP3 ADD MSTORE POP JUMP JUMPDEST PUSH1 0x2 DUP2 LT PUSH2 0x5531 JUMPI PUSH2 0x5530 PUSH2 0x5051 JUMP JUMPDEST JUMPDEST POP JUMP JUMPDEST PUSH2 0x553D DUP2 PUSH2 0x4E5C JUMP JUMPDEST DUP2 EQ PUSH2 0x5548 JUMPI PUSH1 0x0 DUP1 REVERT JUMPDEST POP JUMP JUMPDEST PUSH2 0x5554 DUP2 PUSH2 0x4E6E JUMP JUMPDEST DUP2 EQ PUSH2 0x555F JUMPI PUSH1 0x0 DUP1 REVERT JUMPDEST POP JUMP JUMPDEST PUSH2 0x556B DUP2 PUSH2 0x4E7A JUMP JUMPDEST DUP2 EQ PUSH2 0x5576 JUMPI PUSH1 0x0 DUP1 REVERT JUMPDEST POP JUMP JUMPDEST PUSH2 0x5582 DUP2 PUSH2 0x4ED9 JUMP JUMPDEST DUP2 EQ PUSH2 0x558D JUMPI PUSH1 0x0 DUP1 REVERT JUMPDEST POP JUMP INVALID LOG2 PUSH5 0x6970667358 0x22 SLT KECCAK256 0xB7 SWAP14 0xB5 0xEF PUSH17 0x95A330689945FA69D36574851C1F496A37 BALANCE CODESIZE 0x2F PUSH12 0xA75DDD8340FD64736F6C6343 STOP ADDMOD SMOD STOP CALLER "},"gasEstimates":{"creation":{"codeDepositCost":"4391600","executionCost":"5094","totalCost":"4396694"},"external":{"__BusinessCardBase__init(uint256,uint256,uint256)":"infinite","_mint(string,string,string,address,uint256)":"infinite","approve(address,uint256)":"infinite","balanceOf(address)":"2991","getApproved(uint256)":"5323","getCard(uint256)":"infinite","getCardByOwner(address,uint256)":"infinite","getCardCount()":"2490","getCardCountByOwner(address)":"3011","getCards()":"infinite","getCompanyName(address)":"infinite","getFirstMintPrice()":"2505","getFirstMinted(address)":"2995","getMintPrice()":"2548","getMintableAuthorities(address,address)":"infinite","isApprovedForAll(address,address)":"infinite","mint()":"infinite","name()":"infinite","ownerOf(uint256)":"3092","partyMint(uint256,address[])":"infinite","safeTransferFrom(address,address,uint256)":"infinite","safeTransferFrom(address,address,uint256,bytes)":"infinite","setApprovalForAll(address,bool)":"infinite","stake(string)":"infinite","supportsInterface(bytes4)":"909","symbol()":"infinite","tokenByIndex(uint256)":"infinite","tokenOfOwnerByIndex(address,uint256)":"infinite","tokenURI(uint256)":"3489","totalSupply()":"2557","transferFrom(address,address,uint256)":"infinite"},"internal":{"_transfer(address,address,uint256)":"infinite"}},"methodIdentifiers":{"__BusinessCardBase__init(uint256,uint256,uint256)":"47c36b8c","_mint(string,string,string,address,uint256)":"a2235934","approve(address,uint256)":"095ea7b3","balanceOf(address)":"70a08231","getApproved(uint256)":"081812fc","getCard(uint256)":"9188d312","getCardByOwner(address,uint256)":"185590e2","getCardCount()":"7d620130","getCardCountByOwner(address)":"95acf987","getCards()":"b0df9e53","getCompanyName(address)":"a4ef7031","getFirstMintPrice()":"61a53251","getFirstMinted(address)":"3d49c66c","getMintPrice()":"a7f93ebd","getMintableAuthorities(address,address)":"5d662c53","isApprovedForAll(address,address)":"e985e9c5","mint()":"1249c58b","name()":"06fdde03","ownerOf(uint256)":"6352211e","partyMint(uint256,address[])":"154308f0","safeTransferFrom(address,address,uint256)":"42842e0e","safeTransferFrom(address,address,uint256,bytes)":"b88d4fde","setApprovalForAll(address,bool)":"a22cb465","stake(string)":"46f45b8d","supportsInterface(bytes4)":"01ffc9a7","symbol()":"95d89b41","tokenByIndex(uint256)":"4f6ccce7","tokenOfOwnerByIndex(address,uint256)":"2f745c59","tokenURI(uint256)":"c87b56dd","totalSupply()":"18160ddd","transferFrom(address,address,uint256)":"23b872dd"}},"storageLayout":{"storage":[{"astId":2338,"contract":"contracts/BusinessCardBase.sol:BusinessCardBase","label":"_initialized","offset":0,"slot":"0","type":"t_uint8"},{"astId":2341,"contract":"contracts/BusinessCardBase.sol:BusinessCardBase","label":"_initializing","offset":1,"slot":"0","type":"t_bool"},{"astId":2847,"contract":"contracts/BusinessCardBase.sol:BusinessCardBase","label":"__gap","offset":0,"slot":"1","type":"t_array(t_uint256)50_storage"},{"astId":3120,"contract":"contracts/BusinessCardBase.sol:BusinessCardBase","label":"__gap","offset":0,"slot":"51","type":"t_array(t_uint256)50_storage"},{"astId":1085,"contract":"contracts/BusinessCardBase.sol:BusinessCardBase","label":"_name","offset":0,"slot":"101","type":"t_string_storage"},{"astId":1087,"contract":"contracts/BusinessCardBase.sol:BusinessCardBase","label":"_symbol","offset":0,"slot":"102","type":"t_string_storage"},{"astId":1091,"contract":"contracts/BusinessCardBase.sol:BusinessCardBase","label":"_owners","offset":0,"slot":"103","type":"t_mapping(t_uint256,t_address)"},{"astId":1095,"contract":"contracts/BusinessCardBase.sol:BusinessCardBase","label":"_balances","offset":0,"slot":"104","type":"t_mapping(t_address,t_uint256)"},{"astId":1099,"contract":"contracts/BusinessCardBase.sol:BusinessCardBase","label":"_tokenApprovals","offset":0,"slot":"105","type":"t_mapping(t_uint256,t_address)"},{"astId":1105,"contract":"contracts/BusinessCardBase.sol:BusinessCardBase","label":"_operatorApprovals","offset":0,"slot":"106","type":"t_mapping(t_address,t_mapping(t_address,t_bool))"},{"astId":2025,"contract":"contracts/BusinessCardBase.sol:BusinessCardBase","label":"__gap","offset":0,"slot":"107","type":"t_array(t_uint256)44_storage"},{"astId":712,"contract":"contracts/BusinessCardBase.sol:BusinessCardBase","label":"_ownedTokens","offset":0,"slot":"151","type":"t_mapping(t_address,t_mapping(t_uint256,t_uint256))"},{"astId":716,"contract":"contracts/BusinessCardBase.sol:BusinessCardBase","label":"_ownedTokensIndex","offset":0,"slot":"152","type":"t_mapping(t_uint256,t_uint256)"},{"astId":719,"contract":"contracts/BusinessCardBase.sol:BusinessCardBase","label":"_allTokens","offset":0,"slot":"153","type":"t_array(t_uint256)dyn_storage"},{"astId":723,"contract":"contracts/BusinessCardBase.sol:BusinessCardBase","label":"_allTokensIndex","offset":0,"slot":"154","type":"t_mapping(t_uint256,t_uint256)"},{"astId":1055,"contract":"contracts/BusinessCardBase.sol:BusinessCardBase","label":"__gap","offset":0,"slot":"155","type":"t_array(t_uint256)46_storage"},{"astId":26,"contract":"contracts/BusinessCardBase.sol:BusinessCardBase","label":"cards","offset":0,"slot":"201","type":"t_array(t_struct(Card)87_storage)dyn_storage"},{"astId":42,"contract":"contracts/BusinessCardBase.sol:BusinessCardBase","label":"stakePrice","offset":0,"slot":"202","type":"t_uint256"},{"astId":44,"contract":"contracts/BusinessCardBase.sol:BusinessCardBase","label":"firstMintPrice","offset":0,"slot":"203","type":"t_uint256"},{"astId":46,"contract":"contracts/BusinessCardBase.sol:BusinessCardBase","label":"mintPrice","offset":0,"slot":"204","type":"t_uint256"},{"astId":53,"contract":"contracts/BusinessCardBase.sol:BusinessCardBase","label":"firstMinted","offset":0,"slot":"205","type":"t_mapping(t_address,t_bool)"},{"astId":59,"contract":"contracts/BusinessCardBase.sol:BusinessCardBase","label":"addressToDivisionToMintable","offset":0,"slot":"206","type":"t_mapping(t_address,t_mapping(t_address,t_uint256))"},{"astId":63,"contract":"contracts/BusinessCardBase.sol:BusinessCardBase","label":"stakedTime","offset":0,"slot":"207","type":"t_mapping(t_address,t_uint256)"},{"astId":67,"contract":"contracts/BusinessCardBase.sol:BusinessCardBase","label":"successfullyStaked","offset":0,"slot":"208","type":"t_mapping(t_address,t_bool)"},{"astId":71,"contract":"contracts/BusinessCardBase.sol:BusinessCardBase","label":"addressToCompanyName","offset":0,"slot":"209","type":"t_mapping(t_address,t_string_storage)"}],"types":{"t_address":{"encoding":"inplace","label":"address","numberOfBytes":"20"},"t_array(t_struct(Card)87_storage)dyn_storage":{"base":"t_struct(Card)87_storage","encoding":"dynamic_array","label":"struct BusinessCardBase.Card[]","numberOfBytes":"32"},"t_array(t_uint256)44_storage":{"base":"t_uint256","encoding":"inplace","label":"uint256[44]","numberOfBytes":"1408"},"t_array(t_uint256)46_storage":{"base":"t_uint256","encoding":"inplace","label":"uint256[46]","numberOfBytes":"1472"},"t_array(t_uint256)50_storage":{"base":"t_uint256","encoding":"inplace","label":"uint256[50]","numberOfBytes":"1600"},"t_array(t_uint256)dyn_storage":{"base":"t_uint256","encoding":"dynamic_array","label":"uint256[]","numberOfBytes":"32"},"t_bool":{"encoding":"inplace","label":"bool","numberOfBytes":"1"},"t_enum(CardType)22":{"encoding":"inplace","label":"enum BusinessCardBase.CardType","numberOfBytes":"1"},"t_mapping(t_address,t_bool)":{"encoding":"mapping","key":"t_address","label":"mapping(address => bool)","numberOfBytes":"32","value":"t_bool"},"t_mapping(t_address,t_mapping(t_address,t_bool))":{"encoding":"mapping","key":"t_address","label":"mapping(address => mapping(address => bool))","numberOfBytes":"32","value":"t_mapping(t_address,t_bool)"},"t_mapping(t_address,t_mapping(t_address,t_uint256))":{"encoding":"mapping","key":"t_address","label":"mapping(address => mapping(address => uint256))","numberOfBytes":"32","value":"t_mapping(t_address,t_uint256)"},"t_mapping(t_address,t_mapping(t_uint256,t_uint256))":{"encoding":"mapping","key":"t_address","label":"mapping(address => mapping(uint256 => uint256))","numberOfBytes":"32","value":"t_mapping(t_uint256,t_uint256)"},"t_mapping(t_address,t_string_storage)":{"encoding":"mapping","key":"t_address","label":"mapping(address => string)","numberOfBytes":"32","value":"t_string_storage"},"t_mapping(t_address,t_uint256)":{"encoding":"mapping","key":"t_address","label":"mapping(address => uint256)","numberOfBytes":"32","value":"t_uint256"},"t_mapping(t_uint256,t_address)":{"encoding":"mapping","key":"t_uint256","label":"mapping(uint256 => address)","numberOfBytes":"32","value":"t_address"},"t_mapping(t_uint256,t_uint256)":{"encoding":"mapping","key":"t_uint256","label":"mapping(uint256 => uint256)","numberOfBytes":"32","value":"t_uint256"},"t_string_storage":{"encoding":"bytes","label":"string","numberOfBytes":"32"},"t_struct(Card)87_storage":{"encoding":"inplace","label":"struct BusinessCardBase.Card","members":[{"astId":73,"contract":"contracts/BusinessCardBase.sol:BusinessCardBase","label":"name","offset":0,"slot":"0","type":"t_string_storage"},{"astId":75,"contract":"contracts/BusinessCardBase.sol:BusinessCardBase","label":"email","offset":0,"slot":"1","type":"t_string_storage"},{"astId":77,"contract":"contracts/BusinessCardBase.sol:BusinessCardBase","label":"phone","offset":0,"slot":"2","type":"t_string_storage"},{"astId":79,"contract":"contracts/BusinessCardBase.sol:BusinessCardBase","label":"company","offset":0,"slot":"3","type":"t_string_storage"},{"astId":82,"contract":"contracts/BusinessCardBase.sol:BusinessCardBase","label":"cardType","offset":0,"slot":"4","type":"t_enum(CardType)22"},{"astId":84,"contract":"contracts/BusinessCardBase.sol:BusinessCardBase","label":"valueDesired","offset":0,"slot":"5","type":"t_uint256"},{"astId":86,"contract":"contracts/BusinessCardBase.sol:BusinessCardBase","label":"owner","offset":0,"slot":"6","type":"t_address"}],"numberOfBytes":"224"},"t_uint256":{"encoding":"inplace","label":"uint256","numberOfBytes":"32"},"t_uint8":{"encoding":"inplace","label":"uint8","numberOfBytes":"1"}}},"userdoc":{"kind":"user","methods":{},"version":1}}}}