{
  "_format": "hh-sol-artifact-1",
  "contractName": "BusinessCardMarketplace",
  "sourceName": "contracts/BusinessCardMarketplace.sol",
  "abi": [
    {
      "inputs": [],
      "name": "BusinessCardMarketplace__AlreadyListed",
      "type": "error"
    },
    {
      "inputs": [],
      "name": "BusinessCardMarketplace__ApproveNotCleared",
      "type": "error"
    },
    {
      "inputs": [],
      "name": "BusinessCardMarketplace__InvalidPrice",
      "type": "error"
    },
    {
      "inputs": [],
      "name": "BusinessCardMarketplace__NotApproved",
      "type": "error"
    },
    {
      "inputs": [],
      "name": "BusinessCardMarketplace__NotListed",
      "type": "error"
    },
    {
      "inputs": [],
      "name": "BusinessCardMarketplace__OnlyOwner",
      "type": "error"
    },
    {
      "anonymous": false,
      "inputs": [
        {
          "indexed": true,
          "internalType": "uint256",
          "name": "cardId",
          "type": "uint256"
        },
        {
          "indexed": true,
          "internalType": "address",
          "name": "buyer",
          "type": "address"
        },
        {
          "indexed": true,
          "internalType": "address",
          "name": "seller",
          "type": "address"
        },
        {
          "indexed": false,
          "internalType": "uint256",
          "name": "price",
          "type": "uint256"
        }
      ],
      "name": "ListingBought",
      "type": "event"
    },
    {
      "anonymous": false,
      "inputs": [
        {
          "indexed": true,
          "internalType": "uint256",
          "name": "cardId",
          "type": "uint256"
        },
        {
          "indexed": false,
          "internalType": "uint256",
          "name": "price",
          "type": "uint256"
        },
        {
          "indexed": true,
          "internalType": "address",
          "name": "seller",
          "type": "address"
        }
      ],
      "name": "ListingListed",
      "type": "event"
    },
    {
      "anonymous": false,
      "inputs": [
        {
          "indexed": true,
          "internalType": "uint256",
          "name": "cardId",
          "type": "uint256"
        },
        {
          "indexed": true,
          "internalType": "address",
          "name": "seller",
          "type": "address"
        }
      ],
      "name": "ListingRemoved",
      "type": "event"
    },
    {
      "inputs": [
        {
          "internalType": "address",
          "name": "_nftAddress",
          "type": "address"
        },
        {
          "internalType": "uint256",
          "name": "_cardId",
          "type": "uint256"
        }
      ],
      "name": "buyCard",
      "outputs": [],
      "stateMutability": "payable",
      "type": "function"
    },
    {
      "inputs": [
        {
          "internalType": "address",
          "name": "_nftAddress",
          "type": "address"
        },
        {
          "internalType": "uint256",
          "name": "_price",
          "type": "uint256"
        },
        {
          "internalType": "uint256",
          "name": "_cardId",
          "type": "uint256"
        }
      ],
      "name": "createListing",
      "outputs": [],
      "stateMutability": "nonpayable",
      "type": "function"
    },
    {
      "inputs": [
        {
          "internalType": "address",
          "name": "_nftAddress",
          "type": "address"
        },
        {
          "internalType": "uint256",
          "name": "_cardId",
          "type": "uint256"
        }
      ],
      "name": "removeListing",
      "outputs": [],
      "stateMutability": "nonpayable",
      "type": "function"
    },
    {
      "inputs": [
        {
          "internalType": "address",
          "name": "_nftAddress",
          "type": "address"
        },
        {
          "internalType": "uint256",
          "name": "_cardId",
          "type": "uint256"
        },
        {
          "internalType": "uint256",
          "name": "_price",
          "type": "uint256"
        }
      ],
      "name": "updateListing",
      "outputs": [],
      "stateMutability": "nonpayable",
      "type": "function"
    }
  ],
  "bytecode": "0x608060405234801561001057600080fd5b50611373806100206000396000f3fe60806040526004361061003f5760003560e01c806324780c561461004457806359edbe711461006d5780637dd9f84614610096578063f772adf1146100b2575b600080fd5b34801561005057600080fd5b5061006b600480360381019061006691906111e2565b6100db565b005b34801561007957600080fd5b50610094600480360381019061008f91906111a2565b6105d4565b005b6100b060048036038101906100ab91906111a2565b610a2c565b005b3480156100be57600080fd5b506100d960048036038101906100d491906111e2565b610e26565b005b82813373ffffffffffffffffffffffffffffffffffffffff168273ffffffffffffffffffffffffffffffffffffffff16636352211e836040518263ffffffff1660e01b815260040161012d91906112b3565b60206040518083038186803b15801561014557600080fd5b505afa158015610159573d6000803e3d6000fd5b505050506040513d601f19601f8201168201806040525081019061017d9190611175565b73ffffffffffffffffffffffffffffffffffffffff16146101ca576040517f59bd4d1b00000000000000000000000000000000000000000000000000000000815260040160405180910390fd5b8483600073ffffffffffffffffffffffffffffffffffffffff166000808473ffffffffffffffffffffffffffffffffffffffff1673ffffffffffffffffffffffffffffffffffffffff168152602001908152602001600020600083815260200190815260200160002060020160009054906101000a900473ffffffffffffffffffffffffffffffffffffffff1673ffffffffffffffffffffffffffffffffffffffff161415806102cd575060008060008473ffffffffffffffffffffffffffffffffffffffff1673ffffffffffffffffffffffffffffffffffffffff16815260200190815260200160002060008381526020019081526020016000206001015414155b15610304576040517f5197cefd00000000000000000000000000000000000000000000000000000000815260040160405180910390fd5b6000861161033e576040517f54b036a000000000000000000000000000000000000000000000000000000000815260040160405180910390fd5b8673ffffffffffffffffffffffffffffffffffffffff1663095ea7b330876040518363ffffffff1660e01b815260040161037992919061128a565b600060405180830381600087803b15801561039357600080fd5b505af11580156103a7573d6000803e3d6000fd5b505050503073ffffffffffffffffffffffffffffffffffffffff168773ffffffffffffffffffffffffffffffffffffffff1663081812fc876040518263ffffffff1660e01b81526004016103fb91906112b3565b60206040518083038186803b15801561041357600080fd5b505afa158015610427573d6000803e3d6000fd5b505050506040513d601f19601f8201168201806040525081019061044b9190611175565b73ffffffffffffffffffffffffffffffffffffffff1614610498576040517fe45ac74b00000000000000000000000000000000000000000000000000000000815260040160405180910390fd5b600060405180606001604052808781526020018881526020013373ffffffffffffffffffffffffffffffffffffffff168152509050806000803373ffffffffffffffffffffffffffffffffffffffff1673ffffffffffffffffffffffffffffffffffffffff1681526020019081526020016000206000888152602001908152602001600020600082015181600001556020820151816001015560408201518160020160006101000a81548173ffffffffffffffffffffffffffffffffffffffff021916908373ffffffffffffffffffffffffffffffffffffffff1602179055509050503373ffffffffffffffffffffffffffffffffffffffff16867f5c10eb54e7b66711529cfcc35f98f53c3aeaa6dc143c27e0381d0fd913213229896040516105c291906112b3565b60405180910390a35050505050505050565b81813373ffffffffffffffffffffffffffffffffffffffff168273ffffffffffffffffffffffffffffffffffffffff16636352211e836040518263ffffffff1660e01b815260040161062691906112b3565b60206040518083038186803b15801561063e57600080fd5b505afa158015610652573d6000803e3d6000fd5b505050506040513d601f19601f820116820180604052508101906106769190611175565b73ffffffffffffffffffffffffffffffffffffffff16146106c3576040517f59bd4d1b00000000000000000000000000000000000000000000000000000000815260040160405180910390fd5b8383600073ffffffffffffffffffffffffffffffffffffffff166000808473ffffffffffffffffffffffffffffffffffffffff1673ffffffffffffffffffffffffffffffffffffffff168152602001908152602001600020600083815260200190815260200160002060020160009054906101000a900473ffffffffffffffffffffffffffffffffffffffff1673ffffffffffffffffffffffffffffffffffffffff1614806107c4575060008060008473ffffffffffffffffffffffffffffffffffffffff1673ffffffffffffffffffffffffffffffffffffffff168152602001908152602001600020600083815260200190815260200160002060010154145b156107fb576040517fffeb22e200000000000000000000000000000000000000000000000000000000815260040160405180910390fd5b8573ffffffffffffffffffffffffffffffffffffffff1663095ea7b36000876040518363ffffffff1660e01b815260040161083792919061128a565b600060405180830381600087803b15801561085157600080fd5b505af1158015610865573d6000803e3d6000fd5b50505050600073ffffffffffffffffffffffffffffffffffffffff168673ffffffffffffffffffffffffffffffffffffffff1663081812fc876040518263ffffffff1660e01b81526004016108ba91906112b3565b60206040518083038186803b1580156108d257600080fd5b505afa1580156108e6573d6000803e3d6000fd5b505050506040513d601f19601f8201168201806040525081019061090a9190611175565b73ffffffffffffffffffffffffffffffffffffffff1614610957576040517ff198223e00000000000000000000000000000000000000000000000000000000815260040160405180910390fd5b6000803373ffffffffffffffffffffffffffffffffffffffff1673ffffffffffffffffffffffffffffffffffffffff168152602001908152602001600020600086815260200190815260200160002060008082016000905560018201600090556002820160006101000a81549073ffffffffffffffffffffffffffffffffffffffff021916905550503373ffffffffffffffffffffffffffffffffffffffff16857f58b0852506006c4be6c7ae72afcd195d9e64d7f5d8947905e914b778e47b7cf360405160405180910390a3505050505050565b8181600073ffffffffffffffffffffffffffffffffffffffff166000808473ffffffffffffffffffffffffffffffffffffffff1673ffffffffffffffffffffffffffffffffffffffff168152602001908152602001600020600083815260200190815260200160002060020160009054906101000a900473ffffffffffffffffffffffffffffffffffffffff1673ffffffffffffffffffffffffffffffffffffffff161480610b2d575060008060008473ffffffffffffffffffffffffffffffffffffffff1673ffffffffffffffffffffffffffffffffffffffff168152602001908152602001600020600083815260200190815260200160002060010154145b15610b64576040517fffeb22e200000000000000000000000000000000000000000000000000000000815260040160405180910390fd5b60008060008673ffffffffffffffffffffffffffffffffffffffff1673ffffffffffffffffffffffffffffffffffffffff168152602001908152602001600020600085815260200190815260200160002060405180606001604052908160008201548152602001600182015481526020016002820160009054906101000a900473ffffffffffffffffffffffffffffffffffffffff1673ffffffffffffffffffffffffffffffffffffffff1673ffffffffffffffffffffffffffffffffffffffff168152505090508060200151341015610c6a576040517f54b036a000000000000000000000000000000000000000000000000000000000815260040160405180910390fd5b806040015173ffffffffffffffffffffffffffffffffffffffff166108fc349081150290604051600060405180830381858888f19350505050158015610cb4573d6000803e3d6000fd5b508473ffffffffffffffffffffffffffffffffffffffff166342842e0e826040015133876040518463ffffffff1660e01b8152600401610cf693929190611253565b600060405180830381600087803b158015610d1057600080fd5b505af1158015610d24573d6000803e3d6000fd5b505050506000808673ffffffffffffffffffffffffffffffffffffffff1673ffffffffffffffffffffffffffffffffffffffff168152602001908152602001600020600085815260200190815260200160002060008082016000905560018201600090556002820160006101000a81549073ffffffffffffffffffffffffffffffffffffffff02191690555050806040015173ffffffffffffffffffffffffffffffffffffffff163373ffffffffffffffffffffffffffffffffffffffff16857facc22b2c51e2c9b31c108c993cebdcd72470cf6f43ed3f5590daf770462332558460200151604051610e1791906112b3565b60405180910390a45050505050565b82823373ffffffffffffffffffffffffffffffffffffffff168273ffffffffffffffffffffffffffffffffffffffff16636352211e836040518263ffffffff1660e01b8152600401610e7891906112b3565b60206040518083038186803b158015610e9057600080fd5b505afa158015610ea4573d6000803e3d6000fd5b505050506040513d601f19601f82011682018060405250810190610ec89190611175565b73ffffffffffffffffffffffffffffffffffffffff1614610f15576040517f59bd4d1b00000000000000000000000000000000000000000000000000000000815260040160405180910390fd5b8484600073ffffffffffffffffffffffffffffffffffffffff166000808473ffffffffffffffffffffffffffffffffffffffff1673ffffffffffffffffffffffffffffffffffffffff168152602001908152602001600020600083815260200190815260200160002060020160009054906101000a900473ffffffffffffffffffffffffffffffffffffffff1673ffffffffffffffffffffffffffffffffffffffff161480611016575060008060008473ffffffffffffffffffffffffffffffffffffffff1673ffffffffffffffffffffffffffffffffffffffff168152602001908152602001600020600083815260200190815260200160002060010154145b1561104d576040517fffeb22e200000000000000000000000000000000000000000000000000000000815260040160405180910390fd5b60008511611087576040517f54b036a000000000000000000000000000000000000000000000000000000000815260040160405180910390fd5b846000808973ffffffffffffffffffffffffffffffffffffffff1673ffffffffffffffffffffffffffffffffffffffff1681526020019081526020016000206000888152602001908152602001600020600101819055503373ffffffffffffffffffffffffffffffffffffffff16867f5c10eb54e7b66711529cfcc35f98f53c3aeaa6dc143c27e0381d0fd9132132298760405161112591906112b3565b60405180910390a350505050505050565b6000813590506111458161130f565b92915050565b60008151905061115a8161130f565b92915050565b60008135905061116f81611326565b92915050565b60006020828403121561118b5761118a61130a565b5b60006111998482850161114b565b91505092915050565b600080604083850312156111b9576111b861130a565b5b60006111c785828601611136565b92505060206111d885828601611160565b9150509250929050565b6000806000606084860312156111fb576111fa61130a565b5b600061120986828701611136565b935050602061121a86828701611160565b925050604061122b86828701611160565b9150509250925092565b61123e816112ce565b82525050565b61124d81611300565b82525050565b60006060820190506112686000830186611235565b6112756020830185611235565b6112826040830184611244565b949350505050565b600060408201905061129f6000830185611235565b6112ac6020830184611244565b9392505050565b60006020820190506112c86000830184611244565b92915050565b60006112d9826112e0565b9050919050565b600073ffffffffffffffffffffffffffffffffffffffff82169050919050565b6000819050919050565b600080fd5b611318816112ce565b811461132357600080fd5b50565b61132f81611300565b811461133a57600080fd5b5056fea26469706673582212209ce8a6e19a928a957ac3634dacda77c05bc56a10a9907595b59942eba31e198364736f6c63430008070033",
  "linkReferences": {},
  "deployedLinkReferences": {}
}