{
  "_format": "hh-sol-artifact-1",
  "contractName": "BusinessCardBase",
  "sourceName": "contracts/BusinessCardBase.sol",
  "abi": [
    {
      "inputs": [],
      "stateMutability": "nonpayable",
      "type": "constructor"
    },
    {
      "inputs": [],
      "name": "BusinessCardBase__InvalidETHAmountSent",
      "type": "error"
    },
    {
      "inputs": [],
      "name": "BusinessCardBase__InvalidString",
      "type": "error"
    },
    {
      "anonymous": false,
      "inputs": [
        {
          "indexed": true,
          "internalType": "address",
          "name": "owner",
          "type": "address"
        },
        {
          "indexed": true,
          "internalType": "address",
          "name": "approved",
          "type": "address"
        },
        {
          "indexed": true,
          "internalType": "uint256",
          "name": "tokenId",
          "type": "uint256"
        }
      ],
      "name": "Approval",
      "type": "event"
    },
    {
      "anonymous": false,
      "inputs": [
        {
          "indexed": true,
          "internalType": "address",
          "name": "owner",
          "type": "address"
        },
        {
          "indexed": true,
          "internalType": "address",
          "name": "operator",
          "type": "address"
        },
        {
          "indexed": false,
          "internalType": "bool",
          "name": "approved",
          "type": "bool"
        }
      ],
      "name": "ApprovalForAll",
      "type": "event"
    },
    {
      "anonymous": false,
      "inputs": [
        {
          "indexed": true,
          "internalType": "uint256",
          "name": "id",
          "type": "uint256"
        },
        {
          "indexed": false,
          "internalType": "string",
          "name": "name",
          "type": "string"
        },
        {
          "indexed": false,
          "internalType": "string",
          "name": "email",
          "type": "string"
        },
        {
          "indexed": false,
          "internalType": "string",
          "name": "phone",
          "type": "string"
        },
        {
          "indexed": false,
          "internalType": "string",
          "name": "company",
          "type": "string"
        },
        {
          "indexed": false,
          "internalType": "uint256",
          "name": "valueDesired",
          "type": "uint256"
        }
      ],
      "name": "CardCreated",
      "type": "event"
    },
    {
      "anonymous": false,
      "inputs": [
        {
          "indexed": true,
          "internalType": "uint256",
          "name": "id",
          "type": "uint256"
        },
        {
          "indexed": true,
          "internalType": "address",
          "name": "from",
          "type": "address"
        },
        {
          "indexed": true,
          "internalType": "address",
          "name": "to",
          "type": "address"
        }
      ],
      "name": "CardTransfer",
      "type": "event"
    },
    {
      "anonymous": false,
      "inputs": [
        {
          "indexed": true,
          "internalType": "address",
          "name": "previousOwner",
          "type": "address"
        },
        {
          "indexed": true,
          "internalType": "address",
          "name": "newOwner",
          "type": "address"
        }
      ],
      "name": "OwnershipTransferred",
      "type": "event"
    },
    {
      "anonymous": false,
      "inputs": [
        {
          "indexed": true,
          "internalType": "address",
          "name": "from",
          "type": "address"
        },
        {
          "indexed": true,
          "internalType": "address",
          "name": "to",
          "type": "address"
        },
        {
          "indexed": true,
          "internalType": "uint256",
          "name": "tokenId",
          "type": "uint256"
        }
      ],
      "name": "Transfer",
      "type": "event"
    },
    {
      "inputs": [
        {
          "internalType": "address",
          "name": "to",
          "type": "address"
        },
        {
          "internalType": "uint256",
          "name": "tokenId",
          "type": "uint256"
        }
      ],
      "name": "approve",
      "outputs": [],
      "stateMutability": "nonpayable",
      "type": "function"
    },
    {
      "inputs": [
        {
          "internalType": "address",
          "name": "owner",
          "type": "address"
        }
      ],
      "name": "balanceOf",
      "outputs": [
        {
          "internalType": "uint256",
          "name": "",
          "type": "uint256"
        }
      ],
      "stateMutability": "view",
      "type": "function"
    },
    {
      "inputs": [
        {
          "internalType": "uint256",
          "name": "tokenId",
          "type": "uint256"
        }
      ],
      "name": "getApproved",
      "outputs": [
        {
          "internalType": "address",
          "name": "",
          "type": "address"
        }
      ],
      "stateMutability": "view",
      "type": "function"
    },
    {
      "inputs": [
        {
          "internalType": "uint256",
          "name": "_id",
          "type": "uint256"
        }
      ],
      "name": "getCard",
      "outputs": [
        {
          "components": [
            {
              "internalType": "string",
              "name": "name",
              "type": "string"
            },
            {
              "internalType": "string",
              "name": "email",
              "type": "string"
            },
            {
              "internalType": "string",
              "name": "phone",
              "type": "string"
            },
            {
              "internalType": "string",
              "name": "company",
              "type": "string"
            },
            {
              "internalType": "enum BusinessCardBase.CardType",
              "name": "cardType",
              "type": "uint8"
            },
            {
              "internalType": "uint256",
              "name": "valueDesired",
              "type": "uint256"
            }
          ],
          "internalType": "struct BusinessCardBase.Card",
          "name": "",
          "type": "tuple"
        }
      ],
      "stateMutability": "view",
      "type": "function"
    },
    {
      "inputs": [
        {
          "internalType": "address",
          "name": "_owner",
          "type": "address"
        },
        {
          "internalType": "uint256",
          "name": "_index",
          "type": "uint256"
        }
      ],
      "name": "getCardByOwner",
      "outputs": [
        {
          "components": [
            {
              "internalType": "string",
              "name": "name",
              "type": "string"
            },
            {
              "internalType": "string",
              "name": "email",
              "type": "string"
            },
            {
              "internalType": "string",
              "name": "phone",
              "type": "string"
            },
            {
              "internalType": "string",
              "name": "company",
              "type": "string"
            },
            {
              "internalType": "enum BusinessCardBase.CardType",
              "name": "cardType",
              "type": "uint8"
            },
            {
              "internalType": "uint256",
              "name": "valueDesired",
              "type": "uint256"
            }
          ],
          "internalType": "struct BusinessCardBase.Card",
          "name": "",
          "type": "tuple"
        }
      ],
      "stateMutability": "view",
      "type": "function"
    },
    {
      "inputs": [],
      "name": "getCardCount",
      "outputs": [
        {
          "internalType": "uint256",
          "name": "",
          "type": "uint256"
        }
      ],
      "stateMutability": "view",
      "type": "function"
    },
    {
      "inputs": [
        {
          "internalType": "address",
          "name": "_owner",
          "type": "address"
        }
      ],
      "name": "getCardCountByOwner",
      "outputs": [
        {
          "internalType": "uint256",
          "name": "",
          "type": "uint256"
        }
      ],
      "stateMutability": "view",
      "type": "function"
    },
    {
      "inputs": [],
      "name": "getCards",
      "outputs": [
        {
          "components": [
            {
              "internalType": "string",
              "name": "name",
              "type": "string"
            },
            {
              "internalType": "string",
              "name": "email",
              "type": "string"
            },
            {
              "internalType": "string",
              "name": "phone",
              "type": "string"
            },
            {
              "internalType": "string",
              "name": "company",
              "type": "string"
            },
            {
              "internalType": "enum BusinessCardBase.CardType",
              "name": "cardType",
              "type": "uint8"
            },
            {
              "internalType": "uint256",
              "name": "valueDesired",
              "type": "uint256"
            }
          ],
          "internalType": "struct BusinessCardBase.Card[]",
          "name": "",
          "type": "tuple[]"
        }
      ],
      "stateMutability": "view",
      "type": "function"
    },
    {
      "inputs": [],
      "name": "getFirstMintPrice",
      "outputs": [
        {
          "internalType": "uint256",
          "name": "",
          "type": "uint256"
        }
      ],
      "stateMutability": "view",
      "type": "function"
    },
    {
      "inputs": [],
      "name": "getMintPrice",
      "outputs": [
        {
          "internalType": "uint256",
          "name": "",
          "type": "uint256"
        }
      ],
      "stateMutability": "view",
      "type": "function"
    },
    {
      "inputs": [
        {
          "internalType": "address",
          "name": "owner",
          "type": "address"
        },
        {
          "internalType": "address",
          "name": "operator",
          "type": "address"
        }
      ],
      "name": "isApprovedForAll",
      "outputs": [
        {
          "internalType": "bool",
          "name": "",
          "type": "bool"
        }
      ],
      "stateMutability": "view",
      "type": "function"
    },
    {
      "inputs": [
        {
          "internalType": "string",
          "name": "_name",
          "type": "string"
        },
        {
          "internalType": "string",
          "name": "_email",
          "type": "string"
        },
        {
          "internalType": "string",
          "name": "_phone",
          "type": "string"
        },
        {
          "internalType": "string",
          "name": "_company",
          "type": "string"
        },
        {
          "internalType": "uint256",
          "name": "valueDesired",
          "type": "uint256"
        }
      ],
      "name": "mintCard",
      "outputs": [
        {
          "internalType": "bool",
          "name": "success",
          "type": "bool"
        }
      ],
      "stateMutability": "payable",
      "type": "function"
    },
    {
      "inputs": [],
      "name": "name",
      "outputs": [
        {
          "internalType": "string",
          "name": "",
          "type": "string"
        }
      ],
      "stateMutability": "view",
      "type": "function"
    },
    {
      "inputs": [],
      "name": "owner",
      "outputs": [
        {
          "internalType": "address",
          "name": "",
          "type": "address"
        }
      ],
      "stateMutability": "view",
      "type": "function"
    },
    {
      "inputs": [
        {
          "internalType": "uint256",
          "name": "tokenId",
          "type": "uint256"
        }
      ],
      "name": "ownerOf",
      "outputs": [
        {
          "internalType": "address",
          "name": "",
          "type": "address"
        }
      ],
      "stateMutability": "view",
      "type": "function"
    },
    {
      "inputs": [],
      "name": "renounceOwnership",
      "outputs": [],
      "stateMutability": "nonpayable",
      "type": "function"
    },
    {
      "inputs": [
        {
          "internalType": "address",
          "name": "from",
          "type": "address"
        },
        {
          "internalType": "address",
          "name": "to",
          "type": "address"
        },
        {
          "internalType": "uint256",
          "name": "tokenId",
          "type": "uint256"
        }
      ],
      "name": "safeTransferFrom",
      "outputs": [],
      "stateMutability": "nonpayable",
      "type": "function"
    },
    {
      "inputs": [
        {
          "internalType": "address",
          "name": "from",
          "type": "address"
        },
        {
          "internalType": "address",
          "name": "to",
          "type": "address"
        },
        {
          "internalType": "uint256",
          "name": "tokenId",
          "type": "uint256"
        },
        {
          "internalType": "bytes",
          "name": "data",
          "type": "bytes"
        }
      ],
      "name": "safeTransferFrom",
      "outputs": [],
      "stateMutability": "nonpayable",
      "type": "function"
    },
    {
      "inputs": [
        {
          "internalType": "address",
          "name": "operator",
          "type": "address"
        },
        {
          "internalType": "bool",
          "name": "approved",
          "type": "bool"
        }
      ],
      "name": "setApprovalForAll",
      "outputs": [],
      "stateMutability": "nonpayable",
      "type": "function"
    },
    {
      "inputs": [
        {
          "internalType": "bytes4",
          "name": "interfaceId",
          "type": "bytes4"
        }
      ],
      "name": "supportsInterface",
      "outputs": [
        {
          "internalType": "bool",
          "name": "",
          "type": "bool"
        }
      ],
      "stateMutability": "view",
      "type": "function"
    },
    {
      "inputs": [],
      "name": "symbol",
      "outputs": [
        {
          "internalType": "string",
          "name": "",
          "type": "string"
        }
      ],
      "stateMutability": "view",
      "type": "function"
    },
    {
      "inputs": [
        {
          "internalType": "uint256",
          "name": "index",
          "type": "uint256"
        }
      ],
      "name": "tokenByIndex",
      "outputs": [
        {
          "internalType": "uint256",
          "name": "",
          "type": "uint256"
        }
      ],
      "stateMutability": "view",
      "type": "function"
    },
    {
      "inputs": [
        {
          "internalType": "address",
          "name": "owner",
          "type": "address"
        },
        {
          "internalType": "uint256",
          "name": "index",
          "type": "uint256"
        }
      ],
      "name": "tokenOfOwnerByIndex",
      "outputs": [
        {
          "internalType": "uint256",
          "name": "",
          "type": "uint256"
        }
      ],
      "stateMutability": "view",
      "type": "function"
    },
    {
      "inputs": [
        {
          "internalType": "uint256",
          "name": "tokenId",
          "type": "uint256"
        }
      ],
      "name": "tokenURI",
      "outputs": [
        {
          "internalType": "string",
          "name": "",
          "type": "string"
        }
      ],
      "stateMutability": "view",
      "type": "function"
    },
    {
      "inputs": [],
      "name": "totalSupply",
      "outputs": [
        {
          "internalType": "uint256",
          "name": "",
          "type": "uint256"
        }
      ],
      "stateMutability": "view",
      "type": "function"
    },
    {
      "inputs": [
        {
          "internalType": "address",
          "name": "from",
          "type": "address"
        },
        {
          "internalType": "address",
          "name": "to",
          "type": "address"
        },
        {
          "internalType": "uint256",
          "name": "tokenId",
          "type": "uint256"
        }
      ],
      "name": "transferFrom",
      "outputs": [],
      "stateMutability": "nonpayable",
      "type": "function"
    },
    {
      "inputs": [
        {
          "internalType": "address",
          "name": "newOwner",
          "type": "address"
        }
      ],
      "name": "transferOwnership",
      "outputs": [],
      "stateMutability": "nonpayable",
      "type": "function"
    }
  ],
  "bytecode": "0x60806040523480156200001157600080fd5b506040518060400160405280601081526020017f427573696e6573734361726442617365000000000000000000000000000000008152506040518060400160405280600281526020017f4243000000000000000000000000000000000000000000000000000000000000815250816000908051906020019062000096929190620001a6565b508060019080519060200190620000af929190620001a6565b505050620000d2620000c6620000d860201b60201c565b620000e060201b60201c565b620002bb565b600033905090565b6000600a60009054906101000a900473ffffffffffffffffffffffffffffffffffffffff16905081600a60006101000a81548173ffffffffffffffffffffffffffffffffffffffff021916908373ffffffffffffffffffffffffffffffffffffffff1602179055508173ffffffffffffffffffffffffffffffffffffffff168173ffffffffffffffffffffffffffffffffffffffff167f8be0079c531659141344cd1fd0a4f28419497f9722a3daafe3b4186f6b6457e060405160405180910390a35050565b828054620001b49062000256565b90600052602060002090601f016020900481019282620001d8576000855562000224565b82601f10620001f357805160ff191683800117855562000224565b8280016001018555821562000224579182015b828111156200022357825182559160200191906001019062000206565b5b50905062000233919062000237565b5090565b5b808211156200025257600081600090555060010162000238565b5090565b600060028204905060018216806200026f57607f821691505b602082108114156200028657620002856200028c565b5b50919050565b7f4e487b7100000000000000000000000000000000000000000000000000000000600052602260045260246000fd5b61478480620002cb6000396000f3fe60806040526004361061019c5760003560e01c806370a08231116100ec578063a22cb4651161008a578063b88d4fde11610064578063b88d4fde14610609578063c87b56dd14610632578063e985e9c51461066f578063f2fde38b146106ac5761019c565b8063a22cb4651461058a578063a7f93ebd146105b3578063b0df9e53146105de5761019c565b80638da5cb5b116100c65780638da5cb5b146104ba5780639188d312146104e557806395acf9871461052257806395d89b411461055f5761019c565b806370a082311461043b578063715018a6146104785780637d6201301461048f5761019c565b8063185590e21161015957806342842e0e1161013357806342842e0e1461036d5780634f6ccce71461039657806361a53251146103d35780636352211e146103fe5761019c565b8063185590e2146102ca57806323b872dd146103075780632f745c59146103305761019c565b806301ffc9a7146101a157806306fdde03146101de578063081812fc14610209578063095ea7b31461024657806309c1311f1461026f57806318160ddd1461029f575b600080fd5b3480156101ad57600080fd5b506101c860048036038101906101c39190613457565b6106d5565b6040516101d59190613b92565b60405180910390f35b3480156101ea57600080fd5b506101f361074f565b6040516102009190613bad565b60405180910390f35b34801561021557600080fd5b50610230600480360381019061022b919061359c565b6107e1565b60405161023d9190613b09565b60405180910390f35b34801561025257600080fd5b5061026d60048036038101906102689190613417565b610827565b005b610289600480360381019061028491906134b1565b61093f565b6040516102969190613b92565b60405180910390f35b3480156102ab57600080fd5b506102b4610d19565b6040516102c19190613e60565b60405180910390f35b3480156102d657600080fd5b506102f160048036038101906102ec9190613417565b610d26565b6040516102fe9190613e3e565b60405180910390f35b34801561031357600080fd5b5061032e60048036038101906103299190613301565b610ff9565b005b34801561033c57600080fd5b5061035760048036038101906103529190613417565b611059565b6040516103649190613e60565b60405180910390f35b34801561037957600080fd5b50610394600480360381019061038f9190613301565b6110fe565b005b3480156103a257600080fd5b506103bd60048036038101906103b8919061359c565b61111e565b6040516103ca9190613e60565b60405180910390f35b3480156103df57600080fd5b506103e861118f565b6040516103f59190613e60565b60405180910390f35b34801561040a57600080fd5b506104256004803603810190610420919061359c565b611199565b6040516104329190613b09565b60405180910390f35b34801561044757600080fd5b50610462600480360381019061045d9190613294565b611220565b60405161046f9190613e60565b60405180910390f35b34801561048457600080fd5b5061048d6112d8565b005b34801561049b57600080fd5b506104a46112ec565b6040516104b19190613e60565b60405180910390f35b3480156104c657600080fd5b506104cf6112f9565b6040516104dc9190613b09565b60405180910390f35b3480156104f157600080fd5b5061050c6004803603810190610507919061359c565b611323565b6040516105199190613e3e565b60405180910390f35b34801561052e57600080fd5b5061054960048036038101906105449190613294565b6115ec565b6040516105569190613e60565b60405180910390f35b34801561056b57600080fd5b506105746115fe565b6040516105819190613bad565b60405180910390f35b34801561059657600080fd5b506105b160048036038101906105ac91906133d7565b611690565b005b3480156105bf57600080fd5b506105c86116a6565b6040516105d59190613e60565b60405180910390f35b3480156105ea57600080fd5b506105f36116b0565b6040516106009190613b70565b60405180910390f35b34801561061557600080fd5b50610630600480360381019061062b9190613354565b61199c565b005b34801561063e57600080fd5b506106596004803603810190610654919061359c565b6119fe565b6040516106669190613bad565b60405180910390f35b34801561067b57600080fd5b50610696600480360381019061069191906132c1565b611a66565b6040516106a39190613b92565b60405180910390f35b3480156106b857600080fd5b506106d360048036038101906106ce9190613294565b611afa565b005b60007f780e9d63000000000000000000000000000000000000000000000000000000007bffffffffffffffffffffffffffffffffffffffffffffffffffffffff1916827bffffffffffffffffffffffffffffffffffffffffffffffffffffffff19161480610748575061074782611b7e565b5b9050919050565b60606000805461075e906140ae565b80601f016020809104026020016040519081016040528092919081815260200182805461078a906140ae565b80156107d75780601f106107ac576101008083540402835291602001916107d7565b820191906000526020600020905b8154815290600101906020018083116107ba57829003601f168201915b5050505050905090565b60006107ec82611c60565b6004600083815260200190815260200160002060009054906101000a900473ffffffffffffffffffffffffffffffffffffffff169050919050565b600061083282611199565b90508073ffffffffffffffffffffffffffffffffffffffff168373ffffffffffffffffffffffffffffffffffffffff1614156108a3576040517f08c379a000000000000000000000000000000000000000000000000000000000815260040161089a90613dbe565b60405180910390fd5b8073ffffffffffffffffffffffffffffffffffffffff166108c2611cab565b73ffffffffffffffffffffffffffffffffffffffff1614806108f157506108f0816108eb611cab565b611a66565b5b610930576040517f08c379a000000000000000000000000000000000000000000000000000000000815260040161092790613dde565b60405180910390fd5b61093a8383611cb3565b505050565b60008086511480610951575060008551145b8061095d575060008451145b80610969575060008351145b156109a0576040517fb73f7ba500000000000000000000000000000000000000000000000000000000815260040160405180910390fd5b6000801515600e60003373ffffffffffffffffffffffffffffffffffffffff1673ffffffffffffffffffffffffffffffffffffffff16815260200190815260200160002060009054906101000a900460ff1615151415610a9257600c543414610a35576040517f7d604d0e00000000000000000000000000000000000000000000000000000000815260040160405180910390fd5b6001600e60003373ffffffffffffffffffffffffffffffffffffffff1673ffffffffffffffffffffffffffffffffffffffff16815260200190815260200160002060006101000a81548160ff021916908315150217905550610d0b565b600d543414610acd576040517f7d604d0e00000000000000000000000000000000000000000000000000000000815260040160405180910390fd5b600b805490509050600b6040518060c0016040528089815260200188815260200187815260200186815260200160006001811115610b0e57610b0d61419c565b5b81526020018581525090806001815401808255809150506001900390600052602060002090600602016000909190919091506000820151816000019080519060200190610b5c929190613060565b506020820151816001019080519060200190610b79929190613060565b506040820151816002019080519060200190610b96929190613060565b506060820151816003019080519060200190610bb3929190613060565b5060808201518160040160006101000a81548160ff02191690836001811115610bdf57610bde61419c565b5b021790555060a082015181600501555050610bfa3382611d6c565b336011600083815260200190815260200160002060006101000a81548173ffffffffffffffffffffffffffffffffffffffff021916908373ffffffffffffffffffffffffffffffffffffffff160217905550601060003373ffffffffffffffffffffffffffffffffffffffff1673ffffffffffffffffffffffffffffffffffffffff168152602001908152602001600020600081819054906101000a900463ffffffff1680929190610cab90614111565b91906101000a81548163ffffffff021916908363ffffffff16021790555050807fa01499c21b7908c876b7b361a643e5771db7854d10fca4b5bdd9d1b1e60495cd8888888888604051610d02959493929190613bcf565b60405180910390a25b600191505095945050505050565b6000600880549050905090565b610d2e6130e6565b600b610d3a8484611059565b81548110610d4b57610d4a614229565b5b90600052602060002090600602016040518060c0016040529081600082018054610d74906140ae565b80601f0160208091040260200160405190810160405280929190818152602001828054610da0906140ae565b8015610ded5780601f10610dc257610100808354040283529160200191610ded565b820191906000526020600020905b815481529060010190602001808311610dd057829003601f168201915b50505050508152602001600182018054610e06906140ae565b80601f0160208091040260200160405190810160405280929190818152602001828054610e32906140ae565b8015610e7f5780601f10610e5457610100808354040283529160200191610e7f565b820191906000526020600020905b815481529060010190602001808311610e6257829003601f168201915b50505050508152602001600282018054610e98906140ae565b80601f0160208091040260200160405190810160405280929190818152602001828054610ec4906140ae565b8015610f115780601f10610ee657610100808354040283529160200191610f11565b820191906000526020600020905b815481529060010190602001808311610ef457829003601f168201915b50505050508152602001600382018054610f2a906140ae565b80601f0160208091040260200160405190810160405280929190818152602001828054610f56906140ae565b8015610fa35780601f10610f7857610100808354040283529160200191610fa3565b820191906000526020600020905b815481529060010190602001808311610f8657829003601f168201915b505050505081526020016004820160009054906101000a900460ff166001811115610fd157610fd061419c565b5b6001811115610fe357610fe261419c565b5b8152602001600582015481525050905092915050565b61100a611004611cab565b82611d8a565b611049576040517f08c379a000000000000000000000000000000000000000000000000000000000815260040161104090613c3e565b60405180910390fd5b611054838383611e1f565b505050565b600061106483611220565b82106110a5576040517f08c379a000000000000000000000000000000000000000000000000000000000815260040161109c90613c5e565b60405180910390fd5b600660008473ffffffffffffffffffffffffffffffffffffffff1673ffffffffffffffffffffffffffffffffffffffff168152602001908152602001600020600083815260200190815260200160002054905092915050565b6111198383836040518060200160405280600081525061199c565b505050565b6000611128610d19565b8210611169576040517f08c379a000000000000000000000000000000000000000000000000000000000815260040161116090613dfe565b60405180910390fd5b6008828154811061117d5761117c614229565b5b90600052602060002001549050919050565b6000600c54905090565b6000806111a583611e8a565b9050600073ffffffffffffffffffffffffffffffffffffffff168173ffffffffffffffffffffffffffffffffffffffff161415611217576040517f08c379a000000000000000000000000000000000000000000000000000000000815260040161120e90613d9e565b60405180910390fd5b80915050919050565b60008073ffffffffffffffffffffffffffffffffffffffff168273ffffffffffffffffffffffffffffffffffffffff161415611291576040517f08c379a000000000000000000000000000000000000000000000000000000000815260040161128890613d3e565b60405180910390fd5b600360008373ffffffffffffffffffffffffffffffffffffffff1673ffffffffffffffffffffffffffffffffffffffff168152602001908152602001600020549050919050565b6112e0611ec7565b6112ea6000611f45565b565b6000600b80549050905090565b6000600a60009054906101000a900473ffffffffffffffffffffffffffffffffffffffff16905090565b61132b6130e6565b600b828154811061133f5761133e614229565b5b90600052602060002090600602016040518060c0016040529081600082018054611368906140ae565b80601f0160208091040260200160405190810160405280929190818152602001828054611394906140ae565b80156113e15780601f106113b6576101008083540402835291602001916113e1565b820191906000526020600020905b8154815290600101906020018083116113c457829003601f168201915b505050505081526020016001820180546113fa906140ae565b80601f0160208091040260200160405190810160405280929190818152602001828054611426906140ae565b80156114735780601f1061144857610100808354040283529160200191611473565b820191906000526020600020905b81548152906001019060200180831161145657829003601f168201915b5050505050815260200160028201805461148c906140ae565b80601f01602080910402602001604051908101604052809291908181526020018280546114b8906140ae565b80156115055780601f106114da57610100808354040283529160200191611505565b820191906000526020600020905b8154815290600101906020018083116114e857829003601f168201915b5050505050815260200160038201805461151e906140ae565b80601f016020809104026020016040519081016040528092919081815260200182805461154a906140ae565b80156115975780601f1061156c57610100808354040283529160200191611597565b820191906000526020600020905b81548152906001019060200180831161157a57829003601f168201915b505050505081526020016004820160009054906101000a900460ff1660018111156115c5576115c461419c565b5b60018111156115d7576115d661419c565b5b81526020016005820154815250509050919050565b60006115f782611220565b9050919050565b60606001805461160d906140ae565b80601f0160208091040260200160405190810160405280929190818152602001828054611639906140ae565b80156116865780601f1061165b57610100808354040283529160200191611686565b820191906000526020600020905b81548152906001019060200180831161166957829003601f168201915b5050505050905090565b6116a261169b611cab565b838361200b565b5050565b6000600d54905090565b6060600b805480602002602001604051908101604052809291908181526020016000905b8282101561199357838290600052602060002090600602016040518060c0016040529081600082018054611707906140ae565b80601f0160208091040260200160405190810160405280929190818152602001828054611733906140ae565b80156117805780601f1061175557610100808354040283529160200191611780565b820191906000526020600020905b81548152906001019060200180831161176357829003601f168201915b50505050508152602001600182018054611799906140ae565b80601f01602080910402602001604051908101604052809291908181526020018280546117c5906140ae565b80156118125780601f106117e757610100808354040283529160200191611812565b820191906000526020600020905b8154815290600101906020018083116117f557829003601f168201915b5050505050815260200160028201805461182b906140ae565b80601f0160208091040260200160405190810160405280929190818152602001828054611857906140ae565b80156118a45780601f10611879576101008083540402835291602001916118a4565b820191906000526020600020905b81548152906001019060200180831161188757829003601f168201915b505050505081526020016003820180546118bd906140ae565b80601f01602080910402602001604051908101604052809291908181526020018280546118e9906140ae565b80156119365780601f1061190b57610100808354040283529160200191611936565b820191906000526020600020905b81548152906001019060200180831161191957829003601f168201915b505050505081526020016004820160009054906101000a900460ff1660018111156119645761196361419c565b5b60018111156119765761197561419c565b5b8152602001600582015481525050815260200190600101906116d4565b50505050905090565b6119ad6119a7611cab565b83611d8a565b6119ec576040517f08c379a00000000000000000000000000000000000000000000000000000000081526004016119e390613c3e565b60405180910390fd5b6119f884848484612178565b50505050565b6060611a0982611c60565b6000611a136121d4565b90506000815111611a335760405180602001604052806000815250611a5e565b80611a3d846121eb565b604051602001611a4e929190613ae5565b6040516020818303038152906040525b915050919050565b6000600560008473ffffffffffffffffffffffffffffffffffffffff1673ffffffffffffffffffffffffffffffffffffffff16815260200190815260200160002060008373ffffffffffffffffffffffffffffffffffffffff1673ffffffffffffffffffffffffffffffffffffffff16815260200190815260200160002060009054906101000a900460ff16905092915050565b611b02611ec7565b600073ffffffffffffffffffffffffffffffffffffffff168173ffffffffffffffffffffffffffffffffffffffff161415611b72576040517f08c379a0000000000000000000000000000000000000000000000000000000008152600401611b6990613c9e565b60405180910390fd5b611b7b81611f45565b50565b60007f80ac58cd000000000000000000000000000000000000000000000000000000007bffffffffffffffffffffffffffffffffffffffffffffffffffffffff1916827bffffffffffffffffffffffffffffffffffffffffffffffffffffffff19161480611c4957507f5b5e139f000000000000000000000000000000000000000000000000000000007bffffffffffffffffffffffffffffffffffffffffffffffffffffffff1916827bffffffffffffffffffffffffffffffffffffffffffffffffffffffff1916145b80611c595750611c58826122c3565b5b9050919050565b611c698161232d565b611ca8576040517f08c379a0000000000000000000000000000000000000000000000000000000008152600401611c9f90613d9e565b60405180910390fd5b50565b600033905090565b816004600083815260200190815260200160002060006101000a81548173ffffffffffffffffffffffffffffffffffffffff021916908373ffffffffffffffffffffffffffffffffffffffff160217905550808273ffffffffffffffffffffffffffffffffffffffff16611d2683611199565b73ffffffffffffffffffffffffffffffffffffffff167f8c5be1e5ebec7d5bd14f71427d1e84f3dd0314c0f7b2291e5b200ac8c7c3b92560405160405180910390a45050565b611d8682826040518060200160405280600081525061236e565b5050565b600080611d9683611199565b90508073ffffffffffffffffffffffffffffffffffffffff168473ffffffffffffffffffffffffffffffffffffffff161480611dd85750611dd78185611a66565b5b80611e1657508373ffffffffffffffffffffffffffffffffffffffff16611dfe846107e1565b73ffffffffffffffffffffffffffffffffffffffff16145b91505092915050565b611e2a8383836123c9565b8173ffffffffffffffffffffffffffffffffffffffff168373ffffffffffffffffffffffffffffffffffffffff16827fa39c1232e046ab0ad1c4221e11516a35ad636b4eb5a7acaabbfd44eaca8fe00760405160405180910390a4505050565b60006002600083815260200190815260200160002060009054906101000a900473ffffffffffffffffffffffffffffffffffffffff169050919050565b611ecf611cab565b73ffffffffffffffffffffffffffffffffffffffff16611eed6112f9565b73ffffffffffffffffffffffffffffffffffffffff1614611f43576040517f08c379a0000000000000000000000000000000000000000000000000000000008152600401611f3a90613d7e565b60405180910390fd5b565b6000600a60009054906101000a900473ffffffffffffffffffffffffffffffffffffffff16905081600a60006101000a81548173ffffffffffffffffffffffffffffffffffffffff021916908373ffffffffffffffffffffffffffffffffffffffff1602179055508173ffffffffffffffffffffffffffffffffffffffff168173ffffffffffffffffffffffffffffffffffffffff167f8be0079c531659141344cd1fd0a4f28419497f9722a3daafe3b4186f6b6457e060405160405180910390a35050565b8173ffffffffffffffffffffffffffffffffffffffff168373ffffffffffffffffffffffffffffffffffffffff16141561207a576040517f08c379a000000000000000000000000000000000000000000000000000000000815260040161207190613d1e565b60405180910390fd5b80600560008573ffffffffffffffffffffffffffffffffffffffff1673ffffffffffffffffffffffffffffffffffffffff16815260200190815260200160002060008473ffffffffffffffffffffffffffffffffffffffff1673ffffffffffffffffffffffffffffffffffffffff16815260200190815260200160002060006101000a81548160ff0219169083151502179055508173ffffffffffffffffffffffffffffffffffffffff168373ffffffffffffffffffffffffffffffffffffffff167f17307eab39ab6107e8899845ad3d59bd9653f200f220920489ca2b5937696c318360405161216b9190613b92565b60405180910390a3505050565b612183848484611e1f565b61218f848484846126c3565b6121ce576040517f08c379a00000000000000000000000000000000000000000000000000000000081526004016121c590613c7e565b60405180910390fd5b50505050565b606060405180602001604052806000815250905090565b6060600060016121fa8461285a565b01905060008167ffffffffffffffff81111561221957612218614258565b5b6040519080825280601f01601f19166020018201604052801561224b5781602001600182028036833780820191505090505b509050600082602001820190505b6001156122b8578080600190039150507f3031323334353637383961626364656600000000000000000000000000000000600a86061a8153600a85816122a2576122a161416d565b5b04945060008514156122b3576122b8565b612259565b819350505050919050565b60007f01ffc9a7000000000000000000000000000000000000000000000000000000007bffffffffffffffffffffffffffffffffffffffffffffffffffffffff1916827bffffffffffffffffffffffffffffffffffffffffffffffffffffffff1916149050919050565b60008073ffffffffffffffffffffffffffffffffffffffff1661234f83611e8a565b73ffffffffffffffffffffffffffffffffffffffff1614159050919050565b61237883836129ad565b61238560008484846126c3565b6123c4576040517f08c379a00000000000000000000000000000000000000000000000000000000081526004016123bb90613c7e565b60405180910390fd5b505050565b8273ffffffffffffffffffffffffffffffffffffffff166123e982611199565b73ffffffffffffffffffffffffffffffffffffffff161461243f576040517f08c379a000000000000000000000000000000000000000000000000000000000815260040161243690613cbe565b60405180910390fd5b600073ffffffffffffffffffffffffffffffffffffffff168273ffffffffffffffffffffffffffffffffffffffff1614156124af576040517f08c379a00000000000000000000000000000000000000000000000000000000081526004016124a690613cfe565b60405180910390fd5b6124bc8383836001612bcb565b8273ffffffffffffffffffffffffffffffffffffffff166124dc82611199565b73ffffffffffffffffffffffffffffffffffffffff1614612532576040517f08c379a000000000000000000000000000000000000000000000000000000000815260040161252990613cbe565b60405180910390fd5b6004600082815260200190815260200160002060006101000a81549073ffffffffffffffffffffffffffffffffffffffff02191690556001600360008573ffffffffffffffffffffffffffffffffffffffff1673ffffffffffffffffffffffffffffffffffffffff168152602001908152602001600020600082825403925050819055506001600360008473ffffffffffffffffffffffffffffffffffffffff1673ffffffffffffffffffffffffffffffffffffffff16815260200190815260200160002060008282540192505081905550816002600083815260200190815260200160002060006101000a81548173ffffffffffffffffffffffffffffffffffffffff021916908373ffffffffffffffffffffffffffffffffffffffff160217905550808273ffffffffffffffffffffffffffffffffffffffff168473ffffffffffffffffffffffffffffffffffffffff167fddf252ad1be2c89b69c2b068fc378daa952ba7f163c4a11628f55a4df523b3ef60405160405180910390a46126be8383836001612d2b565b505050565b60006126e48473ffffffffffffffffffffffffffffffffffffffff16612d31565b1561284d578373ffffffffffffffffffffffffffffffffffffffff1663150b7a0261270d611cab565b8786866040518563ffffffff1660e01b815260040161272f9493929190613b24565b602060405180830381600087803b15801561274957600080fd5b505af192505050801561277a57506040513d601f19601f820116820180604052508101906127779190613484565b60015b6127fd573d80600081146127aa576040519150601f19603f3d011682016040523d82523d6000602084013e6127af565b606091505b506000815114156127f5576040517f08c379a00000000000000000000000000000000000000000000000000000000081526004016127ec90613c7e565b60405180910390fd5b805181602001fd5b63150b7a0260e01b7bffffffffffffffffffffffffffffffffffffffffffffffffffffffff1916817bffffffffffffffffffffffffffffffffffffffffffffffffffffffff191614915050612852565b600190505b949350505050565b600080600090507a184f03e93ff9f4daa797ed6e38ed64bf6a1f01000000000000000083106128b8577a184f03e93ff9f4daa797ed6e38ed64bf6a1f01000000000000000083816128ae576128ad61416d565b5b0492506040810190505b6d04ee2d6d415b85acef810000000083106128f5576d04ee2d6d415b85acef810000000083816128eb576128ea61416d565b5b0492506020810190505b662386f26fc10000831061292457662386f26fc10000838161291a5761291961416d565b5b0492506010810190505b6305f5e100831061294d576305f5e10083816129435761294261416d565b5b0492506008810190505b61271083106129725761271083816129685761296761416d565b5b0492506004810190505b60648310612995576064838161298b5761298a61416d565b5b0492506002810190505b600a83106129a4576001810190505b80915050919050565b600073ffffffffffffffffffffffffffffffffffffffff168273ffffffffffffffffffffffffffffffffffffffff161415612a1d576040517f08c379a0000000000000000000000000000000000000000000000000000000008152600401612a1490613d5e565b60405180910390fd5b612a268161232d565b15612a66576040517f08c379a0000000000000000000000000000000000000000000000000000000008152600401612a5d90613cde565b60405180910390fd5b612a74600083836001612bcb565b612a7d8161232d565b15612abd576040517f08c379a0000000000000000000000000000000000000000000000000000000008152600401612ab490613cde565b60405180910390fd5b6001600360008473ffffffffffffffffffffffffffffffffffffffff1673ffffffffffffffffffffffffffffffffffffffff16815260200190815260200160002060008282540192505081905550816002600083815260200190815260200160002060006101000a81548173ffffffffffffffffffffffffffffffffffffffff021916908373ffffffffffffffffffffffffffffffffffffffff160217905550808273ffffffffffffffffffffffffffffffffffffffff16600073ffffffffffffffffffffffffffffffffffffffff167fddf252ad1be2c89b69c2b068fc378daa952ba7f163c4a11628f55a4df523b3ef60405160405180910390a4612bc7600083836001612d2b565b5050565b612bd784848484612d54565b6001811115612c1b576040517f08c379a0000000000000000000000000000000000000000000000000000000008152600401612c1290613e1e565b60405180910390fd5b6000829050600073ffffffffffffffffffffffffffffffffffffffff168573ffffffffffffffffffffffffffffffffffffffff161415612c6357612c5e81612d5a565b612ca2565b8373ffffffffffffffffffffffffffffffffffffffff168573ffffffffffffffffffffffffffffffffffffffff1614612ca157612ca08582612da3565b5b5b600073ffffffffffffffffffffffffffffffffffffffff168473ffffffffffffffffffffffffffffffffffffffff161415612ce557612ce081612f10565b612d24565b8473ffffffffffffffffffffffffffffffffffffffff168473ffffffffffffffffffffffffffffffffffffffff1614612d2357612d228482612fe1565b5b5b5050505050565b50505050565b6000808273ffffffffffffffffffffffffffffffffffffffff163b119050919050565b50505050565b6008805490506009600083815260200190815260200160002081905550600881908060018154018082558091505060019003906000526020600020016000909190919091505550565b60006001612db084611220565b612dba9190613f8f565b9050600060076000848152602001908152602001600020549050818114612e9f576000600660008673ffffffffffffffffffffffffffffffffffffffff1673ffffffffffffffffffffffffffffffffffffffff168152602001908152602001600020600084815260200190815260200160002054905080600660008773ffffffffffffffffffffffffffffffffffffffff1673ffffffffffffffffffffffffffffffffffffffff168152602001908152602001600020600084815260200190815260200160002081905550816007600083815260200190815260200160002081905550505b6007600084815260200190815260200160002060009055600660008573ffffffffffffffffffffffffffffffffffffffff1673ffffffffffffffffffffffffffffffffffffffff16815260200190815260200160002060008381526020019081526020016000206000905550505050565b60006001600880549050612f249190613f8f565b9050600060096000848152602001908152602001600020549050600060088381548110612f5457612f53614229565b5b906000526020600020015490508060088381548110612f7657612f75614229565b5b906000526020600020018190555081600960008381526020019081526020016000208190555060096000858152602001908152602001600020600090556008805480612fc557612fc46141fa565b5b6001900381819060005260206000200160009055905550505050565b6000612fec83611220565b905081600660008573ffffffffffffffffffffffffffffffffffffffff1673ffffffffffffffffffffffffffffffffffffffff168152602001908152602001600020600083815260200190815260200160002081905550806007600084815260200190815260200160002081905550505050565b82805461306c906140ae565b90600052602060002090601f01602090048101928261308e57600085556130d5565b82601f106130a757805160ff19168380011785556130d5565b828001600101855582156130d5579182015b828111156130d45782518255916020019190600101906130b9565b5b5090506130e2919061312e565b5090565b6040518060c0016040528060608152602001606081526020016060815260200160608152602001600060018111156131215761312061419c565b5b8152602001600081525090565b5b8082111561314757600081600090555060010161312f565b5090565b600061315e61315984613ea0565b613e7b565b90508281526020810184848401111561317a5761317961428c565b5b61318584828561406c565b509392505050565b60006131a061319b84613ed1565b613e7b565b9050828152602081018484840111156131bc576131bb61428c565b5b6131c784828561406c565b509392505050565b6000813590506131de816146f2565b92915050565b6000813590506131f381614709565b92915050565b60008135905061320881614720565b92915050565b60008151905061321d81614720565b92915050565b600082601f83011261323857613237614287565b5b813561324884826020860161314b565b91505092915050565b600082601f83011261326657613265614287565b5b813561327684826020860161318d565b91505092915050565b60008135905061328e81614737565b92915050565b6000602082840312156132aa576132a9614296565b5b60006132b8848285016131cf565b91505092915050565b600080604083850312156132d8576132d7614296565b5b60006132e6858286016131cf565b92505060206132f7858286016131cf565b9150509250929050565b60008060006060848603121561331a57613319614296565b5b6000613328868287016131cf565b9350506020613339868287016131cf565b925050604061334a8682870161327f565b9150509250925092565b6000806000806080858703121561336e5761336d614296565b5b600061337c878288016131cf565b945050602061338d878288016131cf565b935050604061339e8782880161327f565b925050606085013567ffffffffffffffff8111156133bf576133be614291565b5b6133cb87828801613223565b91505092959194509250565b600080604083850312156133ee576133ed614296565b5b60006133fc858286016131cf565b925050602061340d858286016131e4565b9150509250929050565b6000806040838503121561342e5761342d614296565b5b600061343c858286016131cf565b925050602061344d8582860161327f565b9150509250929050565b60006020828403121561346d5761346c614296565b5b600061347b848285016131f9565b91505092915050565b60006020828403121561349a57613499614296565b5b60006134a88482850161320e565b91505092915050565b600080600080600060a086880312156134cd576134cc614296565b5b600086013567ffffffffffffffff8111156134eb576134ea614291565b5b6134f788828901613251565b955050602086013567ffffffffffffffff81111561351857613517614291565b5b61352488828901613251565b945050604086013567ffffffffffffffff81111561354557613544614291565b5b61355188828901613251565b935050606086013567ffffffffffffffff81111561357257613571614291565b5b61357e88828901613251565b925050608061358f8882890161327f565b9150509295509295909350565b6000602082840312156135b2576135b1614296565b5b60006135c08482850161327f565b91505092915050565b60006135d5838361398b565b905092915050565b6135e681613fc3565b82525050565b60006135f782613f12565b6136018185613f40565b93508360208202850161361385613f02565b8060005b8581101561364f578484038952815161363085826135c9565b945061363b83613f33565b925060208a01995050600181019050613617565b50829750879550505050505092915050565b61366a81613fd5565b82525050565b600061367b82613f1d565b6136858185613f51565b935061369581856020860161407b565b61369e8161429b565b840191505092915050565b6136b28161405a565b82525050565b60006136c382613f28565b6136cd8185613f62565b93506136dd81856020860161407b565b6136e68161429b565b840191505092915050565b60006136fc82613f28565b6137068185613f73565b935061371681856020860161407b565b61371f8161429b565b840191505092915050565b600061373582613f28565b61373f8185613f84565b935061374f81856020860161407b565b80840191505092915050565b6000613768602d83613f73565b9150613773826142ac565b604082019050919050565b600061378b602b83613f73565b9150613796826142fb565b604082019050919050565b60006137ae603283613f73565b91506137b98261434a565b604082019050919050565b60006137d1602683613f73565b91506137dc82614399565b604082019050919050565b60006137f4602583613f73565b91506137ff826143e8565b604082019050919050565b6000613817601c83613f73565b915061382282614437565b602082019050919050565b600061383a602483613f73565b915061384582614460565b604082019050919050565b600061385d601983613f73565b9150613868826144af565b602082019050919050565b6000613880602983613f73565b915061388b826144d8565b604082019050919050565b60006138a3602083613f73565b91506138ae82614527565b602082019050919050565b60006138c6602083613f73565b91506138d182614550565b602082019050919050565b60006138e9601883613f73565b91506138f482614579565b602082019050919050565b600061390c602183613f73565b9150613917826145a2565b604082019050919050565b600061392f603d83613f73565b915061393a826145f1565b604082019050919050565b6000613952602c83613f73565b915061395d82614640565b604082019050919050565b6000613975603583613f73565b91506139808261468f565b604082019050919050565b600060c08301600083015184820360008601526139a882826136b8565b915050602083015184820360208601526139c282826136b8565b915050604083015184820360408601526139dc82826136b8565b915050606083015184820360608601526139f682826136b8565b9150506080830151613a0b60808601826136a9565b5060a0830151613a1e60a0860182613ac7565b508091505092915050565b600060c0830160008301518482036000860152613a4682826136b8565b91505060208301518482036020860152613a6082826136b8565b91505060408301518482036040860152613a7a82826136b8565b91505060608301518482036060860152613a9482826136b8565b9150506080830151613aa960808601826136a9565b5060a0830151613abc60a0860182613ac7565b508091505092915050565b613ad081614040565b82525050565b613adf81614040565b82525050565b6000613af1828561372a565b9150613afd828461372a565b91508190509392505050565b6000602082019050613b1e60008301846135dd565b92915050565b6000608082019050613b3960008301876135dd565b613b4660208301866135dd565b613b536040830185613ad6565b8181036060830152613b658184613670565b905095945050505050565b60006020820190508181036000830152613b8a81846135ec565b905092915050565b6000602082019050613ba76000830184613661565b92915050565b60006020820190508181036000830152613bc781846136f1565b905092915050565b600060a0820190508181036000830152613be981886136f1565b90508181036020830152613bfd81876136f1565b90508181036040830152613c1181866136f1565b90508181036060830152613c2581856136f1565b9050613c346080830184613ad6565b9695505050505050565b60006020820190508181036000830152613c578161375b565b9050919050565b60006020820190508181036000830152613c778161377e565b9050919050565b60006020820190508181036000830152613c97816137a1565b9050919050565b60006020820190508181036000830152613cb7816137c4565b9050919050565b60006020820190508181036000830152613cd7816137e7565b9050919050565b60006020820190508181036000830152613cf78161380a565b9050919050565b60006020820190508181036000830152613d178161382d565b9050919050565b60006020820190508181036000830152613d3781613850565b9050919050565b60006020820190508181036000830152613d5781613873565b9050919050565b60006020820190508181036000830152613d7781613896565b9050919050565b60006020820190508181036000830152613d97816138b9565b9050919050565b60006020820190508181036000830152613db7816138dc565b9050919050565b60006020820190508181036000830152613dd7816138ff565b9050919050565b60006020820190508181036000830152613df781613922565b9050919050565b60006020820190508181036000830152613e1781613945565b9050919050565b60006020820190508181036000830152613e3781613968565b9050919050565b60006020820190508181036000830152613e588184613a29565b905092915050565b6000602082019050613e756000830184613ad6565b92915050565b6000613e85613e96565b9050613e9182826140e0565b919050565b6000604051905090565b600067ffffffffffffffff821115613ebb57613eba614258565b5b613ec48261429b565b9050602081019050919050565b600067ffffffffffffffff821115613eec57613eeb614258565b5b613ef58261429b565b9050602081019050919050565b6000819050602082019050919050565b600081519050919050565b600081519050919050565b600081519050919050565b6000602082019050919050565b600082825260208201905092915050565b600082825260208201905092915050565b600082825260208201905092915050565b600082825260208201905092915050565b600081905092915050565b6000613f9a82614040565b9150613fa583614040565b925082821015613fb857613fb761413e565b5b828203905092915050565b6000613fce82614020565b9050919050565b60008115159050919050565b60007fffffffff0000000000000000000000000000000000000000000000000000000082169050919050565b600081905061401b826146de565b919050565b600073ffffffffffffffffffffffffffffffffffffffff82169050919050565b6000819050919050565b600063ffffffff82169050919050565b60006140658261400d565b9050919050565b82818337600083830152505050565b60005b8381101561409957808201518184015260208101905061407e565b838111156140a8576000848401525b50505050565b600060028204905060018216806140c657607f821691505b602082108114156140da576140d96141cb565b5b50919050565b6140e98261429b565b810181811067ffffffffffffffff8211171561410857614107614258565b5b80604052505050565b600061411c8261404a565b915063ffffffff8214156141335761413261413e565b5b600182019050919050565b7f4e487b7100000000000000000000000000000000000000000000000000000000600052601160045260246000fd5b7f4e487b7100000000000000000000000000000000000000000000000000000000600052601260045260246000fd5b7f4e487b7100000000000000000000000000000000000000000000000000000000600052602160045260246000fd5b7f4e487b7100000000000000000000000000000000000000000000000000000000600052602260045260246000fd5b7f4e487b7100000000000000000000000000000000000000000000000000000000600052603160045260246000fd5b7f4e487b7100000000000000000000000000000000000000000000000000000000600052603260045260246000fd5b7f4e487b7100000000000000000000000000000000000000000000000000000000600052604160045260246000fd5b600080fd5b600080fd5b600080fd5b600080fd5b6000601f19601f8301169050919050565b7f4552433732313a2063616c6c6572206973206e6f7420746f6b656e206f776e6560008201527f72206f7220617070726f76656400000000000000000000000000000000000000602082015250565b7f455243373231456e756d657261626c653a206f776e657220696e646578206f7560008201527f74206f6620626f756e6473000000000000000000000000000000000000000000602082015250565b7f4552433732313a207472616e7366657220746f206e6f6e20455243373231526560008201527f63656976657220696d706c656d656e7465720000000000000000000000000000602082015250565b7f4f776e61626c653a206e6577206f776e657220697320746865207a65726f206160008201527f6464726573730000000000000000000000000000000000000000000000000000602082015250565b7f4552433732313a207472616e736665722066726f6d20696e636f72726563742060008201527f6f776e6572000000000000000000000000000000000000000000000000000000602082015250565b7f4552433732313a20746f6b656e20616c7265616479206d696e74656400000000600082015250565b7f4552433732313a207472616e7366657220746f20746865207a65726f2061646460008201527f7265737300000000000000000000000000000000000000000000000000000000602082015250565b7f4552433732313a20617070726f766520746f2063616c6c657200000000000000600082015250565b7f4552433732313a2061646472657373207a65726f206973206e6f74206120766160008201527f6c6964206f776e65720000000000000000000000000000000000000000000000602082015250565b7f4552433732313a206d696e7420746f20746865207a65726f2061646472657373600082015250565b7f4f776e61626c653a2063616c6c6572206973206e6f7420746865206f776e6572600082015250565b7f4552433732313a20696e76616c696420746f6b656e2049440000000000000000600082015250565b7f4552433732313a20617070726f76616c20746f2063757272656e74206f776e6560008201527f7200000000000000000000000000000000000000000000000000000000000000602082015250565b7f4552433732313a20617070726f76652063616c6c6572206973206e6f7420746f60008201527f6b656e206f776e6572206f7220617070726f76656420666f7220616c6c000000602082015250565b7f455243373231456e756d657261626c653a20676c6f62616c20696e646578206f60008201527f7574206f6620626f756e64730000000000000000000000000000000000000000602082015250565b7f455243373231456e756d657261626c653a20636f6e736563757469766520747260008201527f616e7366657273206e6f7420737570706f727465640000000000000000000000602082015250565b600281106146ef576146ee61419c565b5b50565b6146fb81613fc3565b811461470657600080fd5b50565b61471281613fd5565b811461471d57600080fd5b50565b61472981613fe1565b811461473457600080fd5b50565b61474081614040565b811461474b57600080fd5b5056fea264697066735822122039482227659ec4c49f78cfcdf6d7bcc17b9e05d582f33f4ba653a193eff731d764736f6c63430008070033",
  "linkReferences": {},
  "deployedLinkReferences": {}
}