{
  "_format": "hh-sol-artifact-1",
  "contractName": "BusinessCardBase",
  "sourceName": "contracts/BusinessCardBase.sol",
  "abi": [
    {
      "inputs": [],
      "name": "BusinessCardBase__ExceededPeople",
      "type": "error"
    },
    {
      "inputs": [],
      "name": "BusinessCardBase__InvalidArrayCount",
      "type": "error"
    },
    {
      "inputs": [],
      "name": "BusinessCardBase__InvalidETHAmountSent",
      "type": "error"
    },
    {
      "inputs": [],
      "name": "BusinessCardBase__InvalidString",
      "type": "error"
    },
    {
      "inputs": [],
      "name": "BusinessCardBase__NotMintable",
      "type": "error"
    },
    {
      "inputs": [],
      "name": "BusinessCardBase__NotStaked",
      "type": "error"
    },
    {
      "anonymous": false,
      "inputs": [
        {
          "indexed": true,
          "internalType": "address",
          "name": "owner",
          "type": "address"
        },
        {
          "indexed": true,
          "internalType": "address",
          "name": "approved",
          "type": "address"
        },
        {
          "indexed": true,
          "internalType": "uint256",
          "name": "tokenId",
          "type": "uint256"
        }
      ],
      "name": "Approval",
      "type": "event"
    },
    {
      "anonymous": false,
      "inputs": [
        {
          "indexed": true,
          "internalType": "address",
          "name": "owner",
          "type": "address"
        },
        {
          "indexed": true,
          "internalType": "address",
          "name": "operator",
          "type": "address"
        },
        {
          "indexed": false,
          "internalType": "bool",
          "name": "approved",
          "type": "bool"
        }
      ],
      "name": "ApprovalForAll",
      "type": "event"
    },
    {
      "anonymous": false,
      "inputs": [
        {
          "indexed": true,
          "internalType": "uint256",
          "name": "id",
          "type": "uint256"
        },
        {
          "indexed": false,
          "internalType": "string",
          "name": "name",
          "type": "string"
        },
        {
          "indexed": false,
          "internalType": "string",
          "name": "email",
          "type": "string"
        },
        {
          "indexed": false,
          "internalType": "string",
          "name": "phone",
          "type": "string"
        },
        {
          "indexed": false,
          "internalType": "string",
          "name": "company",
          "type": "string"
        },
        {
          "indexed": false,
          "internalType": "enum BusinessCardBase.CardType",
          "name": "cardType",
          "type": "uint8"
        },
        {
          "indexed": false,
          "internalType": "uint256",
          "name": "valueDesired",
          "type": "uint256"
        },
        {
          "indexed": false,
          "internalType": "address",
          "name": "owner",
          "type": "address"
        }
      ],
      "name": "CardCreated",
      "type": "event"
    },
    {
      "anonymous": false,
      "inputs": [
        {
          "indexed": true,
          "internalType": "uint256",
          "name": "id",
          "type": "uint256"
        },
        {
          "indexed": true,
          "internalType": "address",
          "name": "from",
          "type": "address"
        },
        {
          "indexed": true,
          "internalType": "address",
          "name": "to",
          "type": "address"
        }
      ],
      "name": "CardTransfer",
      "type": "event"
    },
    {
      "anonymous": false,
      "inputs": [
        {
          "indexed": false,
          "internalType": "uint8",
          "name": "version",
          "type": "uint8"
        }
      ],
      "name": "Initialized",
      "type": "event"
    },
    {
      "anonymous": false,
      "inputs": [
        {
          "indexed": true,
          "internalType": "address",
          "name": "company",
          "type": "address"
        },
        {
          "indexed": false,
          "internalType": "address[]",
          "name": "employeeAddresses",
          "type": "address[]"
        },
        {
          "indexed": false,
          "internalType": "uint32",
          "name": "employeeCount",
          "type": "uint32"
        }
      ],
      "name": "PartyMint",
      "type": "event"
    },
    {
      "anonymous": false,
      "inputs": [
        {
          "indexed": true,
          "internalType": "address",
          "name": "staker",
          "type": "address"
        },
        {
          "indexed": false,
          "internalType": "uint256",
          "name": "amount",
          "type": "uint256"
        },
        {
          "indexed": false,
          "internalType": "string",
          "name": "companyName",
          "type": "string"
        }
      ],
      "name": "Stake",
      "type": "event"
    },
    {
      "anonymous": false,
      "inputs": [
        {
          "indexed": true,
          "internalType": "address",
          "name": "from",
          "type": "address"
        },
        {
          "indexed": true,
          "internalType": "address",
          "name": "to",
          "type": "address"
        },
        {
          "indexed": true,
          "internalType": "uint256",
          "name": "tokenId",
          "type": "uint256"
        }
      ],
      "name": "Transfer",
      "type": "event"
    },
    {
      "inputs": [
        {
          "internalType": "uint256",
          "name": "_firstMintPrice",
          "type": "uint256"
        },
        {
          "internalType": "uint256",
          "name": "_mintPrice",
          "type": "uint256"
        },
        {
          "internalType": "uint256",
          "name": "_stakePrice",
          "type": "uint256"
        }
      ],
      "name": "__BusinessCardBase__init",
      "outputs": [],
      "stateMutability": "nonpayable",
      "type": "function"
    },
    {
      "inputs": [
        {
          "internalType": "string",
          "name": "_name",
          "type": "string"
        },
        {
          "internalType": "string",
          "name": "_email",
          "type": "string"
        },
        {
          "internalType": "string",
          "name": "_phone",
          "type": "string"
        },
        {
          "internalType": "address",
          "name": "_company",
          "type": "address"
        },
        {
          "internalType": "uint256",
          "name": "valueDesired",
          "type": "uint256"
        }
      ],
      "name": "_mint",
      "outputs": [],
      "stateMutability": "nonpayable",
      "type": "function"
    },
    {
      "inputs": [
        {
          "internalType": "address",
          "name": "to",
          "type": "address"
        },
        {
          "internalType": "uint256",
          "name": "tokenId",
          "type": "uint256"
        }
      ],
      "name": "approve",
      "outputs": [],
      "stateMutability": "nonpayable",
      "type": "function"
    },
    {
      "inputs": [
        {
          "internalType": "address",
          "name": "owner",
          "type": "address"
        }
      ],
      "name": "balanceOf",
      "outputs": [
        {
          "internalType": "uint256",
          "name": "",
          "type": "uint256"
        }
      ],
      "stateMutability": "view",
      "type": "function"
    },
    {
      "inputs": [
        {
          "internalType": "uint256",
          "name": "tokenId",
          "type": "uint256"
        }
      ],
      "name": "getApproved",
      "outputs": [
        {
          "internalType": "address",
          "name": "",
          "type": "address"
        }
      ],
      "stateMutability": "view",
      "type": "function"
    },
    {
      "inputs": [
        {
          "internalType": "uint256",
          "name": "_id",
          "type": "uint256"
        }
      ],
      "name": "getCard",
      "outputs": [
        {
          "components": [
            {
              "internalType": "string",
              "name": "name",
              "type": "string"
            },
            {
              "internalType": "string",
              "name": "email",
              "type": "string"
            },
            {
              "internalType": "string",
              "name": "phone",
              "type": "string"
            },
            {
              "internalType": "string",
              "name": "company",
              "type": "string"
            },
            {
              "internalType": "enum BusinessCardBase.CardType",
              "name": "cardType",
              "type": "uint8"
            },
            {
              "internalType": "uint256",
              "name": "valueDesired",
              "type": "uint256"
            },
            {
              "internalType": "address",
              "name": "owner",
              "type": "address"
            }
          ],
          "internalType": "struct BusinessCardBase.Card",
          "name": "",
          "type": "tuple"
        }
      ],
      "stateMutability": "view",
      "type": "function"
    },
    {
      "inputs": [
        {
          "internalType": "address",
          "name": "_owner",
          "type": "address"
        },
        {
          "internalType": "uint256",
          "name": "_index",
          "type": "uint256"
        }
      ],
      "name": "getCardByOwner",
      "outputs": [
        {
          "components": [
            {
              "internalType": "string",
              "name": "name",
              "type": "string"
            },
            {
              "internalType": "string",
              "name": "email",
              "type": "string"
            },
            {
              "internalType": "string",
              "name": "phone",
              "type": "string"
            },
            {
              "internalType": "string",
              "name": "company",
              "type": "string"
            },
            {
              "internalType": "enum BusinessCardBase.CardType",
              "name": "cardType",
              "type": "uint8"
            },
            {
              "internalType": "uint256",
              "name": "valueDesired",
              "type": "uint256"
            },
            {
              "internalType": "address",
              "name": "owner",
              "type": "address"
            }
          ],
          "internalType": "struct BusinessCardBase.Card",
          "name": "",
          "type": "tuple"
        }
      ],
      "stateMutability": "view",
      "type": "function"
    },
    {
      "inputs": [],
      "name": "getCardCount",
      "outputs": [
        {
          "internalType": "uint256",
          "name": "",
          "type": "uint256"
        }
      ],
      "stateMutability": "view",
      "type": "function"
    },
    {
      "inputs": [
        {
          "internalType": "address",
          "name": "_owner",
          "type": "address"
        }
      ],
      "name": "getCardCountByOwner",
      "outputs": [
        {
          "internalType": "uint256",
          "name": "",
          "type": "uint256"
        }
      ],
      "stateMutability": "view",
      "type": "function"
    },
    {
      "inputs": [],
      "name": "getCards",
      "outputs": [
        {
          "components": [
            {
              "internalType": "string",
              "name": "name",
              "type": "string"
            },
            {
              "internalType": "string",
              "name": "email",
              "type": "string"
            },
            {
              "internalType": "string",
              "name": "phone",
              "type": "string"
            },
            {
              "internalType": "string",
              "name": "company",
              "type": "string"
            },
            {
              "internalType": "enum BusinessCardBase.CardType",
              "name": "cardType",
              "type": "uint8"
            },
            {
              "internalType": "uint256",
              "name": "valueDesired",
              "type": "uint256"
            },
            {
              "internalType": "address",
              "name": "owner",
              "type": "address"
            }
          ],
          "internalType": "struct BusinessCardBase.Card[]",
          "name": "",
          "type": "tuple[]"
        }
      ],
      "stateMutability": "view",
      "type": "function"
    },
    {
      "inputs": [
        {
          "internalType": "address",
          "name": "companyAddress",
          "type": "address"
        }
      ],
      "name": "getCompanyName",
      "outputs": [
        {
          "internalType": "string",
          "name": "",
          "type": "string"
        }
      ],
      "stateMutability": "view",
      "type": "function"
    },
    {
      "inputs": [],
      "name": "getFirstMintPrice",
      "outputs": [
        {
          "internalType": "uint256",
          "name": "",
          "type": "uint256"
        }
      ],
      "stateMutability": "view",
      "type": "function"
    },
    {
      "inputs": [
        {
          "internalType": "address",
          "name": "minter",
          "type": "address"
        }
      ],
      "name": "getFirstMinted",
      "outputs": [
        {
          "internalType": "bool",
          "name": "",
          "type": "bool"
        }
      ],
      "stateMutability": "view",
      "type": "function"
    },
    {
      "inputs": [],
      "name": "getMintPrice",
      "outputs": [
        {
          "internalType": "uint256",
          "name": "",
          "type": "uint256"
        }
      ],
      "stateMutability": "view",
      "type": "function"
    },
    {
      "inputs": [
        {
          "internalType": "address",
          "name": "_owner",
          "type": "address"
        },
        {
          "internalType": "address",
          "name": "_company",
          "type": "address"
        }
      ],
      "name": "getMintableAuthorities",
      "outputs": [
        {
          "internalType": "uint256",
          "name": "",
          "type": "uint256"
        }
      ],
      "stateMutability": "view",
      "type": "function"
    },
    {
      "inputs": [
        {
          "internalType": "address",
          "name": "owner",
          "type": "address"
        },
        {
          "internalType": "address",
          "name": "operator",
          "type": "address"
        }
      ],
      "name": "isApprovedForAll",
      "outputs": [
        {
          "internalType": "bool",
          "name": "",
          "type": "bool"
        }
      ],
      "stateMutability": "view",
      "type": "function"
    },
    {
      "inputs": [],
      "name": "mint",
      "outputs": [
        {
          "internalType": "bool",
          "name": "success",
          "type": "bool"
        }
      ],
      "stateMutability": "payable",
      "type": "function"
    },
    {
      "inputs": [],
      "name": "name",
      "outputs": [
        {
          "internalType": "string",
          "name": "",
          "type": "string"
        }
      ],
      "stateMutability": "view",
      "type": "function"
    },
    {
      "inputs": [
        {
          "internalType": "uint256",
          "name": "tokenId",
          "type": "uint256"
        }
      ],
      "name": "ownerOf",
      "outputs": [
        {
          "internalType": "address",
          "name": "",
          "type": "address"
        }
      ],
      "stateMutability": "view",
      "type": "function"
    },
    {
      "inputs": [
        {
          "internalType": "uint256",
          "name": "_employeeCount",
          "type": "uint256"
        },
        {
          "internalType": "address[]",
          "name": "employeeAddresses",
          "type": "address[]"
        }
      ],
      "name": "partyMint",
      "outputs": [
        {
          "internalType": "bool",
          "name": "success",
          "type": "bool"
        }
      ],
      "stateMutability": "payable",
      "type": "function"
    },
    {
      "inputs": [
        {
          "internalType": "address",
          "name": "from",
          "type": "address"
        },
        {
          "internalType": "address",
          "name": "to",
          "type": "address"
        },
        {
          "internalType": "uint256",
          "name": "tokenId",
          "type": "uint256"
        }
      ],
      "name": "safeTransferFrom",
      "outputs": [],
      "stateMutability": "nonpayable",
      "type": "function"
    },
    {
      "inputs": [
        {
          "internalType": "address",
          "name": "from",
          "type": "address"
        },
        {
          "internalType": "address",
          "name": "to",
          "type": "address"
        },
        {
          "internalType": "uint256",
          "name": "tokenId",
          "type": "uint256"
        },
        {
          "internalType": "bytes",
          "name": "data",
          "type": "bytes"
        }
      ],
      "name": "safeTransferFrom",
      "outputs": [],
      "stateMutability": "nonpayable",
      "type": "function"
    },
    {
      "inputs": [
        {
          "internalType": "address",
          "name": "operator",
          "type": "address"
        },
        {
          "internalType": "bool",
          "name": "approved",
          "type": "bool"
        }
      ],
      "name": "setApprovalForAll",
      "outputs": [],
      "stateMutability": "nonpayable",
      "type": "function"
    },
    {
      "inputs": [
        {
          "internalType": "string",
          "name": "_company",
          "type": "string"
        }
      ],
      "name": "stake",
      "outputs": [
        {
          "internalType": "bool",
          "name": "success",
          "type": "bool"
        }
      ],
      "stateMutability": "payable",
      "type": "function"
    },
    {
      "inputs": [
        {
          "internalType": "bytes4",
          "name": "interfaceId",
          "type": "bytes4"
        }
      ],
      "name": "supportsInterface",
      "outputs": [
        {
          "internalType": "bool",
          "name": "",
          "type": "bool"
        }
      ],
      "stateMutability": "view",
      "type": "function"
    },
    {
      "inputs": [],
      "name": "symbol",
      "outputs": [
        {
          "internalType": "string",
          "name": "",
          "type": "string"
        }
      ],
      "stateMutability": "view",
      "type": "function"
    },
    {
      "inputs": [
        {
          "internalType": "uint256",
          "name": "index",
          "type": "uint256"
        }
      ],
      "name": "tokenByIndex",
      "outputs": [
        {
          "internalType": "uint256",
          "name": "",
          "type": "uint256"
        }
      ],
      "stateMutability": "view",
      "type": "function"
    },
    {
      "inputs": [
        {
          "internalType": "address",
          "name": "owner",
          "type": "address"
        },
        {
          "internalType": "uint256",
          "name": "index",
          "type": "uint256"
        }
      ],
      "name": "tokenOfOwnerByIndex",
      "outputs": [
        {
          "internalType": "uint256",
          "name": "",
          "type": "uint256"
        }
      ],
      "stateMutability": "view",
      "type": "function"
    },
    {
      "inputs": [
        {
          "internalType": "uint256",
          "name": "tokenId",
          "type": "uint256"
        }
      ],
      "name": "tokenURI",
      "outputs": [
        {
          "internalType": "string",
          "name": "",
          "type": "string"
        }
      ],
      "stateMutability": "view",
      "type": "function"
    },
    {
      "inputs": [],
      "name": "totalSupply",
      "outputs": [
        {
          "internalType": "uint256",
          "name": "",
          "type": "uint256"
        }
      ],
      "stateMutability": "view",
      "type": "function"
    },
    {
      "inputs": [
        {
          "internalType": "address",
          "name": "from",
          "type": "address"
        },
        {
          "internalType": "address",
          "name": "to",
          "type": "address"
        },
        {
          "internalType": "uint256",
          "name": "tokenId",
          "type": "uint256"
        }
      ],
      "name": "transferFrom",
      "outputs": [],
      "stateMutability": "nonpayable",
      "type": "function"
    }
  ],
  "bytecode": "0x608060405234801561001057600080fd5b506155c680620000216000396000f3fe6080604052600436106101d85760003560e01c80635d662c5311610102578063a223593411610095578063b0df9e5311610064578063b0df9e531461072f578063b88d4fde1461075a578063c87b56dd14610783578063e985e9c5146107c0576101d8565b8063a223593414610675578063a22cb4651461069e578063a4ef7031146106c7578063a7f93ebd14610704576101d8565b80637d620130116100d15780637d620130146105a55780639188d312146105d057806395acf9871461060d57806395d89b411461064a576101d8565b80635d662c53146104c357806361a53251146105005780636352211e1461052b57806370a0823114610568576101d8565b8063185590e21161017a57806342842e0e1161014957806342842e0e1461040457806346f45b8d1461042d57806347c36b8c1461045d5780634f6ccce714610486576101d8565b8063185590e21461032457806323b872dd146103615780632f745c591461038a5780633d49c66c146103c7576101d8565b8063095ea7b3116101b6578063095ea7b3146102825780631249c58b146102ab578063154308f0146102c957806318160ddd146102f9576101d8565b806301ffc9a7146101dd57806306fdde031461021a578063081812fc14610245575b600080fd5b3480156101e957600080fd5b5061020460048036038101906101ff9190614040565b6107fd565b604051610211919061490a565b60405180910390f35b34801561022657600080fd5b5061022f610877565b60405161023c9190614925565b60405180910390f35b34801561025157600080fd5b5061026c600480360381019061026791906141b2565b610909565b6040516102799190614851565b60405180910390f35b34801561028e57600080fd5b506102a960048036038101906102a49190614000565b61094f565b005b6102b3610a67565b6040516102c0919061490a565b60405180910390f35b6102e360048036038101906102de91906141df565b610cb2565b6040516102f0919061490a565b60405180910390f35b34801561030557600080fd5b5061030e610f2c565b60405161031b9190614bb4565b60405180910390f35b34801561033057600080fd5b5061034b60048036038101906103469190614000565b610f39565b6040516103589190614b92565b60405180910390f35b34801561036d57600080fd5b5061038860048036038101906103839190613eea565b611262565b005b34801561039657600080fd5b506103b160048036038101906103ac9190614000565b6112c2565b6040516103be9190614bb4565b60405180910390f35b3480156103d357600080fd5b506103ee60048036038101906103e99190613e7d565b611367565b6040516103fb919061490a565b60405180910390f35b34801561041057600080fd5b5061042b60048036038101906104269190613eea565b6113bd565b005b6104476004803603810190610442919061409a565b6113dd565b604051610454919061490a565b60405180910390f35b34801561046957600080fd5b50610484600480360381019061047f919061423b565b61151f565b005b34801561049257600080fd5b506104ad60048036038101906104a891906141b2565b611539565b6040516104ba9190614bb4565b60405180910390f35b3480156104cf57600080fd5b506104ea60048036038101906104e59190613eaa565b6115aa565b6040516104f79190614bb4565b60405180910390f35b34801561050c57600080fd5b50610515611631565b6040516105229190614bb4565b60405180910390f35b34801561053757600080fd5b50610552600480360381019061054d91906141b2565b61163b565b60405161055f9190614851565b60405180910390f35b34801561057457600080fd5b5061058f600480360381019061058a9190613e7d565b6116c2565b60405161059c9190614bb4565b60405180910390f35b3480156105b157600080fd5b506105ba61177a565b6040516105c79190614bb4565b60405180910390f35b3480156105dc57600080fd5b506105f760048036038101906105f291906141b2565b611787565b6040516106049190614b92565b60405180910390f35b34801561061957600080fd5b50610634600480360381019061062f9190613e7d565b611aa6565b6040516106419190614bb4565b60405180910390f35b34801561065657600080fd5b5061065f611ab8565b60405161066c9190614925565b60405180910390f35b34801561068157600080fd5b5061069c600480360381019061069791906140e3565b611b4a565b005b3480156106aa57600080fd5b506106c560048036038101906106c09190613fc0565b61213f565b005b3480156106d357600080fd5b506106ee60048036038101906106e99190613e7d565b612155565b6040516106fb9190614925565b60405180910390f35b34801561071057600080fd5b50610719612226565b6040516107269190614bb4565b60405180910390f35b34801561073b57600080fd5b50610744612230565b60405161075191906148e8565b60405180910390f35b34801561076657600080fd5b50610781600480360381019061077c9190613f3d565b612572565b005b34801561078f57600080fd5b506107aa60048036038101906107a591906141b2565b6125d4565b6040516107b79190614925565b60405180910390f35b3480156107cc57600080fd5b506107e760048036038101906107e29190613eaa565b61263c565b6040516107f4919061490a565b60405180910390f35b60007f780e9d63000000000000000000000000000000000000000000000000000000007bffffffffffffffffffffffffffffffffffffffffffffffffffffffff1916827bffffffffffffffffffffffffffffffffffffffffffffffffffffffff19161480610870575061086f826126d0565b5b9050919050565b60606065805461088690614f47565b80601f01602080910402602001604051908101604052809291908181526020018280546108b290614f47565b80156108ff5780601f106108d4576101008083540402835291602001916108ff565b820191906000526020600020905b8154815290600101906020018083116108e257829003601f168201915b5050505050905090565b6000610914826127b2565b6069600083815260200190815260200160002060009054906101000a900473ffffffffffffffffffffffffffffffffffffffff169050919050565b600061095a8261163b565b90508073ffffffffffffffffffffffffffffffffffffffff168373ffffffffffffffffffffffffffffffffffffffff1614156109cb576040517f08c379a00000000000000000000000000000000000000000000000000000000081526004016109c290614b12565b60405180910390fd5b8073ffffffffffffffffffffffffffffffffffffffff166109ea6127fd565b73ffffffffffffffffffffffffffffffffffffffff161480610a195750610a1881610a136127fd565b61263c565b5b610a58576040517f08c379a0000000000000000000000000000000000000000000000000000000008152600401610a4f90614b32565b60405180910390fd5b610a628383612805565b505050565b600060cd60003373ffffffffffffffffffffffffffffffffffffffff1673ffffffffffffffffffffffffffffffffffffffff16815260200190815260200160002060009054906101000a900460ff1615610b8f5760cc543414610af6576040517f7d604d0e00000000000000000000000000000000000000000000000000000000815260040160405180910390fd5b600160ce60003373ffffffffffffffffffffffffffffffffffffffff1673ffffffffffffffffffffffffffffffffffffffff16815260200190815260200160002060003373ffffffffffffffffffffffffffffffffffffffff1673ffffffffffffffffffffffffffffffffffffffff1681526020019081526020016000206000828254610b839190614d78565b92505081905550610cab565b60cb543414610bca576040517f7d604d0e00000000000000000000000000000000000000000000000000000000815260040160405180910390fd5b600160cd60003373ffffffffffffffffffffffffffffffffffffffff1673ffffffffffffffffffffffffffffffffffffffff16815260200190815260200160002060006101000a81548160ff021916908315150217905550600a63ffffffff1660ce60003373ffffffffffffffffffffffffffffffffffffffff1673ffffffffffffffffffffffffffffffffffffffff16815260200190815260200160002060003373ffffffffffffffffffffffffffffffffffffffff1673ffffffffffffffffffffffffffffffffffffffff168152602001908152602001600020819055505b6001905090565b600080151560d060003373ffffffffffffffffffffffffffffffffffffffff1673ffffffffffffffffffffffffffffffffffffffff16815260200190815260200160002060009054906101000a900460ff1615151415610d3e576040517fe11cd5be00000000000000000000000000000000000000000000000000000000815260040160405180910390fd5b600a63ffffffff16831115610d7f576040517f667d7a4800000000000000000000000000000000000000000000000000000000815260040160405180910390fd5b8260cc54610d8d9190614dce565b3414610dc5576040517f7d604d0e00000000000000000000000000000000000000000000000000000000815260040160405180910390fd5b81518314610dff576040517f0a84927600000000000000000000000000000000000000000000000000000000815260040160405180910390fd5b600033905060005b84811015610ed057600160ce6000868481518110610e2857610e276150de565b5b602002602001015173ffffffffffffffffffffffffffffffffffffffff1673ffffffffffffffffffffffffffffffffffffffff16815260200190815260200160002060008473ffffffffffffffffffffffffffffffffffffffff1673ffffffffffffffffffffffffffffffffffffffff1681526020019081526020016000206000828254610eb69190614d78565b925050819055508080610ec890614faa565b915050610e07565b503373ffffffffffffffffffffffffffffffffffffffff167f6df9081c5ded9cff457e4b66eb4d5c66a49bf08ded297c2887204b850a1354898486604051610f199291906148b8565b60405180910390a2600191505092915050565b6000609980549050905090565b610f41613b8e565b60c9610f4d84846112c2565b81548110610f5e57610f5d6150de565b5b90600052602060002090600702016040518060e0016040529081600082018054610f8790614f47565b80601f0160208091040260200160405190810160405280929190818152602001828054610fb390614f47565b80156110005780601f10610fd557610100808354040283529160200191611000565b820191906000526020600020905b815481529060010190602001808311610fe357829003601f168201915b5050505050815260200160018201805461101990614f47565b80601f016020809104026020016040519081016040528092919081815260200182805461104590614f47565b80156110925780601f1061106757610100808354040283529160200191611092565b820191906000526020600020905b81548152906001019060200180831161107557829003601f168201915b505050505081526020016002820180546110ab90614f47565b80601f01602080910402602001604051908101604052809291908181526020018280546110d790614f47565b80156111245780601f106110f957610100808354040283529160200191611124565b820191906000526020600020905b81548152906001019060200180831161110757829003601f168201915b5050505050815260200160038201805461113d90614f47565b80601f016020809104026020016040519081016040528092919081815260200182805461116990614f47565b80156111b65780601f1061118b576101008083540402835291602001916111b6565b820191906000526020600020905b81548152906001019060200180831161119957829003601f168201915b505050505081526020016004820160009054906101000a900460ff1660018111156111e4576111e3615051565b5b60018111156111f6576111f5615051565b5b8152602001600582015481526020016006820160009054906101000a900473ffffffffffffffffffffffffffffffffffffffff1673ffffffffffffffffffffffffffffffffffffffff1673ffffffffffffffffffffffffffffffffffffffff1681525050905092915050565b61127361126d6127fd565b826128be565b6112b2576040517f08c379a00000000000000000000000000000000000000000000000000000000081526004016112a9906149d2565b60405180910390fd5b6112bd838383612953565b505050565b60006112cd836116c2565b821061130e576040517f08c379a0000000000000000000000000000000000000000000000000000000008152600401611305906149f2565b60405180910390fd5b609760008473ffffffffffffffffffffffffffffffffffffffff1673ffffffffffffffffffffffffffffffffffffffff168152602001908152602001600020600083815260200190815260200160002054905092915050565b600060cd60008373ffffffffffffffffffffffffffffffffffffffff1673ffffffffffffffffffffffffffffffffffffffff16815260200190815260200160002060009054906101000a900460ff169050919050565b6113d883838360405180602001604052806000815250612572565b505050565b600060ca54341461141a576040517f7d604d0e00000000000000000000000000000000000000000000000000000000815260040160405180910390fd5b600160d060003373ffffffffffffffffffffffffffffffffffffffff1673ffffffffffffffffffffffffffffffffffffffff16815260200190815260200160002060006101000a81548160ff0219169083151502179055508160d160003373ffffffffffffffffffffffffffffffffffffffff1673ffffffffffffffffffffffffffffffffffffffff16815260200190815260200160002090805190602001906114c5929190613bf3565b503373ffffffffffffffffffffffffffffffffffffffff167f72d0050d8f1a0f19ace5b1f50e8b5333308c60902442b7444a65cfffbad884e7348460405161150e929190614bcf565b60405180910390a260019050919050565b8260cb819055508160cc819055508060ca81905550505050565b6000611543610f2c565b8210611584576040517f08c379a000000000000000000000000000000000000000000000000000000000815260040161157b90614b52565b60405180910390fd5b60998281548110611598576115976150de565b5b90600052602060002001549050919050565b600060ce60008473ffffffffffffffffffffffffffffffffffffffff1673ffffffffffffffffffffffffffffffffffffffff16815260200190815260200160002060008373ffffffffffffffffffffffffffffffffffffffff1673ffffffffffffffffffffffffffffffffffffffff16815260200190815260200160002054905092915050565b600060cb54905090565b600080611647836129be565b9050600073ffffffffffffffffffffffffffffffffffffffff168173ffffffffffffffffffffffffffffffffffffffff1614156116b9576040517f08c379a00000000000000000000000000000000000000000000000000000000081526004016116b090614af2565b60405180910390fd5b80915050919050565b60008073ffffffffffffffffffffffffffffffffffffffff168273ffffffffffffffffffffffffffffffffffffffff161415611733576040517f08c379a000000000000000000000000000000000000000000000000000000000815260040161172a90614ab2565b60405180910390fd5b606860008373ffffffffffffffffffffffffffffffffffffffff1673ffffffffffffffffffffffffffffffffffffffff168152602001908152602001600020549050919050565b600060c980549050905090565b61178f613b8e565b60c982815481106117a3576117a26150de565b5b90600052602060002090600702016040518060e00160405290816000820180546117cc90614f47565b80601f01602080910402602001604051908101604052809291908181526020018280546117f890614f47565b80156118455780601f1061181a57610100808354040283529160200191611845565b820191906000526020600020905b81548152906001019060200180831161182857829003601f168201915b5050505050815260200160018201805461185e90614f47565b80601f016020809104026020016040519081016040528092919081815260200182805461188a90614f47565b80156118d75780601f106118ac576101008083540402835291602001916118d7565b820191906000526020600020905b8154815290600101906020018083116118ba57829003601f168201915b505050505081526020016002820180546118f090614f47565b80601f016020809104026020016040519081016040528092919081815260200182805461191c90614f47565b80156119695780601f1061193e57610100808354040283529160200191611969565b820191906000526020600020905b81548152906001019060200180831161194c57829003601f168201915b5050505050815260200160038201805461198290614f47565b80601f01602080910402602001604051908101604052809291908181526020018280546119ae90614f47565b80156119fb5780601f106119d0576101008083540402835291602001916119fb565b820191906000526020600020905b8154815290600101906020018083116119de57829003601f168201915b505050505081526020016004820160009054906101000a900460ff166001811115611a2957611a28615051565b5b6001811115611a3b57611a3a615051565b5b8152602001600582015481526020016006820160009054906101000a900473ffffffffffffffffffffffffffffffffffffffff1673ffffffffffffffffffffffffffffffffffffffff1673ffffffffffffffffffffffffffffffffffffffff16815250509050919050565b6000611ab1826116c2565b9050919050565b606060668054611ac790614f47565b80601f0160208091040260200160405190810160405280929190818152602001828054611af390614f47565b8015611b405780601f10611b1557610100808354040283529160200191611b40565b820191906000526020600020905b815481529060010190602001808311611b2357829003601f168201915b5050505050905090565b81600060ce60003373ffffffffffffffffffffffffffffffffffffffff1673ffffffffffffffffffffffffffffffffffffffff16815260200190815260200160002060008373ffffffffffffffffffffffffffffffffffffffff1673ffffffffffffffffffffffffffffffffffffffff1681526020019081526020016000205411158015611c555750600060ce60003373ffffffffffffffffffffffffffffffffffffffff1673ffffffffffffffffffffffffffffffffffffffff16815260200190815260200160002060003373ffffffffffffffffffffffffffffffffffffffff1673ffffffffffffffffffffffffffffffffffffffff1681526020019081526020016000205411155b15611c8c576040517f5594523c00000000000000000000000000000000000000000000000000000000815260040160405180910390fd5b600082855187518951611c9f9190614dce565b611ca99190614dce565b611cb39190614dce565b1480611ceb5750600073ffffffffffffffffffffffffffffffffffffffff168373ffffffffffffffffffffffffffffffffffffffff16145b15611d22576040517fb73f7ba500000000000000000000000000000000000000000000000000000000815260040160405180910390fd5b60008060d160008673ffffffffffffffffffffffffffffffffffffffff1673ffffffffffffffffffffffffffffffffffffffff1681526020019081526020016000208054611d6f90614f47565b80601f0160208091040260200160405190810160405280929190818152602001828054611d9b90614f47565b8015611de85780601f10611dbd57610100808354040283529160200191611de8565b820191906000526020600020905b815481529060010190602001808311611dcb57829003601f168201915b50505050509050600081511480611e2a57508473ffffffffffffffffffffffffffffffffffffffff163373ffffffffffffffffffffffffffffffffffffffff16145b15611e385760009150611e3d565b600191505b60006040518060e001604052808a81526020018981526020018881526020016000845114611e6b5783611ea2565b6040518060400160405280600381526020017f4e2f4100000000000000000000000000000000000000000000000000000000008152505b8152602001846001811115611eba57611eb9615051565b5b81526020018681526020013373ffffffffffffffffffffffffffffffffffffffff16815250905060c98190806001815401808255809150506001900390600052602060002090600702016000909190919091506000820151816000019080519060200190611f29929190613bf3565b506020820151816001019080519060200190611f46929190613bf3565b506040820151816002019080519060200190611f63929190613bf3565b506060820151816003019080519060200190611f80929190613bf3565b5060808201518160040160006101000a81548160ff02191690836001811115611fac57611fab615051565b5b021790555060a0820151816005015560c08201518160060160006101000a81548173ffffffffffffffffffffffffffffffffffffffff021916908373ffffffffffffffffffffffffffffffffffffffff16021790555050506000600160c9805490506120189190614e28565b9050600160ce60003373ffffffffffffffffffffffffffffffffffffffff1673ffffffffffffffffffffffffffffffffffffffff16815260200190815260200160002060003373ffffffffffffffffffffffffffffffffffffffff1673ffffffffffffffffffffffffffffffffffffffff16815260200190815260200160002060008282546120a79190614e28565b925050819055506120b833826129fb565b6001808111156120cb576120ca615051565b5b8460018111156120de576120dd615051565b5b14156120ef576120ee878261094f565b5b807fca415781ccaae1268e94422f031b13473b48954405dfbf56e4578b2d2079fbcf8b8b8b87898c3360405161212b9796959493929190614947565b60405180910390a250505050505050505050565b61215161214a6127fd565b8383612a19565b5050565b606060d160008373ffffffffffffffffffffffffffffffffffffffff1673ffffffffffffffffffffffffffffffffffffffff16815260200190815260200160002080546121a190614f47565b80601f01602080910402602001604051908101604052809291908181526020018280546121cd90614f47565b801561221a5780601f106121ef5761010080835404028352916020019161221a565b820191906000526020600020905b8154815290600101906020018083116121fd57829003601f168201915b50505050509050919050565b600060cc54905090565b606060c9805480602002602001604051908101604052809291908181526020016000905b8282101561256957838290600052602060002090600702016040518060e001604052908160008201805461228790614f47565b80601f01602080910402602001604051908101604052809291908181526020018280546122b390614f47565b80156123005780601f106122d557610100808354040283529160200191612300565b820191906000526020600020905b8154815290600101906020018083116122e357829003601f168201915b5050505050815260200160018201805461231990614f47565b80601f016020809104026020016040519081016040528092919081815260200182805461234590614f47565b80156123925780601f1061236757610100808354040283529160200191612392565b820191906000526020600020905b81548152906001019060200180831161237557829003601f168201915b505050505081526020016002820180546123ab90614f47565b80601f01602080910402602001604051908101604052809291908181526020018280546123d790614f47565b80156124245780601f106123f957610100808354040283529160200191612424565b820191906000526020600020905b81548152906001019060200180831161240757829003601f168201915b5050505050815260200160038201805461243d90614f47565b80601f016020809104026020016040519081016040528092919081815260200182805461246990614f47565b80156124b65780601f1061248b576101008083540402835291602001916124b6565b820191906000526020600020905b81548152906001019060200180831161249957829003601f168201915b505050505081526020016004820160009054906101000a900460ff1660018111156124e4576124e3615051565b5b60018111156124f6576124f5615051565b5b8152602001600582015481526020016006820160009054906101000a900473ffffffffffffffffffffffffffffffffffffffff1673ffffffffffffffffffffffffffffffffffffffff1673ffffffffffffffffffffffffffffffffffffffff168152505081526020019060010190612254565b50505050905090565b61258361257d6127fd565b836128be565b6125c2576040517f08c379a00000000000000000000000000000000000000000000000000000000081526004016125b9906149d2565b60405180910390fd5b6125ce84848484612b86565b50505050565b60606125df826127b2565b60006125e9612be2565b905060008151116126095760405180602001604052806000815250612634565b8061261384612bf9565b60405160200161262492919061482d565b6040516020818303038152906040525b915050919050565b6000606a60008473ffffffffffffffffffffffffffffffffffffffff1673ffffffffffffffffffffffffffffffffffffffff16815260200190815260200160002060008373ffffffffffffffffffffffffffffffffffffffff1673ffffffffffffffffffffffffffffffffffffffff16815260200190815260200160002060009054906101000a900460ff16905092915050565b60007f80ac58cd000000000000000000000000000000000000000000000000000000007bffffffffffffffffffffffffffffffffffffffffffffffffffffffff1916827bffffffffffffffffffffffffffffffffffffffffffffffffffffffff1916148061279b57507f5b5e139f000000000000000000000000000000000000000000000000000000007bffffffffffffffffffffffffffffffffffffffffffffffffffffffff1916827bffffffffffffffffffffffffffffffffffffffffffffffffffffffff1916145b806127ab57506127aa82612cd1565b5b9050919050565b6127bb81612d3b565b6127fa576040517f08c379a00000000000000000000000000000000000000000000000000000000081526004016127f190614af2565b60405180910390fd5b50565b600033905090565b816069600083815260200190815260200160002060006101000a81548173ffffffffffffffffffffffffffffffffffffffff021916908373ffffffffffffffffffffffffffffffffffffffff160217905550808273ffffffffffffffffffffffffffffffffffffffff166128788361163b565b73ffffffffffffffffffffffffffffffffffffffff167f8c5be1e5ebec7d5bd14f71427d1e84f3dd0314c0f7b2291e5b200ac8c7c3b92560405160405180910390a45050565b6000806128ca8361163b565b90508073ffffffffffffffffffffffffffffffffffffffff168473ffffffffffffffffffffffffffffffffffffffff16148061290c575061290b818561263c565b5b8061294a57508373ffffffffffffffffffffffffffffffffffffffff1661293284610909565b73ffffffffffffffffffffffffffffffffffffffff16145b91505092915050565b61295e838383612d7c565b8173ffffffffffffffffffffffffffffffffffffffff168373ffffffffffffffffffffffffffffffffffffffff16827fa39c1232e046ab0ad1c4221e11516a35ad636b4eb5a7acaabbfd44eaca8fe00760405160405180910390a4505050565b60006067600083815260200190815260200160002060009054906101000a900473ffffffffffffffffffffffffffffffffffffffff169050919050565b612a15828260405180602001604052806000815250613076565b5050565b8173ffffffffffffffffffffffffffffffffffffffff168373ffffffffffffffffffffffffffffffffffffffff161415612a88576040517f08c379a0000000000000000000000000000000000000000000000000000000008152600401612a7f90614a92565b60405180910390fd5b80606a60008573ffffffffffffffffffffffffffffffffffffffff1673ffffffffffffffffffffffffffffffffffffffff16815260200190815260200160002060008473ffffffffffffffffffffffffffffffffffffffff1673ffffffffffffffffffffffffffffffffffffffff16815260200190815260200160002060006101000a81548160ff0219169083151502179055508173ffffffffffffffffffffffffffffffffffffffff168373ffffffffffffffffffffffffffffffffffffffff167f17307eab39ab6107e8899845ad3d59bd9653f200f220920489ca2b5937696c3183604051612b79919061490a565b60405180910390a3505050565b612b91848484612953565b612b9d848484846130d1565b612bdc576040517f08c379a0000000000000000000000000000000000000000000000000000000008152600401612bd390614a12565b60405180910390fd5b50505050565b606060405180602001604052806000815250905090565b606060006001612c0884613268565b01905060008167ffffffffffffffff811115612c2757612c2661510d565b5b6040519080825280601f01601f191660200182016040528015612c595781602001600182028036833780820191505090505b509050600082602001820190505b600115612cc6578080600190039150507f3031323334353637383961626364656600000000000000000000000000000000600a86061a8153600a8581612cb057612caf615022565b5b0494506000851415612cc157612cc6565b612c67565b819350505050919050565b60007f01ffc9a7000000000000000000000000000000000000000000000000000000007bffffffffffffffffffffffffffffffffffffffffffffffffffffffff1916827bffffffffffffffffffffffffffffffffffffffffffffffffffffffff1916149050919050565b60008073ffffffffffffffffffffffffffffffffffffffff16612d5d836129be565b73ffffffffffffffffffffffffffffffffffffffff1614159050919050565b8273ffffffffffffffffffffffffffffffffffffffff16612d9c8261163b565b73ffffffffffffffffffffffffffffffffffffffff1614612df2576040517f08c379a0000000000000000000000000000000000000000000000000000000008152600401612de990614a32565b60405180910390fd5b600073ffffffffffffffffffffffffffffffffffffffff168273ffffffffffffffffffffffffffffffffffffffff161415612e62576040517f08c379a0000000000000000000000000000000000000000000000000000000008152600401612e5990614a72565b60405180910390fd5b612e6f83838360016133bb565b8273ffffffffffffffffffffffffffffffffffffffff16612e8f8261163b565b73ffffffffffffffffffffffffffffffffffffffff1614612ee5576040517f08c379a0000000000000000000000000000000000000000000000000000000008152600401612edc90614a32565b60405180910390fd5b6069600082815260200190815260200160002060006101000a81549073ffffffffffffffffffffffffffffffffffffffff02191690556001606860008573ffffffffffffffffffffffffffffffffffffffff1673ffffffffffffffffffffffffffffffffffffffff168152602001908152602001600020600082825403925050819055506001606860008473ffffffffffffffffffffffffffffffffffffffff1673ffffffffffffffffffffffffffffffffffffffff16815260200190815260200160002060008282540192505081905550816067600083815260200190815260200160002060006101000a81548173ffffffffffffffffffffffffffffffffffffffff021916908373ffffffffffffffffffffffffffffffffffffffff160217905550808273ffffffffffffffffffffffffffffffffffffffff168473ffffffffffffffffffffffffffffffffffffffff167fddf252ad1be2c89b69c2b068fc378daa952ba7f163c4a11628f55a4df523b3ef60405160405180910390a4613071838383600161351b565b505050565b6130808383613521565b61308d60008484846130d1565b6130cc576040517f08c379a00000000000000000000000000000000000000000000000000000000081526004016130c390614a12565b60405180910390fd5b505050565b60006130f28473ffffffffffffffffffffffffffffffffffffffff1661373f565b1561325b578373ffffffffffffffffffffffffffffffffffffffff1663150b7a0261311b6127fd565b8786866040518563ffffffff1660e01b815260040161313d949392919061486c565b602060405180830381600087803b15801561315757600080fd5b505af192505050801561318857506040513d601f19601f82011682018060405250810190613185919061406d565b60015b61320b573d80600081146131b8576040519150601f19603f3d011682016040523d82523d6000602084013e6131bd565b606091505b50600081511415613203576040517f08c379a00000000000000000000000000000000000000000000000000000000081526004016131fa90614a12565b60405180910390fd5b805181602001fd5b63150b7a0260e01b7bffffffffffffffffffffffffffffffffffffffffffffffffffffffff1916817bffffffffffffffffffffffffffffffffffffffffffffffffffffffff191614915050613260565b600190505b949350505050565b600080600090507a184f03e93ff9f4daa797ed6e38ed64bf6a1f01000000000000000083106132c6577a184f03e93ff9f4daa797ed6e38ed64bf6a1f01000000000000000083816132bc576132bb615022565b5b0492506040810190505b6d04ee2d6d415b85acef81000000008310613303576d04ee2d6d415b85acef810000000083816132f9576132f8615022565b5b0492506020810190505b662386f26fc10000831061333257662386f26fc10000838161332857613327615022565b5b0492506010810190505b6305f5e100831061335b576305f5e100838161335157613350615022565b5b0492506008810190505b612710831061338057612710838161337657613375615022565b5b0492506004810190505b606483106133a3576064838161339957613398615022565b5b0492506002810190505b600a83106133b2576001810190505b80915050919050565b6133c784848484613762565b600181111561340b576040517f08c379a000000000000000000000000000000000000000000000000000000000815260040161340290614b72565b60405180910390fd5b6000829050600073ffffffffffffffffffffffffffffffffffffffff168573ffffffffffffffffffffffffffffffffffffffff1614156134535761344e81613888565b613492565b8373ffffffffffffffffffffffffffffffffffffffff168573ffffffffffffffffffffffffffffffffffffffff16146134915761349085826138d1565b5b5b600073ffffffffffffffffffffffffffffffffffffffff168473ffffffffffffffffffffffffffffffffffffffff1614156134d5576134d081613a3e565b613514565b8473ffffffffffffffffffffffffffffffffffffffff168473ffffffffffffffffffffffffffffffffffffffff1614613513576135128482613b0f565b5b5b5050505050565b50505050565b600073ffffffffffffffffffffffffffffffffffffffff168273ffffffffffffffffffffffffffffffffffffffff161415613591576040517f08c379a000000000000000000000000000000000000000000000000000000000815260040161358890614ad2565b60405180910390fd5b61359a81612d3b565b156135da576040517f08c379a00000000000000000000000000000000000000000000000000000000081526004016135d190614a52565b60405180910390fd5b6135e86000838360016133bb565b6135f181612d3b565b15613631576040517f08c379a000000000000000000000000000000000000000000000000000000000815260040161362890614a52565b60405180910390fd5b6001606860008473ffffffffffffffffffffffffffffffffffffffff1673ffffffffffffffffffffffffffffffffffffffff16815260200190815260200160002060008282540192505081905550816067600083815260200190815260200160002060006101000a81548173ffffffffffffffffffffffffffffffffffffffff021916908373ffffffffffffffffffffffffffffffffffffffff160217905550808273ffffffffffffffffffffffffffffffffffffffff16600073ffffffffffffffffffffffffffffffffffffffff167fddf252ad1be2c89b69c2b068fc378daa952ba7f163c4a11628f55a4df523b3ef60405160405180910390a461373b60008383600161351b565b5050565b6000808273ffffffffffffffffffffffffffffffffffffffff163b119050919050565b600181111561388257600073ffffffffffffffffffffffffffffffffffffffff168473ffffffffffffffffffffffffffffffffffffffff16146137f65780606860008673ffffffffffffffffffffffffffffffffffffffff1673ffffffffffffffffffffffffffffffffffffffff16815260200190815260200160002060008282546137ee9190614e28565b925050819055505b600073ffffffffffffffffffffffffffffffffffffffff168373ffffffffffffffffffffffffffffffffffffffff16146138815780606860008573ffffffffffffffffffffffffffffffffffffffff1673ffffffffffffffffffffffffffffffffffffffff16815260200190815260200160002060008282546138799190614d78565b925050819055505b5b50505050565b609980549050609a600083815260200190815260200160002081905550609981908060018154018082558091505060019003906000526020600020016000909190919091505550565b600060016138de846116c2565b6138e89190614e28565b90506000609860008481526020019081526020016000205490508181146139cd576000609760008673ffffffffffffffffffffffffffffffffffffffff1673ffffffffffffffffffffffffffffffffffffffff168152602001908152602001600020600084815260200190815260200160002054905080609760008773ffffffffffffffffffffffffffffffffffffffff1673ffffffffffffffffffffffffffffffffffffffff168152602001908152602001600020600084815260200190815260200160002081905550816098600083815260200190815260200160002081905550505b6098600084815260200190815260200160002060009055609760008573ffffffffffffffffffffffffffffffffffffffff1673ffffffffffffffffffffffffffffffffffffffff16815260200190815260200160002060008381526020019081526020016000206000905550505050565b60006001609980549050613a529190614e28565b90506000609a6000848152602001908152602001600020549050600060998381548110613a8257613a816150de565b5b906000526020600020015490508060998381548110613aa457613aa36150de565b5b906000526020600020018190555081609a600083815260200190815260200160002081905550609a6000858152602001908152602001600020600090556099805480613af357613af26150af565b5b6001900381819060005260206000200160009055905550505050565b6000613b1a836116c2565b905081609760008573ffffffffffffffffffffffffffffffffffffffff1673ffffffffffffffffffffffffffffffffffffffff168152602001908152602001600020600083815260200190815260200160002081905550806098600084815260200190815260200160002081905550505050565b6040518060e001604052806060815260200160608152602001606081526020016060815260200160006001811115613bc957613bc8615051565b5b815260200160008152602001600073ffffffffffffffffffffffffffffffffffffffff1681525090565b828054613bff90614f47565b90600052602060002090601f016020900481019282613c215760008555613c68565b82601f10613c3a57805160ff1916838001178555613c68565b82800160010185558215613c68579182015b82811115613c67578251825591602001919060010190613c4c565b5b509050613c759190613c79565b5090565b5b80821115613c92576000816000905550600101613c7a565b5090565b6000613ca9613ca484614c24565b614bff565b90508083825260208201905082856020860282011115613ccc57613ccb615141565b5b60005b85811015613cfc5781613ce28882613d8a565b845260208401935060208301925050600181019050613ccf565b5050509392505050565b6000613d19613d1484614c50565b614bff565b905082815260208101848484011115613d3557613d34615146565b5b613d40848285614f05565b509392505050565b6000613d5b613d5684614c81565b614bff565b905082815260208101848484011115613d7757613d76615146565b5b613d82848285614f05565b509392505050565b600081359050613d9981615534565b92915050565b600082601f830112613db457613db361513c565b5b8135613dc4848260208601613c96565b91505092915050565b600081359050613ddc8161554b565b92915050565b600081359050613df181615562565b92915050565b600081519050613e0681615562565b92915050565b600082601f830112613e2157613e2061513c565b5b8135613e31848260208601613d06565b91505092915050565b600082601f830112613e4f57613e4e61513c565b5b8135613e5f848260208601613d48565b91505092915050565b600081359050613e7781615579565b92915050565b600060208284031215613e9357613e92615150565b5b6000613ea184828501613d8a565b91505092915050565b60008060408385031215613ec157613ec0615150565b5b6000613ecf85828601613d8a565b9250506020613ee085828601613d8a565b9150509250929050565b600080600060608486031215613f0357613f02615150565b5b6000613f1186828701613d8a565b9350506020613f2286828701613d8a565b9250506040613f3386828701613e68565b9150509250925092565b60008060008060808587031215613f5757613f56615150565b5b6000613f6587828801613d8a565b9450506020613f7687828801613d8a565b9350506040613f8787828801613e68565b925050606085013567ffffffffffffffff811115613fa857613fa761514b565b5b613fb487828801613e0c565b91505092959194509250565b60008060408385031215613fd757613fd6615150565b5b6000613fe585828601613d8a565b9250506020613ff685828601613dcd565b9150509250929050565b6000806040838503121561401757614016615150565b5b600061402585828601613d8a565b925050602061403685828601613e68565b9150509250929050565b60006020828403121561405657614055615150565b5b600061406484828501613de2565b91505092915050565b60006020828403121561408357614082615150565b5b600061409184828501613df7565b91505092915050565b6000602082840312156140b0576140af615150565b5b600082013567ffffffffffffffff8111156140ce576140cd61514b565b5b6140da84828501613e3a565b91505092915050565b600080600080600060a086880312156140ff576140fe615150565b5b600086013567ffffffffffffffff81111561411d5761411c61514b565b5b61412988828901613e3a565b955050602086013567ffffffffffffffff81111561414a5761414961514b565b5b61415688828901613e3a565b945050604086013567ffffffffffffffff8111156141775761417661514b565b5b61418388828901613e3a565b935050606061419488828901613d8a565b92505060806141a588828901613e68565b9150509295509295909350565b6000602082840312156141c8576141c7615150565b5b60006141d684828501613e68565b91505092915050565b600080604083850312156141f6576141f5615150565b5b600061420485828601613e68565b925050602083013567ffffffffffffffff8111156142255761422461514b565b5b61423185828601613d9f565b9150509250929050565b60008060006060848603121561425457614253615150565b5b600061426286828701613e68565b935050602061427386828701613e68565b925050604061428486828701613e68565b9150509250925092565b600061429a83836142ba565b60208301905092915050565b60006142b2838361469e565b905092915050565b6142c381614e5c565b82525050565b6142d281614e5c565b82525050565b60006142e382614cd2565b6142ed8185614d18565b93506142f883614cb2565b8060005b83811015614329578151614310888261428e565b975061431b83614cfe565b9250506001810190506142fc565b5085935050505092915050565b600061434182614cdd565b61434b8185614d29565b93508360208202850161435d85614cc2565b8060005b85811015614399578484038952815161437a85826142a6565b945061438583614d0b565b925060208a01995050600181019050614361565b50829750879550505050505092915050565b6143b481614e6e565b82525050565b60006143c582614ce8565b6143cf8185614d3a565b93506143df818560208601614f14565b6143e881615155565b840191505092915050565b6143fc81614ef3565b82525050565b61440b81614ef3565b82525050565b600061441c82614cf3565b6144268185614d4b565b9350614436818560208601614f14565b61443f81615155565b840191505092915050565b600061445582614cf3565b61445f8185614d5c565b935061446f818560208601614f14565b61447881615155565b840191505092915050565b600061448e82614cf3565b6144988185614d6d565b93506144a8818560208601614f14565b80840191505092915050565b60006144c1602d83614d5c565b91506144cc82615166565b604082019050919050565b60006144e4602b83614d5c565b91506144ef826151b5565b604082019050919050565b6000614507603283614d5c565b915061451282615204565b604082019050919050565b600061452a602583614d5c565b915061453582615253565b604082019050919050565b600061454d601c83614d5c565b9150614558826152a2565b602082019050919050565b6000614570602483614d5c565b915061457b826152cb565b604082019050919050565b6000614593601983614d5c565b915061459e8261531a565b602082019050919050565b60006145b6602983614d5c565b91506145c182615343565b604082019050919050565b60006145d9602083614d5c565b91506145e482615392565b602082019050919050565b60006145fc601883614d5c565b9150614607826153bb565b602082019050919050565b600061461f602183614d5c565b915061462a826153e4565b604082019050919050565b6000614642603d83614d5c565b915061464d82615433565b604082019050919050565b6000614665602c83614d5c565b915061467082615482565b604082019050919050565b6000614688603583614d5c565b9150614693826154d1565b604082019050919050565b600060e08301600083015184820360008601526146bb8282614411565b915050602083015184820360208601526146d58282614411565b915050604083015184820360408601526146ef8282614411565b915050606083015184820360608601526147098282614411565b915050608083015161471e60808601826143f3565b5060a083015161473160a0860182614800565b5060c083015161474460c08601826142ba565b508091505092915050565b600060e083016000830151848203600086015261476c8282614411565b915050602083015184820360208601526147868282614411565b915050604083015184820360408601526147a08282614411565b915050606083015184820360608601526147ba8282614411565b91505060808301516147cf60808601826143f3565b5060a08301516147e260a0860182614800565b5060c08301516147f560c08601826142ba565b508091505092915050565b61480981614ed9565b82525050565b61481881614ed9565b82525050565b61482781614ee3565b82525050565b60006148398285614483565b91506148458284614483565b91508190509392505050565b600060208201905061486660008301846142c9565b92915050565b600060808201905061488160008301876142c9565b61488e60208301866142c9565b61489b604083018561480f565b81810360608301526148ad81846143ba565b905095945050505050565b600060408201905081810360008301526148d281856142d8565b90506148e1602083018461481e565b9392505050565b600060208201905081810360008301526149028184614336565b905092915050565b600060208201905061491f60008301846143ab565b92915050565b6000602082019050818103600083015261493f818461444a565b905092915050565b600060e0820190508181036000830152614961818a61444a565b90508181036020830152614975818961444a565b90508181036040830152614989818861444a565b9050818103606083015261499d818761444a565b90506149ac6080830186614402565b6149b960a083018561480f565b6149c660c08301846142c9565b98975050505050505050565b600060208201905081810360008301526149eb816144b4565b9050919050565b60006020820190508181036000830152614a0b816144d7565b9050919050565b60006020820190508181036000830152614a2b816144fa565b9050919050565b60006020820190508181036000830152614a4b8161451d565b9050919050565b60006020820190508181036000830152614a6b81614540565b9050919050565b60006020820190508181036000830152614a8b81614563565b9050919050565b60006020820190508181036000830152614aab81614586565b9050919050565b60006020820190508181036000830152614acb816145a9565b9050919050565b60006020820190508181036000830152614aeb816145cc565b9050919050565b60006020820190508181036000830152614b0b816145ef565b9050919050565b60006020820190508181036000830152614b2b81614612565b9050919050565b60006020820190508181036000830152614b4b81614635565b9050919050565b60006020820190508181036000830152614b6b81614658565b9050919050565b60006020820190508181036000830152614b8b8161467b565b9050919050565b60006020820190508181036000830152614bac818461474f565b905092915050565b6000602082019050614bc9600083018461480f565b92915050565b6000604082019050614be4600083018561480f565b8181036020830152614bf6818461444a565b90509392505050565b6000614c09614c1a565b9050614c158282614f79565b919050565b6000604051905090565b600067ffffffffffffffff821115614c3f57614c3e61510d565b5b602082029050602081019050919050565b600067ffffffffffffffff821115614c6b57614c6a61510d565b5b614c7482615155565b9050602081019050919050565b600067ffffffffffffffff821115614c9c57614c9b61510d565b5b614ca582615155565b9050602081019050919050565b6000819050602082019050919050565b6000819050602082019050919050565b600081519050919050565b600081519050919050565b600081519050919050565b600081519050919050565b6000602082019050919050565b6000602082019050919050565b600082825260208201905092915050565b600082825260208201905092915050565b600082825260208201905092915050565b600082825260208201905092915050565b600082825260208201905092915050565b600081905092915050565b6000614d8382614ed9565b9150614d8e83614ed9565b9250827fffffffffffffffffffffffffffffffffffffffffffffffffffffffffffffffff03821115614dc357614dc2614ff3565b5b828201905092915050565b6000614dd982614ed9565b9150614de483614ed9565b9250817fffffffffffffffffffffffffffffffffffffffffffffffffffffffffffffffff0483118215151615614e1d57614e1c614ff3565b5b828202905092915050565b6000614e3382614ed9565b9150614e3e83614ed9565b925082821015614e5157614e50614ff3565b5b828203905092915050565b6000614e6782614eb9565b9050919050565b60008115159050919050565b60007fffffffff0000000000000000000000000000000000000000000000000000000082169050919050565b6000819050614eb482615520565b919050565b600073ffffffffffffffffffffffffffffffffffffffff82169050919050565b6000819050919050565b600063ffffffff82169050919050565b6000614efe82614ea6565b9050919050565b82818337600083830152505050565b60005b83811015614f32578082015181840152602081019050614f17565b83811115614f41576000848401525b50505050565b60006002820490506001821680614f5f57607f821691505b60208210811415614f7357614f72615080565b5b50919050565b614f8282615155565b810181811067ffffffffffffffff82111715614fa157614fa061510d565b5b80604052505050565b6000614fb582614ed9565b91507fffffffffffffffffffffffffffffffffffffffffffffffffffffffffffffffff821415614fe857614fe7614ff3565b5b600182019050919050565b7f4e487b7100000000000000000000000000000000000000000000000000000000600052601160045260246000fd5b7f4e487b7100000000000000000000000000000000000000000000000000000000600052601260045260246000fd5b7f4e487b7100000000000000000000000000000000000000000000000000000000600052602160045260246000fd5b7f4e487b7100000000000000000000000000000000000000000000000000000000600052602260045260246000fd5b7f4e487b7100000000000000000000000000000000000000000000000000000000600052603160045260246000fd5b7f4e487b7100000000000000000000000000000000000000000000000000000000600052603260045260246000fd5b7f4e487b7100000000000000000000000000000000000000000000000000000000600052604160045260246000fd5b600080fd5b600080fd5b600080fd5b600080fd5b600080fd5b6000601f19601f8301169050919050565b7f4552433732313a2063616c6c6572206973206e6f7420746f6b656e206f776e6560008201527f72206f7220617070726f76656400000000000000000000000000000000000000602082015250565b7f455243373231456e756d657261626c653a206f776e657220696e646578206f7560008201527f74206f6620626f756e6473000000000000000000000000000000000000000000602082015250565b7f4552433732313a207472616e7366657220746f206e6f6e20455243373231526560008201527f63656976657220696d706c656d656e7465720000000000000000000000000000602082015250565b7f4552433732313a207472616e736665722066726f6d20696e636f72726563742060008201527f6f776e6572000000000000000000000000000000000000000000000000000000602082015250565b7f4552433732313a20746f6b656e20616c7265616479206d696e74656400000000600082015250565b7f4552433732313a207472616e7366657220746f20746865207a65726f2061646460008201527f7265737300000000000000000000000000000000000000000000000000000000602082015250565b7f4552433732313a20617070726f766520746f2063616c6c657200000000000000600082015250565b7f4552433732313a2061646472657373207a65726f206973206e6f74206120766160008201527f6c6964206f776e65720000000000000000000000000000000000000000000000602082015250565b7f4552433732313a206d696e7420746f20746865207a65726f2061646472657373600082015250565b7f4552433732313a20696e76616c696420746f6b656e2049440000000000000000600082015250565b7f4552433732313a20617070726f76616c20746f2063757272656e74206f776e6560008201527f7200000000000000000000000000000000000000000000000000000000000000602082015250565b7f4552433732313a20617070726f76652063616c6c6572206973206e6f7420746f60008201527f6b656e206f776e6572206f7220617070726f76656420666f7220616c6c000000602082015250565b7f455243373231456e756d657261626c653a20676c6f62616c20696e646578206f60008201527f7574206f6620626f756e64730000000000000000000000000000000000000000602082015250565b7f455243373231456e756d657261626c653a20636f6e736563757469766520747260008201527f616e7366657273206e6f7420737570706f727465640000000000000000000000602082015250565b6002811061553157615530615051565b5b50565b61553d81614e5c565b811461554857600080fd5b50565b61555481614e6e565b811461555f57600080fd5b50565b61556b81614e7a565b811461557657600080fd5b50565b61558281614ed9565b811461558d57600080fd5b5056fea2646970667358221220b79db5ef7095a330689945fa69d36574851c1f496a3731382f6ba75ddd8340fd64736f6c63430008070033",
  "linkReferences": {},
  "deployedLinkReferences": {}
}