{
  "_format": "hh-sol-artifact-1",
  "contractName": "BusinessCardPartyBuy",
  "sourceName": "contracts/BusinessCardPartyBuy.sol",
  "abi": [
    {
      "inputs": [
        {
          "internalType": "uint256",
          "name": "_stakePrice",
          "type": "uint256"
        }
      ],
      "stateMutability": "nonpayable",
      "type": "constructor"
    },
    {
      "inputs": [],
      "name": "BusinessCardBase__InvalidArrayCount",
      "type": "error"
    },
    {
      "inputs": [],
      "name": "BusinessCardBase__InvalidETHAmountSent",
      "type": "error"
    },
    {
      "inputs": [],
      "name": "BusinessCardBase__InvalidString",
      "type": "error"
    },
    {
      "inputs": [],
      "name": "BusinessCardPartyBuy__ExceededPeople",
      "type": "error"
    },
    {
      "inputs": [],
      "name": "BusinessCardPartyBuy__NotStaked",
      "type": "error"
    },
    {
      "anonymous": false,
      "inputs": [
        {
          "indexed": true,
          "internalType": "address",
          "name": "owner",
          "type": "address"
        },
        {
          "indexed": true,
          "internalType": "address",
          "name": "approved",
          "type": "address"
        },
        {
          "indexed": true,
          "internalType": "uint256",
          "name": "tokenId",
          "type": "uint256"
        }
      ],
      "name": "Approval",
      "type": "event"
    },
    {
      "anonymous": false,
      "inputs": [
        {
          "indexed": true,
          "internalType": "address",
          "name": "owner",
          "type": "address"
        },
        {
          "indexed": true,
          "internalType": "address",
          "name": "operator",
          "type": "address"
        },
        {
          "indexed": false,
          "internalType": "bool",
          "name": "approved",
          "type": "bool"
        }
      ],
      "name": "ApprovalForAll",
      "type": "event"
    },
    {
      "anonymous": false,
      "inputs": [
        {
          "indexed": true,
          "internalType": "uint256",
          "name": "id",
          "type": "uint256"
        },
        {
          "indexed": false,
          "internalType": "string",
          "name": "name",
          "type": "string"
        },
        {
          "indexed": false,
          "internalType": "string",
          "name": "email",
          "type": "string"
        },
        {
          "indexed": false,
          "internalType": "string",
          "name": "phone",
          "type": "string"
        },
        {
          "indexed": false,
          "internalType": "string",
          "name": "company",
          "type": "string"
        },
        {
          "indexed": false,
          "internalType": "uint256",
          "name": "valueDesired",
          "type": "uint256"
        }
      ],
      "name": "CardCreated",
      "type": "event"
    },
    {
      "anonymous": false,
      "inputs": [
        {
          "indexed": true,
          "internalType": "uint256",
          "name": "id",
          "type": "uint256"
        },
        {
          "indexed": true,
          "internalType": "address",
          "name": "from",
          "type": "address"
        },
        {
          "indexed": true,
          "internalType": "address",
          "name": "to",
          "type": "address"
        }
      ],
      "name": "CardTransfer",
      "type": "event"
    },
    {
      "anonymous": false,
      "inputs": [
        {
          "indexed": true,
          "internalType": "address",
          "name": "previousOwner",
          "type": "address"
        },
        {
          "indexed": true,
          "internalType": "address",
          "name": "newOwner",
          "type": "address"
        }
      ],
      "name": "OwnershipTransferred",
      "type": "event"
    },
    {
      "anonymous": false,
      "inputs": [
        {
          "indexed": true,
          "internalType": "address",
          "name": "staker",
          "type": "address"
        },
        {
          "indexed": false,
          "internalType": "uint32",
          "name": "employeeCount",
          "type": "uint32"
        }
      ],
      "name": "PartyMint",
      "type": "event"
    },
    {
      "anonymous": false,
      "inputs": [
        {
          "indexed": true,
          "internalType": "address",
          "name": "staker",
          "type": "address"
        },
        {
          "indexed": false,
          "internalType": "uint256",
          "name": "amount",
          "type": "uint256"
        }
      ],
      "name": "Stake",
      "type": "event"
    },
    {
      "anonymous": false,
      "inputs": [
        {
          "indexed": true,
          "internalType": "address",
          "name": "from",
          "type": "address"
        },
        {
          "indexed": true,
          "internalType": "address",
          "name": "to",
          "type": "address"
        },
        {
          "indexed": true,
          "internalType": "uint256",
          "name": "tokenId",
          "type": "uint256"
        }
      ],
      "name": "Transfer",
      "type": "event"
    },
    {
      "inputs": [
        {
          "internalType": "address",
          "name": "to",
          "type": "address"
        },
        {
          "internalType": "uint256",
          "name": "tokenId",
          "type": "uint256"
        }
      ],
      "name": "approve",
      "outputs": [],
      "stateMutability": "nonpayable",
      "type": "function"
    },
    {
      "inputs": [
        {
          "internalType": "address",
          "name": "owner",
          "type": "address"
        }
      ],
      "name": "balanceOf",
      "outputs": [
        {
          "internalType": "uint256",
          "name": "",
          "type": "uint256"
        }
      ],
      "stateMutability": "view",
      "type": "function"
    },
    {
      "inputs": [
        {
          "internalType": "uint256",
          "name": "tokenId",
          "type": "uint256"
        }
      ],
      "name": "getApproved",
      "outputs": [
        {
          "internalType": "address",
          "name": "",
          "type": "address"
        }
      ],
      "stateMutability": "view",
      "type": "function"
    },
    {
      "inputs": [
        {
          "internalType": "uint256",
          "name": "_id",
          "type": "uint256"
        }
      ],
      "name": "getCard",
      "outputs": [
        {
          "components": [
            {
              "internalType": "string",
              "name": "name",
              "type": "string"
            },
            {
              "internalType": "string",
              "name": "email",
              "type": "string"
            },
            {
              "internalType": "string",
              "name": "phone",
              "type": "string"
            },
            {
              "internalType": "string",
              "name": "company",
              "type": "string"
            },
            {
              "internalType": "enum BusinessCardBase.CardType",
              "name": "cardType",
              "type": "uint8"
            },
            {
              "internalType": "uint256",
              "name": "valueDesired",
              "type": "uint256"
            }
          ],
          "internalType": "struct BusinessCardBase.Card",
          "name": "",
          "type": "tuple"
        }
      ],
      "stateMutability": "view",
      "type": "function"
    },
    {
      "inputs": [
        {
          "internalType": "address",
          "name": "_owner",
          "type": "address"
        },
        {
          "internalType": "uint256",
          "name": "_index",
          "type": "uint256"
        }
      ],
      "name": "getCardByOwner",
      "outputs": [
        {
          "components": [
            {
              "internalType": "string",
              "name": "name",
              "type": "string"
            },
            {
              "internalType": "string",
              "name": "email",
              "type": "string"
            },
            {
              "internalType": "string",
              "name": "phone",
              "type": "string"
            },
            {
              "internalType": "string",
              "name": "company",
              "type": "string"
            },
            {
              "internalType": "enum BusinessCardBase.CardType",
              "name": "cardType",
              "type": "uint8"
            },
            {
              "internalType": "uint256",
              "name": "valueDesired",
              "type": "uint256"
            }
          ],
          "internalType": "struct BusinessCardBase.Card",
          "name": "",
          "type": "tuple"
        }
      ],
      "stateMutability": "view",
      "type": "function"
    },
    {
      "inputs": [],
      "name": "getCardCount",
      "outputs": [
        {
          "internalType": "uint256",
          "name": "",
          "type": "uint256"
        }
      ],
      "stateMutability": "view",
      "type": "function"
    },
    {
      "inputs": [
        {
          "internalType": "address",
          "name": "_owner",
          "type": "address"
        }
      ],
      "name": "getCardCountByOwner",
      "outputs": [
        {
          "internalType": "uint256",
          "name": "",
          "type": "uint256"
        }
      ],
      "stateMutability": "view",
      "type": "function"
    },
    {
      "inputs": [],
      "name": "getCards",
      "outputs": [
        {
          "components": [
            {
              "internalType": "string",
              "name": "name",
              "type": "string"
            },
            {
              "internalType": "string",
              "name": "email",
              "type": "string"
            },
            {
              "internalType": "string",
              "name": "phone",
              "type": "string"
            },
            {
              "internalType": "string",
              "name": "company",
              "type": "string"
            },
            {
              "internalType": "enum BusinessCardBase.CardType",
              "name": "cardType",
              "type": "uint8"
            },
            {
              "internalType": "uint256",
              "name": "valueDesired",
              "type": "uint256"
            }
          ],
          "internalType": "struct BusinessCardBase.Card[]",
          "name": "",
          "type": "tuple[]"
        }
      ],
      "stateMutability": "view",
      "type": "function"
    },
    {
      "inputs": [],
      "name": "getFirstMintPrice",
      "outputs": [
        {
          "internalType": "uint256",
          "name": "",
          "type": "uint256"
        }
      ],
      "stateMutability": "view",
      "type": "function"
    },
    {
      "inputs": [],
      "name": "getMintPrice",
      "outputs": [
        {
          "internalType": "uint256",
          "name": "",
          "type": "uint256"
        }
      ],
      "stateMutability": "view",
      "type": "function"
    },
    {
      "inputs": [
        {
          "internalType": "address",
          "name": "owner",
          "type": "address"
        },
        {
          "internalType": "address",
          "name": "operator",
          "type": "address"
        }
      ],
      "name": "isApprovedForAll",
      "outputs": [
        {
          "internalType": "bool",
          "name": "",
          "type": "bool"
        }
      ],
      "stateMutability": "view",
      "type": "function"
    },
    {
      "inputs": [
        {
          "internalType": "string",
          "name": "_name",
          "type": "string"
        },
        {
          "internalType": "string",
          "name": "_email",
          "type": "string"
        },
        {
          "internalType": "string",
          "name": "_phone",
          "type": "string"
        },
        {
          "internalType": "string",
          "name": "_company",
          "type": "string"
        },
        {
          "internalType": "uint256",
          "name": "valueDesired",
          "type": "uint256"
        }
      ],
      "name": "mintCard",
      "outputs": [
        {
          "internalType": "bool",
          "name": "success",
          "type": "bool"
        }
      ],
      "stateMutability": "payable",
      "type": "function"
    },
    {
      "inputs": [],
      "name": "name",
      "outputs": [
        {
          "internalType": "string",
          "name": "",
          "type": "string"
        }
      ],
      "stateMutability": "view",
      "type": "function"
    },
    {
      "inputs": [],
      "name": "owner",
      "outputs": [
        {
          "internalType": "address",
          "name": "",
          "type": "address"
        }
      ],
      "stateMutability": "view",
      "type": "function"
    },
    {
      "inputs": [
        {
          "internalType": "uint256",
          "name": "tokenId",
          "type": "uint256"
        }
      ],
      "name": "ownerOf",
      "outputs": [
        {
          "internalType": "address",
          "name": "",
          "type": "address"
        }
      ],
      "stateMutability": "view",
      "type": "function"
    },
    {
      "inputs": [
        {
          "internalType": "uint32",
          "name": "_employeeCount",
          "type": "uint32"
        },
        {
          "internalType": "string[]",
          "name": "_name",
          "type": "string[]"
        },
        {
          "internalType": "string[]",
          "name": "_email",
          "type": "string[]"
        },
        {
          "internalType": "string[]",
          "name": "_phone",
          "type": "string[]"
        },
        {
          "internalType": "string",
          "name": "_company",
          "type": "string"
        },
        {
          "internalType": "uint32[]",
          "name": "_valueDesired",
          "type": "uint32[]"
        }
      ],
      "name": "partyMint",
      "outputs": [
        {
          "internalType": "bool",
          "name": "success",
          "type": "bool"
        }
      ],
      "stateMutability": "payable",
      "type": "function"
    },
    {
      "inputs": [],
      "name": "renounceOwnership",
      "outputs": [],
      "stateMutability": "nonpayable",
      "type": "function"
    },
    {
      "inputs": [
        {
          "internalType": "address",
          "name": "from",
          "type": "address"
        },
        {
          "internalType": "address",
          "name": "to",
          "type": "address"
        },
        {
          "internalType": "uint256",
          "name": "tokenId",
          "type": "uint256"
        }
      ],
      "name": "safeTransferFrom",
      "outputs": [],
      "stateMutability": "nonpayable",
      "type": "function"
    },
    {
      "inputs": [
        {
          "internalType": "address",
          "name": "from",
          "type": "address"
        },
        {
          "internalType": "address",
          "name": "to",
          "type": "address"
        },
        {
          "internalType": "uint256",
          "name": "tokenId",
          "type": "uint256"
        },
        {
          "internalType": "bytes",
          "name": "data",
          "type": "bytes"
        }
      ],
      "name": "safeTransferFrom",
      "outputs": [],
      "stateMutability": "nonpayable",
      "type": "function"
    },
    {
      "inputs": [
        {
          "internalType": "address",
          "name": "operator",
          "type": "address"
        },
        {
          "internalType": "bool",
          "name": "approved",
          "type": "bool"
        }
      ],
      "name": "setApprovalForAll",
      "outputs": [],
      "stateMutability": "nonpayable",
      "type": "function"
    },
    {
      "inputs": [],
      "name": "stake",
      "outputs": [
        {
          "internalType": "bool",
          "name": "success",
          "type": "bool"
        }
      ],
      "stateMutability": "payable",
      "type": "function"
    },
    {
      "inputs": [
        {
          "internalType": "bytes4",
          "name": "interfaceId",
          "type": "bytes4"
        }
      ],
      "name": "supportsInterface",
      "outputs": [
        {
          "internalType": "bool",
          "name": "",
          "type": "bool"
        }
      ],
      "stateMutability": "view",
      "type": "function"
    },
    {
      "inputs": [],
      "name": "symbol",
      "outputs": [
        {
          "internalType": "string",
          "name": "",
          "type": "string"
        }
      ],
      "stateMutability": "view",
      "type": "function"
    },
    {
      "inputs": [
        {
          "internalType": "uint256",
          "name": "index",
          "type": "uint256"
        }
      ],
      "name": "tokenByIndex",
      "outputs": [
        {
          "internalType": "uint256",
          "name": "",
          "type": "uint256"
        }
      ],
      "stateMutability": "view",
      "type": "function"
    },
    {
      "inputs": [
        {
          "internalType": "address",
          "name": "owner",
          "type": "address"
        },
        {
          "internalType": "uint256",
          "name": "index",
          "type": "uint256"
        }
      ],
      "name": "tokenOfOwnerByIndex",
      "outputs": [
        {
          "internalType": "uint256",
          "name": "",
          "type": "uint256"
        }
      ],
      "stateMutability": "view",
      "type": "function"
    },
    {
      "inputs": [
        {
          "internalType": "uint256",
          "name": "tokenId",
          "type": "uint256"
        }
      ],
      "name": "tokenURI",
      "outputs": [
        {
          "internalType": "string",
          "name": "",
          "type": "string"
        }
      ],
      "stateMutability": "view",
      "type": "function"
    },
    {
      "inputs": [],
      "name": "totalSupply",
      "outputs": [
        {
          "internalType": "uint256",
          "name": "",
          "type": "uint256"
        }
      ],
      "stateMutability": "view",
      "type": "function"
    },
    {
      "inputs": [
        {
          "internalType": "address",
          "name": "from",
          "type": "address"
        },
        {
          "internalType": "address",
          "name": "to",
          "type": "address"
        },
        {
          "internalType": "uint256",
          "name": "tokenId",
          "type": "uint256"
        }
      ],
      "name": "transferFrom",
      "outputs": [],
      "stateMutability": "nonpayable",
      "type": "function"
    },
    {
      "inputs": [
        {
          "internalType": "address",
          "name": "newOwner",
          "type": "address"
        }
      ],
      "name": "transferOwnership",
      "outputs": [],
      "stateMutability": "nonpayable",
      "type": "function"
    }
  ],
  "bytecode": "0x60a06040523480156200001157600080fd5b50604051620052f3380380620052f383398181016040528101906200003791906200029b565b6040518060400160405280601081526020017f427573696e6573734361726442617365000000000000000000000000000000008152506040518060400160405280600281526020017f42430000000000000000000000000000000000000000000000000000000000008152508160009080519060200190620000bb929190620001d4565b508060019080519060200190620000d4929190620001d4565b505050620000f7620000eb6200010660201b60201c565b6200010e60201b60201c565b8060808181525050506200035b565b600033905090565b6000600a60009054906101000a900473ffffffffffffffffffffffffffffffffffffffff16905081600a60006101000a81548173ffffffffffffffffffffffffffffffffffffffff021916908373ffffffffffffffffffffffffffffffffffffffff1602179055508173ffffffffffffffffffffffffffffffffffffffff168173ffffffffffffffffffffffffffffffffffffffff167f8be0079c531659141344cd1fd0a4f28419497f9722a3daafe3b4186f6b6457e060405160405180910390a35050565b828054620001e290620002d7565b90600052602060002090601f01602090048101928262000206576000855562000252565b82601f106200022157805160ff191683800117855562000252565b8280016001018555821562000252579182015b828111156200025157825182559160200191906001019062000234565b5b50905062000261919062000265565b5090565b5b808211156200028057600081600090555060010162000266565b5090565b600081519050620002958162000341565b92915050565b600060208284031215620002b457620002b36200033c565b5b6000620002c48482850162000284565b91505092915050565b6000819050919050565b60006002820490506001821680620002f057607f821691505b602082108114156200030757620003066200030d565b5b50919050565b7f4e487b7100000000000000000000000000000000000000000000000000000000600052602260045260246000fd5b600080fd5b6200034c81620002cd565b81146200035857600080fd5b50565b608051614f7c6200037760003960006111760152614f7c6000f3fe6080604052600436106101c25760003560e01c806370a08231116100f757806395d89b4111610095578063b88d4fde11610064578063b88d4fde1461067d578063c87b56dd146106a6578063e985e9c5146106e3578063f2fde38b14610720576101c2565b806395d89b41146105d3578063a22cb465146105fe578063a7f93ebd14610627578063b0df9e5314610652576101c2565b80637d620130116100d15780637d620130146105035780638da5cb5b1461052e5780639188d3121461055957806395acf98714610596576101c2565b806370a082311461047f578063715018a6146104bc57806372c1482f146104d3576101c2565b806323b872dd1161016457806342842e0e1161013e57806342842e0e146103b15780634f6ccce7146103da57806361a53251146104175780636352211e14610442576101c2565b806323b872dd1461032d5780632f745c59146103565780633a4b66f114610393576101c2565b8063095ea7b3116101a0578063095ea7b31461026c57806309c1311f1461029557806318160ddd146102c5578063185590e2146102f0576101c2565b806301ffc9a7146101c757806306fdde0314610204578063081812fc1461022f575b600080fd5b3480156101d357600080fd5b506101ee60048036038101906101e99190613a00565b610749565b6040516101fb9190614263565b60405180910390f35b34801561021057600080fd5b506102196107c3565b604051610226919061427e565b60405180910390f35b34801561023b57600080fd5b5061025660048036038101906102519190613b45565b610855565b60405161026391906141da565b60405180910390f35b34801561027857600080fd5b50610293600480360381019061028e91906139c0565b61089b565b005b6102af60048036038101906102aa9190613a5a565b6109b3565b6040516102bc9190614263565b60405180910390f35b3480156102d157600080fd5b506102da610d8d565b6040516102e79190614531565b60405180910390f35b3480156102fc57600080fd5b50610317600480360381019061031291906139c0565b610d9a565b604051610324919061450f565b60405180910390f35b34801561033957600080fd5b50610354600480360381019061034f91906138aa565b61106d565b005b34801561036257600080fd5b5061037d600480360381019061037891906139c0565b6110cd565b60405161038a9190614531565b60405180910390f35b61039b611172565b6040516103a89190614263565b60405180910390f35b3480156103bd57600080fd5b506103d860048036038101906103d391906138aa565b61127a565b005b3480156103e657600080fd5b5061040160048036038101906103fc9190613b45565b61129a565b60405161040e9190614531565b60405180910390f35b34801561042357600080fd5b5061042c61130b565b6040516104399190614531565b60405180910390f35b34801561044e57600080fd5b5061046960048036038101906104649190613b45565b611315565b60405161047691906141da565b60405180910390f35b34801561048b57600080fd5b506104a660048036038101906104a1919061383d565b61139c565b6040516104b39190614531565b60405180910390f35b3480156104c857600080fd5b506104d1611454565b005b6104ed60048036038101906104e89190613b72565b611468565b6040516104fa9190614263565b60405180910390f35b34801561050f57600080fd5b50610518611726565b6040516105259190614531565b60405180910390f35b34801561053a57600080fd5b50610543611733565b60405161055091906141da565b60405180910390f35b34801561056557600080fd5b50610580600480360381019061057b9190613b45565b61175d565b60405161058d919061450f565b60405180910390f35b3480156105a257600080fd5b506105bd60048036038101906105b8919061383d565b611a26565b6040516105ca9190614531565b60405180910390f35b3480156105df57600080fd5b506105e8611a38565b6040516105f5919061427e565b60405180910390f35b34801561060a57600080fd5b5061062560048036038101906106209190613980565b611aca565b005b34801561063357600080fd5b5061063c611ae0565b6040516106499190614531565b60405180910390f35b34801561065e57600080fd5b50610667611aea565b6040516106749190614241565b60405180910390f35b34801561068957600080fd5b506106a4600480360381019061069f91906138fd565b611dd6565b005b3480156106b257600080fd5b506106cd60048036038101906106c89190613b45565b611e38565b6040516106da919061427e565b60405180910390f35b3480156106ef57600080fd5b5061070a6004803603810190610705919061386a565b611ea0565b6040516107179190614263565b60405180910390f35b34801561072c57600080fd5b506107476004803603810190610742919061383d565b611f34565b005b60007f780e9d63000000000000000000000000000000000000000000000000000000007bffffffffffffffffffffffffffffffffffffffffffffffffffffffff1916827bffffffffffffffffffffffffffffffffffffffffffffffffffffffff191614806107bc57506107bb82611fb8565b5b9050919050565b6060600080546107d29061488a565b80601f01602080910402602001604051908101604052809291908181526020018280546107fe9061488a565b801561084b5780601f106108205761010080835404028352916020019161084b565b820191906000526020600020905b81548152906001019060200180831161082e57829003601f168201915b5050505050905090565b60006108608261209a565b6004600083815260200190815260200160002060009054906101000a900473ffffffffffffffffffffffffffffffffffffffff169050919050565b60006108a682611315565b90508073ffffffffffffffffffffffffffffffffffffffff168373ffffffffffffffffffffffffffffffffffffffff161415610917576040517f08c379a000000000000000000000000000000000000000000000000000000000815260040161090e9061448f565b60405180910390fd5b8073ffffffffffffffffffffffffffffffffffffffff166109366120e5565b73ffffffffffffffffffffffffffffffffffffffff16148061096557506109648161095f6120e5565b611ea0565b5b6109a4576040517f08c379a000000000000000000000000000000000000000000000000000000000815260040161099b906144af565b60405180910390fd5b6109ae83836120ed565b505050565b600080865114806109c5575060008551145b806109d1575060008451145b806109dd575060008351145b15610a14576040517fb73f7ba500000000000000000000000000000000000000000000000000000000815260040160405180910390fd5b6000801515600e60003373ffffffffffffffffffffffffffffffffffffffff1673ffffffffffffffffffffffffffffffffffffffff16815260200190815260200160002060009054906101000a900460ff1615151415610b0657600c543414610aa9576040517f7d604d0e00000000000000000000000000000000000000000000000000000000815260040160405180910390fd5b6001600e60003373ffffffffffffffffffffffffffffffffffffffff1673ffffffffffffffffffffffffffffffffffffffff16815260200190815260200160002060006101000a81548160ff021916908315150217905550610d7f565b600d543414610b41576040517f7d604d0e00000000000000000000000000000000000000000000000000000000815260040160405180910390fd5b600b805490509050600b6040518060c0016040528089815260200188815260200187815260200186815260200160006001811115610b8257610b81614978565b5b81526020018581525090806001815401808255809150506001900390600052602060002090600602016000909190919091506000820151816000019080519060200190610bd092919061349a565b506020820151816001019080519060200190610bed92919061349a565b506040820151816002019080519060200190610c0a92919061349a565b506060820151816003019080519060200190610c2792919061349a565b5060808201518160040160006101000a81548160ff02191690836001811115610c5357610c52614978565b5b021790555060a082015181600501555050610c6e33826121a6565b336011600083815260200190815260200160002060006101000a81548173ffffffffffffffffffffffffffffffffffffffff021916908373ffffffffffffffffffffffffffffffffffffffff160217905550601060003373ffffffffffffffffffffffffffffffffffffffff1673ffffffffffffffffffffffffffffffffffffffff168152602001908152602001600020600081819054906101000a900463ffffffff1680929190610d1f906148ed565b91906101000a81548163ffffffff021916908363ffffffff16021790555050807fa01499c21b7908c876b7b361a643e5771db7854d10fca4b5bdd9d1b1e60495cd8888888888604051610d769594939291906142a0565b60405180910390a25b600191505095945050505050565b6000600880549050905090565b610da2613520565b600b610dae84846110cd565b81548110610dbf57610dbe614a05565b5b90600052602060002090600602016040518060c0016040529081600082018054610de89061488a565b80601f0160208091040260200160405190810160405280929190818152602001828054610e149061488a565b8015610e615780601f10610e3657610100808354040283529160200191610e61565b820191906000526020600020905b815481529060010190602001808311610e4457829003601f168201915b50505050508152602001600182018054610e7a9061488a565b80601f0160208091040260200160405190810160405280929190818152602001828054610ea69061488a565b8015610ef35780601f10610ec857610100808354040283529160200191610ef3565b820191906000526020600020905b815481529060010190602001808311610ed657829003601f168201915b50505050508152602001600282018054610f0c9061488a565b80601f0160208091040260200160405190810160405280929190818152602001828054610f389061488a565b8015610f855780601f10610f5a57610100808354040283529160200191610f85565b820191906000526020600020905b815481529060010190602001808311610f6857829003601f168201915b50505050508152602001600382018054610f9e9061488a565b80601f0160208091040260200160405190810160405280929190818152602001828054610fca9061488a565b80156110175780601f10610fec57610100808354040283529160200191611017565b820191906000526020600020905b815481529060010190602001808311610ffa57829003601f168201915b505050505081526020016004820160009054906101000a900460ff16600181111561104557611044614978565b5b600181111561105757611056614978565b5b8152602001600582015481525050905092915050565b61107e6110786120e5565b826121c4565b6110bd576040517f08c379a00000000000000000000000000000000000000000000000000000000081526004016110b49061430f565b60405180910390fd5b6110c8838383612259565b505050565b60006110d88361139c565b8210611119576040517f08c379a00000000000000000000000000000000000000000000000000000000081526004016111109061432f565b60405180910390fd5b600660008473ffffffffffffffffffffffffffffffffffffffff1673ffffffffffffffffffffffffffffffffffffffff168152602001908152602001600020600083815260200190815260200160002054905092915050565b60007f000000000000000000000000000000000000000000000000000000000000000034146111cd576040517f5c0c528000000000000000000000000000000000000000000000000000000000815260040160405180910390fd5b6001601360003373ffffffffffffffffffffffffffffffffffffffff1673ffffffffffffffffffffffffffffffffffffffff16815260200190815260200160002060006101000a81548160ff0219169083151502179055503373ffffffffffffffffffffffffffffffffffffffff167febedb8b3c678666e7f36970bc8f57abf6d8fa2e828c0da91ea5b75bf68ed101a3460405161126b9190614531565b60405180910390a26001905090565b61129583838360405180602001604052806000815250611dd6565b505050565b60006112a4610d8d565b82106112e5576040517f08c379a00000000000000000000000000000000000000000000000000000000081526004016112dc906144cf565b60405180910390fd5b600882815481106112f9576112f8614a05565b5b90600052602060002001549050919050565b6000600c54905090565b600080611321836122c4565b9050600073ffffffffffffffffffffffffffffffffffffffff168173ffffffffffffffffffffffffffffffffffffffff161415611393576040517f08c379a000000000000000000000000000000000000000000000000000000000815260040161138a9061446f565b60405180910390fd5b80915050919050565b60008073ffffffffffffffffffffffffffffffffffffffff168273ffffffffffffffffffffffffffffffffffffffff16141561140d576040517f08c379a00000000000000000000000000000000000000000000000000000000081526004016114049061440f565b60405180910390fd5b600360008373ffffffffffffffffffffffffffffffffffffffff1673ffffffffffffffffffffffffffffffffffffffff168152602001908152602001600020549050919050565b61145c612301565b611466600061237f565b565b6000801515601360003373ffffffffffffffffffffffffffffffffffffffff1673ffffffffffffffffffffffffffffffffffffffff16815260200190815260200160002060009054906101000a900460ff16151514156114f4576040517f5c0c528000000000000000000000000000000000000000000000000000000000815260040160405180910390fd5b600a63ffffffff168763ffffffff16111561153b576040517f3a0320f600000000000000000000000000000000000000000000000000000000815260040160405180910390fd5b8663ffffffff16600d5461154f91906146d3565b3414611587576040517f7d604d0e00000000000000000000000000000000000000000000000000000000815260040160405180910390fd5b8663ffffffff1686511415806115a457508663ffffffff16855114155b806115b657508663ffffffff16845114155b806115c857508663ffffffff16825114155b156115ff576040517f0a84927600000000000000000000000000000000000000000000000000000000815260040160405180910390fd5b60005b8763ffffffff168163ffffffff1610156116c9576116b5878263ffffffff168151811061163257611631614a05565b5b6020026020010151878363ffffffff168151811061165357611652614a05565b5b6020026020010151878463ffffffff168151811061167457611673614a05565b5b6020026020010151876018888763ffffffff168151811061169857611697614a05565b5b60200260200101516116aa919061472d565b63ffffffff166109b3565b5080806116c1906148ed565b915050611602565b503373ffffffffffffffffffffffffffffffffffffffff167f97b3c1c6efc1ec87bde00f5bb178cc89aca9c442e8824a23610f9e7740f378ea88604051611710919061454c565b60405180910390a2600190509695505050505050565b6000600b80549050905090565b6000600a60009054906101000a900473ffffffffffffffffffffffffffffffffffffffff16905090565b611765613520565b600b828154811061177957611778614a05565b5b90600052602060002090600602016040518060c00160405290816000820180546117a29061488a565b80601f01602080910402602001604051908101604052809291908181526020018280546117ce9061488a565b801561181b5780601f106117f05761010080835404028352916020019161181b565b820191906000526020600020905b8154815290600101906020018083116117fe57829003601f168201915b505050505081526020016001820180546118349061488a565b80601f01602080910402602001604051908101604052809291908181526020018280546118609061488a565b80156118ad5780601f10611882576101008083540402835291602001916118ad565b820191906000526020600020905b81548152906001019060200180831161189057829003601f168201915b505050505081526020016002820180546118c69061488a565b80601f01602080910402602001604051908101604052809291908181526020018280546118f29061488a565b801561193f5780601f106119145761010080835404028352916020019161193f565b820191906000526020600020905b81548152906001019060200180831161192257829003601f168201915b505050505081526020016003820180546119589061488a565b80601f01602080910402602001604051908101604052809291908181526020018280546119849061488a565b80156119d15780601f106119a6576101008083540402835291602001916119d1565b820191906000526020600020905b8154815290600101906020018083116119b457829003601f168201915b505050505081526020016004820160009054906101000a900460ff1660018111156119ff576119fe614978565b5b6001811115611a1157611a10614978565b5b81526020016005820154815250509050919050565b6000611a318261139c565b9050919050565b606060018054611a479061488a565b80601f0160208091040260200160405190810160405280929190818152602001828054611a739061488a565b8015611ac05780601f10611a9557610100808354040283529160200191611ac0565b820191906000526020600020905b815481529060010190602001808311611aa357829003601f168201915b5050505050905090565b611adc611ad56120e5565b8383612445565b5050565b6000600d54905090565b6060600b805480602002602001604051908101604052809291908181526020016000905b82821015611dcd57838290600052602060002090600602016040518060c0016040529081600082018054611b419061488a565b80601f0160208091040260200160405190810160405280929190818152602001828054611b6d9061488a565b8015611bba5780601f10611b8f57610100808354040283529160200191611bba565b820191906000526020600020905b815481529060010190602001808311611b9d57829003601f168201915b50505050508152602001600182018054611bd39061488a565b80601f0160208091040260200160405190810160405280929190818152602001828054611bff9061488a565b8015611c4c5780601f10611c2157610100808354040283529160200191611c4c565b820191906000526020600020905b815481529060010190602001808311611c2f57829003601f168201915b50505050508152602001600282018054611c659061488a565b80601f0160208091040260200160405190810160405280929190818152602001828054611c919061488a565b8015611cde5780601f10611cb357610100808354040283529160200191611cde565b820191906000526020600020905b815481529060010190602001808311611cc157829003601f168201915b50505050508152602001600382018054611cf79061488a565b80601f0160208091040260200160405190810160405280929190818152602001828054611d239061488a565b8015611d705780601f10611d4557610100808354040283529160200191611d70565b820191906000526020600020905b815481529060010190602001808311611d5357829003601f168201915b505050505081526020016004820160009054906101000a900460ff166001811115611d9e57611d9d614978565b5b6001811115611db057611daf614978565b5b815260200160058201548152505081526020019060010190611b0e565b50505050905090565b611de7611de16120e5565b836121c4565b611e26576040517f08c379a0000000000000000000000000000000000000000000000000000000008152600401611e1d9061430f565b60405180910390fd5b611e32848484846125b2565b50505050565b6060611e438261209a565b6000611e4d61260e565b90506000815111611e6d5760405180602001604052806000815250611e98565b80611e7784612625565b604051602001611e889291906141b6565b6040516020818303038152906040525b915050919050565b6000600560008473ffffffffffffffffffffffffffffffffffffffff1673ffffffffffffffffffffffffffffffffffffffff16815260200190815260200160002060008373ffffffffffffffffffffffffffffffffffffffff1673ffffffffffffffffffffffffffffffffffffffff16815260200190815260200160002060009054906101000a900460ff16905092915050565b611f3c612301565b600073ffffffffffffffffffffffffffffffffffffffff168173ffffffffffffffffffffffffffffffffffffffff161415611fac576040517f08c379a0000000000000000000000000000000000000000000000000000000008152600401611fa39061436f565b60405180910390fd5b611fb58161237f565b50565b60007f80ac58cd000000000000000000000000000000000000000000000000000000007bffffffffffffffffffffffffffffffffffffffffffffffffffffffff1916827bffffffffffffffffffffffffffffffffffffffffffffffffffffffff1916148061208357507f5b5e139f000000000000000000000000000000000000000000000000000000007bffffffffffffffffffffffffffffffffffffffffffffffffffffffff1916827bffffffffffffffffffffffffffffffffffffffffffffffffffffffff1916145b806120935750612092826126fd565b5b9050919050565b6120a381612767565b6120e2576040517f08c379a00000000000000000000000000000000000000000000000000000000081526004016120d99061446f565b60405180910390fd5b50565b600033905090565b816004600083815260200190815260200160002060006101000a81548173ffffffffffffffffffffffffffffffffffffffff021916908373ffffffffffffffffffffffffffffffffffffffff160217905550808273ffffffffffffffffffffffffffffffffffffffff1661216083611315565b73ffffffffffffffffffffffffffffffffffffffff167f8c5be1e5ebec7d5bd14f71427d1e84f3dd0314c0f7b2291e5b200ac8c7c3b92560405160405180910390a45050565b6121c08282604051806020016040528060008152506127a8565b5050565b6000806121d083611315565b90508073ffffffffffffffffffffffffffffffffffffffff168473ffffffffffffffffffffffffffffffffffffffff16148061221257506122118185611ea0565b5b8061225057508373ffffffffffffffffffffffffffffffffffffffff1661223884610855565b73ffffffffffffffffffffffffffffffffffffffff16145b91505092915050565b612264838383612803565b8173ffffffffffffffffffffffffffffffffffffffff168373ffffffffffffffffffffffffffffffffffffffff16827fa39c1232e046ab0ad1c4221e11516a35ad636b4eb5a7acaabbfd44eaca8fe00760405160405180910390a4505050565b60006002600083815260200190815260200160002060009054906101000a900473ffffffffffffffffffffffffffffffffffffffff169050919050565b6123096120e5565b73ffffffffffffffffffffffffffffffffffffffff16612327611733565b73ffffffffffffffffffffffffffffffffffffffff161461237d576040517f08c379a00000000000000000000000000000000000000000000000000000000081526004016123749061444f565b60405180910390fd5b565b6000600a60009054906101000a900473ffffffffffffffffffffffffffffffffffffffff16905081600a60006101000a81548173ffffffffffffffffffffffffffffffffffffffff021916908373ffffffffffffffffffffffffffffffffffffffff1602179055508173ffffffffffffffffffffffffffffffffffffffff168173ffffffffffffffffffffffffffffffffffffffff167f8be0079c531659141344cd1fd0a4f28419497f9722a3daafe3b4186f6b6457e060405160405180910390a35050565b8173ffffffffffffffffffffffffffffffffffffffff168373ffffffffffffffffffffffffffffffffffffffff1614156124b4576040517f08c379a00000000000000000000000000000000000000000000000000000000081526004016124ab906143ef565b60405180910390fd5b80600560008573ffffffffffffffffffffffffffffffffffffffff1673ffffffffffffffffffffffffffffffffffffffff16815260200190815260200160002060008473ffffffffffffffffffffffffffffffffffffffff1673ffffffffffffffffffffffffffffffffffffffff16815260200190815260200160002060006101000a81548160ff0219169083151502179055508173ffffffffffffffffffffffffffffffffffffffff168373ffffffffffffffffffffffffffffffffffffffff167f17307eab39ab6107e8899845ad3d59bd9653f200f220920489ca2b5937696c31836040516125a59190614263565b60405180910390a3505050565b6125bd848484612259565b6125c984848484612afd565b612608576040517f08c379a00000000000000000000000000000000000000000000000000000000081526004016125ff9061434f565b60405180910390fd5b50505050565b606060405180602001604052806000815250905090565b60606000600161263484612c94565b01905060008167ffffffffffffffff81111561265357612652614a34565b5b6040519080825280601f01601f1916602001820160405280156126855781602001600182028036833780820191505090505b509050600082602001820190505b6001156126f2578080600190039150507f3031323334353637383961626364656600000000000000000000000000000000600a86061a8153600a85816126dc576126db614949565b5b04945060008514156126ed576126f2565b612693565b819350505050919050565b60007f01ffc9a7000000000000000000000000000000000000000000000000000000007bffffffffffffffffffffffffffffffffffffffffffffffffffffffff1916827bffffffffffffffffffffffffffffffffffffffffffffffffffffffff1916149050919050565b60008073ffffffffffffffffffffffffffffffffffffffff16612789836122c4565b73ffffffffffffffffffffffffffffffffffffffff1614159050919050565b6127b28383612de7565b6127bf6000848484612afd565b6127fe576040517f08c379a00000000000000000000000000000000000000000000000000000000081526004016127f59061434f565b60405180910390fd5b505050565b8273ffffffffffffffffffffffffffffffffffffffff1661282382611315565b73ffffffffffffffffffffffffffffffffffffffff1614612879576040517f08c379a00000000000000000000000000000000000000000000000000000000081526004016128709061438f565b60405180910390fd5b600073ffffffffffffffffffffffffffffffffffffffff168273ffffffffffffffffffffffffffffffffffffffff1614156128e9576040517f08c379a00000000000000000000000000000000000000000000000000000000081526004016128e0906143cf565b60405180910390fd5b6128f68383836001613005565b8273ffffffffffffffffffffffffffffffffffffffff1661291682611315565b73ffffffffffffffffffffffffffffffffffffffff161461296c576040517f08c379a00000000000000000000000000000000000000000000000000000000081526004016129639061438f565b60405180910390fd5b6004600082815260200190815260200160002060006101000a81549073ffffffffffffffffffffffffffffffffffffffff02191690556001600360008573ffffffffffffffffffffffffffffffffffffffff1673ffffffffffffffffffffffffffffffffffffffff168152602001908152602001600020600082825403925050819055506001600360008473ffffffffffffffffffffffffffffffffffffffff1673ffffffffffffffffffffffffffffffffffffffff16815260200190815260200160002060008282540192505081905550816002600083815260200190815260200160002060006101000a81548173ffffffffffffffffffffffffffffffffffffffff021916908373ffffffffffffffffffffffffffffffffffffffff160217905550808273ffffffffffffffffffffffffffffffffffffffff168473ffffffffffffffffffffffffffffffffffffffff167fddf252ad1be2c89b69c2b068fc378daa952ba7f163c4a11628f55a4df523b3ef60405160405180910390a4612af88383836001613165565b505050565b6000612b1e8473ffffffffffffffffffffffffffffffffffffffff1661316b565b15612c87578373ffffffffffffffffffffffffffffffffffffffff1663150b7a02612b476120e5565b8786866040518563ffffffff1660e01b8152600401612b6994939291906141f5565b602060405180830381600087803b158015612b8357600080fd5b505af1925050508015612bb457506040513d601f19601f82011682018060405250810190612bb19190613a2d565b60015b612c37573d8060008114612be4576040519150601f19603f3d011682016040523d82523d6000602084013e612be9565b606091505b50600081511415612c2f576040517f08c379a0000000000000000000000000000000000000000000000000000000008152600401612c269061434f565b60405180910390fd5b805181602001fd5b63150b7a0260e01b7bffffffffffffffffffffffffffffffffffffffffffffffffffffffff1916817bffffffffffffffffffffffffffffffffffffffffffffffffffffffff191614915050612c8c565b600190505b949350505050565b600080600090507a184f03e93ff9f4daa797ed6e38ed64bf6a1f0100000000000000008310612cf2577a184f03e93ff9f4daa797ed6e38ed64bf6a1f0100000000000000008381612ce857612ce7614949565b5b0492506040810190505b6d04ee2d6d415b85acef81000000008310612d2f576d04ee2d6d415b85acef81000000008381612d2557612d24614949565b5b0492506020810190505b662386f26fc100008310612d5e57662386f26fc100008381612d5457612d53614949565b5b0492506010810190505b6305f5e1008310612d87576305f5e1008381612d7d57612d7c614949565b5b0492506008810190505b6127108310612dac576127108381612da257612da1614949565b5b0492506004810190505b60648310612dcf5760648381612dc557612dc4614949565b5b0492506002810190505b600a8310612dde576001810190505b80915050919050565b600073ffffffffffffffffffffffffffffffffffffffff168273ffffffffffffffffffffffffffffffffffffffff161415612e57576040517f08c379a0000000000000000000000000000000000000000000000000000000008152600401612e4e9061442f565b60405180910390fd5b612e6081612767565b15612ea0576040517f08c379a0000000000000000000000000000000000000000000000000000000008152600401612e97906143af565b60405180910390fd5b612eae600083836001613005565b612eb781612767565b15612ef7576040517f08c379a0000000000000000000000000000000000000000000000000000000008152600401612eee906143af565b60405180910390fd5b6001600360008473ffffffffffffffffffffffffffffffffffffffff1673ffffffffffffffffffffffffffffffffffffffff16815260200190815260200160002060008282540192505081905550816002600083815260200190815260200160002060006101000a81548173ffffffffffffffffffffffffffffffffffffffff021916908373ffffffffffffffffffffffffffffffffffffffff160217905550808273ffffffffffffffffffffffffffffffffffffffff16600073ffffffffffffffffffffffffffffffffffffffff167fddf252ad1be2c89b69c2b068fc378daa952ba7f163c4a11628f55a4df523b3ef60405160405180910390a4613001600083836001613165565b5050565b6130118484848461318e565b6001811115613055576040517f08c379a000000000000000000000000000000000000000000000000000000000815260040161304c906144ef565b60405180910390fd5b6000829050600073ffffffffffffffffffffffffffffffffffffffff168573ffffffffffffffffffffffffffffffffffffffff16141561309d5761309881613194565b6130dc565b8373ffffffffffffffffffffffffffffffffffffffff168573ffffffffffffffffffffffffffffffffffffffff16146130db576130da85826131dd565b5b5b600073ffffffffffffffffffffffffffffffffffffffff168473ffffffffffffffffffffffffffffffffffffffff16141561311f5761311a8161334a565b61315e565b8473ffffffffffffffffffffffffffffffffffffffff168473ffffffffffffffffffffffffffffffffffffffff161461315d5761315c848261341b565b5b5b5050505050565b50505050565b6000808273ffffffffffffffffffffffffffffffffffffffff163b119050919050565b50505050565b6008805490506009600083815260200190815260200160002081905550600881908060018154018082558091505060019003906000526020600020016000909190919091505550565b600060016131ea8461139c565b6131f4919061476b565b90506000600760008481526020019081526020016000205490508181146132d9576000600660008673ffffffffffffffffffffffffffffffffffffffff1673ffffffffffffffffffffffffffffffffffffffff168152602001908152602001600020600084815260200190815260200160002054905080600660008773ffffffffffffffffffffffffffffffffffffffff1673ffffffffffffffffffffffffffffffffffffffff168152602001908152602001600020600084815260200190815260200160002081905550816007600083815260200190815260200160002081905550505b6007600084815260200190815260200160002060009055600660008573ffffffffffffffffffffffffffffffffffffffff1673ffffffffffffffffffffffffffffffffffffffff16815260200190815260200160002060008381526020019081526020016000206000905550505050565b6000600160088054905061335e919061476b565b905060006009600084815260200190815260200160002054905060006008838154811061338e5761338d614a05565b5b9060005260206000200154905080600883815481106133b0576133af614a05565b5b9060005260206000200181905550816009600083815260200190815260200160002081905550600960008581526020019081526020016000206000905560088054806133ff576133fe6149d6565b5b6001900381819060005260206000200160009055905550505050565b60006134268361139c565b905081600660008573ffffffffffffffffffffffffffffffffffffffff1673ffffffffffffffffffffffffffffffffffffffff168152602001908152602001600020600083815260200190815260200160002081905550806007600084815260200190815260200160002081905550505050565b8280546134a69061488a565b90600052602060002090601f0160209004810192826134c8576000855561350f565b82601f106134e157805160ff191683800117855561350f565b8280016001018555821561350f579182015b8281111561350e5782518255916020019190600101906134f3565b5b50905061351c9190613568565b5090565b6040518060c00160405280606081526020016060815260200160608152602001606081526020016000600181111561355b5761355a614978565b5b8152602001600081525090565b5b80821115613581576000816000905550600101613569565b5090565b60006135986135938461458c565b614567565b905080838252602082019050828560208602820111156135bb576135ba614a68565b5b60005b8581101561360957813567ffffffffffffffff8111156135e1576135e0614a63565b5b8086016135ee89826137e5565b855260208501945060208401935050506001810190506135be565b5050509392505050565b6000613626613621846145b8565b614567565b9050808382526020820190508285602086028201111561364957613648614a68565b5b60005b85811015613679578161365f8882613828565b84526020840193506020830192505060018101905061364c565b5050509392505050565b6000613696613691846145e4565b614567565b9050828152602081018484840111156136b2576136b1614a6d565b5b6136bd848285614848565b509392505050565b60006136d86136d384614615565b614567565b9050828152602081018484840111156136f4576136f3614a6d565b5b6136ff848285614848565b509392505050565b60008135905061371681614ed3565b92915050565b600082601f83011261373157613730614a63565b5b8135613741848260208601613585565b91505092915050565b600082601f83011261375f5761375e614a63565b5b813561376f848260208601613613565b91505092915050565b60008135905061378781614eea565b92915050565b60008135905061379c81614f01565b92915050565b6000815190506137b181614f01565b92915050565b600082601f8301126137cc576137cb614a63565b5b81356137dc848260208601613683565b91505092915050565b600082601f8301126137fa576137f9614a63565b5b813561380a8482602086016136c5565b91505092915050565b60008135905061382281614f18565b92915050565b60008135905061383781614f2f565b92915050565b60006020828403121561385357613852614a77565b5b600061386184828501613707565b91505092915050565b6000806040838503121561388157613880614a77565b5b600061388f85828601613707565b92505060206138a085828601613707565b9150509250929050565b6000806000606084860312156138c3576138c2614a77565b5b60006138d186828701613707565b93505060206138e286828701613707565b92505060406138f386828701613813565b9150509250925092565b6000806000806080858703121561391757613916614a77565b5b600061392587828801613707565b945050602061393687828801613707565b935050604061394787828801613813565b925050606085013567ffffffffffffffff81111561396857613967614a72565b5b613974878288016137b7565b91505092959194509250565b6000806040838503121561399757613996614a77565b5b60006139a585828601613707565b92505060206139b685828601613778565b9150509250929050565b600080604083850312156139d7576139d6614a77565b5b60006139e585828601613707565b92505060206139f685828601613813565b9150509250929050565b600060208284031215613a1657613a15614a77565b5b6000613a248482850161378d565b91505092915050565b600060208284031215613a4357613a42614a77565b5b6000613a51848285016137a2565b91505092915050565b600080600080600060a08688031215613a7657613a75614a77565b5b600086013567ffffffffffffffff811115613a9457613a93614a72565b5b613aa0888289016137e5565b955050602086013567ffffffffffffffff811115613ac157613ac0614a72565b5b613acd888289016137e5565b945050604086013567ffffffffffffffff811115613aee57613aed614a72565b5b613afa888289016137e5565b935050606086013567ffffffffffffffff811115613b1b57613b1a614a72565b5b613b27888289016137e5565b9250506080613b3888828901613813565b9150509295509295909350565b600060208284031215613b5b57613b5a614a77565b5b6000613b6984828501613813565b91505092915050565b60008060008060008060c08789031215613b8f57613b8e614a77565b5b6000613b9d89828a01613828565b965050602087013567ffffffffffffffff811115613bbe57613bbd614a72565b5b613bca89828a0161371c565b955050604087013567ffffffffffffffff811115613beb57613bea614a72565b5b613bf789828a0161371c565b945050606087013567ffffffffffffffff811115613c1857613c17614a72565b5b613c2489828a0161371c565b935050608087013567ffffffffffffffff811115613c4557613c44614a72565b5b613c5189828a016137e5565b92505060a087013567ffffffffffffffff811115613c7257613c71614a72565b5b613c7e89828a0161374a565b9150509295509295509295565b6000613c97838361404d565b905092915050565b613ca88161479f565b82525050565b6000613cb982614656565b613cc38185614684565b935083602082028501613cd585614646565b8060005b85811015613d115784840389528151613cf28582613c8b565b9450613cfd83614677565b925060208a01995050600181019050613cd9565b50829750879550505050505092915050565b613d2c816147b1565b82525050565b6000613d3d82614661565b613d478185614695565b9350613d57818560208601614857565b613d6081614a7c565b840191505092915050565b613d7481614836565b82525050565b6000613d858261466c565b613d8f81856146a6565b9350613d9f818560208601614857565b613da881614a7c565b840191505092915050565b6000613dbe8261466c565b613dc881856146b7565b9350613dd8818560208601614857565b613de181614a7c565b840191505092915050565b6000613df78261466c565b613e0181856146c8565b9350613e11818560208601614857565b80840191505092915050565b6000613e2a602d836146b7565b9150613e3582614a8d565b604082019050919050565b6000613e4d602b836146b7565b9150613e5882614adc565b604082019050919050565b6000613e706032836146b7565b9150613e7b82614b2b565b604082019050919050565b6000613e936026836146b7565b9150613e9e82614b7a565b604082019050919050565b6000613eb66025836146b7565b9150613ec182614bc9565b604082019050919050565b6000613ed9601c836146b7565b9150613ee482614c18565b602082019050919050565b6000613efc6024836146b7565b9150613f0782614c41565b604082019050919050565b6000613f1f6019836146b7565b9150613f2a82614c90565b602082019050919050565b6000613f426029836146b7565b9150613f4d82614cb9565b604082019050919050565b6000613f656020836146b7565b9150613f7082614d08565b602082019050919050565b6000613f886020836146b7565b9150613f9382614d31565b602082019050919050565b6000613fab6018836146b7565b9150613fb682614d5a565b602082019050919050565b6000613fce6021836146b7565b9150613fd982614d83565b604082019050919050565b6000613ff1603d836146b7565b9150613ffc82614dd2565b604082019050919050565b6000614014602c836146b7565b915061401f82614e21565b604082019050919050565b60006140376035836146b7565b915061404282614e70565b604082019050919050565b600060c083016000830151848203600086015261406a8282613d7a565b915050602083015184820360208601526140848282613d7a565b9150506040830151848203604086015261409e8282613d7a565b915050606083015184820360608601526140b88282613d7a565b91505060808301516140cd6080860182613d6b565b5060a08301516140e060a0860182614189565b508091505092915050565b600060c08301600083015184820360008601526141088282613d7a565b915050602083015184820360208601526141228282613d7a565b9150506040830151848203604086015261413c8282613d7a565b915050606083015184820360608601526141568282613d7a565b915050608083015161416b6080860182613d6b565b5060a083015161417e60a0860182614189565b508091505092915050565b6141928161481c565b82525050565b6141a18161481c565b82525050565b6141b081614826565b82525050565b60006141c28285613dec565b91506141ce8284613dec565b91508190509392505050565b60006020820190506141ef6000830184613c9f565b92915050565b600060808201905061420a6000830187613c9f565b6142176020830186613c9f565b6142246040830185614198565b81810360608301526142368184613d32565b905095945050505050565b6000602082019050818103600083015261425b8184613cae565b905092915050565b60006020820190506142786000830184613d23565b92915050565b600060208201905081810360008301526142988184613db3565b905092915050565b600060a08201905081810360008301526142ba8188613db3565b905081810360208301526142ce8187613db3565b905081810360408301526142e28186613db3565b905081810360608301526142f68185613db3565b90506143056080830184614198565b9695505050505050565b6000602082019050818103600083015261432881613e1d565b9050919050565b6000602082019050818103600083015261434881613e40565b9050919050565b6000602082019050818103600083015261436881613e63565b9050919050565b6000602082019050818103600083015261438881613e86565b9050919050565b600060208201905081810360008301526143a881613ea9565b9050919050565b600060208201905081810360008301526143c881613ecc565b9050919050565b600060208201905081810360008301526143e881613eef565b9050919050565b6000602082019050818103600083015261440881613f12565b9050919050565b6000602082019050818103600083015261442881613f35565b9050919050565b6000602082019050818103600083015261444881613f58565b9050919050565b6000602082019050818103600083015261446881613f7b565b9050919050565b6000602082019050818103600083015261448881613f9e565b9050919050565b600060208201905081810360008301526144a881613fc1565b9050919050565b600060208201905081810360008301526144c881613fe4565b9050919050565b600060208201905081810360008301526144e881614007565b9050919050565b600060208201905081810360008301526145088161402a565b9050919050565b6000602082019050818103600083015261452981846140eb565b905092915050565b60006020820190506145466000830184614198565b92915050565b600060208201905061456160008301846141a7565b92915050565b6000614571614582565b905061457d82826148bc565b919050565b6000604051905090565b600067ffffffffffffffff8211156145a7576145a6614a34565b5b602082029050602081019050919050565b600067ffffffffffffffff8211156145d3576145d2614a34565b5b602082029050602081019050919050565b600067ffffffffffffffff8211156145ff576145fe614a34565b5b61460882614a7c565b9050602081019050919050565b600067ffffffffffffffff8211156146305761462f614a34565b5b61463982614a7c565b9050602081019050919050565b6000819050602082019050919050565b600081519050919050565b600081519050919050565b600081519050919050565b6000602082019050919050565b600082825260208201905092915050565b600082825260208201905092915050565b600082825260208201905092915050565b600082825260208201905092915050565b600081905092915050565b60006146de8261481c565b91506146e98361481c565b9250817fffffffffffffffffffffffffffffffffffffffffffffffffffffffffffffffff04831182151516156147225761472161491a565b5b828202905092915050565b600061473882614826565b915061474383614826565b92508163ffffffff04831182151516156147605761475f61491a565b5b828202905092915050565b60006147768261481c565b91506147818361481c565b9250828210156147945761479361491a565b5b828203905092915050565b60006147aa826147fc565b9050919050565b60008115159050919050565b60007fffffffff0000000000000000000000000000000000000000000000000000000082169050919050565b60008190506147f782614ebf565b919050565b600073ffffffffffffffffffffffffffffffffffffffff82169050919050565b6000819050919050565b600063ffffffff82169050919050565b6000614841826147e9565b9050919050565b82818337600083830152505050565b60005b8381101561487557808201518184015260208101905061485a565b83811115614884576000848401525b50505050565b600060028204905060018216806148a257607f821691505b602082108114156148b6576148b56149a7565b5b50919050565b6148c582614a7c565b810181811067ffffffffffffffff821117156148e4576148e3614a34565b5b80604052505050565b60006148f882614826565b915063ffffffff82141561490f5761490e61491a565b5b600182019050919050565b7f4e487b7100000000000000000000000000000000000000000000000000000000600052601160045260246000fd5b7f4e487b7100000000000000000000000000000000000000000000000000000000600052601260045260246000fd5b7f4e487b7100000000000000000000000000000000000000000000000000000000600052602160045260246000fd5b7f4e487b7100000000000000000000000000000000000000000000000000000000600052602260045260246000fd5b7f4e487b7100000000000000000000000000000000000000000000000000000000600052603160045260246000fd5b7f4e487b7100000000000000000000000000000000000000000000000000000000600052603260045260246000fd5b7f4e487b7100000000000000000000000000000000000000000000000000000000600052604160045260246000fd5b600080fd5b600080fd5b600080fd5b600080fd5b600080fd5b6000601f19601f8301169050919050565b7f4552433732313a2063616c6c6572206973206e6f7420746f6b656e206f776e6560008201527f72206f7220617070726f76656400000000000000000000000000000000000000602082015250565b7f455243373231456e756d657261626c653a206f776e657220696e646578206f7560008201527f74206f6620626f756e6473000000000000000000000000000000000000000000602082015250565b7f4552433732313a207472616e7366657220746f206e6f6e20455243373231526560008201527f63656976657220696d706c656d656e7465720000000000000000000000000000602082015250565b7f4f776e61626c653a206e6577206f776e657220697320746865207a65726f206160008201527f6464726573730000000000000000000000000000000000000000000000000000602082015250565b7f4552433732313a207472616e736665722066726f6d20696e636f72726563742060008201527f6f776e6572000000000000000000000000000000000000000000000000000000602082015250565b7f4552433732313a20746f6b656e20616c7265616479206d696e74656400000000600082015250565b7f4552433732313a207472616e7366657220746f20746865207a65726f2061646460008201527f7265737300000000000000000000000000000000000000000000000000000000602082015250565b7f4552433732313a20617070726f766520746f2063616c6c657200000000000000600082015250565b7f4552433732313a2061646472657373207a65726f206973206e6f74206120766160008201527f6c6964206f776e65720000000000000000000000000000000000000000000000602082015250565b7f4552433732313a206d696e7420746f20746865207a65726f2061646472657373600082015250565b7f4f776e61626c653a2063616c6c6572206973206e6f7420746865206f776e6572600082015250565b7f4552433732313a20696e76616c696420746f6b656e2049440000000000000000600082015250565b7f4552433732313a20617070726f76616c20746f2063757272656e74206f776e6560008201527f7200000000000000000000000000000000000000000000000000000000000000602082015250565b7f4552433732313a20617070726f76652063616c6c6572206973206e6f7420746f60008201527f6b656e206f776e6572206f7220617070726f76656420666f7220616c6c000000602082015250565b7f455243373231456e756d657261626c653a20676c6f62616c20696e646578206f60008201527f7574206f6620626f756e64730000000000000000000000000000000000000000602082015250565b7f455243373231456e756d657261626c653a20636f6e736563757469766520747260008201527f616e7366657273206e6f7420737570706f727465640000000000000000000000602082015250565b60028110614ed057614ecf614978565b5b50565b614edc8161479f565b8114614ee757600080fd5b50565b614ef3816147b1565b8114614efe57600080fd5b50565b614f0a816147bd565b8114614f1557600080fd5b50565b614f218161481c565b8114614f2c57600080fd5b50565b614f3881614826565b8114614f4357600080fd5b5056fea2646970667358221220d50c8bac2a374984a13749b11924c9bb5938cd8c0662df6bd80fd5f3c489aac764736f6c63430008070033",
  "linkReferences": {},
  "deployedLinkReferences": {}
}